{
  "_format": "hh-sol-artifact-1",
  "contractName": "DiegoCorpNFT",
  "sourceName": "contracts/DiegoCorpNFT.sol",
  "abi": [
    {
      "inputs": [
        {
          "internalType": "string",
          "name": "name_",
          "type": "string"
        },
        {
          "internalType": "string",
          "name": "symbol_",
          "type": "string"
        }
      ],
      "stateMutability": "nonpayable",
      "type": "constructor"
    },
    {
      "anonymous": false,
      "inputs": [
        {
          "indexed": true,
          "internalType": "address",
          "name": "owner",
          "type": "address"
        },
        {
          "indexed": true,
          "internalType": "address",
          "name": "approved",
          "type": "address"
        },
        {
          "indexed": true,
          "internalType": "uint256",
          "name": "tokenId",
          "type": "uint256"
        }
      ],
      "name": "Approval",
      "type": "event"
    },
    {
      "anonymous": false,
      "inputs": [
        {
          "indexed": true,
          "internalType": "address",
          "name": "owner",
          "type": "address"
        },
        {
          "indexed": true,
          "internalType": "address",
          "name": "operator",
          "type": "address"
        },
        {
          "indexed": false,
          "internalType": "bool",
          "name": "approved",
          "type": "bool"
        }
      ],
      "name": "ApprovalForAll",
      "type": "event"
    },
    {
      "anonymous": false,
      "inputs": [
        {
          "indexed": true,
          "internalType": "address",
          "name": "from",
          "type": "address"
        },
        {
          "indexed": true,
          "internalType": "address",
          "name": "to",
          "type": "address"
        },
        {
          "indexed": true,
          "internalType": "uint256",
          "name": "tokenId",
          "type": "uint256"
        }
      ],
      "name": "Transfer",
      "type": "event"
    },
    {
      "inputs": [
        {
          "internalType": "uint256",
          "name": "carpeta",
          "type": "uint256"
        },
        {
          "internalType": "string",
          "name": "clase_",
          "type": "string"
        }
      ],
      "name": "_addClase",
      "outputs": [],
      "stateMutability": "nonpayable",
      "type": "function"
    },
    {
      "inputs": [
        {
          "internalType": "uint256",
          "name": "tokenId",
          "type": "uint256"
        }
      ],
      "name": "_downgrade",
      "outputs": [],
      "stateMutability": "nonpayable",
      "type": "function"
    },
    {
      "inputs": [
        {
          "internalType": "uint256",
          "name": "tokenId",
          "type": "uint256"
        }
      ],
      "name": "_getColor",
      "outputs": [
        {
          "internalType": "uint256",
          "name": "",
          "type": "uint256"
        }
      ],
      "stateMutability": "view",
      "type": "function"
    },
    {
      "inputs": [
        {
          "internalType": "address",
          "name": "to",
          "type": "address"
        }
      ],
      "name": "_mintTokenAllowedToEarn",
      "outputs": [],
      "stateMutability": "nonpayable",
      "type": "function"
    },
    {
      "inputs": [
        {
          "internalType": "address",
          "name": "to",
          "type": "address"
        }
      ],
      "name": "_mintTokenNotAllowedToEarn",
      "outputs": [],
      "stateMutability": "nonpayable",
      "type": "function"
    },
    {
      "inputs": [
        {
          "internalType": "address",
          "name": "from",
          "type": "address"
        },
        {
          "internalType": "address",
          "name": "to",
          "type": "address"
        },
        {
          "internalType": "uint256",
          "name": "tokenId",
          "type": "uint256"
        },
        {
          "internalType": "bytes",
          "name": "data",
          "type": "bytes"
        }
      ],
      "name": "_safeTransfer",
      "outputs": [],
      "stateMutability": "nonpayable",
      "type": "function"
    },
    {
      "inputs": [
        {
          "internalType": "string",
          "name": "newBaseURI",
          "type": "string"
        }
      ],
      "name": "_setBaseURI",
      "outputs": [],
      "stateMutability": "nonpayable",
      "type": "function"
    },
    {
      "inputs": [
        {
          "internalType": "uint256",
          "name": "l",
          "type": "uint256"
        },
        {
          "internalType": "uint256[]",
          "name": "dorados",
          "type": "uint256[]"
        }
      ],
      "name": "_setDorados",
      "outputs": [],
      "stateMutability": "nonpayable",
      "type": "function"
    },
    {
      "inputs": [
        {
          "internalType": "uint256",
          "name": "newmod",
          "type": "uint256"
        }
      ],
      "name": "_setMod",
      "outputs": [],
      "stateMutability": "nonpayable",
      "type": "function"
    },
    {
      "inputs": [
        {
          "internalType": "uint256",
          "name": "l",
          "type": "uint256"
        },
        {
          "internalType": "uint256[]",
          "name": "morados",
          "type": "uint256[]"
        }
      ],
      "name": "_setMorados",
      "outputs": [],
      "stateMutability": "nonpayable",
      "type": "function"
    },
    {
      "inputs": [
        {
          "internalType": "string",
          "name": "newBaseURI",
          "type": "string"
        },
        {
          "internalType": "uint256[]",
          "name": "carpetas",
          "type": "uint256[]"
        },
        {
          "internalType": "string[]",
          "name": "clases_",
          "type": "string[]"
        },
        {
          "internalType": "uint256",
          "name": "lc",
          "type": "uint256"
        },
        {
          "internalType": "uint256",
          "name": "ld",
          "type": "uint256"
        },
        {
          "internalType": "uint256[]",
          "name": "dorados",
          "type": "uint256[]"
        },
        {
          "internalType": "uint256",
          "name": "lm",
          "type": "uint256"
        },
        {
          "internalType": "uint256[]",
          "name": "morados",
          "type": "uint256[]"
        }
      ],
      "name": "_setTanda",
      "outputs": [],
      "stateMutability": "nonpayable",
      "type": "function"
    },
    {
      "inputs": [
        {
          "internalType": "uint256",
          "name": "newlimite",
          "type": "uint256"
        }
      ],
      "name": "_setlimite",
      "outputs": [],
      "stateMutability": "nonpayable",
      "type": "function"
    },
    {
      "inputs": [
        {
          "internalType": "uint256",
          "name": "tokenId1",
          "type": "uint256"
        },
        {
          "internalType": "uint256",
          "name": "tokenId2",
          "type": "uint256"
        },
        {
          "internalType": "uint256",
          "name": "tokenId3",
          "type": "uint256"
        }
      ],
      "name": "_upgrade",
      "outputs": [],
      "stateMutability": "nonpayable",
      "type": "function"
    },
    {
      "inputs": [
        {
          "internalType": "address",
          "name": "to",
          "type": "address"
        },
        {
          "internalType": "uint256",
          "name": "tokenId",
          "type": "uint256"
        }
      ],
      "name": "approve",
      "outputs": [],
      "stateMutability": "nonpayable",
      "type": "function"
    },
    {
      "inputs": [],
      "name": "balance",
      "outputs": [
        {
          "internalType": "uint256",
          "name": "",
          "type": "uint256"
        }
      ],
      "stateMutability": "view",
      "type": "function"
    },
    {
      "inputs": [
        {
          "internalType": "address",
          "name": "owner",
          "type": "address"
        }
      ],
      "name": "balanceOf",
      "outputs": [
        {
          "internalType": "uint256",
          "name": "",
          "type": "uint256"
        }
      ],
      "stateMutability": "view",
      "type": "function"
    },
    {
      "inputs": [
        {
          "internalType": "uint256",
          "name": "tokenId",
          "type": "uint256"
        }
      ],
      "name": "claseToken",
      "outputs": [
        {
          "internalType": "string",
          "name": "",
          "type": "string"
        }
      ],
      "stateMutability": "view",
      "type": "function"
    },
    {
      "inputs": [
        {
          "internalType": "uint256",
          "name": "tokenId",
          "type": "uint256"
        }
      ],
      "name": "getApproved",
      "outputs": [
        {
          "internalType": "address",
          "name": "",
          "type": "address"
        }
      ],
      "stateMutability": "view",
      "type": "function"
    },
    {
      "inputs": [
        {
          "internalType": "uint256",
          "name": "tokenId",
          "type": "uint256"
        }
      ],
      "name": "isAllowedToEarn",
      "outputs": [
        {
          "internalType": "bool",
          "name": "",
          "type": "bool"
        }
      ],
      "stateMutability": "view",
      "type": "function"
    },
    {
      "inputs": [
        {
          "internalType": "address",
          "name": "owner",
          "type": "address"
        },
        {
          "internalType": "address",
          "name": "operator",
          "type": "address"
        }
      ],
      "name": "isApprovedForAll",
      "outputs": [
        {
          "internalType": "bool",
          "name": "",
          "type": "bool"
        }
      ],
      "stateMutability": "view",
      "type": "function"
    },
    {
      "inputs": [],
      "name": "limite",
      "outputs": [
        {
          "internalType": "uint256",
          "name": "",
          "type": "uint256"
        }
      ],
      "stateMutability": "view",
      "type": "function"
    },
    {
      "inputs": [],
      "name": "name",
      "outputs": [
        {
          "internalType": "string",
          "name": "",
          "type": "string"
        }
      ],
      "stateMutability": "view",
      "type": "function"
    },
    {
      "inputs": [
        {
          "internalType": "uint256",
          "name": "tokenId",
          "type": "uint256"
        }
      ],
      "name": "numClase",
      "outputs": [
        {
          "internalType": "string",
          "name": "",
          "type": "string"
        }
      ],
      "stateMutability": "view",
      "type": "function"
    },
    {
      "inputs": [
        {
          "internalType": "uint256",
          "name": "tokenId",
          "type": "uint256"
        }
      ],
      "name": "ownerOf",
      "outputs": [
        {
          "internalType": "address",
          "name": "",
          "type": "address"
        }
      ],
      "stateMutability": "view",
      "type": "function"
    },
    {
      "inputs": [
        {
          "internalType": "address",
          "name": "from",
          "type": "address"
        },
        {
          "internalType": "address",
          "name": "to",
          "type": "address"
        },
        {
          "internalType": "uint256",
          "name": "tokenId",
          "type": "uint256"
        }
      ],
      "name": "safeTransferFrom",
      "outputs": [],
      "stateMutability": "nonpayable",
      "type": "function"
    },
    {
      "inputs": [
        {
          "internalType": "address",
          "name": "from",
          "type": "address"
        },
        {
          "internalType": "address",
          "name": "to",
          "type": "address"
        },
        {
          "internalType": "uint256",
          "name": "tokenId",
          "type": "uint256"
        },
        {
          "internalType": "bytes",
          "name": "data",
          "type": "bytes"
        }
      ],
      "name": "safeTransferFrom",
      "outputs": [],
      "stateMutability": "nonpayable",
      "type": "function"
    },
    {
      "inputs": [
        {
          "internalType": "address",
          "name": "operator",
          "type": "address"
        },
        {
          "internalType": "bool",
          "name": "approved",
          "type": "bool"
        }
      ],
      "name": "setApprovalForAll",
      "outputs": [],
      "stateMutability": "nonpayable",
      "type": "function"
    },
    {
      "inputs": [
        {
          "internalType": "bytes4",
          "name": "interfaceId",
          "type": "bytes4"
        }
      ],
      "name": "supportsInterface",
      "outputs": [
        {
          "internalType": "bool",
          "name": "",
          "type": "bool"
        }
      ],
      "stateMutability": "view",
      "type": "function"
    },
    {
      "inputs": [],
      "name": "symbol",
      "outputs": [
        {
          "internalType": "string",
          "name": "",
          "type": "string"
        }
      ],
      "stateMutability": "view",
      "type": "function"
    },
    {
      "inputs": [
        {
          "internalType": "uint256",
          "name": "tokenId",
          "type": "uint256"
        }
      ],
      "name": "tokenURI",
      "outputs": [
        {
          "internalType": "string",
          "name": "",
          "type": "string"
        }
      ],
      "stateMutability": "view",
      "type": "function"
    },
    {
      "inputs": [
        {
          "internalType": "address",
          "name": "from",
          "type": "address"
        },
        {
          "internalType": "address",
          "name": "to",
          "type": "address"
        },
        {
          "internalType": "uint256",
          "name": "tokenId",
          "type": "uint256"
        }
      ],
      "name": "transferFrom",
      "outputs": [],
      "stateMutability": "nonpayable",
      "type": "function"
    }
  ],
  "bytecode": "0x608060405260405180608001604052806043815260200162005e49604391396007908051906020019062000035929190620000b2565b50600880556103e8600a556000600d553480156200005257600080fd5b5060405162005e8c38038062005e8c8339818101604052810190620000789190620002ff565b816000908051906020019062000090929190620000b2565b508060019080519060200190620000a9929190620000b2565b505050620003e9565b828054620000c090620003b3565b90600052602060002090601f016020900481019282620000e4576000855562000130565b82601f10620000ff57805160ff191683800117855562000130565b8280016001018555821562000130579182015b828111156200012f57825182559160200191906001019062000112565b5b5090506200013f919062000143565b5090565b5b808211156200015e57600081600090555060010162000144565b5090565b6000604051905090565b600080fd5b600080fd5b600080fd5b600080fd5b6000601f19601f8301169050919050565b7f4e487b7100000000000000000000000000000000000000000000000000000000600052604160045260246000fd5b620001cb8262000180565b810181811067ffffffffffffffff82111715620001ed57620001ec62000191565b5b80604052505050565b60006200020262000162565b9050620002108282620001c0565b919050565b600067ffffffffffffffff82111562000233576200023262000191565b5b6200023e8262000180565b9050602081019050919050565b60005b838110156200026b5780820151818401526020810190506200024e565b838111156200027b576000848401525b50505050565b600062000298620002928462000215565b620001f6565b905082815260208101848484011115620002b757620002b66200017b565b5b620002c48482856200024b565b509392505050565b600082601f830112620002e457620002e362000176565b5b8151620002f684826020860162000281565b91505092915050565b600080604083850312156200031957620003186200016c565b5b600083015167ffffffffffffffff8111156200033a576200033962000171565b5b6200034885828601620002cc565b925050602083015167ffffffffffffffff8111156200036c576200036b62000171565b5b6200037a85828601620002cc565b9150509250929050565b7f4e487b7100000000000000000000000000000000000000000000000000000000600052602260045260246000fd5b60006002820490506001821680620003cc57607f821691505b60208210811415620003e357620003e262000384565b5b50919050565b615a5080620003f96000396000f3fe608060405234801561001057600080fd5b50600436106101e55760003560e01c80637bafd87e1161010f578063bf5da0c5116100a2578063d572c38f11610071578063d572c38f14610586578063dca77ad2146105b6578063e985e9c5146105d2578063ef0b230714610602576101e5565b8063bf5da0c5146104ee578063c70ccab61461050a578063c87b56dd14610526578063cb9375d314610556576101e5565b8063a22cb465116100de578063a22cb4651461047c578063ac12914f14610498578063b69ef8a8146104b4578063b88d4fde146104d2576101e5565b80637bafd87e146103f65780638527788a1461042657806385dd90331461044257806395d89b411461045e576101e5565b806331b5b9071161018757806359b17c5e1161015657806359b17c5e1461035e5780636352211e1461037a5780636f52598b146103aa57806370a08231146103c6576101e5565b806331b5b907146102da57806342842e0e146102f65780634e72a6fa146103125780634e7c41db14610342576101e5565b8063095ea7b3116101c3578063095ea7b31461026857806320eb8e531461028457806323b872dd146102a257806324b6b8c0146102be576101e5565b806301ffc9a7146101ea57806306fdde031461021a578063081812fc14610238575b600080fd5b61020460048036038101906101ff919061425f565b61061e565b60405161021191906142a7565b60405180910390f35b610222610700565b60405161022f919061435b565b60405180910390f35b610252600480360381019061024d91906143b3565b610792565b60405161025f9190614421565b60405180910390f35b610282600480360381019061027d9190614468565b6107d8565b005b61028c6108f0565b60405161029991906144b7565b60405180910390f35b6102bc60048036038101906102b791906144d2565b6108f6565b005b6102d860048036038101906102d3919061465a565b610956565b005b6102f460048036038101906102ef919061477e565b6109b2565b005b610310600480360381019061030b91906144d2565b6109cc565b005b61032c600480360381019061032791906143b3565b6109ec565b604051610339919061435b565b60405180910390f35b61035c600480360381019061035791906147c7565b610a97565b005b6103786004803603810190610373919061481a565b610f89565b005b610394600480360381019061038f91906143b3565b610fc3565b6040516103a19190614421565b60405180910390f35b6103c460048036038101906103bf919061481a565b61104a565b005b6103e060048036038101906103db919061481a565b611084565b6040516103ed91906144b7565b60405180910390f35b610410600480360381019061040b91906143b3565b61113c565b60405161041d91906142a7565b60405180910390f35b610440600480360381019061043b919061490f565b611175565b005b61045c600480360381019061045791906143b3565b6111f1565b005b6104666111fb565b604051610473919061435b565b60405180910390f35b61049660048036038101906104919190614997565b61128d565b005b6104b260048036038101906104ad9190614ab8565b6112a3565b005b6104bc61133f565b6040516104c991906144b7565b60405180910390f35b6104ec60048036038101906104e7919061465a565b611349565b005b610508600480360381019061050391906143b3565b6113ab565b005b610524600480360381019061051f91906143b3565b6113b5565b005b610540600480360381019061053b91906143b3565b6119c5565b60405161054d919061435b565b60405180910390f35b610570600480360381019061056b91906143b3565b611a79565b60405161057d919061435b565b60405180910390f35b6105a0600480360381019061059b91906143b3565b611b24565b6040516105ad91906144b7565b60405180910390f35b6105d060048036038101906105cb9190614bfa565b611b41565b005b6105ec60048036038101906105e79190614c56565b611b6d565b6040516105f991906142a7565b60405180910390f35b61061c6004803603810190610617919061490f565b611c01565b005b60007f80ac58cd000000000000000000000000000000000000000000000000000000007bffffffffffffffffffffffffffffffffffffffffffffffffffffffff1916827bffffffffffffffffffffffffffffffffffffffffffffffffffffffff191614806106e957507f5b5e139f000000000000000000000000000000000000000000000000000000007bffffffffffffffffffffffffffffffffffffffffffffffffffffffff1916827bffffffffffffffffffffffffffffffffffffffffffffffffffffffff1916145b806106f957506106f882611c7d565b5b9050919050565b60606000805461070f90614cc5565b80601f016020809104026020016040519081016040528092919081815260200182805461073b90614cc5565b80156107885780601f1061075d57610100808354040283529160200191610788565b820191906000526020600020905b81548152906001019060200180831161076b57829003601f168201915b5050505050905090565b600061079d82611ce7565b6004600083815260200190815260200160002060009054906101000a900473ffffffffffffffffffffffffffffffffffffffff169050919050565b60006107e382610fc3565b90508073ffffffffffffffffffffffffffffffffffffffff168373ffffffffffffffffffffffffffffffffffffffff161415610854576040517f08c379a000000000000000000000000000000000000000000000000000000000815260040161084b90614d69565b60405180910390fd5b8073ffffffffffffffffffffffffffffffffffffffff16610873611d32565b73ffffffffffffffffffffffffffffffffffffffff1614806108a257506108a18161089c611d32565b611b6d565b5b6108e1576040517f08c379a00000000000000000000000000000000000000000000000000000000081526004016108d890614dfb565b60405180910390fd5b6108eb8383611d3a565b505050565b600a5481565b610907610901611d32565b82611df3565b610946576040517f08c379a000000000000000000000000000000000000000000000000000000000815260040161093d90614e8d565b60405180910390fd5b610951838383611e88565b505050565b610961848484611e88565b61096d8484848461217e565b6109ac576040517f08c379a00000000000000000000000000000000000000000000000000000000081526004016109a390614f1f565b60405180910390fd5b50505050565b80600790805190602001906109c8929190614043565b5050565b6109e783838360405180602001604052806000815250611349565b505050565b60606000600f60008481526020019081526020016000208054610a0e90614cc5565b80601f0160208091040260200160405190810160405280929190818152602001828054610a3a90614cc5565b8015610a875780601f10610a5c57610100808354040283529160200191610a87565b820191906000526020600020905b815481529060010190602001808311610a6a57829003601f168201915b5050505050905080915050919050565b600c600083815260200190815260200160002060009054906101000a900460ff1660ff16600c600085815260200190815260200160002060009054906101000a900460ff1660ff16148015610b315750600c600082815260200190815260200160002060009054906101000a900460ff1660ff16600c600085815260200190815260200160002060009054906101000a900460ff1660ff16145b610b70576040517f08c379a0000000000000000000000000000000000000000000000000000000008152600401610b6790614fb1565b60405180910390fd5b600b600083815260200190815260200160002060009054906101000a900460ff161515600b600085815260200190815260200160002060009054906101000a900460ff161515148015610c065750600b600082815260200190815260200160002060009054906101000a900460ff161515600b600085815260200190815260200160002060009054906101000a900460ff161515145b610c45576040517f08c379a0000000000000000000000000000000000000000000000000000000008152600401610c3c90615043565b60405180910390fd5b6012600084815260200190815260200160002060009054906101000a900460ff161580610c9057506012600083815260200190815260200160002060009054906101000a900460ff16155b80610cb957506012600082815260200190815260200160002060009054906101000a900460ff16155b610cf8576040517f08c379a0000000000000000000000000000000000000000000000000000000008152600401610cef906150af565b60405180910390fd5b6003600c600085815260200190815260200160002060009054906101000a900460ff1660ff161415610d5f576040517f08c379a0000000000000000000000000000000000000000000000000000000008152600401610d569061511b565b60405180910390fd5b6002600083815260200190815260200160002060009054906101000a900473ffffffffffffffffffffffffffffffffffffffff1673ffffffffffffffffffffffffffffffffffffffff166002600085815260200190815260200160002060009054906101000a900473ffffffffffffffffffffffffffffffffffffffff1673ffffffffffffffffffffffffffffffffffffffff16148015610e9157506002600082815260200190815260200160002060009054906101000a900473ffffffffffffffffffffffffffffffffffffffff1673ffffffffffffffffffffffffffffffffffffffff166002600085815260200190815260200160002060009054906101000a900473ffffffffffffffffffffffffffffffffffffffff1673ffffffffffffffffffffffffffffffffffffffff16145b8015610efb57503373ffffffffffffffffffffffffffffffffffffffff166002600085815260200190815260200160002060009054906101000a900473ffffffffffffffffffffffffffffffffffffffff1673ffffffffffffffffffffffffffffffffffffffff16145b610f3a576040517f08c379a0000000000000000000000000000000000000000000000000000000008152600401610f3190615187565b60405180910390fd5b6001600c600085815260200190815260200160002060009054906101000a900460ff1660ff161415610f7757610f7233848484612315565b610f84565b610f8333848484612834565b5b505050565b610f9281612f78565b6000600b6000600954815260200190815260200160002060006101000a81548160ff02191690831515021790555050565b600080610fcf83612f94565b9050600073ffffffffffffffffffffffffffffffffffffffff168173ffffffffffffffffffffffffffffffffffffffff161415611041576040517f08c379a0000000000000000000000000000000000000000000000000000000008152600401611038906151f3565b60405180910390fd5b80915050919050565b61105381612f78565b6001600b6000600954815260200190815260200160002060006101000a81548160ff02191690831515021790555050565b60008073ffffffffffffffffffffffffffffffffffffffff168273ffffffffffffffffffffffffffffffffffffffff1614156110f5576040517f08c379a00000000000000000000000000000000000000000000000000000000081526004016110ec90615285565b60405180910390fd5b600360008373ffffffffffffffffffffffffffffffffffffffff1673ffffffffffffffffffffffffffffffffffffffff168152602001908152602001600020549050919050565b600061114782611ce7565b6000600b600084815260200190815260200160002060009054906101000a900460ff16905080915050919050565b60005b828110156111ec57600160146000600d54815260200190815260200160002060008484815181106111ac576111ab6152a5565b5b6020026020010151815260200190815260200160002060006101000a81548160ff02191690831515021790555080806111e490615303565b915050611178565b505050565b80600a8190555050565b60606001805461120a90614cc5565b80601f016020809104026020016040519081016040528092919081815260200182805461123690614cc5565b80156112835780601f1061125857610100808354040283529160200191611283565b820191906000526020600020905b81548152906001019060200180831161126657829003601f168201915b5050505050905090565b61129f611298611d32565b8383612fd1565b5050565b600d60008154809291906112b690615303565b919050555060005b85811015611317576113048882815181106112dc576112db6152a5565b5b60200260200101518883815181106112f7576112f66152a5565b5b6020026020010151611b41565b808061130f90615303565b9150506112be565b506113228484611175565b61132c8282611c01565b611335886109b2565b5050505050505050565b6000600954905090565b61135a611354611d32565b83611df3565b611399576040517f08c379a000000000000000000000000000000000000000000000000000000000815260040161139090614e8d565b60405180910390fd5b6113a584848484610956565b50505050565b8060088190555050565b6001600c600083815260200190815260200160002060009054906101000a900460ff1660ff161161141b576040517f08c379a0000000000000000000000000000000000000000000000000000000008152600401611412906153be565b60405180910390fd5b3373ffffffffffffffffffffffffffffffffffffffff166002600083815260200190815260200160002060009054906101000a900473ffffffffffffffffffffffffffffffffffffffff1673ffffffffffffffffffffffffffffffffffffffff16146114bc576040517f08c379a00000000000000000000000000000000000000000000000000000000081526004016114b39061542a565b60405180910390fd5b600060126000601160008581526020019081526020016000206000600381106114e8576114e76152a5565b5b0154815260200190815260200160002060006101000a81548160ff0219169083151502179055506000601260006011600085815260200190815260200160002060016003811061153b5761153a6152a5565b5b0154815260200190815260200160002060006101000a81548160ff0219169083151502179055506000601260006011600085815260200190815260200160002060026003811061158e5761158d6152a5565b5b0154815260200190815260200160002060006101000a81548160ff0219169083151502179055503373ffffffffffffffffffffffffffffffffffffffff1660026000601160008581526020019081526020016000206000600381106115f6576115f56152a5565b5b0154815260200190815260200160002060009054906101000a900473ffffffffffffffffffffffffffffffffffffffff1673ffffffffffffffffffffffffffffffffffffffff16146119b957600460006011600084815260200190815260200160002060006003811061166c5761166b6152a5565b5b0154815260200190815260200160002060006101000a81549073ffffffffffffffffffffffffffffffffffffffff021916905560046000601160008481526020019081526020016000206001600381106116c9576116c86152a5565b5b0154815260200190815260200160002060006101000a81549073ffffffffffffffffffffffffffffffffffffffff02191690556004600060116000848152602001908152602001600020600260038110611726576117256152a5565b5b0154815260200190815260200160002060006101000a81549073ffffffffffffffffffffffffffffffffffffffff021916905560038060006002600060116000878152602001908152602001600020600060038110611788576117876152a5565b5b0154815260200190815260200160002060009054906101000a900473ffffffffffffffffffffffffffffffffffffffff1673ffffffffffffffffffffffffffffffffffffffff1673ffffffffffffffffffffffffffffffffffffffff1681526020019081526020016000206000828254039250508190555060038060003373ffffffffffffffffffffffffffffffffffffffff1673ffffffffffffffffffffffffffffffffffffffff16815260200190815260200160002060008282540192505081905550336002600060116000858152602001908152602001600020600060038110611878576118776152a5565b5b0154815260200190815260200160002060006101000a81548173ffffffffffffffffffffffffffffffffffffffff021916908373ffffffffffffffffffffffffffffffffffffffff1602179055503360026000601160008581526020019081526020016000206001600381106118f1576118f06152a5565b5b0154815260200190815260200160002060006101000a81548173ffffffffffffffffffffffffffffffffffffffff021916908373ffffffffffffffffffffffffffffffffffffffff16021790555033600260006011600085815260200190815260200160002060026003811061196a576119696152a5565b5b0154815260200190815260200160002060006101000a81548173ffffffffffffffffffffffffffffffffffffffff021916908373ffffffffffffffffffffffffffffffffffffffff1602179055505b6119c28161313e565b50565b60606119d082611ce7565b60006006600084815260200190815260200160002080546119f090614cc5565b80601f0160208091040260200160405190810160405280929190818152602001828054611a1c90614cc5565b8015611a695780601f10611a3e57610100808354040283529160200191611a69565b820191906000526020600020905b815481529060010190602001808311611a4c57829003601f168201915b5050505050905080915050919050565b60606000600f60008481526020019081526020016000208054611a9b90614cc5565b80601f0160208091040260200160405190810160405280929190818152602001828054611ac790614cc5565b8015611b145780601f10611ae957610100808354040283529160200191611b14565b820191906000526020600020905b815481529060010190602001808311611af757829003601f168201915b5050505050905080915050919050565b600060136000838152602001908152602001600020549050919050565b80601060008481526020019081526020016000209080519060200190611b68929190614043565b505050565b6000600560008473ffffffffffffffffffffffffffffffffffffffff1673ffffffffffffffffffffffffffffffffffffffff16815260200190815260200160002060008373ffffffffffffffffffffffffffffffffffffffff1673ffffffffffffffffffffffffffffffffffffffff16815260200190815260200160002060009054906101000a900460ff16905092915050565b60005b82811015611c7857600160156000600d5481526020019081526020016000206000848481518110611c3857611c376152a5565b5b6020026020010151815260200190815260200160002060006101000a81548160ff0219169083151502179055508080611c7090615303565b915050611c04565b505050565b60007f01ffc9a7000000000000000000000000000000000000000000000000000000007bffffffffffffffffffffffffffffffffffffffffffffffffffffffff1916827bffffffffffffffffffffffffffffffffffffffffffffffffffffffff1916149050919050565b611cf0816132cf565b611d2f576040517f08c379a0000000000000000000000000000000000000000000000000000000008152600401611d26906151f3565b60405180910390fd5b50565b600033905090565b816004600083815260200190815260200160002060006101000a81548173ffffffffffffffffffffffffffffffffffffffff021916908373ffffffffffffffffffffffffffffffffffffffff160217905550808273ffffffffffffffffffffffffffffffffffffffff16611dad83610fc3565b73ffffffffffffffffffffffffffffffffffffffff167f8c5be1e5ebec7d5bd14f71427d1e84f3dd0314c0f7b2291e5b200ac8c7c3b92560405160405180910390a45050565b600080611dff83610fc3565b90508073ffffffffffffffffffffffffffffffffffffffff168473ffffffffffffffffffffffffffffffffffffffff161480611e415750611e408185611b6d565b5b80611e7f57508373ffffffffffffffffffffffffffffffffffffffff16611e6784610792565b73ffffffffffffffffffffffffffffffffffffffff16145b91505092915050565b8273ffffffffffffffffffffffffffffffffffffffff16611ea882610fc3565b73ffffffffffffffffffffffffffffffffffffffff1614611efe576040517f08c379a0000000000000000000000000000000000000000000000000000000008152600401611ef5906154bc565b60405180910390fd5b600073ffffffffffffffffffffffffffffffffffffffff168273ffffffffffffffffffffffffffffffffffffffff161415611f6e576040517f08c379a0000000000000000000000000000000000000000000000000000000008152600401611f659061554e565b60405180910390fd5b611f79838383613310565b8273ffffffffffffffffffffffffffffffffffffffff16611f9982610fc3565b73ffffffffffffffffffffffffffffffffffffffff1614611fef576040517f08c379a0000000000000000000000000000000000000000000000000000000008152600401611fe6906154bc565b60405180910390fd5b6004600082815260200190815260200160002060006101000a81549073ffffffffffffffffffffffffffffffffffffffff02191690556001600360008573ffffffffffffffffffffffffffffffffffffffff1673ffffffffffffffffffffffffffffffffffffffff168152602001908152602001600020600082825403925050819055506001600360008473ffffffffffffffffffffffffffffffffffffffff1673ffffffffffffffffffffffffffffffffffffffff16815260200190815260200160002060008282540192505081905550816002600083815260200190815260200160002060006101000a81548173ffffffffffffffffffffffffffffffffffffffff021916908373ffffffffffffffffffffffffffffffffffffffff160217905550808273ffffffffffffffffffffffffffffffffffffffff168473ffffffffffffffffffffffffffffffffffffffff167fddf252ad1be2c89b69c2b068fc378daa952ba7f163c4a11628f55a4df523b3ef60405160405180910390a4612179838383613315565b505050565b600061219f8473ffffffffffffffffffffffffffffffffffffffff1661331a565b15612308578373ffffffffffffffffffffffffffffffffffffffff1663150b7a026121c8611d32565b8786866040518563ffffffff1660e01b81526004016121ea94939291906155c3565b602060405180830381600087803b15801561220457600080fd5b505af192505050801561223557506040513d601f19601f820116820180604052508101906122329190615624565b60015b6122b8573d8060008114612265576040519150601f19603f3d011682016040523d82523d6000602084013e61226a565b606091505b506000815114156122b0576040517f08c379a00000000000000000000000000000000000000000000000000000000081526004016122a790614f1f565b60405180910390fd5b805181602001fd5b63150b7a0260e01b7bffffffffffffffffffffffffffffffffffffffffffffffffffffffff1916817bffffffffffffffffffffffffffffffffffffffffffffffffffffffff19161491505061230d565b600190505b949350505050565b6000600667ffffffffffffffff8111156123325761233161452f565b5b6040519080825280602002602001820160405280156123605781602001602082028036833780820191505090505b5090508381600081518110612378576123776152a5565b5b6020026020010181815250508281600181518110612399576123986152a5565b5b60200260200101818152505081816002815181106123ba576123b96152a5565b5b6020026020010181815250506000600367ffffffffffffffff8111156123e3576123e261452f565b5b6040519080825280602002602001820160405280156124115781602001602082028036833780820191505090505b50905060008060005b60038110156125405760006013600087848151811061243c5761243b6152a5565b5b602002602001015181526020019081526020016000205414156124a25784818151811061246c5761246b6152a5565b5b6020026020010151848481518110612487576124866152a5565b5b602002602001018181525050828061249e90615303565b9350505b6001601360008784815181106124bb576124ba6152a5565b5b6020026020010151815260200190815260200160002054141561252d578481815181106124eb576124ea6152a5565b5b6020026020010151858360036125019190615651565b81518110612512576125116152a5565b5b602002602001018181525050818061252990615303565b9250505b808061253890615303565b91505061241a565b50606060008311156125c257612555886109ec565b61259b856001612573600160095461256d9190615651565b8861333d565b61257d91906156a7565b8151811061258e5761258d6152a5565b5b60200260200101516109ec565b6040516020016125ac929190615717565b6040516020818303038152906040529050612640565b6125cb886109ec565b61261d8660016125f560016009546125e39190615651565b8760036125f09190615651565b61333d565b6125ff91906156a7565b815181106126105761260f6152a5565b5b60200260200101516109ec565b60405160200161262e929190615717565b60405160208183030381529060405290505b60006040518060800160405280604481526020016159d760449139905060006040518060400160405280600481526020017f2e706e67000000000000000000000000000000000000000000000000000000008152509050600082846040516020016126ac929190615717565b604051602081830303815290604052826040516020016126cd929190615717565b60405160208183030381529060405290506126e88c82613524565b60405180606001604052808c81526020018b81526020018a8152506011600060095481526020019081526020016000209060036127269291906140c9565b50612780601160006009548152602001908152602001600020600380602002604051908101604052809291908260038015612776576020028201915b815481526020019060010190808311612762575b50505050506137af565b83600f6000600954815260200190815260200160002090805190602001906127a9929190614043565b506002600c6000600954815260200190815260200160002060006101000a81548160ff021916908360ff160217905550600b60008c815260200190815260200160002060009054906101000a900460ff16600b6000600954815260200190815260200160002060006101000a81548160ff021916908315150217905550505050505050505050505050565b6000601267ffffffffffffffff8111156128515761285061452f565b5b60405190808252806020026020018201604052801561287f5781602001602082028036833780820191505090505b509050601160008581526020019081526020016000206000600381106128a8576128a76152a5565b5b0154816000815181106128be576128bd6152a5565b5b602002602001018181525050601160008481526020019081526020016000206000600381106128f0576128ef6152a5565b5b015481600181518110612906576129056152a5565b5b60200260200101818152505060116000838152602001908152602001600020600060038110612938576129376152a5565b5b01548160028151811061294e5761294d6152a5565b5b602002602001018181525050601160008581526020019081526020016000206001600381106129805761297f6152a5565b5b015481600381518110612996576129956152a5565b5b602002602001018181525050601160008481526020019081526020016000206001600381106129c8576129c76152a5565b5b0154816004815181106129de576129dd6152a5565b5b60200260200101818152505060116000838152602001908152602001600020600160038110612a1057612a0f6152a5565b5b015481600581518110612a2657612a256152a5565b5b60200260200101818152505060116000858152602001908152602001600020600260038110612a5857612a576152a5565b5b015481600681518110612a6e57612a6d6152a5565b5b60200260200101818152505060116000848152602001908152602001600020600260038110612aa057612a9f6152a5565b5b015481600781518110612ab657612ab56152a5565b5b60200260200101818152505060116000838152602001908152602001600020600260038110612ae857612ae76152a5565b5b015481600881518110612afe57612afd6152a5565b5b6020026020010181815250506000600967ffffffffffffffff811115612b2757612b2661452f565b5b604051908082528060200260200182016040528015612b555781602001602082028036833780820191505090505b50905060008060005b6009811015612c8457600060136000878481518110612b8057612b7f6152a5565b5b60200260200101518152602001908152602001600020541415612be657848181518110612bb057612baf6152a5565b5b6020026020010151848481518110612bcb57612bca6152a5565b5b6020026020010181815250508280612be290615303565b9350505b600160136000878481518110612bff57612bfe6152a5565b5b60200260200101518152602001908152602001600020541415612c7157848181518110612c2f57612c2e6152a5565b5b602002602001015185836009612c459190615651565b81518110612c5657612c556152a5565b5b6020026020010181815250508180612c6d90615303565b9250505b8080612c7c90615303565b915050612b5e565b5060606000831115612d0657612c99886109ec565b612cdf856001612cb76001600954612cb19190615651565b8861333d565b612cc191906156a7565b81518110612cd257612cd16152a5565b5b60200260200101516109ec565b604051602001612cf0929190615717565b6040516020818303038152906040529050612d84565b612d0f886109ec565b612d61866001612d396001600954612d279190615651565b876009612d349190615651565b61333d565b612d4391906156a7565b81518110612d5457612d536152a5565b5b60200260200101516109ec565b604051602001612d72929190615717565b60405160208183030381529060405290505b60006040518060800160405280604481526020016159d760449139905060006040518060400160405280600481526020017f2e706e6700000000000000000000000000000000000000000000000000000000815250905060008284604051602001612df0929190615717565b60405160208183030381529060405282604051602001612e11929190615717565b6040516020818303038152906040529050612e2c8c82613524565b60405180606001604052808c81526020018b81526020018a815250601160006009548152602001908152602001600020906003612e6a9291906140c9565b50612ec4601160006009548152602001908152602001600020600380602002604051908101604052809291908260038015612eba576020028201915b815481526020019060010190808311612ea6575b50505050506137af565b83600f600060095481526020019081526020016000209080519060200190612eed929190614043565b506003600c6000600954815260200190815260200160002060006101000a81548160ff021916908360ff160217905550600b60008c815260200190815260200160002060009054906101000a900460ff16600b6000600954815260200190815260200160002060006101000a81548160ff021916908315150217905550505050505050505050505050565b612f91816040518060200160405280600081525061387e565b50565b60006002600083815260200190815260200160002060009054906101000a900473ffffffffffffffffffffffffffffffffffffffff169050919050565b8173ffffffffffffffffffffffffffffffffffffffff168373ffffffffffffffffffffffffffffffffffffffff161415613040576040517f08c379a000000000000000000000000000000000000000000000000000000000815260040161303790615787565b60405180910390fd5b80600560008573ffffffffffffffffffffffffffffffffffffffff1673ffffffffffffffffffffffffffffffffffffffff16815260200190815260200160002060008473ffffffffffffffffffffffffffffffffffffffff1673ffffffffffffffffffffffffffffffffffffffff16815260200190815260200160002060006101000a81548160ff0219169083151502179055508173ffffffffffffffffffffffffffffffffffffffff168373ffffffffffffffffffffffffffffffffffffffff167f17307eab39ab6107e8899845ad3d59bd9653f200f220920489ca2b5937696c318360405161313191906142a7565b60405180910390a3505050565b600061314982610fc3565b905061315781600084613310565b61316082610fc3565b90506004600083815260200190815260200160002060006101000a81549073ffffffffffffffffffffffffffffffffffffffff02191690556001600360008373ffffffffffffffffffffffffffffffffffffffff1673ffffffffffffffffffffffffffffffffffffffff168152602001908152602001600020600082825403925050819055506002600083815260200190815260200160002060006101000a81549073ffffffffffffffffffffffffffffffffffffffff0219169055600060066000848152602001908152602001600020805461323c90614cc5565b905014613263576006600083815260200190815260200160002060006132629190614109565b5b81600073ffffffffffffffffffffffffffffffffffffffff168273ffffffffffffffffffffffffffffffffffffffff167fddf252ad1be2c89b69c2b068fc378daa952ba7f163c4a11628f55a4df523b3ef60405160405180910390a46132cb81600084613315565b5050565b60008073ffffffffffffffffffffffffffffffffffffffff166132f183612f94565b73ffffffffffffffffffffffffffffffffffffffff1614159050919050565b505050565b505050565b6000808273ffffffffffffffffffffffffffffffffffffffff163b119050919050565b6000806040518060c00160405280600260ff168152602001600360ff168152602001600460ff168152602001600560ff168152602001600660ff168152602001600760ff168152509050600080600a90506000805b8782146134de5760008414156134235782886133ae91906157d6565b9150600083896133be91906157d6565b9050856006866133ce91906157d6565b600681106133df576133de6152a5565b5b602002015160ff16816133f29190615807565b826133fd9190615651565b915060018561340c9190615651565b9450600a8461341b9190615807565b9350506134d9565b828861342f91906157d6565b91506000600a846134409190615861565b600a8561344d9190615861565b8a61345891906157d6565b858b61346491906157d6565b61346e91906156a7565b6134789190615861565b90508560068661348891906157d6565b60068110613499576134986152a5565b5b602002015160ff16816134ac9190615807565b826134b79190615651565b91506001856134c69190615651565b9450600a846134d59190615807565b9350505b613392565b600087826134ec9190615861565b905060008289836134fd9190615807565b8a6135089190615651565b61351291906156a7565b90508097505050505050505092915050565b600a546009541061356a576040517f08c379a0000000000000000000000000000000000000000000000000000000008152600401613561906158de565b60405180910390fd5b600073ffffffffffffffffffffffffffffffffffffffff168273ffffffffffffffffffffffffffffffffffffffff1614156135da576040517f08c379a00000000000000000000000000000000000000000000000000000000081526004016135d19061594a565b60405180910390fd5b600060016009546135eb9190615651565b90506135f960008483613310565b613602816132cf565b15613642576040517f08c379a0000000000000000000000000000000000000000000000000000000008152600401613639906159b6565b60405180910390fd5b6001600360008573ffffffffffffffffffffffffffffffffffffffff1673ffffffffffffffffffffffffffffffffffffffff16815260200190815260200160002060008282540192505081905550826002600083815260200190815260200160002060006101000a81548173ffffffffffffffffffffffffffffffffffffffff021916908373ffffffffffffffffffffffffffffffffffffffff16021790555060008290508060066000848152602001908152602001600020908051906020019061370e929190614043565b50600d54600e600084815260200190815260200160002081905550818473ffffffffffffffffffffffffffffffffffffffff16600073ffffffffffffffffffffffffffffffffffffffff167fddf252ad1be2c89b69c2b068fc378daa952ba7f163c4a11628f55a4df523b3ef60405160405180910390a461379160008584613315565b600960008154809291906137a490615303565b919050555050505050565b600160126000836000600381106137c9576137c86152a5565b5b6020020151815260200190815260200160002060006101000a81548160ff0219169083151502179055506001601260008360016003811061380d5761380c6152a5565b5b6020020151815260200190815260200160002060006101000a81548160ff02191690831515021790555060016012600083600260038110613851576138506152a5565b5b6020020151815260200190815260200160002060006101000a81548160ff02191690831515021790555050565b613887826138eb565b600060016009546138989190615651565b90506138a7600084838561217e565b6138e6576040517f08c379a00000000000000000000000000000000000000000000000000000000081526004016138dd90614f1f565b60405180910390fd5b505050565b600a5460095410613931576040517f08c379a0000000000000000000000000000000000000000000000000000000008152600401613928906158de565b60405180910390fd5b600073ffffffffffffffffffffffffffffffffffffffff168173ffffffffffffffffffffffffffffffffffffffff1614156139a1576040517f08c379a00000000000000000000000000000000000000000000000000000000081526004016139989061594a565b60405180910390fd5b600060016009546139b29190615651565b90506139c060008383613310565b6139c9816132cf565b15613a09576040517f08c379a0000000000000000000000000000000000000000000000000000000008152600401613a00906159b6565b60405180910390fd5b6001600360008473ffffffffffffffffffffffffffffffffffffffff1673ffffffffffffffffffffffffffffffffffffffff16815260200190815260200160002060008282540192505081905550816002600083815260200190815260200160002060006101000a81548173ffffffffffffffffffffffffffffffffffffffff021916908373ffffffffffffffffffffffffffffffffffffffff1602179055506000613ab3613d86565b905060006040518060400160405280600481526020017f2e706e67000000000000000000000000000000000000000000000000000000008152509050600082613b06613b018660085461333d565b613e18565b604051602001613b17929190615717565b60405160208183030381529060405282604051602001613b38929190615717565b604051602081830303815290604052905080600660008681526020019081526020016000209080519060200190613b70929190614043565b50600d54600e6000868152602001908152602001600020819055506000613b998560085461333d565b6064600d54613ba89190615807565b613bb29190615651565b905060106000828152602001908152602001600020600f6000878152602001908152602001600020908054613be690614cc5565b613bf1929190614149565b506001600c600087815260200190815260200160002060006101000a81548160ff021916908360ff16021790555060146000600d5481526020019081526020016000206000613c428760085461333d565b815260200190815260200160002060009054906101000a900460ff1615613c815760006013600087815260200190815260200160002081905550613cfe565b60156000600d5481526020019081526020016000206000613ca48760085461333d565b815260200190815260200160002060009054906101000a900460ff1615613ce35760016013600087815260200190815260200160002081905550613cfd565b600260136000878152602001908152602001600020819055505b5b848673ffffffffffffffffffffffffffffffffffffffff16600073ffffffffffffffffffffffffffffffffffffffff167fddf252ad1be2c89b69c2b068fc378daa952ba7f163c4a11628f55a4df523b3ef60405160405180910390a4613d6660008787613315565b60096000815480929190613d7990615303565b9190505550505050505050565b606060078054613d9590614cc5565b80601f0160208091040260200160405190810160405280929190818152602001828054613dc190614cc5565b8015613e0e5780601f10613de357610100808354040283529160200191613e0e565b820191906000526020600020905b815481529060010190602001808311613df157829003601f168201915b5050505050905090565b606060006001613e2784613ef0565b01905060008167ffffffffffffffff811115613e4657613e4561452f565b5b6040519080825280601f01601f191660200182016040528015613e785781602001600182028036833780820191505090505b509050600082602001820190505b600115613ee5578080600190039150507f3031323334353637383961626364656600000000000000000000000000000000600a86061a8153600a8581613ecf57613ece6157a7565b5b0494506000851415613ee057613ee5565b613e86565b819350505050919050565b600080600090507a184f03e93ff9f4daa797ed6e38ed64bf6a1f0100000000000000008310613f4e577a184f03e93ff9f4daa797ed6e38ed64bf6a1f0100000000000000008381613f4457613f436157a7565b5b0492506040810190505b6d04ee2d6d415b85acef81000000008310613f8b576d04ee2d6d415b85acef81000000008381613f8157613f806157a7565b5b0492506020810190505b662386f26fc100008310613fba57662386f26fc100008381613fb057613faf6157a7565b5b0492506010810190505b6305f5e1008310613fe3576305f5e1008381613fd957613fd86157a7565b5b0492506008810190505b6127108310614008576127108381613ffe57613ffd6157a7565b5b0492506004810190505b6064831061402b5760648381614021576140206157a7565b5b0492506002810190505b600a831061403a576001810190505b80915050919050565b82805461404f90614cc5565b90600052602060002090601f01602090048101928261407157600085556140b8565b82601f1061408a57805160ff19168380011785556140b8565b828001600101855582156140b8579182015b828111156140b757825182559160200191906001019061409c565b5b5090506140c591906141d6565b5090565b82600381019282156140f8579160200282015b828111156140f75782518255916020019190600101906140dc565b5b50905061410591906141d6565b5090565b50805461411590614cc5565b6000825580601f106141275750614146565b601f01602090049060005260206000209081019061414591906141d6565b5b50565b82805461415590614cc5565b90600052602060002090601f01602090048101928261417757600085556141c5565b82601f1061418857805485556141c5565b828001600101855582156141c557600052602060002091601f016020900482015b828111156141c45782548255916001019190600101906141a9565b5b5090506141d291906141d6565b5090565b5b808211156141ef5760008160009055506001016141d7565b5090565b6000604051905090565b600080fd5b600080fd5b60007fffffffff0000000000000000000000000000000000000000000000000000000082169050919050565b61423c81614207565b811461424757600080fd5b50565b60008135905061425981614233565b92915050565b600060208284031215614275576142746141fd565b5b60006142838482850161424a565b91505092915050565b60008115159050919050565b6142a18161428c565b82525050565b60006020820190506142bc6000830184614298565b92915050565b600081519050919050565b600082825260208201905092915050565b60005b838110156142fc5780820151818401526020810190506142e1565b8381111561430b576000848401525b50505050565b6000601f19601f8301169050919050565b600061432d826142c2565b61433781856142cd565b93506143478185602086016142de565b61435081614311565b840191505092915050565b600060208201905081810360008301526143758184614322565b905092915050565b6000819050919050565b6143908161437d565b811461439b57600080fd5b50565b6000813590506143ad81614387565b92915050565b6000602082840312156143c9576143c86141fd565b5b60006143d78482850161439e565b91505092915050565b600073ffffffffffffffffffffffffffffffffffffffff82169050919050565b600061440b826143e0565b9050919050565b61441b81614400565b82525050565b60006020820190506144366000830184614412565b92915050565b61444581614400565b811461445057600080fd5b50565b6000813590506144628161443c565b92915050565b6000806040838503121561447f5761447e6141fd565b5b600061448d85828601614453565b925050602061449e8582860161439e565b9150509250929050565b6144b18161437d565b82525050565b60006020820190506144cc60008301846144a8565b92915050565b6000806000606084860312156144eb576144ea6141fd565b5b60006144f986828701614453565b935050602061450a86828701614453565b925050604061451b8682870161439e565b9150509250925092565b600080fd5b600080fd5b7f4e487b7100000000000000000000000000000000000000000000000000000000600052604160045260246000fd5b61456782614311565b810181811067ffffffffffffffff821117156145865761458561452f565b5b80604052505050565b60006145996141f3565b90506145a5828261455e565b919050565b600067ffffffffffffffff8211156145c5576145c461452f565b5b6145ce82614311565b9050602081019050919050565b82818337600083830152505050565b60006145fd6145f8846145aa565b61458f565b9050828152602081018484840111156146195761461861452a565b5b6146248482856145db565b509392505050565b600082601f83011261464157614640614525565b5b81356146518482602086016145ea565b91505092915050565b60008060008060808587031215614674576146736141fd565b5b600061468287828801614453565b945050602061469387828801614453565b93505060406146a48782880161439e565b925050606085013567ffffffffffffffff8111156146c5576146c4614202565b5b6146d18782880161462c565b91505092959194509250565b600067ffffffffffffffff8211156146f8576146f761452f565b5b61470182614311565b9050602081019050919050565b600061472161471c846146dd565b61458f565b90508281526020810184848401111561473d5761473c61452a565b5b6147488482856145db565b509392505050565b600082601f83011261476557614764614525565b5b813561477584826020860161470e565b91505092915050565b600060208284031215614794576147936141fd565b5b600082013567ffffffffffffffff8111156147b2576147b1614202565b5b6147be84828501614750565b91505092915050565b6000806000606084860312156147e0576147df6141fd565b5b60006147ee8682870161439e565b93505060206147ff8682870161439e565b92505060406148108682870161439e565b9150509250925092565b6000602082840312156148305761482f6141fd565b5b600061483e84828501614453565b91505092915050565b600067ffffffffffffffff8211156148625761486161452f565b5b602082029050602081019050919050565b600080fd5b600061488b61488684614847565b61458f565b905080838252602082019050602084028301858111156148ae576148ad614873565b5b835b818110156148d757806148c3888261439e565b8452602084019350506020810190506148b0565b5050509392505050565b600082601f8301126148f6576148f5614525565b5b8135614906848260208601614878565b91505092915050565b60008060408385031215614926576149256141fd565b5b60006149348582860161439e565b925050602083013567ffffffffffffffff81111561495557614954614202565b5b614961858286016148e1565b9150509250929050565b6149748161428c565b811461497f57600080fd5b50565b6000813590506149918161496b565b92915050565b600080604083850312156149ae576149ad6141fd565b5b60006149bc85828601614453565b92505060206149cd85828601614982565b9150509250929050565b600067ffffffffffffffff8211156149f2576149f161452f565b5b602082029050602081019050919050565b6000614a16614a11846149d7565b61458f565b90508083825260208201905060208402830185811115614a3957614a38614873565b5b835b81811015614a8057803567ffffffffffffffff811115614a5e57614a5d614525565b5b808601614a6b8982614750565b85526020850194505050602081019050614a3b565b5050509392505050565b600082601f830112614a9f57614a9e614525565b5b8135614aaf848260208601614a03565b91505092915050565b600080600080600080600080610100898b031215614ad957614ad86141fd565b5b600089013567ffffffffffffffff811115614af757614af6614202565b5b614b038b828c01614750565b985050602089013567ffffffffffffffff811115614b2457614b23614202565b5b614b308b828c016148e1565b975050604089013567ffffffffffffffff811115614b5157614b50614202565b5b614b5d8b828c01614a8a565b9650506060614b6e8b828c0161439e565b9550506080614b7f8b828c0161439e565b94505060a089013567ffffffffffffffff811115614ba057614b9f614202565b5b614bac8b828c016148e1565b93505060c0614bbd8b828c0161439e565b92505060e089013567ffffffffffffffff811115614bde57614bdd614202565b5b614bea8b828c016148e1565b9150509295985092959890939650565b60008060408385031215614c1157614c106141fd565b5b6000614c1f8582860161439e565b925050602083013567ffffffffffffffff811115614c4057614c3f614202565b5b614c4c85828601614750565b9150509250929050565b60008060408385031215614c6d57614c6c6141fd565b5b6000614c7b85828601614453565b9250506020614c8c85828601614453565b9150509250929050565b7f4e487b7100000000000000000000000000000000000000000000000000000000600052602260045260246000fd5b60006002820490506001821680614cdd57607f821691505b60208210811415614cf157614cf0614c96565b5b50919050565b7f4552433732313a20617070726f76616c20746f2063757272656e74206f776e6560008201527f7200000000000000000000000000000000000000000000000000000000000000602082015250565b6000614d536021836142cd565b9150614d5e82614cf7565b604082019050919050565b60006020820190508181036000830152614d8281614d46565b9050919050565b7f4552433732313a20617070726f76652063616c6c6572206973206e6f7420746f60008201527f6b656e206f776e6572206f7220617070726f76656420666f7220616c6c000000602082015250565b6000614de5603d836142cd565b9150614df082614d89565b604082019050919050565b60006020820190508181036000830152614e1481614dd8565b9050919050565b7f4552433732313a2063616c6c6572206973206e6f7420746f6b656e206f776e6560008201527f72206f7220617070726f76656400000000000000000000000000000000000000602082015250565b6000614e77602d836142cd565b9150614e8282614e1b565b604082019050919050565b60006020820190508181036000830152614ea681614e6a565b9050919050565b7f4552433732313a207472616e7366657220746f206e6f6e20455243373231526560008201527f63656976657220696d706c656d656e7465720000000000000000000000000000602082015250565b6000614f096032836142cd565b9150614f1482614ead565b604082019050919050565b60006020820190508181036000830152614f3881614efc565b9050919050565b7f6c6f7320746f6b656e20646562656e207365722064656c206d69736d6f206c7660008201527f6c00000000000000000000000000000000000000000000000000000000000000602082015250565b6000614f9b6021836142cd565b9150614fa682614f3f565b604082019050919050565b60006020820190508181036000830152614fca81614f8e565b9050919050565b7f6c6f7320746f6b656e20646562656e207365722064656c206d69736d6f20746960008201527f706f000000000000000000000000000000000000000000000000000000000000602082015250565b600061502d6022836142cd565b915061503882614fd1565b604082019050919050565b6000602082019050818103600083015261505c81615020565b9050919050565b7f756e20746f6b656e206573746120626c6f636b6561646f000000000000000000600082015250565b60006150996017836142cd565b91506150a482615063565b602082019050919050565b600060208201905081810360008301526150c88161508c565b9050919050565b7f6e6f207365207075656465207573617220756e20746f6b656e206c766c203300600082015250565b6000615105601f836142cd565b9150615110826150cf565b602082019050919050565b60006020820190508181036000830152615134816150f8565b9050919050565b7f6c6f7320746f6b656e20646562656e2070657274656e65636572746500000000600082015250565b6000615171601c836142cd565b915061517c8261513b565b602082019050919050565b600060208201905081810360008301526151a081615164565b9050919050565b7f4552433732313a20696e76616c696420746f6b656e2049440000000000000000600082015250565b60006151dd6018836142cd565b91506151e8826151a7565b602082019050919050565b6000602082019050818103600083015261520c816151d0565b9050919050565b7f4552433732313a2061646472657373207a65726f206973206e6f74206120766160008201527f6c6964206f776e65720000000000000000000000000000000000000000000000602082015250565b600061526f6029836142cd565b915061527a82615213565b604082019050919050565b6000602082019050818103600083015261529e81615262565b9050919050565b7f4e487b7100000000000000000000000000000000000000000000000000000000600052603260045260246000fd5b7f4e487b7100000000000000000000000000000000000000000000000000000000600052601160045260246000fd5b600061530e8261437d565b91507fffffffffffffffffffffffffffffffffffffffffffffffffffffffffffffffff821415615341576153406152d4565b5b600182019050919050565b7f656c20746f6b656e206465626520736572206465206c766c206d61796f72206160008201527f2031000000000000000000000000000000000000000000000000000000000000602082015250565b60006153a86022836142cd565b91506153b38261534c565b604082019050919050565b600060208201905081810360008301526153d78161539b565b9050919050565b7f656c20746f6b656e20646562652070657274656e656365727465000000000000600082015250565b6000615414601a836142cd565b915061541f826153de565b602082019050919050565b6000602082019050818103600083015261544381615407565b9050919050565b7f4552433732313a207472616e736665722066726f6d20696e636f72726563742060008201527f6f776e6572000000000000000000000000000000000000000000000000000000602082015250565b60006154a66025836142cd565b91506154b18261544a565b604082019050919050565b600060208201905081810360008301526154d581615499565b9050919050565b7f4552433732313a207472616e7366657220746f20746865207a65726f2061646460008201527f7265737300000000000000000000000000000000000000000000000000000000602082015250565b60006155386024836142cd565b9150615543826154dc565b604082019050919050565b600060208201905081810360008301526155678161552b565b9050919050565b600081519050919050565b600082825260208201905092915050565b60006155958261556e565b61559f8185615579565b93506155af8185602086016142de565b6155b881614311565b840191505092915050565b60006080820190506155d86000830187614412565b6155e56020830186614412565b6155f260408301856144a8565b8181036060830152615604818461558a565b905095945050505050565b60008151905061561e81614233565b92915050565b60006020828403121561563a576156396141fd565b5b60006156488482850161560f565b91505092915050565b600061565c8261437d565b91506156678361437d565b9250827fffffffffffffffffffffffffffffffffffffffffffffffffffffffffffffffff0382111561569c5761569b6152d4565b5b828201905092915050565b60006156b28261437d565b91506156bd8361437d565b9250828210156156d0576156cf6152d4565b5b828203905092915050565b600081905092915050565b60006156f1826142c2565b6156fb81856156db565b935061570b8185602086016142de565b80840191505092915050565b600061572382856156e6565b915061572f82846156e6565b91508190509392505050565b7f4552433732313a20617070726f766520746f2063616c6c657200000000000000600082015250565b60006157716019836142cd565b915061577c8261573b565b602082019050919050565b600060208201905081810360008301526157a081615764565b9050919050565b7f4e487b7100000000000000000000000000000000000000000000000000000000600052601260045260246000fd5b60006157e18261437d565b91506157ec8361437d565b9250826157fc576157fb6157a7565b5b828206905092915050565b60006158128261437d565b915061581d8361437d565b9250817fffffffffffffffffffffffffffffffffffffffffffffffffffffffffffffffff0483118215151615615856576158556152d4565b5b828202905092915050565b600061586c8261437d565b91506158778361437d565b925082615887576158866157a7565b5b828204905092915050565b7f6e6f207075656465206d696e6974656172206d61732064652033207072726f00600082015250565b60006158c8601f836142cd565b91506158d382615892565b602082019050919050565b600060208201905081810360008301526158f7816158bb565b9050919050565b7f4552433732313a206d696e7420746f20746865207a65726f2061646472657373600082015250565b60006159346020836142cd565b915061593f826158fe565b602082019050919050565b6000602082019050818103600083015261596381615927565b9050919050565b7f4552433732313a20746f6b656e20616c7265616479206d696e74656400000000600082015250565b60006159a0601c836142cd565b91506159ab8261596a565b602082019050919050565b600060208201905081810360008301526159cf81615993565b905091905056fe68747470733a2f2f697066732e696f2f697066732f516d565071526555447a3372374448414a444d7867614458777457636b554a517173515753675235754e5159486e2fa2646970667358221220aaae879bea08172241956d83f52e55d026296855b33e5bc8a6d25f43591ae83264736f6c6343000809003368747470733a2f2f697066732e696f2f697066732f516d61383367323972436147314e756966536f6b6b65527375393253335a45343650665156596a434d3363717566",
  "linkReferences": {},
  "deployedLinkReferences": {}
}