{
  "_format": "hh-sol-artifact-1",
  "contractName": "NFTMarketplace",
  "sourceName": "contracts/NFTMarket.sol",
  "abi": [
    {
      "inputs": [],
      "stateMutability": "nonpayable",
      "type": "constructor"
    },
    {
      "anonymous": false,
      "inputs": [
        {
          "indexed": true,
          "internalType": "address",
          "name": "owner",
          "type": "address"
        },
        {
          "indexed": true,
          "internalType": "address",
          "name": "approved",
          "type": "address"
        },
        {
          "indexed": true,
          "internalType": "uint256",
          "name": "tokenId",
          "type": "uint256"
        }
      ],
      "name": "Approval",
      "type": "event"
    },
    {
      "anonymous": false,
      "inputs": [
        {
          "indexed": true,
          "internalType": "address",
          "name": "owner",
          "type": "address"
        },
        {
          "indexed": true,
          "internalType": "address",
          "name": "operator",
          "type": "address"
        },
        {
          "indexed": false,
          "internalType": "bool",
          "name": "approved",
          "type": "bool"
        }
      ],
      "name": "ApprovalForAll",
      "type": "event"
    },
    {
      "anonymous": false,
      "inputs": [
        {
          "indexed": true,
          "internalType": "uint256",
          "name": "tokenId",
          "type": "uint256"
        },
        {
          "indexed": false,
          "internalType": "address",
          "name": "seller",
          "type": "address"
        },
        {
          "indexed": false,
          "internalType": "address",
          "name": "owner",
          "type": "address"
        },
        {
          "indexed": false,
          "internalType": "uint256",
          "name": "price",
          "type": "uint256"
        },
        {
          "indexed": false,
          "internalType": "bool",
          "name": "sold",
          "type": "bool"
        }
      ],
      "name": "MarketItemCreated",
      "type": "event"
    },
    {
      "anonymous": false,
      "inputs": [
        {
          "indexed": true,
          "internalType": "address",
          "name": "from",
          "type": "address"
        },
        {
          "indexed": true,
          "internalType": "address",
          "name": "to",
          "type": "address"
        },
        {
          "indexed": true,
          "internalType": "uint256",
          "name": "tokenId",
          "type": "uint256"
        }
      ],
      "name": "Transfer",
      "type": "event"
    },
    {
      "inputs": [
        {
          "internalType": "address",
          "name": "to",
          "type": "address"
        },
        {
          "internalType": "uint256",
          "name": "tokenId",
          "type": "uint256"
        }
      ],
      "name": "approve",
      "outputs": [],
      "stateMutability": "nonpayable",
      "type": "function"
    },
    {
      "inputs": [
        {
          "internalType": "address",
          "name": "owner",
          "type": "address"
        }
      ],
      "name": "balanceOf",
      "outputs": [
        {
          "internalType": "uint256",
          "name": "",
          "type": "uint256"
        }
      ],
      "stateMutability": "view",
      "type": "function"
    },
    {
      "inputs": [
        {
          "internalType": "uint256",
          "name": "tokenId",
          "type": "uint256"
        }
      ],
      "name": "createMarketSale",
      "outputs": [],
      "stateMutability": "payable",
      "type": "function"
    },
    {
      "inputs": [
        {
          "internalType": "string",
          "name": "tokenURI",
          "type": "string"
        },
        {
          "internalType": "uint256",
          "name": "price",
          "type": "uint256"
        }
      ],
      "name": "createToken",
      "outputs": [
        {
          "internalType": "uint256",
          "name": "",
          "type": "uint256"
        }
      ],
      "stateMutability": "payable",
      "type": "function"
    },
    {
      "inputs": [],
      "name": "fetchItemsListed",
      "outputs": [
        {
          "components": [
            {
              "internalType": "uint256",
              "name": "tokenId",
              "type": "uint256"
            },
            {
              "internalType": "address payable",
              "name": "seller",
              "type": "address"
            },
            {
              "internalType": "address payable",
              "name": "owner",
              "type": "address"
            },
            {
              "internalType": "uint256",
              "name": "price",
              "type": "uint256"
            },
            {
              "internalType": "bool",
              "name": "sold",
              "type": "bool"
            }
          ],
          "internalType": "struct NFTMarketplace.MarketItem[]",
          "name": "",
          "type": "tuple[]"
        }
      ],
      "stateMutability": "view",
      "type": "function"
    },
    {
      "inputs": [],
      "name": "fetchMarketItems",
      "outputs": [
        {
          "components": [
            {
              "internalType": "uint256",
              "name": "tokenId",
              "type": "uint256"
            },
            {
              "internalType": "address payable",
              "name": "seller",
              "type": "address"
            },
            {
              "internalType": "address payable",
              "name": "owner",
              "type": "address"
            },
            {
              "internalType": "uint256",
              "name": "price",
              "type": "uint256"
            },
            {
              "internalType": "bool",
              "name": "sold",
              "type": "bool"
            }
          ],
          "internalType": "struct NFTMarketplace.MarketItem[]",
          "name": "",
          "type": "tuple[]"
        }
      ],
      "stateMutability": "view",
      "type": "function"
    },
    {
      "inputs": [],
      "name": "fetchMyNFTs",
      "outputs": [
        {
          "components": [
            {
              "internalType": "uint256",
              "name": "tokenId",
              "type": "uint256"
            },
            {
              "internalType": "address payable",
              "name": "seller",
              "type": "address"
            },
            {
              "internalType": "address payable",
              "name": "owner",
              "type": "address"
            },
            {
              "internalType": "uint256",
              "name": "price",
              "type": "uint256"
            },
            {
              "internalType": "bool",
              "name": "sold",
              "type": "bool"
            }
          ],
          "internalType": "struct NFTMarketplace.MarketItem[]",
          "name": "",
          "type": "tuple[]"
        }
      ],
      "stateMutability": "view",
      "type": "function"
    },
    {
      "inputs": [
        {
          "internalType": "uint256",
          "name": "tokenId",
          "type": "uint256"
        }
      ],
      "name": "getApproved",
      "outputs": [
        {
          "internalType": "address",
          "name": "",
          "type": "address"
        }
      ],
      "stateMutability": "view",
      "type": "function"
    },
    {
      "inputs": [],
      "name": "getListingPrice",
      "outputs": [
        {
          "internalType": "uint256",
          "name": "",
          "type": "uint256"
        }
      ],
      "stateMutability": "view",
      "type": "function"
    },
    {
      "inputs": [
        {
          "internalType": "address",
          "name": "owner",
          "type": "address"
        },
        {
          "internalType": "address",
          "name": "operator",
          "type": "address"
        }
      ],
      "name": "isApprovedForAll",
      "outputs": [
        {
          "internalType": "bool",
          "name": "",
          "type": "bool"
        }
      ],
      "stateMutability": "view",
      "type": "function"
    },
    {
      "inputs": [],
      "name": "name",
      "outputs": [
        {
          "internalType": "string",
          "name": "",
          "type": "string"
        }
      ],
      "stateMutability": "view",
      "type": "function"
    },
    {
      "inputs": [
        {
          "internalType": "uint256",
          "name": "tokenId",
          "type": "uint256"
        }
      ],
      "name": "ownerOf",
      "outputs": [
        {
          "internalType": "address",
          "name": "",
          "type": "address"
        }
      ],
      "stateMutability": "view",
      "type": "function"
    },
    {
      "inputs": [
        {
          "internalType": "uint256",
          "name": "tokenId",
          "type": "uint256"
        },
        {
          "internalType": "uint256",
          "name": "price",
          "type": "uint256"
        }
      ],
      "name": "resellToken",
      "outputs": [],
      "stateMutability": "payable",
      "type": "function"
    },
    {
      "inputs": [
        {
          "internalType": "address",
          "name": "from",
          "type": "address"
        },
        {
          "internalType": "address",
          "name": "to",
          "type": "address"
        },
        {
          "internalType": "uint256",
          "name": "tokenId",
          "type": "uint256"
        }
      ],
      "name": "safeTransferFrom",
      "outputs": [],
      "stateMutability": "nonpayable",
      "type": "function"
    },
    {
      "inputs": [
        {
          "internalType": "address",
          "name": "from",
          "type": "address"
        },
        {
          "internalType": "address",
          "name": "to",
          "type": "address"
        },
        {
          "internalType": "uint256",
          "name": "tokenId",
          "type": "uint256"
        },
        {
          "internalType": "bytes",
          "name": "data",
          "type": "bytes"
        }
      ],
      "name": "safeTransferFrom",
      "outputs": [],
      "stateMutability": "nonpayable",
      "type": "function"
    },
    {
      "inputs": [
        {
          "internalType": "address",
          "name": "operator",
          "type": "address"
        },
        {
          "internalType": "bool",
          "name": "approved",
          "type": "bool"
        }
      ],
      "name": "setApprovalForAll",
      "outputs": [],
      "stateMutability": "nonpayable",
      "type": "function"
    },
    {
      "inputs": [
        {
          "internalType": "bytes4",
          "name": "interfaceId",
          "type": "bytes4"
        }
      ],
      "name": "supportsInterface",
      "outputs": [
        {
          "internalType": "bool",
          "name": "",
          "type": "bool"
        }
      ],
      "stateMutability": "view",
      "type": "function"
    },
    {
      "inputs": [],
      "name": "symbol",
      "outputs": [
        {
          "internalType": "string",
          "name": "",
          "type": "string"
        }
      ],
      "stateMutability": "view",
      "type": "function"
    },
    {
      "inputs": [
        {
          "internalType": "uint256",
          "name": "tokenId",
          "type": "uint256"
        }
      ],
      "name": "tokenURI",
      "outputs": [
        {
          "internalType": "string",
          "name": "",
          "type": "string"
        }
      ],
      "stateMutability": "view",
      "type": "function"
    },
    {
      "inputs": [
        {
          "internalType": "address",
          "name": "from",
          "type": "address"
        },
        {
          "internalType": "address",
          "name": "to",
          "type": "address"
        },
        {
          "internalType": "uint256",
          "name": "tokenId",
          "type": "uint256"
        }
      ],
      "name": "transferFrom",
      "outputs": [],
      "stateMutability": "nonpayable",
      "type": "function"
    },
    {
      "inputs": [
        {
          "internalType": "uint256",
          "name": "_listingPrice",
          "type": "uint256"
        }
      ],
      "name": "updateListingPrice",
      "outputs": [],
      "stateMutability": "payable",
      "type": "function"
    }
  ],
  "bytecode": "0x60806040526658d15e176280006009553480156200001c57600080fd5b506040518060400160405280601081526020017f4d657461766572736520546f6b656e73000000000000000000000000000000008152506040518060400160405280600481526020017f4d455454000000000000000000000000000000000000000000000000000000008152508160009080519060200190620000a192919062000208565b508060019080519060200190620000ba92919062000208565b50505033600a60006101000a81548173ffffffffffffffffffffffffffffffffffffffff021916908373ffffffffffffffffffffffffffffffffffffffff16021790555062000136600a60009054906101000a900473ffffffffffffffffffffffffffffffffffffffff166200013c60201b620019901760201c565b6200037f565b620001dc81604051602401620001539190620002fd565b6040516020818303038152906040527f2c2ecbc2000000000000000000000000000000000000000000000000000000007bffffffffffffffffffffffffffffffffffffffffffffffffffffffff19166020820180517bffffffffffffffffffffffffffffffffffffffffffffffffffffffff8381831617835250505050620001df60201b60201c565b50565b60008151905060006a636f6e736f6c652e6c6f679050602083016000808483855afa5050505050565b828054620002169062000349565b90600052602060002090601f0160209004810192826200023a576000855562000286565b82601f106200025557805160ff191683800117855562000286565b8280016001018555821562000286579182015b828111156200028557825182559160200191906001019062000268565b5b50905062000295919062000299565b5090565b5b80821115620002b45760008160009055506001016200029a565b5090565b600073ffffffffffffffffffffffffffffffffffffffff82169050919050565b6000620002e582620002b8565b9050919050565b620002f781620002d8565b82525050565b6000602082019050620003146000830184620002ec565b92915050565b7f4e487b7100000000000000000000000000000000000000000000000000000000600052602260045260246000fd5b600060028204905060018216806200036257607f821691505b602082108114156200037957620003786200031a565b5b50919050565b61429a806200038f6000396000f3fe60806040526004361061012a5760003560e01c80636352211e116100ab578063ae677aa31161006f578063ae677aa3146103f9578063b88d4fde14610415578063be9af5361461043e578063c87b56dd1461045a578063e219fc7514610497578063e985e9c5146104b35761012a565b80636352211e146102fb57806370a082311461033857806372b3b6201461037557806395d89b41146103a5578063a22cb465146103d05761012a565b806312e85585116100f257806312e8558514610228578063202e37401461025357806323b872dd1461027e57806342842e0e146102a757806345f8fa80146102d05761012a565b806301ffc9a71461012f57806306fdde031461016c578063081812fc14610197578063095ea7b3146101d45780630f08efe0146101fd575b600080fd5b34801561013b57600080fd5b5061015660048036038101906101519190612daf565b6104f0565b6040516101639190612df7565b60405180910390f35b34801561017857600080fd5b506101816105d2565b60405161018e9190612eab565b60405180910390f35b3480156101a357600080fd5b506101be60048036038101906101b99190612f03565b610664565b6040516101cb9190612f71565b60405180910390f35b3480156101e057600080fd5b506101fb60048036038101906101f69190612fb8565b6106aa565b005b34801561020957600080fd5b506102126107c2565b60405161021f919061314e565b60405180910390f35b34801561023457600080fd5b5061023d610a2b565b60405161024a919061317f565b60405180910390f35b34801561025f57600080fd5b50610268610a35565b604051610275919061314e565b60405180910390f35b34801561028a57600080fd5b506102a560048036038101906102a0919061319a565b610d23565b005b3480156102b357600080fd5b506102ce60048036038101906102c9919061319a565b610d83565b005b3480156102dc57600080fd5b506102e5610da3565b6040516102f2919061314e565b60405180910390f35b34801561030757600080fd5b50610322600480360381019061031d9190612f03565b611091565b60405161032f9190612f71565b60405180910390f35b34801561034457600080fd5b5061035f600480360381019061035a91906131ed565b611118565b60405161036c919061317f565b60405180910390f35b61038f600480360381019061038a919061334f565b6111d0565b60405161039c919061317f565b60405180910390f35b3480156103b157600080fd5b506103ba611212565b6040516103c79190612eab565b60405180910390f35b3480156103dc57600080fd5b506103f760048036038101906103f291906133d7565b6112a4565b005b610413600480360381019061040e9190612f03565b6112ba565b005b34801561042157600080fd5b5061043c600480360381019061043791906134b8565b611354565b005b61045860048036038101906104539190612f03565b6113b6565b005b34801561046657600080fd5b50610481600480360381019061047c9190612f03565b6115f4565b60405161048e9190612eab565b60405180910390f35b6104b160048036038101906104ac919061353b565b611707565b005b3480156104bf57600080fd5b506104da60048036038101906104d5919061357b565b6118fc565b6040516104e79190612df7565b60405180910390f35b60007f80ac58cd000000000000000000000000000000000000000000000000000000007bffffffffffffffffffffffffffffffffffffffffffffffffffffffff1916827bffffffffffffffffffffffffffffffffffffffffffffffffffffffff191614806105bb57507f5b5e139f000000000000000000000000000000000000000000000000000000007bffffffffffffffffffffffffffffffffffffffffffffffffffffffff1916827bffffffffffffffffffffffffffffffffffffffffffffffffffffffff1916145b806105cb57506105ca82611a29565b5b9050919050565b6060600080546105e1906135ea565b80601f016020809104026020016040519081016040528092919081815260200182805461060d906135ea565b801561065a5780601f1061062f5761010080835404028352916020019161065a565b820191906000526020600020905b81548152906001019060200180831161063d57829003601f168201915b5050505050905090565b600061066f82611a93565b6004600083815260200190815260200160002060009054906101000a900473ffffffffffffffffffffffffffffffffffffffff169050919050565b60006106b582611091565b90508073ffffffffffffffffffffffffffffffffffffffff168373ffffffffffffffffffffffffffffffffffffffff161415610726576040517f08c379a000000000000000000000000000000000000000000000000000000000815260040161071d9061368e565b60405180910390fd5b8073ffffffffffffffffffffffffffffffffffffffff16610745611ade565b73ffffffffffffffffffffffffffffffffffffffff16148061077457506107738161076e611ade565b6118fc565b5b6107b3576040517f08c379a00000000000000000000000000000000000000000000000000000000081526004016107aa90613720565b60405180910390fd5b6107bd8383611ae6565b505050565b606060006107d06007611b9f565b905060006107de6008611b9f565b6107e86007611b9f565b6107f2919061376f565b90506000808267ffffffffffffffff81111561081157610810613224565b5b60405190808252806020026020018201604052801561084a57816020015b610837612c43565b81526020019060019003908161082f5790505b50905060005b84811015610a20573073ffffffffffffffffffffffffffffffffffffffff16600b600060018461088091906137a3565b815260200190815260200160002060020160009054906101000a900473ffffffffffffffffffffffffffffffffffffffff1673ffffffffffffffffffffffffffffffffffffffff161415610a0d5760006001826108dd91906137a3565b90506000600b60008381526020019081526020016000209050806040518060a0016040529081600082015481526020016001820160009054906101000a900473ffffffffffffffffffffffffffffffffffffffff1673ffffffffffffffffffffffffffffffffffffffff1673ffffffffffffffffffffffffffffffffffffffff1681526020016002820160009054906101000a900473ffffffffffffffffffffffffffffffffffffffff1673ffffffffffffffffffffffffffffffffffffffff1673ffffffffffffffffffffffffffffffffffffffff168152602001600382015481526020016004820160009054906101000a900460ff1615151515815250508486815181106109f0576109ef6137f9565b5b6020026020010181905250600185610a0891906137a3565b945050505b8080610a1890613828565b915050610850565b508094505050505090565b6000600954905090565b60606000610a436007611b9f565b905060008060005b83811015610aec573373ffffffffffffffffffffffffffffffffffffffff16600b6000600184610a7b91906137a3565b815260200190815260200160002060020160009054906101000a900473ffffffffffffffffffffffffffffffffffffffff1673ffffffffffffffffffffffffffffffffffffffff161415610ad957600183610ad691906137a3565b92505b8080610ae490613828565b915050610a4b565b5060008267ffffffffffffffff811115610b0957610b08613224565b5b604051908082528060200260200182016040528015610b4257816020015b610b2f612c43565b815260200190600190039081610b275790505b50905060005b84811015610d18573373ffffffffffffffffffffffffffffffffffffffff16600b6000600184610b7891906137a3565b815260200190815260200160002060020160009054906101000a900473ffffffffffffffffffffffffffffffffffffffff1673ffffffffffffffffffffffffffffffffffffffff161415610d05576000600182610bd591906137a3565b90506000600b60008381526020019081526020016000209050806040518060a0016040529081600082015481526020016001820160009054906101000a900473ffffffffffffffffffffffffffffffffffffffff1673ffffffffffffffffffffffffffffffffffffffff1673ffffffffffffffffffffffffffffffffffffffff1681526020016002820160009054906101000a900473ffffffffffffffffffffffffffffffffffffffff1673ffffffffffffffffffffffffffffffffffffffff1673ffffffffffffffffffffffffffffffffffffffff168152602001600382015481526020016004820160009054906101000a900460ff161515151581525050848681518110610ce857610ce76137f9565b5b6020026020010181905250600185610d0091906137a3565b945050505b8080610d1090613828565b915050610b48565b508094505050505090565b610d34610d2e611ade565b82611bad565b610d73576040517f08c379a0000000000000000000000000000000000000000000000000000000008152600401610d6a906138e3565b60405180910390fd5b610d7e838383611c42565b505050565b610d9e83838360405180602001604052806000815250611354565b505050565b60606000610db16007611b9f565b905060008060005b83811015610e5a573373ffffffffffffffffffffffffffffffffffffffff16600b6000600184610de991906137a3565b815260200190815260200160002060010160009054906101000a900473ffffffffffffffffffffffffffffffffffffffff1673ffffffffffffffffffffffffffffffffffffffff161415610e4757600183610e4491906137a3565b92505b8080610e5290613828565b915050610db9565b5060008267ffffffffffffffff811115610e7757610e76613224565b5b604051908082528060200260200182016040528015610eb057816020015b610e9d612c43565b815260200190600190039081610e955790505b50905060005b84811015611086573373ffffffffffffffffffffffffffffffffffffffff16600b6000600184610ee691906137a3565b815260200190815260200160002060010160009054906101000a900473ffffffffffffffffffffffffffffffffffffffff1673ffffffffffffffffffffffffffffffffffffffff161415611073576000600182610f4391906137a3565b90506000600b60008381526020019081526020016000209050806040518060a0016040529081600082015481526020016001820160009054906101000a900473ffffffffffffffffffffffffffffffffffffffff1673ffffffffffffffffffffffffffffffffffffffff1673ffffffffffffffffffffffffffffffffffffffff1681526020016002820160009054906101000a900473ffffffffffffffffffffffffffffffffffffffff1673ffffffffffffffffffffffffffffffffffffffff1673ffffffffffffffffffffffffffffffffffffffff168152602001600382015481526020016004820160009054906101000a900460ff161515151581525050848681518110611056576110556137f9565b5b602002602001018190525060018561106e91906137a3565b945050505b808061107e90613828565b915050610eb6565b508094505050505090565b60008061109d83611f3c565b9050600073ffffffffffffffffffffffffffffffffffffffff168173ffffffffffffffffffffffffffffffffffffffff16141561110f576040517f08c379a00000000000000000000000000000000000000000000000000000000081526004016111069061394f565b60405180910390fd5b80915050919050565b60008073ffffffffffffffffffffffffffffffffffffffff168273ffffffffffffffffffffffffffffffffffffffff161415611189576040517f08c379a0000000000000000000000000000000000000000000000000000000008152600401611180906139e1565b60405180910390fd5b600360008373ffffffffffffffffffffffffffffffffffffffff1673ffffffffffffffffffffffffffffffffffffffff168152602001908152602001600020549050919050565b60006111dc6007611f79565b60006111e86007611b9f565b90506111f43382611f8f565b6111fe81856121ad565b6112088184612221565b8091505092915050565b606060018054611221906135ea565b80601f016020809104026020016040519081016040528092919081815260200182805461124d906135ea565b801561129a5780601f1061126f5761010080835404028352916020019161129a565b820191906000526020600020905b81548152906001019060200180831161127d57829003601f168201915b5050505050905090565b6112b66112af611ade565b8383612424565b5050565b3373ffffffffffffffffffffffffffffffffffffffff16600a60009054906101000a900473ffffffffffffffffffffffffffffffffffffffff1673ffffffffffffffffffffffffffffffffffffffff161461134a576040517f08c379a000000000000000000000000000000000000000000000000000000000815260040161134190613a73565b60405180910390fd5b8060098190555050565b61136561135f611ade565b83611bad565b6113a4576040517f08c379a000000000000000000000000000000000000000000000000000000000815260040161139b906138e3565b60405180910390fd5b6113b084848484612591565b50505050565b6000600b60008381526020019081526020016000206003015490506000600b600084815260200190815260200160002060010160009054906101000a900473ffffffffffffffffffffffffffffffffffffffff16905081341461144e576040517f08c379a000000000000000000000000000000000000000000000000000000000815260040161144590613b05565b60405180910390fd5b33600b600085815260200190815260200160002060020160006101000a81548173ffffffffffffffffffffffffffffffffffffffff021916908373ffffffffffffffffffffffffffffffffffffffff1602179055506001600b600085815260200190815260200160002060040160006101000a81548160ff0219169083151502179055506000600b600085815260200190815260200160002060010160006101000a81548173ffffffffffffffffffffffffffffffffffffffff021916908373ffffffffffffffffffffffffffffffffffffffff1602179055506115326008611f79565b61153d303385611c42565b600a60009054906101000a900473ffffffffffffffffffffffffffffffffffffffff1673ffffffffffffffffffffffffffffffffffffffff166108fc6009549081150290604051600060405180830381858888f193505050501580156115a7573d6000803e3d6000fd5b508073ffffffffffffffffffffffffffffffffffffffff166108fc349081150290604051600060405180830381858888f193505050501580156115ee573d6000803e3d6000fd5b50505050565b60606115ff82611a93565b600060066000848152602001908152602001600020805461161f906135ea565b80601f016020809104026020016040519081016040528092919081815260200182805461164b906135ea565b80156116985780601f1061166d57610100808354040283529160200191611698565b820191906000526020600020905b81548152906001019060200180831161167b57829003601f168201915b5050505050905060006116a96125ed565b90506000815114156116bf578192505050611702565b6000825111156116f45780826040516020016116dc929190613b61565b60405160208183030381529060405292505050611702565b6116fd84612604565b925050505b919050565b3373ffffffffffffffffffffffffffffffffffffffff16600b600084815260200190815260200160002060020160009054906101000a900473ffffffffffffffffffffffffffffffffffffffff1673ffffffffffffffffffffffffffffffffffffffff16146117ab576040517f08c379a00000000000000000000000000000000000000000000000000000000081526004016117a290613bf7565b60405180910390fd5b60095434146117ef576040517f08c379a00000000000000000000000000000000000000000000000000000000081526004016117e690613c89565b60405180910390fd5b6000600b600084815260200190815260200160002060040160006101000a81548160ff02191690831515021790555080600b60008481526020019081526020016000206003018190555033600b600084815260200190815260200160002060010160006101000a81548173ffffffffffffffffffffffffffffffffffffffff021916908373ffffffffffffffffffffffffffffffffffffffff16021790555030600b600084815260200190815260200160002060020160006101000a81548173ffffffffffffffffffffffffffffffffffffffff021916908373ffffffffffffffffffffffffffffffffffffffff1602179055506118ed600861266c565b6118f8333084611c42565b5050565b6000600560008473ffffffffffffffffffffffffffffffffffffffff1673ffffffffffffffffffffffffffffffffffffffff16815260200190815260200160002060008373ffffffffffffffffffffffffffffffffffffffff1673ffffffffffffffffffffffffffffffffffffffff16815260200190815260200160002060009054906101000a900460ff16905092915050565b611a26816040516024016119a49190612f71565b6040516020818303038152906040527f2c2ecbc2000000000000000000000000000000000000000000000000000000007bffffffffffffffffffffffffffffffffffffffffffffffffffffffff19166020820180517bffffffffffffffffffffffffffffffffffffffffffffffffffffffff83818316178352505050506126c8565b50565b60007f01ffc9a7000000000000000000000000000000000000000000000000000000007bffffffffffffffffffffffffffffffffffffffffffffffffffffffff1916827bffffffffffffffffffffffffffffffffffffffffffffffffffffffff1916149050919050565b611a9c816126f1565b611adb576040517f08c379a0000000000000000000000000000000000000000000000000000000008152600401611ad29061394f565b60405180910390fd5b50565b600033905090565b816004600083815260200190815260200160002060006101000a81548173ffffffffffffffffffffffffffffffffffffffff021916908373ffffffffffffffffffffffffffffffffffffffff160217905550808273ffffffffffffffffffffffffffffffffffffffff16611b5983611091565b73ffffffffffffffffffffffffffffffffffffffff167f8c5be1e5ebec7d5bd14f71427d1e84f3dd0314c0f7b2291e5b200ac8c7c3b92560405160405180910390a45050565b600081600001549050919050565b600080611bb983611091565b90508073ffffffffffffffffffffffffffffffffffffffff168473ffffffffffffffffffffffffffffffffffffffff161480611bfb5750611bfa81856118fc565b5b80611c3957508373ffffffffffffffffffffffffffffffffffffffff16611c2184610664565b73ffffffffffffffffffffffffffffffffffffffff16145b91505092915050565b8273ffffffffffffffffffffffffffffffffffffffff16611c6282611091565b73ffffffffffffffffffffffffffffffffffffffff1614611cb8576040517f08c379a0000000000000000000000000000000000000000000000000000000008152600401611caf90613d1b565b60405180910390fd5b600073ffffffffffffffffffffffffffffffffffffffff168273ffffffffffffffffffffffffffffffffffffffff161415611d28576040517f08c379a0000000000000000000000000000000000000000000000000000000008152600401611d1f90613dad565b60405180910390fd5b611d358383836001612732565b8273ffffffffffffffffffffffffffffffffffffffff16611d5582611091565b73ffffffffffffffffffffffffffffffffffffffff1614611dab576040517f08c379a0000000000000000000000000000000000000000000000000000000008152600401611da290613d1b565b60405180910390fd5b6004600082815260200190815260200160002060006101000a81549073ffffffffffffffffffffffffffffffffffffffff02191690556001600360008573ffffffffffffffffffffffffffffffffffffffff1673ffffffffffffffffffffffffffffffffffffffff168152602001908152602001600020600082825403925050819055506001600360008473ffffffffffffffffffffffffffffffffffffffff1673ffffffffffffffffffffffffffffffffffffffff16815260200190815260200160002060008282540192505081905550816002600083815260200190815260200160002060006101000a81548173ffffffffffffffffffffffffffffffffffffffff021916908373ffffffffffffffffffffffffffffffffffffffff160217905550808273ffffffffffffffffffffffffffffffffffffffff168473ffffffffffffffffffffffffffffffffffffffff167fddf252ad1be2c89b69c2b068fc378daa952ba7f163c4a11628f55a4df523b3ef60405160405180910390a4611f378383836001612858565b505050565b60006002600083815260200190815260200160002060009054906101000a900473ffffffffffffffffffffffffffffffffffffffff169050919050565b6001816000016000828254019250508190555050565b600073ffffffffffffffffffffffffffffffffffffffff168273ffffffffffffffffffffffffffffffffffffffff161415611fff576040517f08c379a0000000000000000000000000000000000000000000000000000000008152600401611ff690613e19565b60405180910390fd5b612008816126f1565b15612048576040517f08c379a000000000000000000000000000000000000000000000000000000000815260040161203f90613e85565b60405180910390fd5b612056600083836001612732565b61205f816126f1565b1561209f576040517f08c379a000000000000000000000000000000000000000000000000000000000815260040161209690613e85565b60405180910390fd5b6001600360008473ffffffffffffffffffffffffffffffffffffffff1673ffffffffffffffffffffffffffffffffffffffff16815260200190815260200160002060008282540192505081905550816002600083815260200190815260200160002060006101000a81548173ffffffffffffffffffffffffffffffffffffffff021916908373ffffffffffffffffffffffffffffffffffffffff160217905550808273ffffffffffffffffffffffffffffffffffffffff16600073ffffffffffffffffffffffffffffffffffffffff167fddf252ad1be2c89b69c2b068fc378daa952ba7f163c4a11628f55a4df523b3ef60405160405180910390a46121a9600083836001612858565b5050565b6121b6826126f1565b6121f5576040517f08c379a00000000000000000000000000000000000000000000000000000000081526004016121ec90613f17565b60405180910390fd5b8060066000848152602001908152602001600020908051906020019061221c929190612ca0565b505050565b60008111612264576040517f08c379a000000000000000000000000000000000000000000000000000000000815260040161225b90613f83565b60405180910390fd5b60095434146122a8576040517f08c379a000000000000000000000000000000000000000000000000000000000815260040161229f90613c89565b60405180910390fd5b6040518060a001604052808381526020013373ffffffffffffffffffffffffffffffffffffffff1681526020013073ffffffffffffffffffffffffffffffffffffffff16815260200182815260200160001515815250600b60008481526020019081526020016000206000820151816000015560208201518160010160006101000a81548173ffffffffffffffffffffffffffffffffffffffff021916908373ffffffffffffffffffffffffffffffffffffffff16021790555060408201518160020160006101000a81548173ffffffffffffffffffffffffffffffffffffffff021916908373ffffffffffffffffffffffffffffffffffffffff1602179055506060820151816003015560808201518160040160006101000a81548160ff0219169083151502179055509050506123e1333084611c42565b817fb640004f1d14576d0c209e240cad0410e0d8c0c33a09375861fbadae2588a98d33308460006040516124189493929190613fa3565b60405180910390a25050565b8173ffffffffffffffffffffffffffffffffffffffff168373ffffffffffffffffffffffffffffffffffffffff161415612493576040517f08c379a000000000000000000000000000000000000000000000000000000000815260040161248a90614034565b60405180910390fd5b80600560008573ffffffffffffffffffffffffffffffffffffffff1673ffffffffffffffffffffffffffffffffffffffff16815260200190815260200160002060008473ffffffffffffffffffffffffffffffffffffffff1673ffffffffffffffffffffffffffffffffffffffff16815260200190815260200160002060006101000a81548160ff0219169083151502179055508173ffffffffffffffffffffffffffffffffffffffff168373ffffffffffffffffffffffffffffffffffffffff167f17307eab39ab6107e8899845ad3d59bd9653f200f220920489ca2b5937696c31836040516125849190612df7565b60405180910390a3505050565b61259c848484611c42565b6125a88484848461285e565b6125e7576040517f08c379a00000000000000000000000000000000000000000000000000000000081526004016125de906140c6565b60405180910390fd5b50505050565b606060405180602001604052806000815250905090565b606061260f82611a93565b60006126196125ed565b905060008151116126395760405180602001604052806000815250612664565b80612643846129f5565b604051602001612654929190613b61565b6040516020818303038152906040525b915050919050565b600081600001549050600081116126b8576040517f08c379a00000000000000000000000000000000000000000000000000000000081526004016126af90614132565b60405180910390fd5b6001810382600001819055505050565b60008151905060006a636f6e736f6c652e6c6f679050602083016000808483855afa5050505050565b60008073ffffffffffffffffffffffffffffffffffffffff1661271383611f3c565b73ffffffffffffffffffffffffffffffffffffffff1614159050919050565b600181111561285257600073ffffffffffffffffffffffffffffffffffffffff168473ffffffffffffffffffffffffffffffffffffffff16146127c65780600360008673ffffffffffffffffffffffffffffffffffffffff1673ffffffffffffffffffffffffffffffffffffffff16815260200190815260200160002060008282546127be919061376f565b925050819055505b600073ffffffffffffffffffffffffffffffffffffffff168373ffffffffffffffffffffffffffffffffffffffff16146128515780600360008573ffffffffffffffffffffffffffffffffffffffff1673ffffffffffffffffffffffffffffffffffffffff168152602001908152602001600020600082825461284991906137a3565b925050819055505b5b50505050565b50505050565b600061287f8473ffffffffffffffffffffffffffffffffffffffff16612acd565b156129e8578373ffffffffffffffffffffffffffffffffffffffff1663150b7a026128a8611ade565b8786866040518563ffffffff1660e01b81526004016128ca94939291906141a7565b602060405180830381600087803b1580156128e457600080fd5b505af192505050801561291557506040513d601f19601f820116820180604052508101906129129190614208565b60015b612998573d8060008114612945576040519150601f19603f3d011682016040523d82523d6000602084013e61294a565b606091505b50600081511415612990576040517f08c379a0000000000000000000000000000000000000000000000000000000008152600401612987906140c6565b60405180910390fd5b805181602001fd5b63150b7a0260e01b7bffffffffffffffffffffffffffffffffffffffffffffffffffffffff1916817bffffffffffffffffffffffffffffffffffffffffffffffffffffffff1916149150506129ed565b600190505b949350505050565b606060006001612a0484612af0565b01905060008167ffffffffffffffff811115612a2357612a22613224565b5b6040519080825280601f01601f191660200182016040528015612a555781602001600182028036833780820191505090505b509050600082602001820190505b600115612ac2578080600190039150507f3031323334353637383961626364656600000000000000000000000000000000600a86061a8153600a8581612aac57612aab614235565b5b0494506000851415612abd57612ac2565b612a63565b819350505050919050565b6000808273ffffffffffffffffffffffffffffffffffffffff163b119050919050565b600080600090507a184f03e93ff9f4daa797ed6e38ed64bf6a1f0100000000000000008310612b4e577a184f03e93ff9f4daa797ed6e38ed64bf6a1f0100000000000000008381612b4457612b43614235565b5b0492506040810190505b6d04ee2d6d415b85acef81000000008310612b8b576d04ee2d6d415b85acef81000000008381612b8157612b80614235565b5b0492506020810190505b662386f26fc100008310612bba57662386f26fc100008381612bb057612baf614235565b5b0492506010810190505b6305f5e1008310612be3576305f5e1008381612bd957612bd8614235565b5b0492506008810190505b6127108310612c08576127108381612bfe57612bfd614235565b5b0492506004810190505b60648310612c2b5760648381612c2157612c20614235565b5b0492506002810190505b600a8310612c3a576001810190505b80915050919050565b6040518060a0016040528060008152602001600073ffffffffffffffffffffffffffffffffffffffff168152602001600073ffffffffffffffffffffffffffffffffffffffff168152602001600081526020016000151581525090565b828054612cac906135ea565b90600052602060002090601f016020900481019282612cce5760008555612d15565b82601f10612ce757805160ff1916838001178555612d15565b82800160010185558215612d15579182015b82811115612d14578251825591602001919060010190612cf9565b5b509050612d229190612d26565b5090565b5b80821115612d3f576000816000905550600101612d27565b5090565b6000604051905090565b600080fd5b600080fd5b60007fffffffff0000000000000000000000000000000000000000000000000000000082169050919050565b612d8c81612d57565b8114612d9757600080fd5b50565b600081359050612da981612d83565b92915050565b600060208284031215612dc557612dc4612d4d565b5b6000612dd384828501612d9a565b91505092915050565b60008115159050919050565b612df181612ddc565b82525050565b6000602082019050612e0c6000830184612de8565b92915050565b600081519050919050565b600082825260208201905092915050565b60005b83811015612e4c578082015181840152602081019050612e31565b83811115612e5b576000848401525b50505050565b6000601f19601f8301169050919050565b6000612e7d82612e12565b612e878185612e1d565b9350612e97818560208601612e2e565b612ea081612e61565b840191505092915050565b60006020820190508181036000830152612ec58184612e72565b905092915050565b6000819050919050565b612ee081612ecd565b8114612eeb57600080fd5b50565b600081359050612efd81612ed7565b92915050565b600060208284031215612f1957612f18612d4d565b5b6000612f2784828501612eee565b91505092915050565b600073ffffffffffffffffffffffffffffffffffffffff82169050919050565b6000612f5b82612f30565b9050919050565b612f6b81612f50565b82525050565b6000602082019050612f866000830184612f62565b92915050565b612f9581612f50565b8114612fa057600080fd5b50565b600081359050612fb281612f8c565b92915050565b60008060408385031215612fcf57612fce612d4d565b5b6000612fdd85828601612fa3565b9250506020612fee85828601612eee565b9150509250929050565b600081519050919050565b600082825260208201905092915050565b6000819050602082019050919050565b61302d81612ecd565b82525050565b600061303e82612f30565b9050919050565b61304e81613033565b82525050565b61305d81612ddc565b82525050565b60a0820160008201516130796000850182613024565b50602082015161308c6020850182613045565b50604082015161309f6040850182613045565b5060608201516130b26060850182613024565b5060808201516130c56080850182613054565b50505050565b60006130d78383613063565b60a08301905092915050565b6000602082019050919050565b60006130fb82612ff8565b6131058185613003565b935061311083613014565b8060005b8381101561314157815161312888826130cb565b9750613133836130e3565b925050600181019050613114565b5085935050505092915050565b6000602082019050818103600083015261316881846130f0565b905092915050565b61317981612ecd565b82525050565b60006020820190506131946000830184613170565b92915050565b6000806000606084860312156131b3576131b2612d4d565b5b60006131c186828701612fa3565b93505060206131d286828701612fa3565b92505060406131e386828701612eee565b9150509250925092565b60006020828403121561320357613202612d4d565b5b600061321184828501612fa3565b91505092915050565b600080fd5b600080fd5b7f4e487b7100000000000000000000000000000000000000000000000000000000600052604160045260246000fd5b61325c82612e61565b810181811067ffffffffffffffff8211171561327b5761327a613224565b5b80604052505050565b600061328e612d43565b905061329a8282613253565b919050565b600067ffffffffffffffff8211156132ba576132b9613224565b5b6132c382612e61565b9050602081019050919050565b82818337600083830152505050565b60006132f26132ed8461329f565b613284565b90508281526020810184848401111561330e5761330d61321f565b5b6133198482856132d0565b509392505050565b600082601f8301126133365761333561321a565b5b81356133468482602086016132df565b91505092915050565b6000806040838503121561336657613365612d4d565b5b600083013567ffffffffffffffff81111561338457613383612d52565b5b61339085828601613321565b92505060206133a185828601612eee565b9150509250929050565b6133b481612ddc565b81146133bf57600080fd5b50565b6000813590506133d1816133ab565b92915050565b600080604083850312156133ee576133ed612d4d565b5b60006133fc85828601612fa3565b925050602061340d858286016133c2565b9150509250929050565b600067ffffffffffffffff82111561343257613431613224565b5b61343b82612e61565b9050602081019050919050565b600061345b61345684613417565b613284565b9050828152602081018484840111156134775761347661321f565b5b6134828482856132d0565b509392505050565b600082601f83011261349f5761349e61321a565b5b81356134af848260208601613448565b91505092915050565b600080600080608085870312156134d2576134d1612d4d565b5b60006134e087828801612fa3565b94505060206134f187828801612fa3565b935050604061350287828801612eee565b925050606085013567ffffffffffffffff81111561352357613522612d52565b5b61352f8782880161348a565b91505092959194509250565b6000806040838503121561355257613551612d4d565b5b600061356085828601612eee565b925050602061357185828601612eee565b9150509250929050565b6000806040838503121561359257613591612d4d565b5b60006135a085828601612fa3565b92505060206135b185828601612fa3565b9150509250929050565b7f4e487b7100000000000000000000000000000000000000000000000000000000600052602260045260246000fd5b6000600282049050600182168061360257607f821691505b60208210811415613616576136156135bb565b5b50919050565b7f4552433732313a20617070726f76616c20746f2063757272656e74206f776e6560008201527f7200000000000000000000000000000000000000000000000000000000000000602082015250565b6000613678602183612e1d565b91506136838261361c565b604082019050919050565b600060208201905081810360008301526136a78161366b565b9050919050565b7f4552433732313a20617070726f76652063616c6c6572206973206e6f7420746f60008201527f6b656e206f776e6572206f7220617070726f76656420666f7220616c6c000000602082015250565b600061370a603d83612e1d565b9150613715826136ae565b604082019050919050565b60006020820190508181036000830152613739816136fd565b9050919050565b7f4e487b7100000000000000000000000000000000000000000000000000000000600052601160045260246000fd5b600061377a82612ecd565b915061378583612ecd565b92508282101561379857613797613740565b5b828203905092915050565b60006137ae82612ecd565b91506137b983612ecd565b9250827fffffffffffffffffffffffffffffffffffffffffffffffffffffffffffffffff038211156137ee576137ed613740565b5b828201905092915050565b7f4e487b7100000000000000000000000000000000000000000000000000000000600052603260045260246000fd5b600061383382612ecd565b91507fffffffffffffffffffffffffffffffffffffffffffffffffffffffffffffffff82141561386657613865613740565b5b600182019050919050565b7f4552433732313a2063616c6c6572206973206e6f7420746f6b656e206f776e6560008201527f72206f7220617070726f76656400000000000000000000000000000000000000602082015250565b60006138cd602d83612e1d565b91506138d882613871565b604082019050919050565b600060208201905081810360008301526138fc816138c0565b9050919050565b7f4552433732313a20696e76616c696420746f6b656e2049440000000000000000600082015250565b6000613939601883612e1d565b915061394482613903565b602082019050919050565b600060208201905081810360008301526139688161392c565b9050919050565b7f4552433732313a2061646472657373207a65726f206973206e6f74206120766160008201527f6c6964206f776e65720000000000000000000000000000000000000000000000602082015250565b60006139cb602983612e1d565b91506139d68261396f565b604082019050919050565b600060208201905081810360008301526139fa816139be565b9050919050565b7f4f6e6c79206d61726b6574706c616365206f776e65722063616e20757064617460008201527f65206c697374696e672070726963652e00000000000000000000000000000000602082015250565b6000613a5d603083612e1d565b9150613a6882613a01565b604082019050919050565b60006020820190508181036000830152613a8c81613a50565b9050919050565b7f506c65617365207375626d6974207468652061736b696e67207072696365206960008201527f6e206f7264657220746f20636f6d706c65746520746865207075726368617365602082015250565b6000613aef604083612e1d565b9150613afa82613a93565b604082019050919050565b60006020820190508181036000830152613b1e81613ae2565b9050919050565b600081905092915050565b6000613b3b82612e12565b613b458185613b25565b9350613b55818560208601612e2e565b80840191505092915050565b6000613b6d8285613b30565b9150613b798284613b30565b91508190509392505050565b7f4f6e6c79206974656d206f776e65722063616e20706572666f726d207468697360008201527f206f7065726174696f6e00000000000000000000000000000000000000000000602082015250565b6000613be1602a83612e1d565b9150613bec82613b85565b604082019050919050565b60006020820190508181036000830152613c1081613bd4565b9050919050565b7f5072696365206d75737420626520657175616c20746f206c697374696e67207060008201527f7269636500000000000000000000000000000000000000000000000000000000602082015250565b6000613c73602483612e1d565b9150613c7e82613c17565b604082019050919050565b60006020820190508181036000830152613ca281613c66565b9050919050565b7f4552433732313a207472616e736665722066726f6d20696e636f72726563742060008201527f6f776e6572000000000000000000000000000000000000000000000000000000602082015250565b6000613d05602583612e1d565b9150613d1082613ca9565b604082019050919050565b60006020820190508181036000830152613d3481613cf8565b9050919050565b7f4552433732313a207472616e7366657220746f20746865207a65726f2061646460008201527f7265737300000000000000000000000000000000000000000000000000000000602082015250565b6000613d97602483612e1d565b9150613da282613d3b565b604082019050919050565b60006020820190508181036000830152613dc681613d8a565b9050919050565b7f4552433732313a206d696e7420746f20746865207a65726f2061646472657373600082015250565b6000613e03602083612e1d565b9150613e0e82613dcd565b602082019050919050565b60006020820190508181036000830152613e3281613df6565b9050919050565b7f4552433732313a20746f6b656e20616c7265616479206d696e74656400000000600082015250565b6000613e6f601c83612e1d565b9150613e7a82613e39565b602082019050919050565b60006020820190508181036000830152613e9e81613e62565b9050919050565b7f45524337323155524953746f726167653a2055524920736574206f66206e6f6e60008201527f6578697374656e7420746f6b656e000000000000000000000000000000000000602082015250565b6000613f01602e83612e1d565b9150613f0c82613ea5565b604082019050919050565b60006020820190508181036000830152613f3081613ef4565b9050919050565b7f5072696365206d757374206265206174206c6561737420312077656900000000600082015250565b6000613f6d601c83612e1d565b9150613f7882613f37565b602082019050919050565b60006020820190508181036000830152613f9c81613f60565b9050919050565b6000608082019050613fb86000830187612f62565b613fc56020830186612f62565b613fd26040830185613170565b613fdf6060830184612de8565b95945050505050565b7f4552433732313a20617070726f766520746f2063616c6c657200000000000000600082015250565b600061401e601983612e1d565b915061402982613fe8565b602082019050919050565b6000602082019050818103600083015261404d81614011565b9050919050565b7f4552433732313a207472616e7366657220746f206e6f6e20455243373231526560008201527f63656976657220696d706c656d656e7465720000000000000000000000000000602082015250565b60006140b0603283612e1d565b91506140bb82614054565b604082019050919050565b600060208201905081810360008301526140df816140a3565b9050919050565b7f436f756e7465723a2064656372656d656e74206f766572666c6f770000000000600082015250565b600061411c601b83612e1d565b9150614127826140e6565b602082019050919050565b6000602082019050818103600083015261414b8161410f565b9050919050565b600081519050919050565b600082825260208201905092915050565b600061417982614152565b614183818561415d565b9350614193818560208601612e2e565b61419c81612e61565b840191505092915050565b60006080820190506141bc6000830187612f62565b6141c96020830186612f62565b6141d66040830185613170565b81810360608301526141e8818461416e565b905095945050505050565b60008151905061420281612d83565b92915050565b60006020828403121561421e5761421d612d4d565b5b600061422c848285016141f3565b91505092915050565b7f4e487b7100000000000000000000000000000000000000000000000000000000600052601260045260246000fdfea2646970667358221220600abef902f7c922619647fb81005637f42ee42fa361766d5fac7e28966f6a3964736f6c63430008090033",
  "linkReferences": {},
  "deployedLinkReferences": {}
}