{
  "_format": "hh-sol-artifact-1",
  "contractName": "InnomicNFT",
  "sourceName": "src/blockchain/contracts/InnomicNFT.sol",
  "abi": [
    {
      "inputs": [
        {
          "internalType": "string",
          "name": "name_",
          "type": "string"
        },
        {
          "internalType": "string",
          "name": "symbol_",
          "type": "string"
        },
        {
          "internalType": "string",
          "name": "newBaseURI",
          "type": "string"
        }
      ],
      "stateMutability": "nonpayable",
      "type": "constructor"
    },
    {
      "anonymous": false,
      "inputs": [
        {
          "indexed": true,
          "internalType": "address",
          "name": "owner",
          "type": "address"
        },
        {
          "indexed": true,
          "internalType": "address",
          "name": "approved",
          "type": "address"
        },
        {
          "indexed": true,
          "internalType": "uint256",
          "name": "tokenId",
          "type": "uint256"
        }
      ],
      "name": "Approval",
      "type": "event"
    },
    {
      "anonymous": false,
      "inputs": [
        {
          "indexed": true,
          "internalType": "address",
          "name": "owner",
          "type": "address"
        },
        {
          "indexed": true,
          "internalType": "address",
          "name": "operator",
          "type": "address"
        },
        {
          "indexed": false,
          "internalType": "bool",
          "name": "approved",
          "type": "bool"
        }
      ],
      "name": "ApprovalForAll",
      "type": "event"
    },
    {
      "anonymous": false,
      "inputs": [
        {
          "indexed": true,
          "internalType": "uint256",
          "name": "itemId",
          "type": "uint256"
        },
        {
          "indexed": true,
          "internalType": "uint256",
          "name": "tokenId",
          "type": "uint256"
        },
        {
          "indexed": false,
          "internalType": "address",
          "name": "seller",
          "type": "address"
        },
        {
          "indexed": false,
          "internalType": "address",
          "name": "owner",
          "type": "address"
        },
        {
          "indexed": false,
          "internalType": "uint256",
          "name": "price",
          "type": "uint256"
        },
        {
          "indexed": false,
          "internalType": "bool",
          "name": "sold",
          "type": "bool"
        }
      ],
      "name": "MarketItemCreated",
      "type": "event"
    },
    {
      "anonymous": false,
      "inputs": [
        {
          "indexed": true,
          "internalType": "uint256",
          "name": "itemId",
          "type": "uint256"
        },
        {
          "indexed": true,
          "internalType": "uint256",
          "name": "tokenId",
          "type": "uint256"
        },
        {
          "indexed": false,
          "internalType": "address",
          "name": "seller",
          "type": "address"
        },
        {
          "indexed": false,
          "internalType": "address",
          "name": "owner",
          "type": "address"
        },
        {
          "indexed": false,
          "internalType": "uint256",
          "name": "price",
          "type": "uint256"
        }
      ],
      "name": "MarketItemSold",
      "type": "event"
    },
    {
      "anonymous": false,
      "inputs": [
        {
          "indexed": true,
          "internalType": "address",
          "name": "from",
          "type": "address"
        },
        {
          "indexed": true,
          "internalType": "address",
          "name": "to",
          "type": "address"
        },
        {
          "indexed": true,
          "internalType": "uint256",
          "name": "tokenId",
          "type": "uint256"
        }
      ],
      "name": "Transfer",
      "type": "event"
    },
    {
      "inputs": [
        {
          "internalType": "address",
          "name": "to",
          "type": "address"
        },
        {
          "internalType": "uint256",
          "name": "URInum",
          "type": "uint256"
        }
      ],
      "name": "_mintTokenAllowedToEarn",
      "outputs": [],
      "stateMutability": "payable",
      "type": "function"
    },
    {
      "inputs": [
        {
          "internalType": "address",
          "name": "to",
          "type": "address"
        },
        {
          "internalType": "uint256",
          "name": "URInum",
          "type": "uint256"
        }
      ],
      "name": "_mintTokenNotAllowedToEarn",
      "outputs": [],
      "stateMutability": "payable",
      "type": "function"
    },
    {
      "inputs": [
        {
          "internalType": "address",
          "name": "to",
          "type": "address"
        },
        {
          "internalType": "uint256",
          "name": "tokenId",
          "type": "uint256"
        }
      ],
      "name": "_safeTransfer",
      "outputs": [],
      "stateMutability": "nonpayable",
      "type": "function"
    },
    {
      "inputs": [
        {
          "internalType": "address",
          "name": "to",
          "type": "address"
        },
        {
          "internalType": "uint256",
          "name": "tokenId",
          "type": "uint256"
        }
      ],
      "name": "_safeTransferPool",
      "outputs": [],
      "stateMutability": "nonpayable",
      "type": "function"
    },
    {
      "inputs": [
        {
          "internalType": "string",
          "name": "newBaseURI",
          "type": "string"
        }
      ],
      "name": "_setBaseURI",
      "outputs": [],
      "stateMutability": "nonpayable",
      "type": "function"
    },
    {
      "inputs": [
        {
          "internalType": "uint256",
          "name": "newlimite",
          "type": "uint256"
        }
      ],
      "name": "_setlimite",
      "outputs": [],
      "stateMutability": "nonpayable",
      "type": "function"
    },
    {
      "inputs": [
        {
          "internalType": "address",
          "name": "to",
          "type": "address"
        },
        {
          "internalType": "uint256",
          "name": "tokenId",
          "type": "uint256"
        }
      ],
      "name": "approve",
      "outputs": [],
      "stateMutability": "nonpayable",
      "type": "function"
    },
    {
      "inputs": [],
      "name": "balance",
      "outputs": [
        {
          "internalType": "uint256",
          "name": "",
          "type": "uint256"
        }
      ],
      "stateMutability": "view",
      "type": "function"
    },
    {
      "inputs": [
        {
          "internalType": "address",
          "name": "owner",
          "type": "address"
        }
      ],
      "name": "balanceOf",
      "outputs": [
        {
          "internalType": "uint256",
          "name": "",
          "type": "uint256"
        }
      ],
      "stateMutability": "view",
      "type": "function"
    },
    {
      "inputs": [
        {
          "internalType": "uint256",
          "name": "tokenId",
          "type": "uint256"
        }
      ],
      "name": "burn",
      "outputs": [],
      "stateMutability": "nonpayable",
      "type": "function"
    },
    {
      "inputs": [
        {
          "internalType": "uint256",
          "name": "tokenId",
          "type": "uint256"
        }
      ],
      "name": "claseToken",
      "outputs": [
        {
          "internalType": "uint256",
          "name": "",
          "type": "uint256"
        }
      ],
      "stateMutability": "view",
      "type": "function"
    },
    {
      "inputs": [
        {
          "internalType": "uint256",
          "name": "tokenId",
          "type": "uint256"
        },
        {
          "internalType": "uint256",
          "name": "price",
          "type": "uint256"
        }
      ],
      "name": "createMarketItem",
      "outputs": [],
      "stateMutability": "payable",
      "type": "function"
    },
    {
      "inputs": [
        {
          "internalType": "uint256",
          "name": "itemId",
          "type": "uint256"
        }
      ],
      "name": "createMarketSale",
      "outputs": [],
      "stateMutability": "payable",
      "type": "function"
    },
    {
      "inputs": [
        {
          "internalType": "uint256",
          "name": "tokenId",
          "type": "uint256"
        }
      ],
      "name": "downgrade",
      "outputs": [],
      "stateMutability": "nonpayable",
      "type": "function"
    },
    {
      "inputs": [],
      "name": "fetchMyUnSoldMarketItems",
      "outputs": [
        {
          "components": [
            {
              "internalType": "uint256",
              "name": "itemId",
              "type": "uint256"
            },
            {
              "internalType": "uint256",
              "name": "tokenId",
              "type": "uint256"
            },
            {
              "internalType": "address payable",
              "name": "seller",
              "type": "address"
            },
            {
              "internalType": "address payable",
              "name": "owner",
              "type": "address"
            },
            {
              "internalType": "uint256",
              "name": "price",
              "type": "uint256"
            },
            {
              "internalType": "bool",
              "name": "sold",
              "type": "bool"
            }
          ],
          "internalType": "struct InnomicNFT.MarketItem[]",
          "name": "",
          "type": "tuple[]"
        }
      ],
      "stateMutability": "view",
      "type": "function"
    },
    {
      "inputs": [],
      "name": "fetchUnSoldMarketItems",
      "outputs": [
        {
          "components": [
            {
              "internalType": "uint256",
              "name": "itemId",
              "type": "uint256"
            },
            {
              "internalType": "uint256",
              "name": "tokenId",
              "type": "uint256"
            },
            {
              "internalType": "address payable",
              "name": "seller",
              "type": "address"
            },
            {
              "internalType": "address payable",
              "name": "owner",
              "type": "address"
            },
            {
              "internalType": "uint256",
              "name": "price",
              "type": "uint256"
            },
            {
              "internalType": "bool",
              "name": "sold",
              "type": "bool"
            }
          ],
          "internalType": "struct InnomicNFT.MarketItem[]",
          "name": "",
          "type": "tuple[]"
        }
      ],
      "stateMutability": "view",
      "type": "function"
    },
    {
      "inputs": [],
      "name": "getAllNFTs",
      "outputs": [
        {
          "internalType": "uint256[]",
          "name": "",
          "type": "uint256[]"
        }
      ],
      "stateMutability": "view",
      "type": "function"
    },
    {
      "inputs": [
        {
          "internalType": "uint256",
          "name": "tokenId",
          "type": "uint256"
        }
      ],
      "name": "getApproved",
      "outputs": [
        {
          "internalType": "address",
          "name": "",
          "type": "address"
        }
      ],
      "stateMutability": "view",
      "type": "function"
    },
    {
      "inputs": [
        {
          "internalType": "uint256",
          "name": "tokenId",
          "type": "uint256"
        }
      ],
      "name": "getParents",
      "outputs": [
        {
          "internalType": "uint256[]",
          "name": "",
          "type": "uint256[]"
        }
      ],
      "stateMutability": "view",
      "type": "function"
    },
    {
      "inputs": [
        {
          "internalType": "uint256",
          "name": "tokenId",
          "type": "uint256"
        }
      ],
      "name": "getUnFusioned",
      "outputs": [
        {
          "internalType": "uint8",
          "name": "",
          "type": "uint8"
        }
      ],
      "stateMutability": "view",
      "type": "function"
    },
    {
      "inputs": [
        {
          "internalType": "uint256",
          "name": "tokenId",
          "type": "uint256"
        }
      ],
      "name": "isAllowedToEarn",
      "outputs": [
        {
          "internalType": "bool",
          "name": "",
          "type": "bool"
        }
      ],
      "stateMutability": "view",
      "type": "function"
    },
    {
      "inputs": [
        {
          "internalType": "address",
          "name": "owner",
          "type": "address"
        },
        {
          "internalType": "address",
          "name": "operator",
          "type": "address"
        }
      ],
      "name": "isApprovedForAll",
      "outputs": [
        {
          "internalType": "bool",
          "name": "",
          "type": "bool"
        }
      ],
      "stateMutability": "view",
      "type": "function"
    },
    {
      "inputs": [],
      "name": "limite",
      "outputs": [
        {
          "internalType": "uint256",
          "name": "",
          "type": "uint256"
        }
      ],
      "stateMutability": "view",
      "type": "function"
    },
    {
      "inputs": [],
      "name": "name",
      "outputs": [
        {
          "internalType": "string",
          "name": "",
          "type": "string"
        }
      ],
      "stateMutability": "view",
      "type": "function"
    },
    {
      "inputs": [
        {
          "internalType": "uint256",
          "name": "tokenId",
          "type": "uint256"
        }
      ],
      "name": "ownerOf",
      "outputs": [
        {
          "internalType": "address",
          "name": "",
          "type": "address"
        }
      ],
      "stateMutability": "view",
      "type": "function"
    },
    {
      "inputs": [],
      "name": "poolNFT",
      "outputs": [
        {
          "internalType": "contract PoolNFT",
          "name": "",
          "type": "address"
        }
      ],
      "stateMutability": "view",
      "type": "function"
    },
    {
      "inputs": [
        {
          "internalType": "uint256",
          "name": "tokenId",
          "type": "uint256"
        }
      ],
      "name": "repay",
      "outputs": [],
      "stateMutability": "nonpayable",
      "type": "function"
    },
    {
      "inputs": [
        {
          "internalType": "address",
          "name": "from",
          "type": "address"
        },
        {
          "internalType": "address",
          "name": "to",
          "type": "address"
        },
        {
          "internalType": "uint256",
          "name": "tokenId",
          "type": "uint256"
        }
      ],
      "name": "safeTransferFrom",
      "outputs": [],
      "stateMutability": "nonpayable",
      "type": "function"
    },
    {
      "inputs": [
        {
          "internalType": "address",
          "name": "from",
          "type": "address"
        },
        {
          "internalType": "address",
          "name": "to",
          "type": "address"
        },
        {
          "internalType": "uint256",
          "name": "tokenId",
          "type": "uint256"
        },
        {
          "internalType": "bytes",
          "name": "data",
          "type": "bytes"
        }
      ],
      "name": "safeTransferFrom",
      "outputs": [],
      "stateMutability": "nonpayable",
      "type": "function"
    },
    {
      "inputs": [
        {
          "internalType": "address",
          "name": "operator",
          "type": "address"
        },
        {
          "internalType": "bool",
          "name": "approved",
          "type": "bool"
        }
      ],
      "name": "setApprovalForAll",
      "outputs": [],
      "stateMutability": "nonpayable",
      "type": "function"
    },
    {
      "inputs": [
        {
          "internalType": "address payable",
          "name": "poola",
          "type": "address"
        },
        {
          "internalType": "contract PoolNFT",
          "name": "pool",
          "type": "address"
        }
      ],
      "name": "setPoolNFT",
      "outputs": [],
      "stateMutability": "nonpayable",
      "type": "function"
    },
    {
      "inputs": [
        {
          "internalType": "uint256",
          "name": "priceMint_",
          "type": "uint256"
        }
      ],
      "name": "setPriceMint",
      "outputs": [],
      "stateMutability": "nonpayable",
      "type": "function"
    },
    {
      "inputs": [
        {
          "internalType": "bytes4",
          "name": "interfaceId",
          "type": "bytes4"
        }
      ],
      "name": "supportsInterface",
      "outputs": [
        {
          "internalType": "bool",
          "name": "",
          "type": "bool"
        }
      ],
      "stateMutability": "view",
      "type": "function"
    },
    {
      "inputs": [],
      "name": "symbol",
      "outputs": [
        {
          "internalType": "string",
          "name": "",
          "type": "string"
        }
      ],
      "stateMutability": "view",
      "type": "function"
    },
    {
      "inputs": [
        {
          "internalType": "uint256",
          "name": "index",
          "type": "uint256"
        }
      ],
      "name": "tokenByIndex",
      "outputs": [
        {
          "internalType": "uint256",
          "name": "",
          "type": "uint256"
        }
      ],
      "stateMutability": "view",
      "type": "function"
    },
    {
      "inputs": [
        {
          "internalType": "address",
          "name": "owner",
          "type": "address"
        },
        {
          "internalType": "uint256",
          "name": "index",
          "type": "uint256"
        }
      ],
      "name": "tokenOfOwnerByIndex",
      "outputs": [
        {
          "internalType": "uint256",
          "name": "",
          "type": "uint256"
        }
      ],
      "stateMutability": "view",
      "type": "function"
    },
    {
      "inputs": [
        {
          "internalType": "uint256",
          "name": "tokenId",
          "type": "uint256"
        }
      ],
      "name": "tokenURI",
      "outputs": [
        {
          "internalType": "string",
          "name": "",
          "type": "string"
        }
      ],
      "stateMutability": "view",
      "type": "function"
    },
    {
      "inputs": [],
      "name": "totalSupply",
      "outputs": [
        {
          "internalType": "uint256",
          "name": "",
          "type": "uint256"
        }
      ],
      "stateMutability": "view",
      "type": "function"
    },
    {
      "inputs": [
        {
          "internalType": "address",
          "name": "from",
          "type": "address"
        },
        {
          "internalType": "address",
          "name": "to",
          "type": "address"
        },
        {
          "internalType": "uint256",
          "name": "tokenId",
          "type": "uint256"
        }
      ],
      "name": "transferFrom",
      "outputs": [],
      "stateMutability": "nonpayable",
      "type": "function"
    },
    {
      "inputs": [
        {
          "internalType": "uint256",
          "name": "itemId",
          "type": "uint256"
        }
      ],
      "name": "unListMarketItem",
      "outputs": [],
      "stateMutability": "payable",
      "type": "function"
    },
    {
      "inputs": [
        {
          "internalType": "uint256",
          "name": "tokenId1",
          "type": "uint256"
        },
        {
          "internalType": "uint256",
          "name": "tokenId2",
          "type": "uint256"
        },
        {
          "internalType": "uint256",
          "name": "tokenId3",
          "type": "uint256"
        },
        {
          "internalType": "uint8",
          "name": "num",
          "type": "uint8"
        }
      ],
      "name": "upgrade",
      "outputs": [],
      "stateMutability": "nonpayable",
      "type": "function"
    }
  ],
  "bytecode": "0x60806040526064600d55662386f26fc100006015556014601c553480156200002657600080fd5b5060405162004cb838038062004cb8833981016040819052620000499162000220565b82518390839062000062906000906020850190620000ad565b50805162000078906001906020840190620000ad565b50508151620000909150600b906020840190620000ad565b5050601b80546001600160a01b0319163317905550620002ee9050565b828054620000bb90620002b1565b90600052602060002090601f016020900481019282620000df57600085556200012a565b82601f10620000fa57805160ff19168380011785556200012a565b828001600101855582156200012a579182015b828111156200012a5782518255916020019190600101906200010d565b50620001389291506200013c565b5090565b5b808211156200013857600081556001016200013d565b634e487b7160e01b600052604160045260246000fd5b600082601f8301126200017b57600080fd5b81516001600160401b038082111562000198576200019862000153565b604051601f8301601f19908116603f01168101908282118183101715620001c357620001c362000153565b81604052838152602092508683858801011115620001e057600080fd5b600091505b83821015620002045785820183015181830184015290820190620001e5565b83821115620002165760008385830101525b9695505050505050565b6000806000606084860312156200023657600080fd5b83516001600160401b03808211156200024e57600080fd5b6200025c8783880162000169565b945060208601519150808211156200027357600080fd5b620002818783880162000169565b935060408601519150808211156200029857600080fd5b50620002a78682870162000169565b9150509250925092565b600181811c90821680620002c657607f821691505b60208210811415620002e857634e487b7160e01b600052602260045260246000fd5b50919050565b6149ba80620002fe6000396000f3fe6080604052600436106102565760003560e01c80634f6ccce711610149578063b69868af116100c6578063c87b56dd1161008a578063e985e9c511610064578063e985e9c514610712578063f202dc2e1461075b578063f48422571461077b57600080fd5b8063c87b56dd146106bd578063dbab65ee146106dd578063e0391b09146106fd57600080fd5b8063b69868af14610642578063b69ef8a814610655578063b88d4fde1461066a578063be9af5361461068a578063c4f8210e1461069d57600080fd5b80638c4964eb1161010d5780638c4964eb146105c757806395d89b41146105da578063a0b49778146105ef578063a22cb4651461060f578063a63227361461062f57600080fd5b80634f6ccce7146105275780636352211e1461054757806370a08231146105675780637bafd87e1461058757806385dd9033146105a757600080fd5b806323b872dd116101d7578063371fd8e61161019b578063371fd8e614610485578063382edbcf146104a557806342842e0e146104ba57806342966c68146104da5780634e72a6fa146104fa57600080fd5b806323b872dd146103e5578063242a0087146104055780632f745c591461043257806331b5b90714610452578063361c19951461047257600080fd5b80630dee18e41161021e5780630dee18e41461034e57806311bcc81e1461036e57806313ad176d1461038e57806318160ddd146103b057806320eb8e53146103cf57600080fd5b806301ffc9a71461025b578063059f920c1461029057806306fdde03146102d2578063081812fc146102f4578063095ea7b31461032c575b600080fd5b34801561026757600080fd5b5061027b6102763660046142e1565b6107c4565b60405190151581526020015b60405180910390f35b34801561029c57600080fd5b506102c06102ab366004614305565b60009081526013602052604090205460ff1690565b60405160ff9091168152602001610287565b3480156102de57600080fd5b506102e76107ef565b6040516102879190614376565b34801561030057600080fd5b5061031461030f366004614305565b610881565b6040516001600160a01b039091168152602001610287565b34801561033857600080fd5b5061034c61034736600461439e565b6108a8565b005b34801561035a57600080fd5b5061034c610369366004614305565b601555565b34801561037a57600080fd5b5061034c610389366004614305565b6109c3565b34801561039a57600080fd5b506103a36113a6565b60405161028791906143ca565b3480156103bc57600080fd5b506008545b604051908152602001610287565b3480156103db57600080fd5b506103c1600d5481565b3480156103f157600080fd5b5061034c610400366004614452565b61163c565b34801561041157600080fd5b50610425610420366004614305565b6116b3565b6040516102879190614493565b34801561043e57600080fd5b506103c161044d36600461439e565b6117c3565b34801561045e57600080fd5b5061034c61046d366004614563565b611859565b61034c6104803660046145ac565b611870565b34801561049157600080fd5b5061034c6104a0366004614305565b611a47565b3480156104b157600080fd5b506103a3611b2b565b3480156104c657600080fd5b5061034c6104d5366004614452565b611d5d565b3480156104e657600080fd5b5061034c6104f5366004614305565b611d78565b34801561050657600080fd5b506103c1610515366004614305565b60009081526010602052604090205490565b34801561053357600080fd5b506103c1610542366004614305565b611e01565b34801561055357600080fd5b50610314610562366004614305565b611e94565b34801561057357600080fd5b506103c16105823660046145ce565b611ef9565b34801561059357600080fd5b5061027b6105a2366004614305565b611f7f565b3480156105b357600080fd5b5061034c6105c2366004614305565b600d55565b61034c6105d536600461439e565b611fa0565b3480156105e657600080fd5b506102e76121ea565b3480156105fb57600080fd5b50601754610314906001600160a01b031681565b34801561061b57600080fd5b5061034c61062a3660046145eb565b6121f9565b61034c61063d36600461439e565b612204565b61034c610650366004614305565b61244b565b34801561066157600080fd5b50600c546103c1565b34801561067657600080fd5b5061034c610685366004614629565b612535565b61034c610698366004614305565b6125b3565b3480156106a957600080fd5b5061034c6106b836600461439e565b61281a565b3480156106c957600080fd5b506102e76106d8366004614305565b61286e565b3480156106e957600080fd5b5061034c6106f83660046146a9565b6128ba565b34801561070957600080fd5b50610425612d0f565b34801561071e57600080fd5b5061027b61072d3660046146f0565b6001600160a01b03918216600090815260056020908152604080832093909416825291909152205460ff1690565b34801561076757600080fd5b5061034c61077636600461439e565b612de8565b34801561078757600080fd5b5061034c6107963660046146f0565b601680546001600160a01b039384166001600160a01b03199182161790915560178054929093169116179055565b60006001600160e01b0319821663780e9d6360e01b14806107e957506107e982612e11565b92915050565b6060600080546107fe9061471e565b80601f016020809104026020016040519081016040528092919081815260200182805461082a9061471e565b80156108775780601f1061084c57610100808354040283529160200191610877565b820191906000526020600020905b81548152906001019060200180831161085a57829003601f168201915b5050505050905090565b600061088c82612e61565b506000908152600460205260409020546001600160a01b031690565b60006108b382611e94565b9050806001600160a01b0316836001600160a01b031614156109265760405162461bcd60e51b815260206004820152602160248201527f4552433732313a20617070726f76616c20746f2063757272656e74206f776e656044820152603960f91b60648201526084015b60405180910390fd5b336001600160a01b03821614806109425750610942813361072d565b6109b45760405162461bcd60e51b815260206004820152603d60248201527f4552433732313a20617070726f76652063616c6c6572206973206e6f7420746f60448201527f6b656e206f776e6572206f7220617070726f76656420666f7220616c6c000000606482015260840161091d565b6109be8383612ec5565b505050565b6000818152600f6020526040902054600160ff90911611610a105760405162461bcd60e51b815260206004820152600760248201526611549497d3159360ca1b604482015260640161091d565b33610a1a82611e94565b6001600160a01b031614610a595760405162461bcd60e51b81526020600482015260066024820152654552525f4f5760d01b604482015260640161091d565b60008181526011602081815260408084208054855260128352818520805460ff19908116909155600182015486528286208054821690556002820154865282862080549091169055601754868652939092529054815163d058e43760e01b8152600481019190915233602482015290516001600160a01b039092169263d058e4379260448084019382900301818387803b158015610af657600080fd5b505af1158015610b0a573d6000803e3d6000fd5b50506017546000848152601160205260409081902060010154905163d058e43760e01b815260048101919091523360248201526001600160a01b03909116925063d058e4379150604401600060405180830381600087803b158015610b6e57600080fd5b505af1158015610b82573d6000803e3d6000fd5b50506017546000848152601160205260409081902060020154905163d058e43760e01b815260048101919091523360248201526001600160a01b03909116925063d058e4379150604401600060405180830381600087803b158015610be657600080fd5b505af1158015610bfa573d6000803e3d6000fd5b505060175460008481526011602052604090819020549051631d9f985560e11b815260048101919091523360248201526001600160a01b039091169250633b3f30aa9150604401600060405180830381600087803b158015610c5b57600080fd5b505af1158015610c6f573d6000803e3d6000fd5b505060175460008481526011602052604090819020600101549051631d9f985560e11b815260048101919091523360248201526001600160a01b039091169250633b3f30aa9150604401600060405180830381600087803b158015610cd357600080fd5b505af1158015610ce7573d6000803e3d6000fd5b505060175460008481526011602052604090819020600201549051631d9f985560e11b815260048101919091523360248201526001600160a01b039091169250633b3f30aa9150604401600060405180830381600087803b158015610d4b57600080fd5b505af1158015610d5f573d6000803e3d6000fd5b5050506000828152600f602052604090205460ff16600214159050610ee45760008181526011602090815260408083205483526013909152902054600560ff9091161015610def57600081815260116020908152604080832054835260139091528120805460019290610dd690849060ff16614785565b92506101000a81548160ff021916908360ff1602179055505b60008181526011602090815260408083206001015483526013909152902054600560ff9091161015610e68576000818152601160209081526040808320600190810154845260139092528220805491929091610e4f90849060ff16614785565b92506101000a81548160ff021916908360ff1602179055505b60008181526011602090815260408083206002015483526013909152902054600560ff9091161015610edf57600081815260116020908152604080832060020154835260139091528120805460019290610ec690849060ff16614785565b92506101000a81548160ff021916908360ff1602179055505b61139a565b60008181526011602090815260408083205483528083205483526013909152902054600560ff9091161015610f6157600081815260116020908152604080832054835280832054835260139091528120805460019290610f4890849060ff16614785565b92506101000a81548160ff021916908360ff1602179055505b60008181526011602090815260408083205483528083206001015483526013909152902054600560ff9091161015610fe6576000818152601160209081526040808320548352808320600190810154845260139092528220805491929091610fcd90849060ff16614785565b92506101000a81548160ff021916908360ff1602179055505b60008181526011602090815260408083205483528083206002015483526013909152902054600560ff90911610156110695760008181526011602090815260408083205483528083206002015483526013909152812080546001929061105090849060ff16614785565b92506101000a81548160ff021916908360ff1602179055505b60008181526011602090815260408083206001015483528083205483526013909152902054600560ff90911610156110ee5760008181526011602090815260408083206001908101548452818420548452601390925282208054919290916110d590849060ff16614785565b92506101000a81548160ff021916908360ff1602179055505b60008181526011602090815260408083206001908101548452818420015483526013909152902054600560ff9091161015611178576000818152601160209081526040808320600190810154845281842081015484526013909252822080549192909161115f90849060ff16614785565b92506101000a81548160ff021916908360ff1602179055505b60008181526011602090815260408083206001015483528083206002015483526013909152902054600560ff90911610156112035760008181526011602090815260408083206001908101548452818420600201548452601390925282208054919290916111ea90849060ff16614785565b92506101000a81548160ff021916908360ff1602179055505b60008181526011602090815260408083206002015483528083205483526013909152902054600560ff90911610156112865760008181526011602090815260408083206002015483528083205483526013909152812080546001929061126d90849060ff16614785565b92506101000a81548160ff021916908360ff1602179055505b60008181526011602090815260408083206002015483528083206001015483526013909152902054600560ff90911610156113115760008181526011602090815260408083206002015483528083206001908101548452601390925282208054919290916112f890849060ff16614785565b92506101000a81548160ff021916908360ff1602179055505b60008181526011602090815260408083206002908101548452818420015483526013909152902054600560ff909116101561139a5760008181526011602090815260408083206002908101548452818420015483526013909152812080546001929061138190849060ff16614785565b92506101000a81548160ff021916908360ff1602179055505b6113a381611dc1565b50565b606060006113b360195490565b905060008060005b8381101561148657601d60006113d28360016147aa565b815260208101919091526040016000206005015460ff1615801561142b57506016546001600160a01b0316601d600061140c8460016147aa565b81526020810191909152604001600020600301546001600160a01b0316145b8015611461575033601d60006114428460016147aa565b81526020810191909152604001600020600201546001600160a01b0316145b15611474576114716001846147aa565b92505b8061147e816147c2565b9150506113bb565b5060008267ffffffffffffffff8111156114a2576114a26144d7565b60405190808252806020026020018201604052801561150257816020015b6040805160c08101825260008082526020808301829052928201819052606082018190526080820181905260a082015282526000199092019101816114c05790505b50905060005b8481101561163357600061151d8260016147aa565b6000818152601d602052604090206005015490915060ff1615801561156157506016546000828152601d60205260409020600301546001600160a01b039081169116145b801561158657506000818152601d60205260409020600201546001600160a01b031633145b15611620576000818152601d6020908152604091829020825160c0810184528154815260018201549281019290925260028101546001600160a01b03908116938301939093526003810154909216606082015260048201546080820152600582015460ff16151560a0820152845185908790811061160657611606614759565b602090810291909101015261161c6001866147aa565b9450505b508061162b816147c2565b915050611508565b50949350505050565b6116463382612f33565b6116a85760405162461bcd60e51b815260206004820152602d60248201527f4552433732313a2063616c6c6572206973206e6f7420746f6b656e206f776e6560448201526c1c881bdc88185c1c1c9bdd9959609a1b606482015260840161091d565b6109be838383612fb2565b6000818152600f6020526040902054606090600160ff909116116117035760405162461bcd60e51b815260206004820152600760248201526611549497d3159360ca1b604482015260640161091d565b604080516003808252608082019092526000916020820160608036833701905050600084815260116020526040812091925001548160008151811061174a5761174a614759565b6020908102919091018101919091526000848152601190915260409020600101548160018151811061177e5761177e614759565b602090810291909101810191909152600084815260119091526040902060020154816002815181106117b2576117b2614759565b602090810291909101015292915050565b60006117ce83611ef9565b82106118305760405162461bcd60e51b815260206004820152602b60248201527f455243373231456e756d657261626c653a206f776e657220696e646578206f7560448201526a74206f6620626f756e647360a81b606482015260840161091d565b506001600160a01b03919091166000908152600660209081526040808320938352929052205490565b805161186c90600b9060208401906141cb565b5050565b600081116118a95760405162461bcd60e51b815260206004820152600660248201526522a9292fa82960d11b604482015260640161091d565b6118b7601980546001019055565b60006118c260195490565b6040805160c081018252828152602080820187815233838501818152601680546001600160a01b0390811660608801908152608088018c8152600060a08a018181528c8252601d8a528b82209a518b55975160018b0155945160028a0180549185166001600160a01b0319928316179055915160038a018054918516919093161790915551600488015593516005909601805496151560ff19909716969096179095559354855193840190955292825293945061198693919290911690869061319f565b60175460405163d058e43760e01b8152600481018590523360248201526001600160a01b039091169063d058e43790604401600060405180830381600087803b1580156119d257600080fd5b505af11580156119e6573d6000803e3d6000fd5b5050601654604080513381526001600160a01b0390921660208301528101859052600060608201528592508391507f4a29ff6f650682addfdf8030b3eeb4610ec651b42d8603f2527633347f9489c9906080015b60405180910390a3505050565b33611a5182611e94565b6001600160a01b031614611a905760405162461bcd60e51b81526020600482015260066024820152654552525f4f5760d01b604482015260640161091d565b600081815260146020526040812054339190606490611ab090604b6147dd565b611aba91906147fc565b601754604051630f92329760e01b8152600481018390526001600160a01b038581166024830152929350911690630f92329790604401600060405180830381600087803b158015611b0a57600080fd5b505af1158015611b1e573d6000803e3d6000fd5b505050506109be83611d78565b60606000611b3860195490565b905060008060005b83811015611bd557601d6000611b578360016147aa565b815260208101919091526040016000206005015460ff16158015611bb057506016546001600160a01b0316601d6000611b918460016147aa565b81526020810191909152604001600020600301546001600160a01b0316145b15611bc357611bc06001846147aa565b92505b80611bcd816147c2565b915050611b40565b5060008267ffffffffffffffff811115611bf157611bf16144d7565b604051908082528060200260200182016040528015611c5157816020015b6040805160c08101825260008082526020808301829052928201819052606082018190526080820181905260a08201528252600019909201910181611c0f5790505b50905060005b84811015611633576000611c6c8260016147aa565b6000818152601d602052604090206005015490915060ff16158015611cb057506016546000828152601d60205260409020600301546001600160a01b039081169116145b15611d4a576000818152601d6020908152604091829020825160c0810184528154815260018201549281019290925260028101546001600160a01b03908116938301939093526003810154909216606082015260048201546080820152600582015460ff16151560a08201528451859087908110611d3057611d30614759565b6020908102919091010152611d466001866147aa565b9450505b5080611d55816147c2565b915050611c57565b6109be83838360405180602001604052806000815250612535565b33611d8282611e94565b6001600160a01b031614611dc15760405162461bcd60e51b81526020600482015260066024820152654552525f4f5760d01b604482015260640161091d565b611dca8161321d565b6000818152600a602052604090208054611de39061471e565b1590506113a3576000818152600a602052604081206113a39161424f565b6000611e0c60085490565b8210611e6f5760405162461bcd60e51b815260206004820152602c60248201527f455243373231456e756d657261626c653a20676c6f62616c20696e646578206f60448201526b7574206f6620626f756e647360a01b606482015260840161091d565b60088281548110611e8257611e82614759565b90600052602060002001549050919050565b6000818152600260205260408120546001600160a01b0316806107e95760405162461bcd60e51b815260206004820152601860248201527f4552433732313a20696e76616c696420746f6b656e2049440000000000000000604482015260640161091d565b60006001600160a01b038216611f635760405162461bcd60e51b815260206004820152602960248201527f4552433732313a2061646472657373207a65726f206973206e6f7420612076616044820152683634b21037bbb732b960b91b606482015260840161091d565b506001600160a01b031660009081526003602052604090205490565b6000611f8a82612e61565b506000908152600e602052604090205460ff1690565b6015543414611fdd5760405162461bcd60e51b81526020600482015260096024820152684552525f505249434560b81b604482015260640161091d565b6000600c546001611fee91906147aa565b9050611ffa83826132c0565b604080518082019091526005815264173539b7b760d91b60208201526000612021846132da565b8260405160200161203392919061481e565b60408051601f198184030181529181526000858152600a602090815291902082519293506120659290918401906141cb565b506000838152601060209081526040808320879055600f8252808320805460ff199081166001179091556013835281842080549091169055601554601490925290912055601b546001600160a01b03166108fc60646120c534604b6147dd565b6120cf91906147fc565b6120d9903461484d565b6040518115909202916000818181858888f19350505050158015612101573d6000803e3d6000fd5b5060165460009081906001600160a01b0316606461212034604b6147dd565b61212a91906147fc565b604051600081818185875af1925050503d8060008114612166576040519150601f19603f3d011682016040523d82523d6000602084013e61216b565b606091505b5091509150816121b45760405162461bcd60e51b81526020600482015260146024820152732330b4b632b2103a379039b2b7321022ba3432b960611b604482015260640161091d565b600c80549060006121c4836147c2565b90915550505060009384525050600e6020525060409020805460ff191660011790555050565b6060600180546107fe9061471e565b61186c338383613384565b60155434146122415760405162461bcd60e51b81526020600482015260096024820152684552525f56414c554560b81b604482015260640161091d565b6000600c54600161225291906147aa565b905061225e83826132c0565b604080518082019091526005815264173539b7b760d91b60208201526000612285846132da565b8260405160200161229792919061481e565b60408051601f198184030181529181526000858152600a602090815291902082519293506122c99290918401906141cb565b506000838152601060209081526040808320879055600f8252808320805460ff199081166001179091556013835281842080549091169055601554601490925290912055601b546001600160a01b03166108fc606461232934604b6147dd565b61233391906147fc565b61233d903461484d565b6040518115909202916000818181858888f19350505050158015612365573d6000803e3d6000fd5b5060165460009081906001600160a01b0316606461238434604b6147dd565b61238e91906147fc565b604051600081818185875af1925050503d80600081146123ca576040519150601f19603f3d011682016040523d82523d6000602084013e6123cf565b606091505b5091509150816124185760405162461bcd60e51b81526020600482015260146024820152732330b4b632b2103a379039b2b7321022ba3432b960611b604482015260640161091d565b600c8054906000612428836147c2565b90915550505060009384525050600e6020525060409020805460ff191690555050565b6000818152601d60205260409020600201546001600160a01b0316331461249e5760405162461bcd60e51b815260206004820152600760248201526611549497d4d15360ca1b604482015260640161091d565b6000818152601d6020526040908190206001810154600390910180546001600160a01b031916339081179091556017549251631d9f985560e11b815260048101839052602481019190915290916001600160a01b031690633b3f30aa906044015b600060405180830381600087803b15801561251957600080fd5b505af115801561252d573d6000803e3d6000fd5b505050505050565b61253f3383612f33565b6125a15760405162461bcd60e51b815260206004820152602d60248201527f4552433732313a2063616c6c6572206973206e6f7420746f6b656e206f776e6560448201526c1c881bdc88185c1c1c9bdd9959609a1b606482015260840161091d565b6125ad8484848461319f565b50505050565b6000818152601d6020526040902060048101546001909101543482146126085760405162461bcd60e51b815260206004820152600a60248201526922a9292fa224a32fa82960b11b604482015260640161091d565b601b54601c546001600160a01b03909116906108fc9061262890346147fc565b6040518115909202916000818181858888f19350505050158015612650573d6000803e3d6000fd5b506000838152601d6020526040902060020154601c546001600160a01b03909116906108fc9061268090346147fc565b61268a903461484d565b6040518115909202916000818181858888f193505050501580156126b2573d6000803e3d6000fd5b5060175460405163d058e43760e01b8152600481018390523360248201526001600160a01b039091169063d058e43790604401600060405180830381600087803b1580156126ff57600080fd5b505af1158015612713573d6000803e3d6000fd5b5050601754604051631d9f985560e11b8152600481018590523360248201526001600160a01b039091169250633b3f30aa9150604401600060405180830381600087803b15801561276357600080fd5b505af1158015612777573d6000803e3d6000fd5b5050506000848152601d602052604090206003810180546001600160a01b03191633179055600501805460ff19166001179055506127b9601a80546001019055565b6000838152601d60209081526040918290206002015482516001600160a01b0390911681523391810191909152908101839052819084907f458478e87af2f8355f5200460431fb85259efefed716e75b487251ae55fe04e090606001611a3a565b6128353383836040518060200160405280600081525061319f565b60175460405163d058e43760e01b8152600481018390526001600160a01b0384811660248301529091169063d058e437906044016124ff565b606061287982612e61565b600061288361344b565b6000848152600a602090815260409182902091516128a393929101614864565b60408051601f198184030181529190529392505050565b6000838152600f60205260408082205486835291205460ff90811691161480156128fe57506000828152600f60205260408082205486835291205460ff9081169116145b6129345760405162461bcd60e51b815260206004820152600760248201526611549497d3159360ca1b604482015260640161091d565b6000838152600e60205260408082205486835291205460ff90811615159116151514801561298057506000828152600e60205260408082205486835291205460ff908116151591161515145b6129b65760405162461bcd60e51b815260206004820152600760248201526604552525f5459560cc1b604482015260640161091d565b60008481526012602052604090205460ff1615806129e3575060008381526012602052604090205460ff16155b806129fd575060008281526012602052604090205460ff16155b612a335760405162461bcd60e51b81526020600482015260076024820152664552525f424c4b60c81b604482015260640161091d565b6000848152600f602052604090205460ff1660031415612a805760405162461bcd60e51b81526020600482015260086024820152674552525f4c564c3360c01b604482015260640161091d565b612a8983611e94565b6001600160a01b0316612a9b85611e94565b6001600160a01b0316148015612ad25750612ab582611e94565b6001600160a01b0316612ac785611e94565b6001600160a01b0316145b8015612aee575033612ae385611e94565b6001600160a01b0316145b612b235760405162461bcd60e51b81526020600482015260066024820152654552525f4f5760d01b604482015260640161091d565b6000848152600f602052604090205460ff1660011415612b4f57612b4a338585858561345a565b612b5c565b612b5c33858585856136ad565b601654604080516020810190915260008152612b879133916001600160a01b0390911690879061319f565b601654604080516020810190915260008152612bb29133916001600160a01b0390911690869061319f565b601654604080516020810190915260008152612bdd9133916001600160a01b0390911690859061319f565b60175460405163d058e43760e01b8152600481018690523360248201526001600160a01b039091169063d058e43790604401600060405180830381600087803b158015612c2957600080fd5b505af1158015612c3d573d6000803e3d6000fd5b505060175460405163d058e43760e01b8152600481018790523360248201526001600160a01b03909116925063d058e4379150604401600060405180830381600087803b158015612c8d57600080fd5b505af1158015612ca1573d6000803e3d6000fd5b505060175460405163d058e43760e01b8152600481018690523360248201526001600160a01b03909116925063d058e4379150604401600060405180830381600087803b158015612cf157600080fd5b505af1158015612d05573d6000803e3d6000fd5b5050505050505050565b60606000600c5467ffffffffffffffff811115612d2e57612d2e6144d7565b604051908082528060200260200182016040528015612d57578160200160208202803683370190505b5090506000805b600c54811015612de057612d93612d768260016147aa565b6000908152600260205260409020546001600160a01b0316151590565b15612dce57612da38160016147aa565b838281518110612db557612db5614759565b602090810291909101015281612dca816147c2565b9250505b80612dd8816147c2565b915050612d5e565b508152919050565b60165460408051602081019091526000815261186c916001600160a01b0316908490849061319f565b60006001600160e01b031982166380ac58cd60e01b1480612e4257506001600160e01b03198216635b5e139f60e01b145b806107e957506301ffc9a760e01b6001600160e01b03198316146107e9565b6000818152600260205260409020546001600160a01b03166113a35760405162461bcd60e51b815260206004820152601860248201527f4552433732313a20696e76616c696420746f6b656e2049440000000000000000604482015260640161091d565b600081815260046020526040902080546001600160a01b0319166001600160a01b0384169081179091558190612efa82611e94565b6001600160a01b03167f8c5be1e5ebec7d5bd14f71427d1e84f3dd0314c0f7b2291e5b200ac8c7c3b92560405160405180910390a45050565b600080612f3f83611e94565b9050806001600160a01b0316846001600160a01b03161480612f8657506001600160a01b0380821660009081526005602090815260408083209388168352929052205460ff165b80612faa5750836001600160a01b0316612f9f84610881565b6001600160a01b0316145b949350505050565b826001600160a01b0316612fc582611e94565b6001600160a01b0316146130295760405162461bcd60e51b815260206004820152602560248201527f4552433732313a207472616e736665722066726f6d20696e636f72726563742060448201526437bbb732b960d91b606482015260840161091d565b6001600160a01b03821661308b5760405162461bcd60e51b8152602060048201526024808201527f4552433732313a207472616e7366657220746f20746865207a65726f206164646044820152637265737360e01b606482015260840161091d565b6130988383836001613a52565b826001600160a01b03166130ab82611e94565b6001600160a01b03161461310f5760405162461bcd60e51b815260206004820152602560248201527f4552433732313a207472616e736665722066726f6d20696e636f72726563742060448201526437bbb732b960d91b606482015260840161091d565b600081815260046020908152604080832080546001600160a01b03199081169091556001600160a01b0387811680865260038552838620805460001901905590871680865283862080546001019055868652600290945282852080549092168417909155905184937fddf252ad1be2c89b69c2b068fc378daa952ba7f163c4a11628f55a4df523b3ef91a4505050565b6131aa848484612fb2565b6131b684848484613b8e565b6125ad5760405162461bcd60e51b815260206004820152603260248201527f4552433732313a207472616e7366657220746f206e6f6e20455243373231526560448201527131b2b4bb32b91034b6b83632b6b2b73a32b960711b606482015260840161091d565b600061322882611e94565b9050613238816000846001613a52565b61324182611e94565b600083815260046020908152604080832080546001600160a01b03199081169091556001600160a01b0385168085526003845282852080546000190190558785526002909352818420805490911690555192935084927fddf252ad1be2c89b69c2b068fc378daa952ba7f163c4a11628f55a4df523b3ef908390a45050565b61186c828260405180602001604052806000815250613ce6565b606060006132e783613d64565b600101905060008167ffffffffffffffff811115613307576133076144d7565b6040519080825280601f01601f191660200182016040528015613331576020820181803683370190505b5090508181016020015b600019017f3031323334353637383961626364656600000000000000000000000000000000600a86061a8153600a85049450846133775761337c565b61333b565b509392505050565b816001600160a01b0316836001600160a01b031614156133e65760405162461bcd60e51b815260206004820152601960248201527f4552433732313a20617070726f766520746f2063616c6c657200000000000000604482015260640161091d565b6001600160a01b03838116600081815260056020908152604080832094871680845294825291829020805460ff191686151590811790915591519182527f17307eab39ab6107e8899845ad3d59bd9653f200f220920489ca2b5937696c319101611a3a565b6060600b80546107fe9061471e565b6040805160038082526080820190925260009160208201606080368337019050509050848160008151811061349157613491614759565b60200260200101818152505083816001815181106134b1576134b1614759565b60200260200101818152505082816002815181106134d1576134d1614759565b6020026020010181815250506000613511828460ff16815181106134f7576134f7614759565b602002602001015160009081526010602052604090205490565b60008781526010602052604090205461352b9060646147dd565b61353591906147aa565b604080518082019091526005815264173539b7b760d91b6020820152909150600061355f836132da565b8260405160200161357192919061481e565b604051602081830303815290604052905061358c8982613e46565b6040805160608101825289815260208082018a9052818301899052600c5460009081526011909152919091206135c3916003614289565b50600c54600090815260116020526040908190208151606081019283905261364f9290919060039082845b8154815260200190600101908083116135ee57505050505080516000908152601260209081526040808320805460ff199081166001908117909255928501518452818420805484168217905593810151835290912080549091169091179055565b5050600c805460009081526010602090815260408083209490945582548252600f81528382208054600260ff1991821617909155988252600e9052828120549154815291909120805490961660ff9091161515179094555050505050565b604080516009808252610140820190925260009160208201610120803683370190505060008681526011602052604081209192500154816000815181106136f6576136f6614759565b602090810291909101810191909152600085815260119091526040812001548160018151811061372857613728614759565b602090810291909101810191909152600084815260119091526040812001548160028151811061375a5761375a614759565b6020908102919091018101919091526000868152601190915260409020600101548160038151811061378e5761378e614759565b602090810291909101810191909152600085815260119091526040902060010154816004815181106137c2576137c2614759565b602090810291909101810191909152600084815260119091526040902060010154816005815181106137f6576137f6614759565b6020908102919091018101919091526000868152601190915260409020600201548160068151811061382a5761382a614759565b6020908102919091018101919091526000858152601190915260409020600201548160078151811061385e5761385e614759565b6020908102919091018101919091526000848152601190915260409020600201548160088151811061389257613892614759565b60200260200101818152505060006138b8828460ff16815181106134f7576134f7614759565b6000878152601060205260409020546138d29060646147dd565b6138dc91906147aa565b604080518082019091526005815264173539b7b760d91b60208201529091506000613906836132da565b8260405160200161391892919061481e565b60405160208183030381529060405290506139338982613e46565b6040805160608101825289815260208082018a9052818301899052600c54600090815260119091529190912061396a916003614289565b50600c5460009081526011602090815260409182902082516060810193849052815481526139f493909260039190600184019085018083116135ee57505050505080516000908152601260209081526040808320805460ff199081166001908117909255928501518452818420805484168217905593810151835290912080549091169091179055565b5050600c805460009081526010602090815260408083209490945582548252600f81528382208054600360ff1991821617909155988252600e9052828120549154815291909120805490961660ff9091161515179094555050505050565b6001811115613ac95760405162461bcd60e51b815260206004820152603560248201527f455243373231456e756d657261626c653a20636f6e736563757469766520747260448201527f616e7366657273206e6f7420737570706f727465640000000000000000000000606482015260840161091d565b816001600160a01b038516613b2557613b2081600880546000838152600960205260408120829055600182018355919091527ff3f7a9fe364faab93b216da50a3214154f22a0a2b415b23a84c8169e8b636ee30155565b613b48565b836001600160a01b0316856001600160a01b031614613b4857613b488582613ea2565b6001600160a01b038416613b6457613b5f81613f3f565b613b87565b846001600160a01b0316846001600160a01b031614613b8757613b878482613fee565b5050505050565b60006001600160a01b0384163b15613cdb57604051630a85bd0160e11b81526001600160a01b0385169063150b7a0290613bd2903390899088908890600401614915565b602060405180830381600087803b158015613bec57600080fd5b505af1925050508015613c1c575060408051601f3d908101601f19168201909252613c1991810190614951565b60015b613cc1573d808015613c4a576040519150601f19603f3d011682016040523d82523d6000602084013e613c4f565b606091505b508051613cb95760405162461bcd60e51b815260206004820152603260248201527f4552433732313a207472616e7366657220746f206e6f6e20455243373231526560448201527131b2b4bb32b91034b6b83632b6b2b73a32b960711b606482015260840161091d565b805181602001fd5b6001600160e01b031916630a85bd0160e11b149050612faa565b506001949350505050565b613cf08383614032565b613cfd6000848484613b8e565b6109be5760405162461bcd60e51b815260206004820152603260248201527f4552433732313a207472616e7366657220746f206e6f6e20455243373231526560448201527131b2b4bb32b91034b6b83632b6b2b73a32b960711b606482015260840161091d565b6000807a184f03e93ff9f4daa797ed6e38ed64bf6a1f0100000000000000008310613dad577a184f03e93ff9f4daa797ed6e38ed64bf6a1f010000000000000000830492506040015b6d04ee2d6d415b85acef81000000008310613dd9576d04ee2d6d415b85acef8100000000830492506020015b662386f26fc100008310613df757662386f26fc10000830492506010015b6305f5e1008310613e0f576305f5e100830492506008015b6127108310613e2357612710830492506004015b60648310613e35576064830492506002015b600a83106107e95760010192915050565b6000600c546001613e5791906147aa565b9050613e6383826132c0565b6000818152600a6020908152604090912083518492613e869291908401906141cb565b50600c8054906000613e97836147c2565b919050555050505050565b60006001613eaf84611ef9565b613eb9919061484d565b600083815260076020526040902054909150808214613f0c576001600160a01b03841660009081526006602090815260408083208584528252808320548484528184208190558352600790915290208190555b5060009182526007602090815260408084208490556001600160a01b039094168352600681528383209183525290812055565b600854600090613f519060019061484d565b60008381526009602052604081205460088054939450909284908110613f7957613f79614759565b906000526020600020015490508060088381548110613f9a57613f9a614759565b6000918252602080832090910192909255828152600990915260408082208490558582528120556008805480613fd257613fd261496e565b6001900381819060005260206000200160009055905550505050565b6000613ff983611ef9565b6001600160a01b039093166000908152600660209081526040808320868452825280832085905593825260079052919091209190915550565b6001600160a01b0382166140885760405162461bcd60e51b815260206004820181905260248201527f4552433732313a206d696e7420746f20746865207a65726f2061646472657373604482015260640161091d565b6000818152600260205260409020546001600160a01b0316156140ed5760405162461bcd60e51b815260206004820152601c60248201527f4552433732313a20746f6b656e20616c7265616479206d696e74656400000000604482015260640161091d565b6140fb600083836001613a52565b6000818152600260205260409020546001600160a01b0316156141605760405162461bcd60e51b815260206004820152601c60248201527f4552433732313a20746f6b656e20616c7265616479206d696e74656400000000604482015260640161091d565b6001600160a01b038216600081815260036020908152604080832080546001019055848352600290915280822080546001600160a01b0319168417905551839291907fddf252ad1be2c89b69c2b068fc378daa952ba7f163c4a11628f55a4df523b3ef908290a45050565b8280546141d79061471e565b90600052602060002090601f0160209004810192826141f9576000855561423f565b82601f1061421257805160ff191683800117855561423f565b8280016001018555821561423f579182015b8281111561423f578251825591602001919060010190614224565b5061424b9291506142b6565b5090565b50805461425b9061471e565b6000825580601f1061426b575050565b601f0160209004906000526020600020908101906113a391906142b6565b826003810192821561423f579160200282018281111561423f578251825591602001919060010190614224565b5b8082111561424b57600081556001016142b7565b6001600160e01b0319811681146113a357600080fd5b6000602082840312156142f357600080fd5b81356142fe816142cb565b9392505050565b60006020828403121561431757600080fd5b5035919050565b60005b83811015614339578181015183820152602001614321565b838111156125ad5750506000910152565b6000815180845261436281602086016020860161431e565b601f01601f19169290920160200192915050565b6020815260006142fe602083018461434a565b6001600160a01b03811681146113a357600080fd5b600080604083850312156143b157600080fd5b82356143bc81614389565b946020939093013593505050565b602080825282518282018190526000919060409081850190868401855b82811015614445578151805185528681015187860152858101516001600160a01b0390811687870152606080830151909116908601526080808201519086015260a09081015115159085015260c090930192908501906001016143e7565b5091979650505050505050565b60008060006060848603121561446757600080fd5b833561447281614389565b9250602084013561448281614389565b929592945050506040919091013590565b6020808252825182820181905260009190848201906040850190845b818110156144cb578351835292840192918401916001016144af565b50909695505050505050565b634e487b7160e01b600052604160045260246000fd5b600067ffffffffffffffff80841115614508576145086144d7565b604051601f8501601f19908116603f01168101908282118183101715614530576145306144d7565b8160405280935085815286868601111561454957600080fd5b858560208301376000602087830101525050509392505050565b60006020828403121561457557600080fd5b813567ffffffffffffffff81111561458c57600080fd5b8201601f8101841361459d57600080fd5b612faa848235602084016144ed565b600080604083850312156145bf57600080fd5b50508035926020909101359150565b6000602082840312156145e057600080fd5b81356142fe81614389565b600080604083850312156145fe57600080fd5b823561460981614389565b91506020830135801515811461461e57600080fd5b809150509250929050565b6000806000806080858703121561463f57600080fd5b843561464a81614389565b9350602085013561465a81614389565b925060408501359150606085013567ffffffffffffffff81111561467d57600080fd5b8501601f8101871361468e57600080fd5b61469d878235602084016144ed565b91505092959194509250565b600080600080608085870312156146bf57600080fd5b843593506020850135925060408501359150606085013560ff811681146146e557600080fd5b939692955090935050565b6000806040838503121561470357600080fd5b823561470e81614389565b9150602083013561461e81614389565b600181811c9082168061473257607f821691505b6020821081141561475357634e487b7160e01b600052602260045260246000fd5b50919050565b634e487b7160e01b600052603260045260246000fd5b634e487b7160e01b600052601160045260246000fd5b600060ff821660ff84168060ff038211156147a2576147a261476f565b019392505050565b600082198211156147bd576147bd61476f565b500190565b60006000198214156147d6576147d661476f565b5060010190565b60008160001904831182151516156147f7576147f761476f565b500290565b60008261481957634e487b7160e01b600052601260045260246000fd5b500490565b6000835161483081846020880161431e565b83519083019061484481836020880161431e565b01949350505050565b60008282101561485f5761485f61476f565b500390565b600083516020614877828583890161431e565b845491840191600090600181811c908083168061489557607f831692505b8583108114156148b357634e487b7160e01b85526022600452602485fd5b8080156148c757600181146148d857614905565b60ff19851688528388019550614905565b60008b81526020902060005b858110156148fd5781548a8201529084019088016148e4565b505083880195505b50939a9950505050505050505050565b60006001600160a01b03808716835280861660208401525083604083015260806060830152614947608083018461434a565b9695505050505050565b60006020828403121561496357600080fd5b81516142fe816142cb565b634e487b7160e01b600052603160045260246000fdfea264697066735822122064745d9cfb13809557f87b9ec49767062db0165f8f4e8fe6cc8d377264fc3f9b64736f6c63430008090033",
  "linkReferences": {},
  "deployedLinkReferences": {}
}