{
  "_format": "hh-sol-artifact-1",
  "contractName": "NFTMarketplace",
  "sourceName": "src/blockchain/contracts/NFTMarketplace .sol",
  "abi": [
    {
      "inputs": [
        {
          "internalType": "address",
          "name": "_nftAddress",
          "type": "address"
        }
      ],
      "stateMutability": "nonpayable",
      "type": "constructor"
    },
    {
      "anonymous": false,
      "inputs": [
        {
          "indexed": true,
          "internalType": "uint256",
          "name": "tokenId",
          "type": "uint256"
        }
      ],
      "name": "SaleCancelled",
      "type": "event"
    },
    {
      "anonymous": false,
      "inputs": [
        {
          "indexed": true,
          "internalType": "address",
          "name": "seller",
          "type": "address"
        },
        {
          "indexed": true,
          "internalType": "uint256",
          "name": "tokenId",
          "type": "uint256"
        },
        {
          "indexed": false,
          "internalType": "uint256",
          "name": "price",
          "type": "uint256"
        }
      ],
      "name": "SaleCreated",
      "type": "event"
    },
    {
      "anonymous": false,
      "inputs": [
        {
          "indexed": true,
          "internalType": "address",
          "name": "buyer",
          "type": "address"
        },
        {
          "indexed": true,
          "internalType": "uint256",
          "name": "tokenId",
          "type": "uint256"
        },
        {
          "indexed": false,
          "internalType": "uint256",
          "name": "price",
          "type": "uint256"
        }
      ],
      "name": "SaleSuccessful",
      "type": "event"
    },
    {
      "inputs": [
        {
          "internalType": "uint256",
          "name": "_tokenId",
          "type": "uint256"
        }
      ],
      "name": "buy",
      "outputs": [],
      "stateMutability": "payable",
      "type": "function"
    },
    {
      "inputs": [
        {
          "internalType": "uint256",
          "name": "_tokenId",
          "type": "uint256"
        }
      ],
      "name": "cancelSale",
      "outputs": [],
      "stateMutability": "nonpayable",
      "type": "function"
    },
    {
      "inputs": [
        {
          "internalType": "uint256",
          "name": "_tokenId",
          "type": "uint256"
        },
        {
          "internalType": "uint256",
          "name": "_price",
          "type": "uint256"
        }
      ],
      "name": "createSale",
      "outputs": [],
      "stateMutability": "nonpayable",
      "type": "function"
    },
    {
      "inputs": [],
      "name": "feePercentage",
      "outputs": [
        {
          "internalType": "uint256",
          "name": "",
          "type": "uint256"
        }
      ],
      "stateMutability": "view",
      "type": "function"
    },
    {
      "inputs": [
        {
          "internalType": "uint256",
          "name": "_tokenId",
          "type": "uint256"
        }
      ],
      "name": "getPrice",
      "outputs": [
        {
          "internalType": "uint256",
          "name": "",
          "type": "uint256"
        }
      ],
      "stateMutability": "view",
      "type": "function"
    },
    {
      "inputs": [],
      "name": "getSales",
      "outputs": [
        {
          "components": [
            {
              "internalType": "address",
              "name": "seller",
              "type": "address"
            },
            {
              "internalType": "uint256",
              "name": "tokenId",
              "type": "uint256"
            },
            {
              "internalType": "uint256",
              "name": "price",
              "type": "uint256"
            },
            {
              "internalType": "bool",
              "name": "sold",
              "type": "bool"
            }
          ],
          "internalType": "struct NFTMarketplace.Sale[]",
          "name": "",
          "type": "tuple[]"
        }
      ],
      "stateMutability": "view",
      "type": "function"
    },
    {
      "inputs": [],
      "name": "nft",
      "outputs": [
        {
          "internalType": "contract ERC721",
          "name": "",
          "type": "address"
        }
      ],
      "stateMutability": "view",
      "type": "function"
    },
    {
      "inputs": [],
      "name": "owner",
      "outputs": [
        {
          "internalType": "address",
          "name": "",
          "type": "address"
        }
      ],
      "stateMutability": "view",
      "type": "function"
    },
    {
      "inputs": [
        {
          "internalType": "uint256",
          "name": "",
          "type": "uint256"
        }
      ],
      "name": "sales",
      "outputs": [
        {
          "internalType": "address",
          "name": "seller",
          "type": "address"
        },
        {
          "internalType": "uint256",
          "name": "tokenId",
          "type": "uint256"
        },
        {
          "internalType": "uint256",
          "name": "price",
          "type": "uint256"
        },
        {
          "internalType": "bool",
          "name": "sold",
          "type": "bool"
        }
      ],
      "stateMutability": "view",
      "type": "function"
    },
    {
      "inputs": [
        {
          "internalType": "uint256",
          "name": "_feePercentage",
          "type": "uint256"
        }
      ],
      "name": "setFeePercentage",
      "outputs": [],
      "stateMutability": "nonpayable",
      "type": "function"
    },
    {
      "inputs": [
        {
          "internalType": "uint256",
          "name": "",
          "type": "uint256"
        }
      ],
      "name": "tokenIdToSale",
      "outputs": [
        {
          "internalType": "address",
          "name": "seller",
          "type": "address"
        },
        {
          "internalType": "uint256",
          "name": "tokenId",
          "type": "uint256"
        },
        {
          "internalType": "uint256",
          "name": "price",
          "type": "uint256"
        },
        {
          "internalType": "bool",
          "name": "sold",
          "type": "bool"
        }
      ],
      "stateMutability": "view",
      "type": "function"
    }
  ],
  "bytecode": "0x6080604052600560035534801561001557600080fd5b50604051610ebf380380610ebf83398101604081905261003491610059565b600080546001600160a01b0319166001600160a01b0392909216919091179055610089565b60006020828403121561006b57600080fd5b81516001600160a01b038116811461008257600080fd5b9392505050565b610e27806100986000396000f3fe6080604052600436106100ac5760003560e01c8063a001ecdd11610074578063bd94b0051161004e578063bd94b0051461022a578063d96a094a1461024a578063e75722301461025d57600080fd5b8063a001ecdd146101c6578063ae06c1b7146101ea578063b5f522f71461020a57600080fd5b80630d83304c146100b157806338644c5e146100dc57806347ccca02146101595780636019061b146101915780638da5cb5b146101b3575b600080fd5b3480156100bd57600080fd5b506100c661027d565b6040516100d39190610c56565b60405180910390f35b3480156100e857600080fd5b5061012d6100f7366004610cc5565b600260208190526000918252604090912080546001820154928201546003909201546001600160a01b0390911692919060ff1684565b604080516001600160a01b039095168552602085019390935291830152151560608201526080016100d3565b34801561016557600080fd5b50600054610179906001600160a01b031681565b6040516001600160a01b0390911681526020016100d3565b34801561019d57600080fd5b506101b16101ac366004610cde565b61030c565b005b3480156101bf57600080fd5b5030610179565b3480156101d257600080fd5b506101dc60035481565b6040519081526020016100d3565b3480156101f657600080fd5b506101b1610205366004610cc5565b610555565b34801561021657600080fd5b5061012d610225366004610cc5565b6105cf565b34801561023657600080fd5b506101b1610245366004610cc5565b610616565b6101b1610258366004610cc5565b6107ce565b34801561026957600080fd5b506101dc610278366004610cc5565b610bb4565b60606001805480602002602001604051908101604052809291908181526020016000905b82821015610303576000848152602090819020604080516080810182526004860290920180546001600160a01b03168352600180820154848601526002820154928401929092526003015460ff161515606083015290835290920191016102a1565b50505050905090565b6000546040516331a9108f60e11b81526004810184905233916001600160a01b031690636352211e9060240160206040518083038186803b15801561035057600080fd5b505afa158015610364573d6000803e3d6000fd5b505050506040513d601f19601f820116820180604052508101906103889190610d00565b6001600160a01b0316146103e35760405162461bcd60e51b815260206004820152601760248201527f596f7520646f206e6f74206f776e2074686973204e465400000000000000000060448201526064015b60405180910390fd5b60408051608081018252338082526020808301868152838501868152600060608601818152600180548082018255818452885160049091027fb10e2d527612073b26eecdfd717e6a320cf44b4afac2b0732d9fcbe2b7fa0cf6810180546001600160a01b039384166001600160a01b03199182161790915587517fb10e2d527612073b26eecdfd717e6a320cf44b4afac2b0732d9fcbe2b7fa0cf783015586517fb10e2d527612073b26eecdfd717e6a320cf44b4afac2b0732d9fcbe2b7fa0cf883015584517fb10e2d527612073b26eecdfd717e6a320cf44b4afac2b0732d9fcbe2b7fa0cf9909201805492151560ff199384161790558d86526002808a52958c90208b5181549416939091169290921782559551918101919091559251918301919091555160039091018054911515919092161790559251848152919285927f2c5a9de64e99c2ab1b836ad03048ec0bef7c0a2af3dd947595c46274e50a7c8291015b60405180910390a3505050565b3330146105ca5760405162461bcd60e51b815260206004820152603260248201527f4f6e6c792074686520636f6e7472616374206f776e65722063616e207365742060448201527f746865206665652070657263656e74616765000000000000000000000000000060648201526084016103da565b600355565b600181815481106105df57600080fd5b600091825260209091206004909102018054600182015460028301546003909301546001600160a01b039092169350919060ff1684565b6000818152600260205260409020546001600160a01b031633146106875760405162461bcd60e51b815260206004820152602260248201527f596f7520617265206e6f74207468652073656c6c6572206f662074686973204e604482015261119560f21b60648201526084016103da565b60008181526002602052604090206003015460ff16156106e95760405162461bcd60e51b815260206004820152601e60248201527f54686973204e46542068617320616c7265616479206265656e20736f6c64000060448201526064016103da565b6000818152600260208190526040822080546001600160a01b031916815560018101839055908101829055600301805460ff191690555b60015481101561079f57816001828154811061073e5761073e610d30565b906000526020600020906004020160010154141561078d57600180828154811061076a5761076a610d30565b60009182526020909120600490910201600301805460ff19169115159190911790555b8061079781610d5c565b915050610720565b5060405181907f2c56893f6f6026d19bd17b7d05c9f15c522de1ae2b1c3a825f91a73c799321f290600090a250565b600081815260026020526040902080546001600160a01b03166108335760405162461bcd60e51b815260206004820152601860248201527f54686973204e4654206973206e6f7420666f722073616c65000000000000000060448201526064016103da565b600381015460ff16156108885760405162461bcd60e51b815260206004820152601e60248201527f54686973204e46542068617320616c7265616479206265656e20736f6c64000060448201526064016103da565b806002015434146108db5760405162461bcd60e51b815260206004820152601c60248201527f496e636f727265637420616d6f756e74206f66204554482073656e740000000060448201526064016103da565b600054815460405163e985e9c560e01b81526001600160a01b03918216600482015230602482015291169063e985e9c59060440160206040518083038186803b15801561092757600080fd5b505afa15801561093b573d6000803e3d6000fd5b505050506040513d601f19601f8201168201806040525081019061095f9190610d77565b6109c15760405162461bcd60e51b815260206004820152602d60248201527f436f6e7472616374206973206e6f7420617070726f76656420746f207472616e60448201526c1cd9995c881d1a1a5cc8139195609a1b60648201526084016103da565b6000548154604051632142170760e11b81526001600160a01b039182166004820152336024820152604481018590529116906342842e0e90606401600060405180830381600087803b158015610a1657600080fd5b505af1158015610a2a573d6000803e3d6000fd5b5050506000838152600260208190526040822080546001600160a01b031916815560018101839055908101829055600301805460ff1916905590505b600154811015610ae5578260018281548110610a8457610a84610d30565b9060005260206000209060040201600101541415610ad3576001808281548110610ab057610ab0610d30565b60009182526020909120600490910201600301805460ff19169115159190911790555b80610add81610d5c565b915050610a66565b506000606460035434610af89190610d99565b610b029190610db8565b604051909150309082156108fc029083906000818181858888f19350505050158015610b32573d6000803e3d6000fd5b5081546001600160a01b03166108fc610b4b8334610dda565b6040518115909202916000818181858888f19350505050158015610b73573d6000803e3d6000fd5b5082336001600160a01b03167fd27b201d09e3da1bf82990e64d788700dd1e485be8cd747648aeacbf09fa21e6846002015460405161054891815260200190565b6000818152600260208181526040808420815160808101835281546001600160a01b031680825260018301549482019490945293810154918401919091526003015460ff1615156060830152610c4c5760405162461bcd60e51b815260206004820152601860248201527f54686973204e4654206973206e6f7420666f722073616c65000000000000000060448201526064016103da565b6040015192915050565b602080825282518282018190526000919060409081850190868401855b82811015610cb857815180516001600160a01b031685528681015187860152858101518686015260609081015115159085015260809093019290850190600101610c73565b5091979650505050505050565b600060208284031215610cd757600080fd5b5035919050565b60008060408385031215610cf157600080fd5b50508035926020909101359150565b600060208284031215610d1257600080fd5b81516001600160a01b0381168114610d2957600080fd5b9392505050565b634e487b7160e01b600052603260045260246000fd5b634e487b7160e01b600052601160045260246000fd5b6000600019821415610d7057610d70610d46565b5060010190565b600060208284031215610d8957600080fd5b81518015158114610d2957600080fd5b6000816000190483118215151615610db357610db3610d46565b500290565b600082610dd557634e487b7160e01b600052601260045260246000fd5b500490565b600082821015610dec57610dec610d46565b50039056fea264697066735822122017570b92f66eece52820f5550a02debcd1eebc06c26172b081726c3217f7703264736f6c63430008090033",
  "linkReferences": {},
  "deployedLinkReferences": {}
}