{
  "_format": "hh-sol-artifact-1",
  "contractName": "PoolNFT",
  "sourceName": "blockchain/contracts/PoolNFT.sol",
  "abi": [
    {
      "inputs": [
        {
          "internalType": "contract InnomicNFT",
          "name": "_token",
          "type": "address"
        }
      ],
      "stateMutability": "nonpayable",
      "type": "constructor"
    },
    {
      "inputs": [
        {
          "internalType": "uint256",
          "name": "tokenId",
          "type": "uint256"
        },
        {
          "internalType": "address",
          "name": "owner",
          "type": "address"
        }
      ],
      "name": "guardar",
      "outputs": [],
      "stateMutability": "nonpayable",
      "type": "function"
    },
    {
      "inputs": [
        {
          "internalType": "address",
          "name": "",
          "type": "address"
        },
        {
          "internalType": "address",
          "name": "",
          "type": "address"
        },
        {
          "internalType": "uint256",
          "name": "",
          "type": "uint256"
        },
        {
          "internalType": "bytes",
          "name": "",
          "type": "bytes"
        }
      ],
      "name": "onERC721Received",
      "outputs": [
        {
          "internalType": "bytes4",
          "name": "",
          "type": "bytes4"
        }
      ],
      "stateMutability": "nonpayable",
      "type": "function"
    },
    {
      "inputs": [
        {
          "internalType": "uint256",
          "name": "tokenId",
          "type": "uint256"
        },
        {
          "internalType": "address",
          "name": "owner",
          "type": "address"
        }
      ],
      "name": "sacar",
      "outputs": [],
      "stateMutability": "nonpayable",
      "type": "function"
    },
    {
      "inputs": [],
      "name": "token",
      "outputs": [
        {
          "internalType": "contract InnomicNFT",
          "name": "",
          "type": "address"
        }
      ],
      "stateMutability": "view",
      "type": "function"
    }
  ],
  "bytecode": "0x60a060405234801561001057600080fd5b5060405161050d38038061050d83398101604081905261002f91610040565b6001600160a01b0316608052610070565b60006020828403121561005257600080fd5b81516001600160a01b038116811461006957600080fd5b9392505050565b60805161047b610092600039600081816101210152610221015261047b6000f3fe608060405234801561001057600080fd5b506004361061004c5760003560e01c8063150b7a02146100515780633b3f30aa146100be578063d058e437146100d3578063fc0c546a1461011c575b600080fd5b61008861005f36600461033d565b7f150b7a0200000000000000000000000000000000000000000000000000000000949350505050565b6040517fffffffff0000000000000000000000000000000000000000000000000000000090911681526020015b60405180910390f35b6100d16100cc366004610419565b61015b565b005b6100d16100e1366004610419565b600091825260208290526040909120805473ffffffffffffffffffffffffffffffffffffffff19166001600160a01b03909216919091179055565b6101437f000000000000000000000000000000000000000000000000000000000000000081565b6040516001600160a01b0390911681526020016100b5565b6000828152602081905260409020546001600160a01b038281169116146101e2576040517f08c379a000000000000000000000000000000000000000000000000000000000815260206004820152601a60248201527f6c6f7320746f6b656e206e6f2074652070657274656e6563656e000000000000604482015260640160405180910390fd5b6040517ff202dc2e0000000000000000000000000000000000000000000000000000000081526001600160a01b038281166004830152602482018490527f0000000000000000000000000000000000000000000000000000000000000000169063f202dc2e90604401600060405180830381600087803b15801561026557600080fd5b505af1158015610279573d6000803e3d6000fd5b5050506000838152602081815260409182902054915160609290921b6bffffffffffffffffffffffff1916908201526034019050604051602081830303815290604052516000146102ee576000828152602081905260409020805473ffffffffffffffffffffffffffffffffffffffff191690555b5050565b80356001600160a01b038116811461030957600080fd5b919050565b7f4e487b7100000000000000000000000000000000000000000000000000000000600052604160045260246000fd5b6000806000806080858703121561035357600080fd5b61035c856102f2565b935061036a602086016102f2565b925060408501359150606085013567ffffffffffffffff8082111561038e57600080fd5b818701915087601f8301126103a257600080fd5b8135818111156103b4576103b461030e565b604051601f8201601f19908116603f011681019083821181831017156103dc576103dc61030e565b816040528281528a60208487010111156103f557600080fd5b82602086016020830137600060208483010152809550505050505092959194509250565b6000806040838503121561042c57600080fd5b8235915061043c602084016102f2565b9050925092905056fea2646970667358221220201d61ac72271a0fd8acc604b04c66f6a74d496d99dbc2e7f96496643d4a793964736f6c63430008090033",
  "linkReferences": {},
  "deployedLinkReferences": {}
}