{"contracts/InnomicNFT.sol":{"InnomicNFT":{"abi":[{"inputs":[{"internalType":"string","name":"name_","type":"string"},{"internalType":"string","name":"symbol_","type":"string"},{"internalType":"string","name":"newBaseURI","type":"string"},{"internalType":"uint256[]","name":"carpetas","type":"uint256[]"},{"internalType":"string[]","name":"clases_","type":"string[]"},{"internalType":"uint256","name":"lc","type":"uint256"},{"internalType":"uint256","name":"ld","type":"uint256"},{"internalType":"uint256[]","name":"dorados","type":"uint256[]"},{"internalType":"uint256","name":"lm","type":"uint256"},{"internalType":"uint256[]","name":"morados","type":"uint256[]"},{"internalType":"address","name":"marketAddress_","type":"address"}],"stateMutability":"nonpayable","type":"constructor"},{"anonymous":false,"inputs":[{"indexed":true,"internalType":"address","name":"owner","type":"address"},{"indexed":true,"internalType":"address","name":"approved","type":"address"},{"indexed":true,"internalType":"uint256","name":"tokenId","type":"uint256"}],"name":"Approval","type":"event"},{"anonymous":false,"inputs":[{"indexed":true,"internalType":"address","name":"owner","type":"address"},{"indexed":true,"internalType":"address","name":"operator","type":"address"},{"indexed":false,"internalType":"bool","name":"approved","type":"bool"}],"name":"ApprovalForAll","type":"event"},{"anonymous":false,"inputs":[{"indexed":true,"internalType":"address","name":"from","type":"address"},{"indexed":true,"internalType":"address","name":"to","type":"address"},{"indexed":true,"internalType":"uint256","name":"tokenId","type":"uint256"}],"name":"Transfer","type":"event"},{"inputs":[{"internalType":"uint256","name":"carpeta","type":"uint256"},{"internalType":"string","name":"clase_","type":"string"}],"name":"_addClase","outputs":[],"stateMutability":"nonpayable","type":"function"},{"inputs":[{"internalType":"uint256","name":"tokenId","type":"uint256"}],"name":"_getColor","outputs":[{"internalType":"uint256","name":"","type":"uint256"}],"stateMutability":"view","type":"function"},{"inputs":[{"internalType":"address","name":"to","type":"address"}],"name":"_mintTokenAllowedToEarn","outputs":[],"stateMutability":"nonpayable","type":"function"},{"inputs":[{"internalType":"address","name":"to","type":"address"}],"name":"_mintTokenNotAllowedToEarn","outputs":[],"stateMutability":"nonpayable","type":"function"},{"inputs":[{"internalType":"address","name":"to","type":"address"},{"internalType":"uint256","name":"tokenId","type":"uint256"}],"name":"_safeTransfer","outputs":[],"stateMutability":"nonpayable","type":"function"},{"inputs":[{"internalType":"address","name":"to","type":"address"},{"internalType":"uint256","name":"tokenId","type":"uint256"}],"name":"_safeTransferPool","outputs":[],"stateMutability":"nonpayable","type":"function"},{"inputs":[{"internalType":"string","name":"newBaseURI","type":"string"}],"name":"_setBaseURI","outputs":[],"stateMutability":"nonpayable","type":"function"},{"inputs":[{"internalType":"uint256","name":"l","type":"uint256"},{"internalType":"uint256[]","name":"dorados","type":"uint256[]"}],"name":"_setDorados","outputs":[],"stateMutability":"nonpayable","type":"function"},{"inputs":[{"internalType":"uint256","name":"newmod","type":"uint256"}],"name":"_setMod","outputs":[],"stateMutability":"nonpayable","type":"function"},{"inputs":[{"internalType":"uint256","name":"l","type":"uint256"},{"internalType":"uint256[]","name":"morados","type":"uint256[]"}],"name":"_setMorados","outputs":[],"stateMutability":"nonpayable","type":"function"},{"inputs":[{"internalType":"string","name":"newBaseURI","type":"string"},{"internalType":"uint256[]","name":"carpetas","type":"uint256[]"},{"internalType":"string[]","name":"clases_","type":"string[]"},{"internalType":"uint256","name":"lc","type":"uint256"},{"internalType":"uint256","name":"ld","type":"uint256"},{"internalType":"uint256[]","name":"dorados","type":"uint256[]"},{"internalType":"uint256","name":"lm","type":"uint256"},{"internalType":"uint256[]","name":"morados","type":"uint256[]"}],"name":"_setTanda","outputs":[],"stateMutability":"nonpayable","type":"function"},{"inputs":[{"internalType":"uint256","name":"newlimite","type":"uint256"}],"name":"_setlimite","outputs":[],"stateMutability":"nonpayable","type":"function"},{"inputs":[{"internalType":"address","name":"to","type":"address"},{"internalType":"uint256","name":"tokenId","type":"uint256"}],"name":"approve","outputs":[],"stateMutability":"nonpayable","type":"function"},{"inputs":[],"name":"balance","outputs":[{"internalType":"uint256","name":"","type":"uint256"}],"stateMutability":"view","type":"function"},{"inputs":[{"internalType":"address","name":"owner","type":"address"}],"name":"balanceOf","outputs":[{"internalType":"uint256","name":"","type":"uint256"}],"stateMutability":"view","type":"function"},{"inputs":[{"internalType":"uint256","name":"tokenId","type":"uint256"}],"name":"burn","outputs":[],"stateMutability":"nonpayable","type":"function"},{"inputs":[{"internalType":"uint256","name":"tokenId","type":"uint256"}],"name":"claseToken","outputs":[{"internalType":"string","name":"","type":"string"}],"stateMutability":"view","type":"function"},{"inputs":[{"internalType":"uint256","name":"tokenId","type":"uint256"}],"name":"downgrade","outputs":[],"stateMutability":"nonpayable","type":"function"},{"inputs":[{"internalType":"uint256","name":"tokenId","type":"uint256"}],"name":"getApproved","outputs":[{"internalType":"address","name":"","type":"address"}],"stateMutability":"view","type":"function"},{"inputs":[{"internalType":"uint256","name":"tokenId","type":"uint256"}],"name":"isAllowedToEarn","outputs":[{"internalType":"bool","name":"","type":"bool"}],"stateMutability":"view","type":"function"},{"inputs":[{"internalType":"address","name":"owner","type":"address"},{"internalType":"address","name":"operator","type":"address"}],"name":"isApprovedForAll","outputs":[{"internalType":"bool","name":"","type":"bool"}],"stateMutability":"view","type":"function"},{"inputs":[],"name":"limite","outputs":[{"internalType":"uint256","name":"","type":"uint256"}],"stateMutability":"view","type":"function"},{"inputs":[],"name":"name","outputs":[{"internalType":"string","name":"","type":"string"}],"stateMutability":"view","type":"function"},{"inputs":[{"internalType":"uint256","name":"tokenId","type":"uint256"}],"name":"numClase","outputs":[{"internalType":"string","name":"","type":"string"}],"stateMutability":"view","type":"function"},{"inputs":[{"internalType":"uint256","name":"tokenId","type":"uint256"}],"name":"ownerOf","outputs":[{"internalType":"address","name":"","type":"address"}],"stateMutability":"view","type":"function"},{"inputs":[],"name":"poolNFT","outputs":[{"internalType":"contract PoolNFT","name":"","type":"address"}],"stateMutability":"view","type":"function"},{"inputs":[{"internalType":"address","name":"from","type":"address"},{"internalType":"address","name":"to","type":"address"},{"internalType":"uint256","name":"tokenId","type":"uint256"}],"name":"safeTransferFrom","outputs":[],"stateMutability":"nonpayable","type":"function"},{"inputs":[{"internalType":"address","name":"from","type":"address"},{"internalType":"address","name":"to","type":"address"},{"internalType":"uint256","name":"tokenId","type":"uint256"},{"internalType":"bytes","name":"data","type":"bytes"}],"name":"safeTransferFrom","outputs":[],"stateMutability":"nonpayable","type":"function"},{"inputs":[{"internalType":"address","name":"operator","type":"address"},{"internalType":"bool","name":"approved","type":"bool"}],"name":"setApprovalForAll","outputs":[],"stateMutability":"nonpayable","type":"function"},{"inputs":[{"internalType":"address","name":"poola","type":"address"},{"internalType":"contract PoolNFT","name":"pool","type":"address"}],"name":"setPoolNFT","outputs":[],"stateMutability":"nonpayable","type":"function"},{"inputs":[{"internalType":"bytes4","name":"interfaceId","type":"bytes4"}],"name":"supportsInterface","outputs":[{"internalType":"bool","name":"","type":"bool"}],"stateMutability":"view","type":"function"},{"inputs":[],"name":"symbol","outputs":[{"internalType":"string","name":"","type":"string"}],"stateMutability":"view","type":"function"},{"inputs":[{"internalType":"uint256","name":"index","type":"uint256"}],"name":"tokenByIndex","outputs":[{"internalType":"uint256","name":"","type":"uint256"}],"stateMutability":"view","type":"function"},{"inputs":[{"internalType":"address","name":"owner","type":"address"},{"internalType":"uint256","name":"index","type":"uint256"}],"name":"tokenOfOwnerByIndex","outputs":[{"internalType":"uint256","name":"","type":"uint256"}],"stateMutability":"view","type":"function"},{"inputs":[{"internalType":"uint256","name":"tokenId","type":"uint256"}],"name":"tokenURI","outputs":[{"internalType":"string","name":"","type":"string"}],"stateMutability":"view","type":"function"},{"inputs":[],"name":"totalSupply","outputs":[{"internalType":"uint256","name":"","type":"uint256"}],"stateMutability":"view","type":"function"},{"inputs":[{"internalType":"address","name":"from","type":"address"},{"internalType":"address","name":"to","type":"address"},{"internalType":"uint256","name":"tokenId","type":"uint256"}],"name":"transferFrom","outputs":[],"stateMutability":"nonpayable","type":"function"},{"inputs":[{"internalType":"uint256","name":"tokenId1","type":"uint256"},{"internalType":"uint256","name":"tokenId2","type":"uint256"},{"internalType":"uint256","name":"tokenId3","type":"uint256"}],"name":"upgrade","outputs":[],"stateMutability":"nonpayable","type":"function"}],"evm":{"bytecode":{"linkReferences":{},"object":"60806040526002600c556002600e5560006011553480156200002057600080fd5b506040516200488738038062004887833981016040819052620000439162000587565b8a518b908b906200005c906000906020850190620002c4565b50805162000072906001906020840190620002c4565b5050506200008d8989898989898989620000be60201b60201c565b601c80546001600160a01b0319166001600160a01b039290921691909117905550620007d998505050505050505050565b60118054906000620000d0836200072b565b919050555060005b858110156200015d5762000148888281518110620000fa57620000fa62000749565b602002602001015160115460646200011391906200075f565b6200011f919062000781565b88838151811062000134576200013462000749565b60200260200101516200018b60201b60201c565b8062000154816200072b565b915050620000d8565b506200016a8484620001b1565b6200017682826200022e565b6200018188620002ab565b5050505050505050565b60008281526014602090815260409091208251620001ac92840190620002c4565b505050565b60005b82811015620001ac5760016018600060115481526020019081526020016000206000848481518110620001eb57620001eb62000749565b6020026020010151815260200190815260200160002060006101000a81548160ff021916908315150217905550808062000225906200072b565b915050620001b4565b60005b82811015620001ac576001601960006011548152602001908152602001600020600084848151811062000268576200026862000749565b6020026020010151815260200190815260200160002060006101000a81548160ff0219169083151502179055508080620002a2906200072b565b91505062000231565b8051620002c090600b906020840190620002c4565b5050565b828054620002d2906200079c565b90600052602060002090601f016020900481019282620002f6576000855562000341565b82601f106200031157805160ff191683800117855562000341565b8280016001018555821562000341579182015b828111156200034157825182559160200191906001019062000324565b506200034f92915062000353565b5090565b5b808211156200034f576000815560010162000354565b634e487b7160e01b600052604160045260246000fd5b604051601f8201601f191681016001600160401b0381118282101715620003ab57620003ab6200036a565b604052919050565b600082601f830112620003c557600080fd5b81516001600160401b03811115620003e157620003e16200036a565b6020620003f7601f8301601f1916820162000380565b82815285828487010111156200040c57600080fd5b60005b838110156200042c5785810183015182820184015282016200040f565b838111156200043e5760008385840101525b5095945050505050565b60006001600160401b038211156200046457620004646200036a565b5060051b60200190565b600082601f8301126200048057600080fd5b8151602062000499620004938362000448565b62000380565b82815260059290921b84018101918181019086841115620004b957600080fd5b8286015b84811015620004d65780518352918301918301620004bd565b509695505050505050565b600082601f830112620004f357600080fd5b8151602062000506620004938362000448565b82815260059290921b840181019181810190868411156200052657600080fd5b8286015b84811015620004d65780516001600160401b038111156200054b5760008081fd5b6200055b8986838b0101620003b3565b8452509183019183016200052a565b80516001600160a01b03811681146200058257600080fd5b919050565b60008060008060008060008060008060006101608c8e031215620005aa57600080fd5b8b516001600160401b03811115620005c157600080fd5b620005cf8e828f01620003b3565b60208e0151909c5090506001600160401b03811115620005ee57600080fd5b620005fc8e828f01620003b3565b60408e0151909b5090506001600160401b038111156200061b57600080fd5b620006298e828f01620003b3565b60608e0151909a5090506001600160401b038111156200064857600080fd5b620006568e828f016200046e565b60808e015190995090506001600160401b038111156200067557600080fd5b620006838e828f01620004e1565b97505060a08c0151955060c08c0151945060e08c015160018060401b03811115620006ad57600080fd5b620006bb8e828f016200046e565b6101008e01516101208f0151919650945090506001600160401b03811115620006e357600080fd5b620006f18e828f016200046e565b925050620007036101408d016200056a565b90509295989b509295989b9093969950565b634e487b7160e01b600052601160045260246000fd5b600060001982141562000742576200074262000715565b5060010190565b634e487b7160e01b600052603260045260246000fd5b60008160001904831182151516156200077c576200077c62000715565b500290565b6000821982111562000797576200079762000715565b500190565b600181811c90821680620007b157607f821691505b60208210811415620007d357634e487b7160e01b600052602260045260246000fd5b50919050565b61409e80620007e96000396000f3fe608060405234801561001057600080fd5b50600436106102925760003560e01c80638527788a11610160578063c4f8210e116100d8578063e985e9c51161008c578063f202dc2e11610071578063f202dc2e14610563578063f484225714610576578063fe1538d4146105b257600080fd5b8063e985e9c514610514578063ef0b23071461055057600080fd5b8063cb9375d3116100bd578063cb9375d3146103a1578063d572c38f146104e1578063dca77ad21461050157600080fd5b8063c4f8210e146104bb578063c87b56dd146104ce57600080fd5b8063a22cb4651161012f578063b69ef8a811610114578063b69ef8a81461048d578063b88d4fde14610495578063bf5da0c5146104a857600080fd5b8063a22cb46514610467578063ac12914f1461047a57600080fd5b80638527788a1461042657806385dd90331461043957806395d89b411461044c578063a0b497781461045457600080fd5b806331b5b9071161020e57806359b17c5e116101c25780636f52598b116101a75780636f52598b146103ed57806370a08231146104005780637bafd87e1461041357600080fd5b806359b17c5e146103c75780636352211e146103da57600080fd5b806342966c68116101f357806342966c681461038e5780634e72a6fa146103a15780634f6ccce7146103b457600080fd5b806331b5b9071461036857806342842e0e1461037b57600080fd5b806311bcc81e1161026557806320eb8e531161024a57806320eb8e531461033957806323b872dd146103425780632f745c591461035557600080fd5b806311bcc81e1461031457806318160ddd1461032757600080fd5b806301ffc9a71461029757806306fdde03146102bf578063081812fc146102d4578063095ea7b3146102ff575b600080fd5b6102aa6102a5366004613855565b6105c5565b60405190151581526020015b60405180910390f35b6102c7610609565b6040516102b691906138d1565b6102e76102e23660046138e4565b61069b565b6040516001600160a01b0390911681526020016102b6565b61031261030d366004613912565b6106c2565b005b6103126103223660046138e4565b6107f9565b6008545b6040519081526020016102b6565b61032b600e5481565b61031261035036600461393e565b610bf8565b61032b610363366004613912565b610c6f565b610312610376366004613a3e565b610d17565b61031261038936600461393e565b610d2e565b61031261039c3660046138e4565b610d49565b6102c76103af3660046138e4565b610de9565b61032b6103c23660046138e4565b610e8d565b6103126103d5366004613a73565b610f31565b6102e76103e83660046138e4565b61117c565b6103126103fb366004613a73565b6111e1565b61032b61040e366004613a73565b61142a565b6102aa6104213660046138e4565b6114c4565b610312610434366004613b1f565b6114e5565b6103126104473660046138e4565b600e55565b6102c761155b565b601b546102e7906001600160a01b031681565b610312610475366004613b66565b61156a565b610312610488366004613c24565b611575565b600d5461032b565b6103126104a3366004613d13565b611624565b6103126104b63660046138e4565b600c55565b6103126104c9366004613912565b6116a2565b6102c76104dc3660046138e4565b611727565b61032b6104ef3660046138e4565b60009081526017602052604090205490565b61031261050f366004613d93565b61174b565b6102aa610522366004613dd0565b6001600160a01b03918216600090815260056020908152604080832093909416825291909152205460ff1690565b61031261055e366004613b1f565b61176a565b610312610571366004613912565b6117e0565b610312610584366004613dd0565b601a80546001600160a01b039384166001600160a01b031991821617909155601b8054929093169116179055565b6103126105c0366004613dfe565b611809565b60006001600160e01b031982167f780e9d63000000000000000000000000000000000000000000000000000000001480610603575061060382611d15565b92915050565b60606000805461061890613e2a565b80601f016020809104026020016040519081016040528092919081815260200182805461064490613e2a565b80156106915780601f1061066657610100808354040283529160200191610691565b820191906000526020600020905b81548152906001019060200180831161067457829003601f168201915b5050505050905090565b60006106a682611db0565b506000908152600460205260409020546001600160a01b031690565b60006106cd8261117c565b9050806001600160a01b0316836001600160a01b0316141561075c5760405162461bcd60e51b815260206004820152602160248201527f4552433732313a20617070726f76616c20746f2063757272656e74206f776e6560448201527f720000000000000000000000000000000000000000000000000000000000000060648201526084015b60405180910390fd5b336001600160a01b038216148061077857506107788133610522565b6107ea5760405162461bcd60e51b815260206004820152603d60248201527f4552433732313a20617070726f76652063616c6c6572206973206e6f7420746f60448201527f6b656e206f776e6572206f7220617070726f76656420666f7220616c6c0000006064820152608401610753565b6107f48383611e14565b505050565b600081815260106020526040902054600160ff909116116108825760405162461bcd60e51b815260206004820152602260248201527f656c20746f6b656e206465626520736572206465206c766c206d61796f72206160448201527f20310000000000000000000000000000000000000000000000000000000000006064820152608401610753565b3361088c8261117c565b6001600160a01b0316146108e25760405162461bcd60e51b815260206004820152601a60248201527f656c20746f6b656e20646562652070657274656e6563657274650000000000006044820152606401610753565b60008181526015602081815260408084208054855260168352818520805460ff19908116909155600182015486528286208054821690556002820154865282862080549091169055601b54868652939092529054815163d058e43760e01b8152600481019190915233602482015290516001600160a01b039092169263d058e4379260448084019382900301818387803b15801561097f57600080fd5b505af1158015610993573d6000803e3d6000fd5b5050601b546000848152601560205260409081902060010154905163d058e43760e01b815260048101919091523360248201526001600160a01b03909116925063d058e4379150604401600060405180830381600087803b1580156109f757600080fd5b505af1158015610a0b573d6000803e3d6000fd5b5050601b546000848152601560205260409081902060020154905163d058e43760e01b815260048101919091523360248201526001600160a01b03909116925063d058e4379150604401600060405180830381600087803b158015610a6f57600080fd5b505af1158015610a83573d6000803e3d6000fd5b5050601b5460008481526015602052604090819020549051631d9f985560e11b815260048101919091523360248201526001600160a01b039091169250633b3f30aa9150604401600060405180830381600087803b158015610ae457600080fd5b505af1158015610af8573d6000803e3d6000fd5b5050601b5460008481526015602052604090819020600101549051631d9f985560e11b815260048101919091523360248201526001600160a01b039091169250633b3f30aa9150604401600060405180830381600087803b158015610b5c57600080fd5b505af1158015610b70573d6000803e3d6000fd5b5050601b5460008481526015602052604090819020600201549051631d9f985560e11b815260048101919091523360248201526001600160a01b039091169250633b3f30aa9150604401600060405180830381600087803b158015610bd457600080fd5b505af1158015610be8573d6000803e3d6000fd5b50505050610bf581610da9565b50565b610c023382611e82565b610c645760405162461bcd60e51b815260206004820152602d60248201527f4552433732313a2063616c6c6572206973206e6f7420746f6b656e206f776e6560448201526c1c881bdc88185c1c1c9bdd9959609a1b6064820152608401610753565b6107f4838383611f01565b6000610c7a8361142a565b8210610cee5760405162461bcd60e51b815260206004820152602b60248201527f455243373231456e756d657261626c653a206f776e657220696e646578206f7560448201527f74206f6620626f756e64730000000000000000000000000000000000000000006064820152608401610753565b506001600160a01b03919091166000908152600660209081526040808320938352929052205490565b8051610d2a90600b9060208401906136c4565b5050565b6107f483838360405180602001604052806000815250611624565b33610d538261117c565b6001600160a01b031614610da95760405162461bcd60e51b815260206004820152601a60248201527f656c20746f6b656e20646562652070657274656e6563657274650000000000006044820152606401610753565b610db281612107565b6000818152600a602052604090208054610dcb90613e2a565b159050610bf5576000818152600a60205260408120610bf591613748565b600081815260136020526040812080546060929190610e0790613e2a565b80601f0160208091040260200160405190810160405280929190818152602001828054610e3390613e2a565b8015610e805780601f10610e5557610100808354040283529160200191610e80565b820191906000526020600020905b815481529060010190602001808311610e6357829003601f168201915b5093979650505050505050565b6000610e9860085490565b8210610f0c5760405162461bcd60e51b815260206004820152602c60248201527f455243373231456e756d657261626c653a20676c6f62616c20696e646578206f60448201527f7574206f6620626f756e647300000000000000000000000000000000000000006064820152608401610753565b60088281548110610f1f57610f1f613e65565b90600052602060002001549050919050565b6000600d546001610f429190613e91565b9050610f4e82826121aa565b601c54610f64906001600160a01b0316826106c2565b6000610f6e6121c4565b9050600060405180604001604052806005815260200164173539b7b760d91b8152509050600082610fa9610fa486600c546121d3565b612318565b604051602001610fba929190613ea9565b60408051601f1981840301815290829052610fd9918490602001613ea9565b60408051601f198184030181529181526000868152600a6020908152919020825192935061100b9290918401906136c4565b50601154600085815260126020526040812091909155600c5461102f9086906121d3565b60115461103d906064613ed8565b6110479190613e91565b6000818152601460209081526040808320898452601390925290912081549293509161107290613e2a565b61107d929190613782565b506000858152601060209081526040808320805460ff19166001179055601154835260189091528120600c549091906110b79088906121d3565b815260208101919091526040016000205460ff16156110e45760008581526017602052604081205561114a565b601960006011548152602001908152602001600020600061110787600c546121d3565b815260208101919091526040016000205460ff16156111375760008581526017602052604090206001905561114a565b6000858152601760205260409020600290555b600d805490600061115a83613ef7565b90915550505060009384525050600f6020525060409020805460ff1916905550565b6000818152600260205260408120546001600160a01b0316806106035760405162461bcd60e51b815260206004820152601860248201527f4552433732313a20696e76616c696420746f6b656e20494400000000000000006044820152606401610753565b6000600d5460016111f29190613e91565b90506111fe82826121aa565b601c54611214906001600160a01b0316826106c2565b600061121e6121c4565b9050600060405180604001604052806005815260200164173539b7b760d91b8152509050600082611254610fa486600c546121d3565b604051602001611265929190613ea9565b60408051601f1981840301815290829052611284918490602001613ea9565b60408051601f198184030181529181526000868152600a602090815291902082519293506112b69290918401906136c4565b50601154600085815260126020526040812091909155600c546112da9086906121d3565b6011546112e8906064613ed8565b6112f29190613e91565b6000818152601460209081526040808320898452601390925290912081549293509161131d90613e2a565b611328929190613782565b506000858152601060209081526040808320805460ff19166001179055601154835260189091528120600c549091906113629088906121d3565b815260208101919091526040016000205460ff161561138f576000858152601760205260408120556113f5565b60196000601154815260200190815260200160002060006113b287600c546121d3565b815260208101919091526040016000205460ff16156113e2576000858152601760205260409020600190556113f5565b6000858152601760205260409020600290555b600d805490600061140583613ef7565b90915550505060009384525050600f6020525060409020805460ff1916600117905550565b60006001600160a01b0382166114a85760405162461bcd60e51b815260206004820152602960248201527f4552433732313a2061646472657373207a65726f206973206e6f74206120766160448201527f6c6964206f776e657200000000000000000000000000000000000000000000006064820152608401610753565b506001600160a01b031660009081526003602052604090205490565b60006114cf82611db0565b506000908152600f602052604090205460ff1690565b60005b828110156107f4576001601860006011548152602001908152602001600020600084848151811061151b5761151b613e65565b6020026020010151815260200190815260200160002060006101000a81548160ff021916908315150217905550808061155390613ef7565b9150506114e8565b60606001805461061890613e2a565b610d2a3383836123c2565b6011805490600061158583613ef7565b919050555060005b858110156115fc576115ea8882815181106115aa576115aa613e65565b602002602001015160115460646115c19190613ed8565b6115cb9190613e91565b8883815181106115dd576115dd613e65565b602002602001015161174b565b806115f481613ef7565b91505061158d565b5061160784846114e5565b611611828261176a565b61161a88610d17565b5050505050505050565b61162e3383611e82565b6116905760405162461bcd60e51b815260206004820152602d60248201527f4552433732313a2063616c6c6572206973206e6f7420746f6b656e206f776e6560448201526c1c881bdc88185c1c1c9bdd9959609a1b6064820152608401610753565b61169c84848484612491565b50505050565b6116bd33838360405180602001604052806000815250612491565b601b5460405163d058e43760e01b8152600481018390526001600160a01b0384811660248301529091169063d058e43790604401600060405180830381600087803b15801561170b57600080fd5b505af115801561171f573d6000803e3d6000fd5b505050505050565b606061173282611db0565b6000828152600a602052604081208054610e0790613e2a565b600082815260146020908152604090912082516107f4928401906136c4565b60005b828110156107f457600160196000601154815260200190815260200160002060008484815181106117a0576117a0613e65565b6020026020010151815260200190815260200160002060006101000a81548160ff02191690831515021790555080806117d890613ef7565b91505061176d565b601a54604080516020810190915260008152610d2a916001600160a01b03169084908490612491565b6000828152601060205260408082205485835291205460ff908116911614801561184d57506000818152601060205260408082205485835291205460ff9081169116145b6118bf5760405162461bcd60e51b815260206004820152602160248201527f6c6f7320746f6b656e20646562656e207365722064656c206d69736d6f206c7660448201527f6c000000000000000000000000000000000000000000000000000000000000006064820152608401610753565b6000828152600f60205260408082205485835291205460ff90811615159116151514801561190b57506000818152600f60205260408082205485835291205460ff908116151591161515145b61197d5760405162461bcd60e51b815260206004820152602260248201527f6c6f7320746f6b656e20646562656e207365722064656c206d69736d6f20746960448201527f706f0000000000000000000000000000000000000000000000000000000000006064820152608401610753565b60008381526016602052604090205460ff1615806119aa575060008281526016602052604090205460ff16155b806119c4575060008181526016602052604090205460ff16155b611a105760405162461bcd60e51b815260206004820152601760248201527f756e20746f6b656e206573746120626c6f636b6561646f0000000000000000006044820152606401610753565b60008381526010602052604090205460ff1660031415611a725760405162461bcd60e51b815260206004820152601f60248201527f6e6f207365207075656465207573617220756e20746f6b656e206c766c2033006044820152606401610753565b611a7b8261117c565b6001600160a01b0316611a8d8461117c565b6001600160a01b0316148015611ac45750611aa78161117c565b6001600160a01b0316611ab98461117c565b6001600160a01b0316145b8015611ae0575033611ad58461117c565b6001600160a01b0316145b611b2c5760405162461bcd60e51b815260206004820152601c60248201527f6c6f7320746f6b656e20646562656e2070657274656e656365727465000000006044820152606401610753565b60008381526010602052604090205460ff1660011415611b5757611b523384848461250f565b611b63565b611b633384848461296f565b601a54604080516020810190915260008152611b8e9133916001600160a01b03909116908690612491565b601a54604080516020810190915260008152611bb99133916001600160a01b03909116908590612491565b601a54604080516020810190915260008152611be49133916001600160a01b03909116908490612491565b601b5460405163d058e43760e01b8152600481018590523360248201526001600160a01b039091169063d058e43790604401600060405180830381600087803b158015611c3057600080fd5b505af1158015611c44573d6000803e3d6000fd5b5050601b5460405163d058e43760e01b8152600481018690523360248201526001600160a01b03909116925063d058e4379150604401600060405180830381600087803b158015611c9457600080fd5b505af1158015611ca8573d6000803e3d6000fd5b5050601b5460405163d058e43760e01b8152600481018590523360248201526001600160a01b03909116925063d058e4379150604401600060405180830381600087803b158015611cf857600080fd5b505af1158015611d0c573d6000803e3d6000fd5b50505050505050565b60006001600160e01b031982167f80ac58cd000000000000000000000000000000000000000000000000000000001480611d7857506001600160e01b031982167f5b5e139f00000000000000000000000000000000000000000000000000000000145b8061060357507f01ffc9a7000000000000000000000000000000000000000000000000000000006001600160e01b0319831614610603565b6000818152600260205260409020546001600160a01b0316610bf55760405162461bcd60e51b815260206004820152601860248201527f4552433732313a20696e76616c696420746f6b656e20494400000000000000006044820152606401610753565b600081815260046020526040902080546001600160a01b0319166001600160a01b0384169081179091558190611e498261117c565b6001600160a01b03167f8c5be1e5ebec7d5bd14f71427d1e84f3dd0314c0f7b2291e5b200ac8c7c3b92560405160405180910390a45050565b600080611e8e8361117c565b9050806001600160a01b0316846001600160a01b03161480611ed557506001600160a01b0380821660009081526005602090815260408083209388168352929052205460ff165b80611ef95750836001600160a01b0316611eee8461069b565b6001600160a01b0316145b949350505050565b826001600160a01b0316611f148261117c565b6001600160a01b031614611f785760405162461bcd60e51b815260206004820152602560248201527f4552433732313a207472616e736665722066726f6d20696e636f72726563742060448201526437bbb732b960d91b6064820152608401610753565b6001600160a01b038216611ff35760405162461bcd60e51b8152602060048201526024808201527f4552433732313a207472616e7366657220746f20746865207a65726f2061646460448201527f72657373000000000000000000000000000000000000000000000000000000006064820152608401610753565b6120008383836001612f22565b826001600160a01b03166120138261117c565b6001600160a01b0316146120775760405162461bcd60e51b815260206004820152602560248201527f4552433732313a207472616e736665722066726f6d20696e636f72726563742060448201526437bbb732b960d91b6064820152608401610753565b600081815260046020908152604080832080546001600160a01b03199081169091556001600160a01b0387811680865260038552838620805460001901905590871680865283862080546001019055868652600290945282852080549092168417909155905184937fddf252ad1be2c89b69c2b068fc378daa952ba7f163c4a11628f55a4df523b3ef91a4505050565b60006121128261117c565b9050612122816000846001612f22565b61212b8261117c565b600083815260046020908152604080832080546001600160a01b03199081169091556001600160a01b0385168085526003845282852080546000190190558785526002909352818420805490911690555192935084927fddf252ad1be2c89b69c2b068fc378daa952ba7f163c4a11628f55a4df523b3ef908390a45050565b610d2a82826040518060200160405280600081525061305e565b6060600b805461061890613e2a565b6040805160c08101825260028152600360208201526004918101919091526005606082015260066080820152600760a082015260009081600a81805b8782146122db578361228f576122258389613f28565b91506000612233848a613f28565b905085612241600687613f28565b6006811061225157612251613e65565b60200201516122639060ff1682613ed8565b61226d9083613e91565b915061227a600186613e91565b9450612287600a85613ed8565b93505061220f565b6122998389613f28565b915060006122a8600a85613f3c565b6122b3600a86613f3c565b6122bd908b613f28565b6122c7868c613f28565b6122d19190613f50565b6122339190613f3c565b60006122e78883613f3c565b90506000826122f68a84613ed8565b612300908b613e91565b61230a9190613f50565b9a9950505050505050505050565b60606000612325836130dc565b600101905060008167ffffffffffffffff8111156123455761234561397f565b6040519080825280601f01601f19166020018201604052801561236f576020820181803683370190505b5090508181016020015b600019017f3031323334353637383961626364656600000000000000000000000000000000600a86061a8153600a85049450846123b5576123ba565b612379565b509392505050565b816001600160a01b0316836001600160a01b031614156124245760405162461bcd60e51b815260206004820152601960248201527f4552433732313a20617070726f766520746f2063616c6c6572000000000000006044820152606401610753565b6001600160a01b03838116600081815260056020908152604080832094871680845294825291829020805460ff191686151590811790915591519182527f17307eab39ab6107e8899845ad3d59bd9653f200f220920489ca2b5937696c31910160405180910390a3505050565b61249c848484611f01565b6124a8848484846131be565b61169c5760405162461bcd60e51b815260206004820152603260248201527f4552433732313a207472616e7366657220746f206e6f6e20455243373231526560448201527131b2b4bb32b91034b6b83632b6b2b73a32b960711b6064820152608401610753565b60408051600680825260e082019092526000916020820160c080368337019050509050838160008151811061254657612546613e65565b602002602001018181525050828160018151811061256657612566613e65565b602002602001018181525050818160028151811061258657612586613e65565b60209081029190910101526040805160038082526080820190925260009181602001602082028036833701905050905060008060005b60038110156126d757601760008683815181106125db576125db613e65565b60200260200101518152602001908152602001600020546000141561263f5784818151811061260c5761260c613e65565b602002602001015184848151811061262657612626613e65565b60209081029190910101528261263b81613ef7565b9350505b6017600086838151811061265557612655613e65565b6020026020010151815260200190815260200160002054600114156126c55784818151811061268657612686613e65565b60200260200101518583600361269c9190613e91565b815181106126ac576126ac613e65565b6020908102919091010152816126c181613ef7565b9250505b806126cf81613ef7565b9150506125bc565b5060608215612755576126e988610de9565b61272e856001612707600d5460016127019190613e91565b886121d3565b6127119190613f50565b8151811061272157612721613e65565b6020026020010151610de9565b60405160200161273f929190613ea9565b60405160208183030381529060405290506127a9565b61275e88610de9565b612786866001612707600d5460016127769190613e91565b612781886003613e91565b6121d3565b604051602001612797929190613ea9565b60405160208183030381529060405290505b60006040518060800160405280604e8152602001613fd7604e91399050600060405180604001604052806005815260200164173539b7b760d91b8152509050600082846040516020016127fd929190613ea9565b60408051601f198184030181529082905261281c918490602001613ea9565b60405160208183030381529060405290506128378c82613316565b604080516060810182528c815260208082018d90528183018c9052600d54600090815260159091529190912061286e9160036137fd565b50600d5460009081526015602052604090819020815160608101928390526128fa9290919060039082845b81548152602001906001019080831161289957505050505080516000908152601660209081526040808320805460ff199081166001908117909255928501518452818420805484168217905593810151835290912080549091169091179055565b600d546000908152601360209081526040909120855161291c928701906136c4565b5050600d805460009081526010602090815260408083208054600260ff19918216179091559d8352600f909152808220549254825290208054909b1660ff90911615151790995550505050505050505050565b604080516012808252610260820190925260009160208201610240803683370190505060008581526015602052604081209192500154816000815181106129b8576129b8613e65565b60209081029190910181019190915260008481526015909152604081200154816001815181106129ea576129ea613e65565b6020908102919091018101919091526000838152601590915260408120015481600281518110612a1c57612a1c613e65565b60209081029190910181019190915260008581526015909152604090206001015481600381518110612a5057612a50613e65565b60209081029190910181019190915260008481526015909152604090206001015481600481518110612a8457612a84613e65565b60209081029190910181019190915260008381526015909152604090206001015481600581518110612ab857612ab8613e65565b60209081029190910181019190915260008581526015909152604090206002015481600681518110612aec57612aec613e65565b60209081029190910181019190915260008481526015909152604090206002015481600781518110612b2057612b20613e65565b60209081029190910181019190915260008381526015909152604090206002015481600881518110612b5457612b54613e65565b6020908102919091010152604080516009808252610140820190925260009181602001602082028036833701905050905060008060005b6009811015612ca65760176000868381518110612baa57612baa613e65565b602002602001015181526020019081526020016000205460001415612c0e57848181518110612bdb57612bdb613e65565b6020026020010151848481518110612bf557612bf5613e65565b602090810291909101015282612c0a81613ef7565b9350505b60176000868381518110612c2457612c24613e65565b602002602001015181526020019081526020016000205460011415612c9457848181518110612c5557612c55613e65565b602002602001015185836009612c6b9190613e91565b81518110612c7b57612c7b613e65565b602090810291909101015281612c9081613ef7565b9250505b80612c9e81613ef7565b915050612b8b565b5060608215612cf757612cb888610de9565b612cd0856001612707600d5460016127019190613e91565b604051602001612ce1929190613ea9565b6040516020818303038152906040529050612d46565b612d0088610de9565b612d23866001612707600d546001612d189190613e91565b612781886009613e91565b604051602001612d34929190613ea9565b60405160208183030381529060405290505b600060405180608001604052806044815260200161402560449139905060006040518060400160405280600481526020017f2e706e6700000000000000000000000000000000000000000000000000000000815250905060008284604051602001612db2929190613ea9565b60408051601f1981840301815290829052612dd1918490602001613ea9565b6040516020818303038152906040529050612dec8c82613316565b604080516060810182528c815260208082018d90528183018c9052600d546000908152601590915291909120612e239160036137fd565b50600d546000908152601560209081526040918290208251606081019384905281548152612ead939092600391906001840190850180831161289957505050505080516000908152601660209081526040808320805460ff199081166001908117909255928501518452818420805484168217905593810151835290912080549091169091179055565b600d5460009081526013602090815260409091208551612ecf928701906136c4565b5050600d805460009081526010602090815260408083208054600360ff19918216179091559d8352600f909152808220549254825290208054909b1660ff90911615151790995550505050505050505050565b6001811115612f995760405162461bcd60e51b815260206004820152603560248201527f455243373231456e756d657261626c653a20636f6e736563757469766520747260448201527f616e7366657273206e6f7420737570706f7274656400000000000000000000006064820152608401610753565b816001600160a01b038516612ff557612ff081600880546000838152600960205260408120829055600182018355919091527ff3f7a9fe364faab93b216da50a3214154f22a0a2b415b23a84c8169e8b636ee30155565b613018565b836001600160a01b0316856001600160a01b03161461301857613018858261339b565b6001600160a01b0384166130345761302f81613438565b613057565b846001600160a01b0316846001600160a01b0316146130575761305784826134e7565b5050505050565b613068838361352b565b61307560008484846131be565b6107f45760405162461bcd60e51b815260206004820152603260248201527f4552433732313a207472616e7366657220746f206e6f6e20455243373231526560448201527131b2b4bb32b91034b6b83632b6b2b73a32b960711b6064820152608401610753565b6000807a184f03e93ff9f4daa797ed6e38ed64bf6a1f0100000000000000008310613125577a184f03e93ff9f4daa797ed6e38ed64bf6a1f010000000000000000830492506040015b6d04ee2d6d415b85acef81000000008310613151576d04ee2d6d415b85acef8100000000830492506020015b662386f26fc10000831061316f57662386f26fc10000830492506010015b6305f5e1008310613187576305f5e100830492506008015b612710831061319b57612710830492506004015b606483106131ad576064830492506002015b600a83106106035760010192915050565b60006001600160a01b0384163b1561330b57604051630a85bd0160e11b81526001600160a01b0385169063150b7a0290613202903390899088908890600401613f67565b602060405180830381600087803b15801561321c57600080fd5b505af192505050801561324c575060408051601f3d908101601f1916820190925261324991810190613fa3565b60015b6132f1573d80801561327a576040519150601f19603f3d011682016040523d82523d6000602084013e61327f565b606091505b5080516132e95760405162461bcd60e51b815260206004820152603260248201527f4552433732313a207472616e7366657220746f206e6f6e20455243373231526560448201527131b2b4bb32b91034b6b83632b6b2b73a32b960711b6064820152608401610753565b805181602001fd5b6001600160e01b031916630a85bd0160e11b149050611ef9565b506001949350505050565b6000600d5460016133279190613e91565b905061333383826121aa565b601c54613349906001600160a01b0316826106c2565b6000818152600a602090815260409091208351849261336c9291908401906136c4565b50601154600083815260126020526040812091909155600d80549161339083613ef7565b919050555050505050565b600060016133a88461142a565b6133b29190613f50565b600083815260076020526040902054909150808214613405576001600160a01b03841660009081526006602090815260408083208584528252808320548484528184208190558352600790915290208190555b5060009182526007602090815260408084208490556001600160a01b039094168352600681528383209183525290812055565b60085460009061344a90600190613f50565b6000838152600960205260408120546008805493945090928490811061347257613472613e65565b90600052602060002001549050806008838154811061349357613493613e65565b60009182526020808320909101929092558281526009909152604080822084905585825281205560088054806134cb576134cb613fc0565b6001900381819060005260206000200160009055905550505050565b60006134f28361142a565b6001600160a01b039093166000908152600660209081526040808320868452825280832085905593825260079052919091209190915550565b6001600160a01b0382166135815760405162461bcd60e51b815260206004820181905260248201527f4552433732313a206d696e7420746f20746865207a65726f20616464726573736044820152606401610753565b6000818152600260205260409020546001600160a01b0316156135e65760405162461bcd60e51b815260206004820152601c60248201527f4552433732313a20746f6b656e20616c7265616479206d696e746564000000006044820152606401610753565b6135f4600083836001612f22565b6000818152600260205260409020546001600160a01b0316156136595760405162461bcd60e51b815260206004820152601c60248201527f4552433732313a20746f6b656e20616c7265616479206d696e746564000000006044820152606401610753565b6001600160a01b038216600081815260036020908152604080832080546001019055848352600290915280822080546001600160a01b0319168417905551839291907fddf252ad1be2c89b69c2b068fc378daa952ba7f163c4a11628f55a4df523b3ef908290a45050565b8280546136d090613e2a565b90600052602060002090601f0160209004810192826136f25760008555613738565b82601f1061370b57805160ff1916838001178555613738565b82800160010185558215613738579182015b8281111561373857825182559160200191906001019061371d565b5061374492915061382a565b5090565b50805461375490613e2a565b6000825580601f10613764575050565b601f016020900490600052602060002090810190610bf5919061382a565b82805461378e90613e2a565b90600052602060002090601f0160209004810192826137b05760008555613738565b82601f106137c15780548555613738565b8280016001018555821561373857600052602060002091601f016020900482015b828111156137385782548255916001019190600101906137e2565b8260038101928215613738579160200282018281111561373857825182559160200191906001019061371d565b5b80821115613744576000815560010161382b565b6001600160e01b031981168114610bf557600080fd5b60006020828403121561386757600080fd5b81356138728161383f565b9392505050565b60005b8381101561389457818101518382015260200161387c565b8381111561169c5750506000910152565b600081518084526138bd816020860160208601613879565b601f01601f19169290920160200192915050565b60208152600061387260208301846138a5565b6000602082840312156138f657600080fd5b5035919050565b6001600160a01b0381168114610bf557600080fd5b6000806040838503121561392557600080fd5b8235613930816138fd565b946020939093013593505050565b60008060006060848603121561395357600080fd5b833561395e816138fd565b9250602084013561396e816138fd565b929592945050506040919091013590565b634e487b7160e01b600052604160045260246000fd5b604051601f8201601f1916810167ffffffffffffffff811182821017156139be576139be61397f565b604052919050565b600067ffffffffffffffff8311156139e0576139e061397f565b6139f3601f8401601f1916602001613995565b9050828152838383011115613a0757600080fd5b828260208301376000602084830101529392505050565b600082601f830112613a2f57600080fd5b613872838335602085016139c6565b600060208284031215613a5057600080fd5b813567ffffffffffffffff811115613a6757600080fd5b611ef984828501613a1e565b600060208284031215613a8557600080fd5b8135613872816138fd565b600067ffffffffffffffff821115613aaa57613aaa61397f565b5060051b60200190565b600082601f830112613ac557600080fd5b81356020613ada613ad583613a90565b613995565b82815260059290921b84018101918181019086841115613af957600080fd5b8286015b84811015613b145780358352918301918301613afd565b509695505050505050565b60008060408385031215613b3257600080fd5b82359150602083013567ffffffffffffffff811115613b5057600080fd5b613b5c85828601613ab4565b9150509250929050565b60008060408385031215613b7957600080fd5b8235613b84816138fd565b915060208301358015158114613b9957600080fd5b809150509250929050565b600082601f830112613bb557600080fd5b81356020613bc5613ad583613a90565b82815260059290921b84018101918181019086841115613be457600080fd5b8286015b84811015613b1457803567ffffffffffffffff811115613c085760008081fd5b613c168986838b0101613a1e565b845250918301918301613be8565b600080600080600080600080610100898b031215613c4157600080fd5b883567ffffffffffffffff80821115613c5957600080fd5b613c658c838d01613a1e565b995060208b0135915080821115613c7b57600080fd5b613c878c838d01613ab4565b985060408b0135915080821115613c9d57600080fd5b613ca98c838d01613ba4565b975060608b0135965060808b0135955060a08b0135915080821115613ccd57600080fd5b613cd98c838d01613ab4565b945060c08b0135935060e08b0135915080821115613cf657600080fd5b50613d038b828c01613ab4565b9150509295985092959890939650565b60008060008060808587031215613d2957600080fd5b8435613d34816138fd565b93506020850135613d44816138fd565b925060408501359150606085013567ffffffffffffffff811115613d6757600080fd5b8501601f81018713613d7857600080fd5b613d87878235602084016139c6565b91505092959194509250565b60008060408385031215613da657600080fd5b82359150602083013567ffffffffffffffff811115613dc457600080fd5b613b5c85828601613a1e565b60008060408385031215613de357600080fd5b8235613dee816138fd565b91506020830135613b99816138fd565b600080600060608486031215613e1357600080fd5b505081359360208301359350604090920135919050565b600181811c90821680613e3e57607f821691505b60208210811415613e5f57634e487b7160e01b600052602260045260246000fd5b50919050565b634e487b7160e01b600052603260045260246000fd5b634e487b7160e01b600052601160045260246000fd5b60008219821115613ea457613ea4613e7b565b500190565b60008351613ebb818460208801613879565b835190830190613ecf818360208801613879565b01949350505050565b6000816000190483118215151615613ef257613ef2613e7b565b500290565b6000600019821415613f0b57613f0b613e7b565b5060010190565b634e487b7160e01b600052601260045260246000fd5b600082613f3757613f37613f12565b500690565b600082613f4b57613f4b613f12565b500490565b600082821015613f6257613f62613e7b565b500390565b60006001600160a01b03808716835280861660208401525083604083015260806060830152613f9960808301846138a5565b9695505050505050565b600060208284031215613fb557600080fd5b81516138728161383f565b634e487b7160e01b600052603160045260246000fdfe68747470733a2f2f697066732e696f2f697066732f516d593572657a46666b5053475844694168395a414567684d446e484c344150727950634d33614e6e7470544b612f6e66746c766c325f312f68747470733a2f2f697066732e696f2f697066732f516d565071526555447a3372374448414a444d7867614458777457636b554a517173515753675235754e5159486e2fa2646970667358221220c5bda069dd5ccff454ca893b531adfc7406b1907907eec498db3f2481165ce6e64736f6c63430008090033","opcodes":"PUSH1 0x80 PUSH1 0x40 MSTORE PUSH1 0x2 PUSH1 0xC SSTORE PUSH1 0x2 PUSH1 0xE SSTORE PUSH1 0x0 PUSH1 0x11 SSTORE CALLVALUE DUP1 ISZERO PUSH3 0x20 JUMPI PUSH1 0x0 DUP1 REVERT JUMPDEST POP PUSH1 0x40 MLOAD PUSH3 0x4887 CODESIZE SUB DUP1 PUSH3 0x4887 DUP4 CODECOPY DUP2 ADD PUSH1 0x40 DUP2 SWAP1 MSTORE PUSH3 0x43 SWAP2 PUSH3 0x587 JUMP JUMPDEST DUP11 MLOAD DUP12 SWAP1 DUP12 SWAP1 PUSH3 0x5C SWAP1 PUSH1 0x0 SWAP1 PUSH1 0x20 DUP6 ADD SWAP1 PUSH3 0x2C4 JUMP JUMPDEST POP DUP1 MLOAD PUSH3 0x72 SWAP1 PUSH1 0x1 SWAP1 PUSH1 0x20 DUP5 ADD SWAP1 PUSH3 0x2C4 JUMP JUMPDEST POP POP POP PUSH3 0x8D DUP10 DUP10 DUP10 DUP10 DUP10 DUP10 DUP10 DUP10 PUSH3 0xBE PUSH1 0x20 SHL PUSH1 0x20 SHR JUMP JUMPDEST PUSH1 0x1C DUP1 SLOAD PUSH1 0x1 PUSH1 0x1 PUSH1 0xA0 SHL SUB NOT AND PUSH1 0x1 PUSH1 0x1 PUSH1 0xA0 SHL SUB SWAP3 SWAP1 SWAP3 AND SWAP2 SWAP1 SWAP2 OR SWAP1 SSTORE POP PUSH3 0x7D9 SWAP9 POP POP POP POP POP POP POP POP POP JUMP JUMPDEST PUSH1 0x11 DUP1 SLOAD SWAP1 PUSH1 0x0 PUSH3 0xD0 DUP4 PUSH3 0x72B JUMP JUMPDEST SWAP2 SWAP1 POP SSTORE POP PUSH1 0x0 JUMPDEST DUP6 DUP2 LT ISZERO PUSH3 0x15D JUMPI PUSH3 0x148 DUP9 DUP3 DUP2 MLOAD DUP2 LT PUSH3 0xFA JUMPI PUSH3 0xFA PUSH3 0x749 JUMP JUMPDEST PUSH1 0x20 MUL PUSH1 0x20 ADD ADD MLOAD PUSH1 0x11 SLOAD PUSH1 0x64 PUSH3 0x113 SWAP2 SWAP1 PUSH3 0x75F JUMP JUMPDEST PUSH3 0x11F SWAP2 SWAP1 PUSH3 0x781 JUMP JUMPDEST DUP9 DUP4 DUP2 MLOAD DUP2 LT PUSH3 0x134 JUMPI PUSH3 0x134 PUSH3 0x749 JUMP JUMPDEST PUSH1 0x20 MUL PUSH1 0x20 ADD ADD MLOAD PUSH3 0x18B PUSH1 0x20 SHL PUSH1 0x20 SHR JUMP JUMPDEST DUP1 PUSH3 0x154 DUP2 PUSH3 0x72B JUMP JUMPDEST SWAP2 POP POP PUSH3 0xD8 JUMP JUMPDEST POP PUSH3 0x16A DUP5 DUP5 PUSH3 0x1B1 JUMP JUMPDEST PUSH3 0x176 DUP3 DUP3 PUSH3 0x22E JUMP JUMPDEST PUSH3 0x181 DUP9 PUSH3 0x2AB JUMP JUMPDEST POP POP POP POP POP POP POP POP JUMP JUMPDEST PUSH1 0x0 DUP3 DUP2 MSTORE PUSH1 0x14 PUSH1 0x20 SWAP1 DUP2 MSTORE PUSH1 0x40 SWAP1 SWAP2 KECCAK256 DUP3 MLOAD PUSH3 0x1AC SWAP3 DUP5 ADD SWAP1 PUSH3 0x2C4 JUMP JUMPDEST POP POP POP JUMP JUMPDEST PUSH1 0x0 JUMPDEST DUP3 DUP2 LT ISZERO PUSH3 0x1AC JUMPI PUSH1 0x1 PUSH1 0x18 PUSH1 0x0 PUSH1 0x11 SLOAD DUP2 MSTORE PUSH1 0x20 ADD SWAP1 DUP2 MSTORE PUSH1 0x20 ADD PUSH1 0x0 KECCAK256 PUSH1 0x0 DUP5 DUP5 DUP2 MLOAD DUP2 LT PUSH3 0x1EB JUMPI PUSH3 0x1EB PUSH3 0x749 JUMP JUMPDEST PUSH1 0x20 MUL PUSH1 0x20 ADD ADD MLOAD DUP2 MSTORE PUSH1 0x20 ADD SWAP1 DUP2 MSTORE PUSH1 0x20 ADD PUSH1 0x0 KECCAK256 PUSH1 0x0 PUSH2 0x100 EXP DUP2 SLOAD DUP2 PUSH1 0xFF MUL NOT AND SWAP1 DUP4 ISZERO ISZERO MUL OR SWAP1 SSTORE POP DUP1 DUP1 PUSH3 0x225 SWAP1 PUSH3 0x72B JUMP JUMPDEST SWAP2 POP POP PUSH3 0x1B4 JUMP JUMPDEST PUSH1 0x0 JUMPDEST DUP3 DUP2 LT ISZERO PUSH3 0x1AC JUMPI PUSH1 0x1 PUSH1 0x19 PUSH1 0x0 PUSH1 0x11 SLOAD DUP2 MSTORE PUSH1 0x20 ADD SWAP1 DUP2 MSTORE PUSH1 0x20 ADD PUSH1 0x0 KECCAK256 PUSH1 0x0 DUP5 DUP5 DUP2 MLOAD DUP2 LT PUSH3 0x268 JUMPI PUSH3 0x268 PUSH3 0x749 JUMP JUMPDEST PUSH1 0x20 MUL PUSH1 0x20 ADD ADD MLOAD DUP2 MSTORE PUSH1 0x20 ADD SWAP1 DUP2 MSTORE PUSH1 0x20 ADD PUSH1 0x0 KECCAK256 PUSH1 0x0 PUSH2 0x100 EXP DUP2 SLOAD DUP2 PUSH1 0xFF MUL NOT AND SWAP1 DUP4 ISZERO ISZERO MUL OR SWAP1 SSTORE POP DUP1 DUP1 PUSH3 0x2A2 SWAP1 PUSH3 0x72B JUMP JUMPDEST SWAP2 POP POP PUSH3 0x231 JUMP JUMPDEST DUP1 MLOAD PUSH3 0x2C0 SWAP1 PUSH1 0xB SWAP1 PUSH1 0x20 DUP5 ADD SWAP1 PUSH3 0x2C4 JUMP JUMPDEST POP POP JUMP JUMPDEST DUP3 DUP1 SLOAD PUSH3 0x2D2 SWAP1 PUSH3 0x79C JUMP JUMPDEST SWAP1 PUSH1 0x0 MSTORE PUSH1 0x20 PUSH1 0x0 KECCAK256 SWAP1 PUSH1 0x1F ADD PUSH1 0x20 SWAP1 DIV DUP2 ADD SWAP3 DUP3 PUSH3 0x2F6 JUMPI PUSH1 0x0 DUP6 SSTORE PUSH3 0x341 JUMP JUMPDEST DUP3 PUSH1 0x1F LT PUSH3 0x311 JUMPI DUP1 MLOAD PUSH1 0xFF NOT AND DUP4 DUP1 ADD OR DUP6 SSTORE PUSH3 0x341 JUMP JUMPDEST DUP3 DUP1 ADD PUSH1 0x1 ADD DUP6 SSTORE DUP3 ISZERO PUSH3 0x341 JUMPI SWAP2 DUP3 ADD JUMPDEST DUP3 DUP2 GT ISZERO PUSH3 0x341 JUMPI DUP3 MLOAD DUP3 SSTORE SWAP2 PUSH1 0x20 ADD SWAP2 SWAP1 PUSH1 0x1 ADD SWAP1 PUSH3 0x324 JUMP JUMPDEST POP PUSH3 0x34F SWAP3 SWAP2 POP PUSH3 0x353 JUMP JUMPDEST POP SWAP1 JUMP JUMPDEST JUMPDEST DUP1 DUP3 GT ISZERO PUSH3 0x34F JUMPI PUSH1 0x0 DUP2 SSTORE PUSH1 0x1 ADD PUSH3 0x354 JUMP JUMPDEST PUSH4 0x4E487B71 PUSH1 0xE0 SHL PUSH1 0x0 MSTORE PUSH1 0x41 PUSH1 0x4 MSTORE PUSH1 0x24 PUSH1 0x0 REVERT JUMPDEST PUSH1 0x40 MLOAD PUSH1 0x1F DUP3 ADD PUSH1 0x1F NOT AND DUP2 ADD PUSH1 0x1 PUSH1 0x1 PUSH1 0x40 SHL SUB DUP2 GT DUP3 DUP3 LT OR ISZERO PUSH3 0x3AB JUMPI PUSH3 0x3AB PUSH3 0x36A JUMP JUMPDEST PUSH1 0x40 MSTORE SWAP2 SWAP1 POP JUMP JUMPDEST PUSH1 0x0 DUP3 PUSH1 0x1F DUP4 ADD SLT PUSH3 0x3C5 JUMPI PUSH1 0x0 DUP1 REVERT JUMPDEST DUP2 MLOAD PUSH1 0x1 PUSH1 0x1 PUSH1 0x40 SHL SUB DUP2 GT ISZERO PUSH3 0x3E1 JUMPI PUSH3 0x3E1 PUSH3 0x36A JUMP JUMPDEST PUSH1 0x20 PUSH3 0x3F7 PUSH1 0x1F DUP4 ADD PUSH1 0x1F NOT AND DUP3 ADD PUSH3 0x380 JUMP JUMPDEST DUP3 DUP2 MSTORE DUP6 DUP3 DUP5 DUP8 ADD ADD GT ISZERO PUSH3 0x40C JUMPI PUSH1 0x0 DUP1 REVERT JUMPDEST PUSH1 0x0 JUMPDEST DUP4 DUP2 LT ISZERO PUSH3 0x42C JUMPI DUP6 DUP2 ADD DUP4 ADD MLOAD DUP3 DUP3 ADD DUP5 ADD MSTORE DUP3 ADD PUSH3 0x40F JUMP JUMPDEST DUP4 DUP2 GT ISZERO PUSH3 0x43E JUMPI PUSH1 0x0 DUP4 DUP6 DUP5 ADD ADD MSTORE JUMPDEST POP SWAP6 SWAP5 POP POP POP POP POP JUMP JUMPDEST PUSH1 0x0 PUSH1 0x1 PUSH1 0x1 PUSH1 0x40 SHL SUB DUP3 GT ISZERO PUSH3 0x464 JUMPI PUSH3 0x464 PUSH3 0x36A JUMP JUMPDEST POP PUSH1 0x5 SHL PUSH1 0x20 ADD SWAP1 JUMP JUMPDEST PUSH1 0x0 DUP3 PUSH1 0x1F DUP4 ADD SLT PUSH3 0x480 JUMPI PUSH1 0x0 DUP1 REVERT JUMPDEST DUP2 MLOAD PUSH1 0x20 PUSH3 0x499 PUSH3 0x493 DUP4 PUSH3 0x448 JUMP JUMPDEST PUSH3 0x380 JUMP JUMPDEST DUP3 DUP2 MSTORE PUSH1 0x5 SWAP3 SWAP1 SWAP3 SHL DUP5 ADD DUP2 ADD SWAP2 DUP2 DUP2 ADD SWAP1 DUP7 DUP5 GT ISZERO PUSH3 0x4B9 JUMPI PUSH1 0x0 DUP1 REVERT JUMPDEST DUP3 DUP7 ADD JUMPDEST DUP5 DUP2 LT ISZERO PUSH3 0x4D6 JUMPI DUP1 MLOAD DUP4 MSTORE SWAP2 DUP4 ADD SWAP2 DUP4 ADD PUSH3 0x4BD JUMP JUMPDEST POP SWAP7 SWAP6 POP POP POP POP POP POP JUMP JUMPDEST PUSH1 0x0 DUP3 PUSH1 0x1F DUP4 ADD SLT PUSH3 0x4F3 JUMPI PUSH1 0x0 DUP1 REVERT JUMPDEST DUP2 MLOAD PUSH1 0x20 PUSH3 0x506 PUSH3 0x493 DUP4 PUSH3 0x448 JUMP JUMPDEST DUP3 DUP2 MSTORE PUSH1 0x5 SWAP3 SWAP1 SWAP3 SHL DUP5 ADD DUP2 ADD SWAP2 DUP2 DUP2 ADD SWAP1 DUP7 DUP5 GT ISZERO PUSH3 0x526 JUMPI PUSH1 0x0 DUP1 REVERT JUMPDEST DUP3 DUP7 ADD JUMPDEST DUP5 DUP2 LT ISZERO PUSH3 0x4D6 JUMPI DUP1 MLOAD PUSH1 0x1 PUSH1 0x1 PUSH1 0x40 SHL SUB DUP2 GT ISZERO PUSH3 0x54B JUMPI PUSH1 0x0 DUP1 DUP2 REVERT JUMPDEST PUSH3 0x55B DUP10 DUP7 DUP4 DUP12 ADD ADD PUSH3 0x3B3 JUMP JUMPDEST DUP5 MSTORE POP SWAP2 DUP4 ADD SWAP2 DUP4 ADD PUSH3 0x52A JUMP JUMPDEST DUP1 MLOAD PUSH1 0x1 PUSH1 0x1 PUSH1 0xA0 SHL SUB DUP2 AND DUP2 EQ PUSH3 0x582 JUMPI PUSH1 0x0 DUP1 REVERT JUMPDEST SWAP2 SWAP1 POP JUMP JUMPDEST PUSH1 0x0 DUP1 PUSH1 0x0 DUP1 PUSH1 0x0 DUP1 PUSH1 0x0 DUP1 PUSH1 0x0 DUP1 PUSH1 0x0 PUSH2 0x160 DUP13 DUP15 SUB SLT ISZERO PUSH3 0x5AA JUMPI PUSH1 0x0 DUP1 REVERT JUMPDEST DUP12 MLOAD PUSH1 0x1 PUSH1 0x1 PUSH1 0x40 SHL SUB DUP2 GT ISZERO PUSH3 0x5C1 JUMPI PUSH1 0x0 DUP1 REVERT JUMPDEST PUSH3 0x5CF DUP15 DUP3 DUP16 ADD PUSH3 0x3B3 JUMP JUMPDEST PUSH1 0x20 DUP15 ADD MLOAD SWAP1 SWAP13 POP SWAP1 POP PUSH1 0x1 PUSH1 0x1 PUSH1 0x40 SHL SUB DUP2 GT ISZERO PUSH3 0x5EE JUMPI PUSH1 0x0 DUP1 REVERT JUMPDEST PUSH3 0x5FC DUP15 DUP3 DUP16 ADD PUSH3 0x3B3 JUMP JUMPDEST PUSH1 0x40 DUP15 ADD MLOAD SWAP1 SWAP12 POP SWAP1 POP PUSH1 0x1 PUSH1 0x1 PUSH1 0x40 SHL SUB DUP2 GT ISZERO PUSH3 0x61B JUMPI PUSH1 0x0 DUP1 REVERT JUMPDEST PUSH3 0x629 DUP15 DUP3 DUP16 ADD PUSH3 0x3B3 JUMP JUMPDEST PUSH1 0x60 DUP15 ADD MLOAD SWAP1 SWAP11 POP SWAP1 POP PUSH1 0x1 PUSH1 0x1 PUSH1 0x40 SHL SUB DUP2 GT ISZERO PUSH3 0x648 JUMPI PUSH1 0x0 DUP1 REVERT JUMPDEST PUSH3 0x656 DUP15 DUP3 DUP16 ADD PUSH3 0x46E JUMP JUMPDEST PUSH1 0x80 DUP15 ADD MLOAD SWAP1 SWAP10 POP SWAP1 POP PUSH1 0x1 PUSH1 0x1 PUSH1 0x40 SHL SUB DUP2 GT ISZERO PUSH3 0x675 JUMPI PUSH1 0x0 DUP1 REVERT JUMPDEST PUSH3 0x683 DUP15 DUP3 DUP16 ADD PUSH3 0x4E1 JUMP JUMPDEST SWAP8 POP POP PUSH1 0xA0 DUP13 ADD MLOAD SWAP6 POP PUSH1 0xC0 DUP13 ADD MLOAD SWAP5 POP PUSH1 0xE0 DUP13 ADD MLOAD PUSH1 0x1 DUP1 PUSH1 0x40 SHL SUB DUP2 GT ISZERO PUSH3 0x6AD JUMPI PUSH1 0x0 DUP1 REVERT JUMPDEST PUSH3 0x6BB DUP15 DUP3 DUP16 ADD PUSH3 0x46E JUMP JUMPDEST PUSH2 0x100 DUP15 ADD MLOAD PUSH2 0x120 DUP16 ADD MLOAD SWAP2 SWAP7 POP SWAP5 POP SWAP1 POP PUSH1 0x1 PUSH1 0x1 PUSH1 0x40 SHL SUB DUP2 GT ISZERO PUSH3 0x6E3 JUMPI PUSH1 0x0 DUP1 REVERT JUMPDEST PUSH3 0x6F1 DUP15 DUP3 DUP16 ADD PUSH3 0x46E JUMP JUMPDEST SWAP3 POP POP PUSH3 0x703 PUSH2 0x140 DUP14 ADD PUSH3 0x56A JUMP JUMPDEST SWAP1 POP SWAP3 SWAP6 SWAP9 SWAP12 POP SWAP3 SWAP6 SWAP9 SWAP12 SWAP1 SWAP4 SWAP7 SWAP10 POP JUMP JUMPDEST PUSH4 0x4E487B71 PUSH1 0xE0 SHL PUSH1 0x0 MSTORE PUSH1 0x11 PUSH1 0x4 MSTORE PUSH1 0x24 PUSH1 0x0 REVERT JUMPDEST PUSH1 0x0 PUSH1 0x0 NOT DUP3 EQ ISZERO PUSH3 0x742 JUMPI PUSH3 0x742 PUSH3 0x715 JUMP JUMPDEST POP PUSH1 0x1 ADD SWAP1 JUMP JUMPDEST PUSH4 0x4E487B71 PUSH1 0xE0 SHL PUSH1 0x0 MSTORE PUSH1 0x32 PUSH1 0x4 MSTORE PUSH1 0x24 PUSH1 0x0 REVERT JUMPDEST PUSH1 0x0 DUP2 PUSH1 0x0 NOT DIV DUP4 GT DUP3 ISZERO ISZERO AND ISZERO PUSH3 0x77C JUMPI PUSH3 0x77C PUSH3 0x715 JUMP JUMPDEST POP MUL SWAP1 JUMP JUMPDEST PUSH1 0x0 DUP3 NOT DUP3 GT ISZERO PUSH3 0x797 JUMPI PUSH3 0x797 PUSH3 0x715 JUMP JUMPDEST POP ADD SWAP1 JUMP JUMPDEST PUSH1 0x1 DUP2 DUP2 SHR SWAP1 DUP3 AND DUP1 PUSH3 0x7B1 JUMPI PUSH1 0x7F DUP3 AND SWAP2 POP JUMPDEST PUSH1 0x20 DUP3 LT DUP2 EQ ISZERO PUSH3 0x7D3 JUMPI PUSH4 0x4E487B71 PUSH1 0xE0 SHL PUSH1 0x0 MSTORE PUSH1 0x22 PUSH1 0x4 MSTORE PUSH1 0x24 PUSH1 0x0 REVERT JUMPDEST POP SWAP2 SWAP1 POP JUMP JUMPDEST PUSH2 0x409E DUP1 PUSH3 0x7E9 PUSH1 0x0 CODECOPY PUSH1 0x0 RETURN INVALID PUSH1 0x80 PUSH1 0x40 MSTORE CALLVALUE DUP1 ISZERO PUSH2 0x10 JUMPI PUSH1 0x0 DUP1 REVERT JUMPDEST POP PUSH1 0x4 CALLDATASIZE LT PUSH2 0x292 JUMPI PUSH1 0x0 CALLDATALOAD PUSH1 0xE0 SHR DUP1 PUSH4 0x8527788A GT PUSH2 0x160 JUMPI DUP1 PUSH4 0xC4F8210E GT PUSH2 0xD8 JUMPI DUP1 PUSH4 0xE985E9C5 GT PUSH2 0x8C JUMPI DUP1 PUSH4 0xF202DC2E GT PUSH2 0x71 JUMPI DUP1 PUSH4 0xF202DC2E EQ PUSH2 0x563 JUMPI DUP1 PUSH4 0xF4842257 EQ PUSH2 0x576 JUMPI DUP1 PUSH4 0xFE1538D4 EQ PUSH2 0x5B2 JUMPI PUSH1 0x0 DUP1 REVERT JUMPDEST DUP1 PUSH4 0xE985E9C5 EQ PUSH2 0x514 JUMPI DUP1 PUSH4 0xEF0B2307 EQ PUSH2 0x550 JUMPI PUSH1 0x0 DUP1 REVERT JUMPDEST DUP1 PUSH4 0xCB9375D3 GT PUSH2 0xBD JUMPI DUP1 PUSH4 0xCB9375D3 EQ PUSH2 0x3A1 JUMPI DUP1 PUSH4 0xD572C38F EQ PUSH2 0x4E1 JUMPI DUP1 PUSH4 0xDCA77AD2 EQ PUSH2 0x501 JUMPI PUSH1 0x0 DUP1 REVERT JUMPDEST DUP1 PUSH4 0xC4F8210E EQ PUSH2 0x4BB JUMPI DUP1 PUSH4 0xC87B56DD EQ PUSH2 0x4CE JUMPI PUSH1 0x0 DUP1 REVERT JUMPDEST DUP1 PUSH4 0xA22CB465 GT PUSH2 0x12F JUMPI DUP1 PUSH4 0xB69EF8A8 GT PUSH2 0x114 JUMPI DUP1 PUSH4 0xB69EF8A8 EQ PUSH2 0x48D JUMPI DUP1 PUSH4 0xB88D4FDE EQ PUSH2 0x495 JUMPI DUP1 PUSH4 0xBF5DA0C5 EQ PUSH2 0x4A8 JUMPI PUSH1 0x0 DUP1 REVERT JUMPDEST DUP1 PUSH4 0xA22CB465 EQ PUSH2 0x467 JUMPI DUP1 PUSH4 0xAC12914F EQ PUSH2 0x47A JUMPI PUSH1 0x0 DUP1 REVERT JUMPDEST DUP1 PUSH4 0x8527788A EQ PUSH2 0x426 JUMPI DUP1 PUSH4 0x85DD9033 EQ PUSH2 0x439 JUMPI DUP1 PUSH4 0x95D89B41 EQ PUSH2 0x44C JUMPI DUP1 PUSH4 0xA0B49778 EQ PUSH2 0x454 JUMPI PUSH1 0x0 DUP1 REVERT JUMPDEST DUP1 PUSH4 0x31B5B907 GT PUSH2 0x20E JUMPI DUP1 PUSH4 0x59B17C5E GT PUSH2 0x1C2 JUMPI DUP1 PUSH4 0x6F52598B GT PUSH2 0x1A7 JUMPI DUP1 PUSH4 0x6F52598B EQ PUSH2 0x3ED JUMPI DUP1 PUSH4 0x70A08231 EQ PUSH2 0x400 JUMPI DUP1 PUSH4 0x7BAFD87E EQ PUSH2 0x413 JUMPI PUSH1 0x0 DUP1 REVERT JUMPDEST DUP1 PUSH4 0x59B17C5E EQ PUSH2 0x3C7 JUMPI DUP1 PUSH4 0x6352211E EQ PUSH2 0x3DA JUMPI PUSH1 0x0 DUP1 REVERT JUMPDEST DUP1 PUSH4 0x42966C68 GT PUSH2 0x1F3 JUMPI DUP1 PUSH4 0x42966C68 EQ PUSH2 0x38E JUMPI DUP1 PUSH4 0x4E72A6FA EQ PUSH2 0x3A1 JUMPI DUP1 PUSH4 0x4F6CCCE7 EQ PUSH2 0x3B4 JUMPI PUSH1 0x0 DUP1 REVERT JUMPDEST DUP1 PUSH4 0x31B5B907 EQ PUSH2 0x368 JUMPI DUP1 PUSH4 0x42842E0E EQ PUSH2 0x37B JUMPI PUSH1 0x0 DUP1 REVERT JUMPDEST DUP1 PUSH4 0x11BCC81E GT PUSH2 0x265 JUMPI DUP1 PUSH4 0x20EB8E53 GT PUSH2 0x24A JUMPI DUP1 PUSH4 0x20EB8E53 EQ PUSH2 0x339 JUMPI DUP1 PUSH4 0x23B872DD EQ PUSH2 0x342 JUMPI DUP1 PUSH4 0x2F745C59 EQ PUSH2 0x355 JUMPI PUSH1 0x0 DUP1 REVERT JUMPDEST DUP1 PUSH4 0x11BCC81E EQ PUSH2 0x314 JUMPI DUP1 PUSH4 0x18160DDD EQ PUSH2 0x327 JUMPI PUSH1 0x0 DUP1 REVERT JUMPDEST DUP1 PUSH4 0x1FFC9A7 EQ PUSH2 0x297 JUMPI DUP1 PUSH4 0x6FDDE03 EQ PUSH2 0x2BF JUMPI DUP1 PUSH4 0x81812FC EQ PUSH2 0x2D4 JUMPI DUP1 PUSH4 0x95EA7B3 EQ PUSH2 0x2FF JUMPI JUMPDEST PUSH1 0x0 DUP1 REVERT JUMPDEST PUSH2 0x2AA PUSH2 0x2A5 CALLDATASIZE PUSH1 0x4 PUSH2 0x3855 JUMP JUMPDEST PUSH2 0x5C5 JUMP JUMPDEST PUSH1 0x40 MLOAD SWAP1 ISZERO ISZERO DUP2 MSTORE PUSH1 0x20 ADD JUMPDEST PUSH1 0x40 MLOAD DUP1 SWAP2 SUB SWAP1 RETURN JUMPDEST PUSH2 0x2C7 PUSH2 0x609 JUMP JUMPDEST PUSH1 0x40 MLOAD PUSH2 0x2B6 SWAP2 SWAP1 PUSH2 0x38D1 JUMP JUMPDEST PUSH2 0x2E7 PUSH2 0x2E2 CALLDATASIZE PUSH1 0x4 PUSH2 0x38E4 JUMP JUMPDEST PUSH2 0x69B JUMP JUMPDEST PUSH1 0x40 MLOAD PUSH1 0x1 PUSH1 0x1 PUSH1 0xA0 SHL SUB SWAP1 SWAP2 AND DUP2 MSTORE PUSH1 0x20 ADD PUSH2 0x2B6 JUMP JUMPDEST PUSH2 0x312 PUSH2 0x30D CALLDATASIZE PUSH1 0x4 PUSH2 0x3912 JUMP JUMPDEST PUSH2 0x6C2 JUMP JUMPDEST STOP JUMPDEST PUSH2 0x312 PUSH2 0x322 CALLDATASIZE PUSH1 0x4 PUSH2 0x38E4 JUMP JUMPDEST PUSH2 0x7F9 JUMP JUMPDEST PUSH1 0x8 SLOAD JUMPDEST PUSH1 0x40 MLOAD SWAP1 DUP2 MSTORE PUSH1 0x20 ADD PUSH2 0x2B6 JUMP JUMPDEST PUSH2 0x32B PUSH1 0xE SLOAD DUP2 JUMP JUMPDEST PUSH2 0x312 PUSH2 0x350 CALLDATASIZE PUSH1 0x4 PUSH2 0x393E JUMP JUMPDEST PUSH2 0xBF8 JUMP JUMPDEST PUSH2 0x32B PUSH2 0x363 CALLDATASIZE PUSH1 0x4 PUSH2 0x3912 JUMP JUMPDEST PUSH2 0xC6F JUMP JUMPDEST PUSH2 0x312 PUSH2 0x376 CALLDATASIZE PUSH1 0x4 PUSH2 0x3A3E JUMP JUMPDEST PUSH2 0xD17 JUMP JUMPDEST PUSH2 0x312 PUSH2 0x389 CALLDATASIZE PUSH1 0x4 PUSH2 0x393E JUMP JUMPDEST PUSH2 0xD2E JUMP JUMPDEST PUSH2 0x312 PUSH2 0x39C CALLDATASIZE PUSH1 0x4 PUSH2 0x38E4 JUMP JUMPDEST PUSH2 0xD49 JUMP JUMPDEST PUSH2 0x2C7 PUSH2 0x3AF CALLDATASIZE PUSH1 0x4 PUSH2 0x38E4 JUMP JUMPDEST PUSH2 0xDE9 JUMP JUMPDEST PUSH2 0x32B PUSH2 0x3C2 CALLDATASIZE PUSH1 0x4 PUSH2 0x38E4 JUMP JUMPDEST PUSH2 0xE8D JUMP JUMPDEST PUSH2 0x312 PUSH2 0x3D5 CALLDATASIZE PUSH1 0x4 PUSH2 0x3A73 JUMP JUMPDEST PUSH2 0xF31 JUMP JUMPDEST PUSH2 0x2E7 PUSH2 0x3E8 CALLDATASIZE PUSH1 0x4 PUSH2 0x38E4 JUMP JUMPDEST PUSH2 0x117C JUMP JUMPDEST PUSH2 0x312 PUSH2 0x3FB CALLDATASIZE PUSH1 0x4 PUSH2 0x3A73 JUMP JUMPDEST PUSH2 0x11E1 JUMP JUMPDEST PUSH2 0x32B PUSH2 0x40E CALLDATASIZE PUSH1 0x4 PUSH2 0x3A73 JUMP JUMPDEST PUSH2 0x142A JUMP JUMPDEST PUSH2 0x2AA PUSH2 0x421 CALLDATASIZE PUSH1 0x4 PUSH2 0x38E4 JUMP JUMPDEST PUSH2 0x14C4 JUMP JUMPDEST PUSH2 0x312 PUSH2 0x434 CALLDATASIZE PUSH1 0x4 PUSH2 0x3B1F JUMP JUMPDEST PUSH2 0x14E5 JUMP JUMPDEST PUSH2 0x312 PUSH2 0x447 CALLDATASIZE PUSH1 0x4 PUSH2 0x38E4 JUMP JUMPDEST PUSH1 0xE SSTORE JUMP JUMPDEST PUSH2 0x2C7 PUSH2 0x155B JUMP JUMPDEST PUSH1 0x1B SLOAD PUSH2 0x2E7 SWAP1 PUSH1 0x1 PUSH1 0x1 PUSH1 0xA0 SHL SUB AND DUP2 JUMP JUMPDEST PUSH2 0x312 PUSH2 0x475 CALLDATASIZE PUSH1 0x4 PUSH2 0x3B66 JUMP JUMPDEST PUSH2 0x156A JUMP JUMPDEST PUSH2 0x312 PUSH2 0x488 CALLDATASIZE PUSH1 0x4 PUSH2 0x3C24 JUMP JUMPDEST PUSH2 0x1575 JUMP JUMPDEST PUSH1 0xD SLOAD PUSH2 0x32B JUMP JUMPDEST PUSH2 0x312 PUSH2 0x4A3 CALLDATASIZE PUSH1 0x4 PUSH2 0x3D13 JUMP JUMPDEST PUSH2 0x1624 JUMP JUMPDEST PUSH2 0x312 PUSH2 0x4B6 CALLDATASIZE PUSH1 0x4 PUSH2 0x38E4 JUMP JUMPDEST PUSH1 0xC SSTORE JUMP JUMPDEST PUSH2 0x312 PUSH2 0x4C9 CALLDATASIZE PUSH1 0x4 PUSH2 0x3912 JUMP JUMPDEST PUSH2 0x16A2 JUMP JUMPDEST PUSH2 0x2C7 PUSH2 0x4DC CALLDATASIZE PUSH1 0x4 PUSH2 0x38E4 JUMP JUMPDEST PUSH2 0x1727 JUMP JUMPDEST PUSH2 0x32B PUSH2 0x4EF CALLDATASIZE PUSH1 0x4 PUSH2 0x38E4 JUMP JUMPDEST PUSH1 0x0 SWAP1 DUP2 MSTORE PUSH1 0x17 PUSH1 0x20 MSTORE PUSH1 0x40 SWAP1 KECCAK256 SLOAD SWAP1 JUMP JUMPDEST PUSH2 0x312 PUSH2 0x50F CALLDATASIZE PUSH1 0x4 PUSH2 0x3D93 JUMP JUMPDEST PUSH2 0x174B JUMP JUMPDEST PUSH2 0x2AA PUSH2 0x522 CALLDATASIZE PUSH1 0x4 PUSH2 0x3DD0 JUMP JUMPDEST PUSH1 0x1 PUSH1 0x1 PUSH1 0xA0 SHL SUB SWAP2 DUP3 AND PUSH1 0x0 SWAP1 DUP2 MSTORE PUSH1 0x5 PUSH1 0x20 SWAP1 DUP2 MSTORE PUSH1 0x40 DUP1 DUP4 KECCAK256 SWAP4 SWAP1 SWAP5 AND DUP3 MSTORE SWAP2 SWAP1 SWAP2 MSTORE KECCAK256 SLOAD PUSH1 0xFF AND SWAP1 JUMP JUMPDEST PUSH2 0x312 PUSH2 0x55E CALLDATASIZE PUSH1 0x4 PUSH2 0x3B1F JUMP JUMPDEST PUSH2 0x176A JUMP JUMPDEST PUSH2 0x312 PUSH2 0x571 CALLDATASIZE PUSH1 0x4 PUSH2 0x3912 JUMP JUMPDEST PUSH2 0x17E0 JUMP JUMPDEST PUSH2 0x312 PUSH2 0x584 CALLDATASIZE PUSH1 0x4 PUSH2 0x3DD0 JUMP JUMPDEST PUSH1 0x1A DUP1 SLOAD PUSH1 0x1 PUSH1 0x1 PUSH1 0xA0 SHL SUB SWAP4 DUP5 AND PUSH1 0x1 PUSH1 0x1 PUSH1 0xA0 SHL SUB NOT SWAP2 DUP3 AND OR SWAP1 SWAP2 SSTORE PUSH1 0x1B DUP1 SLOAD SWAP3 SWAP1 SWAP4 AND SWAP2 AND OR SWAP1 SSTORE JUMP JUMPDEST PUSH2 0x312 PUSH2 0x5C0 CALLDATASIZE PUSH1 0x4 PUSH2 0x3DFE JUMP JUMPDEST PUSH2 0x1809 JUMP JUMPDEST PUSH1 0x0 PUSH1 0x1 PUSH1 0x1 PUSH1 0xE0 SHL SUB NOT DUP3 AND PUSH32 0x780E9D6300000000000000000000000000000000000000000000000000000000 EQ DUP1 PUSH2 0x603 JUMPI POP PUSH2 0x603 DUP3 PUSH2 0x1D15 JUMP JUMPDEST SWAP3 SWAP2 POP POP JUMP JUMPDEST PUSH1 0x60 PUSH1 0x0 DUP1 SLOAD PUSH2 0x618 SWAP1 PUSH2 0x3E2A JUMP JUMPDEST DUP1 PUSH1 0x1F ADD PUSH1 0x20 DUP1 SWAP2 DIV MUL PUSH1 0x20 ADD PUSH1 0x40 MLOAD SWAP1 DUP2 ADD PUSH1 0x40 MSTORE DUP1 SWAP3 SWAP2 SWAP1 DUP2 DUP2 MSTORE PUSH1 0x20 ADD DUP3 DUP1 SLOAD PUSH2 0x644 SWAP1 PUSH2 0x3E2A JUMP JUMPDEST DUP1 ISZERO PUSH2 0x691 JUMPI DUP1 PUSH1 0x1F LT PUSH2 0x666 JUMPI PUSH2 0x100 DUP1 DUP4 SLOAD DIV MUL DUP4 MSTORE SWAP2 PUSH1 0x20 ADD SWAP2 PUSH2 0x691 JUMP JUMPDEST DUP3 ADD SWAP2 SWAP1 PUSH1 0x0 MSTORE PUSH1 0x20 PUSH1 0x0 KECCAK256 SWAP1 JUMPDEST DUP2 SLOAD DUP2 MSTORE SWAP1 PUSH1 0x1 ADD SWAP1 PUSH1 0x20 ADD DUP1 DUP4 GT PUSH2 0x674 JUMPI DUP3 SWAP1 SUB PUSH1 0x1F AND DUP3 ADD SWAP2 JUMPDEST POP POP POP POP POP SWAP1 POP SWAP1 JUMP JUMPDEST PUSH1 0x0 PUSH2 0x6A6 DUP3 PUSH2 0x1DB0 JUMP JUMPDEST POP PUSH1 0x0 SWAP1 DUP2 MSTORE PUSH1 0x4 PUSH1 0x20 MSTORE PUSH1 0x40 SWAP1 KECCAK256 SLOAD PUSH1 0x1 PUSH1 0x1 PUSH1 0xA0 SHL SUB AND SWAP1 JUMP JUMPDEST PUSH1 0x0 PUSH2 0x6CD DUP3 PUSH2 0x117C JUMP JUMPDEST SWAP1 POP DUP1 PUSH1 0x1 PUSH1 0x1 PUSH1 0xA0 SHL SUB AND DUP4 PUSH1 0x1 PUSH1 0x1 PUSH1 0xA0 SHL SUB AND EQ ISZERO PUSH2 0x75C JUMPI PUSH1 0x40 MLOAD PUSH3 0x461BCD PUSH1 0xE5 SHL DUP2 MSTORE PUSH1 0x20 PUSH1 0x4 DUP3 ADD MSTORE PUSH1 0x21 PUSH1 0x24 DUP3 ADD MSTORE PUSH32 0x4552433732313A20617070726F76616C20746F2063757272656E74206F776E65 PUSH1 0x44 DUP3 ADD MSTORE PUSH32 0x7200000000000000000000000000000000000000000000000000000000000000 PUSH1 0x64 DUP3 ADD MSTORE PUSH1 0x84 ADD JUMPDEST PUSH1 0x40 MLOAD DUP1 SWAP2 SUB SWAP1 REVERT JUMPDEST CALLER PUSH1 0x1 PUSH1 0x1 PUSH1 0xA0 SHL SUB DUP3 AND EQ DUP1 PUSH2 0x778 JUMPI POP PUSH2 0x778 DUP2 CALLER PUSH2 0x522 JUMP JUMPDEST PUSH2 0x7EA JUMPI PUSH1 0x40 MLOAD PUSH3 0x461BCD PUSH1 0xE5 SHL DUP2 MSTORE PUSH1 0x20 PUSH1 0x4 DUP3 ADD MSTORE PUSH1 0x3D PUSH1 0x24 DUP3 ADD MSTORE PUSH32 0x4552433732313A20617070726F76652063616C6C6572206973206E6F7420746F PUSH1 0x44 DUP3 ADD MSTORE PUSH32 0x6B656E206F776E6572206F7220617070726F76656420666F7220616C6C000000 PUSH1 0x64 DUP3 ADD MSTORE PUSH1 0x84 ADD PUSH2 0x753 JUMP JUMPDEST PUSH2 0x7F4 DUP4 DUP4 PUSH2 0x1E14 JUMP JUMPDEST POP POP POP JUMP JUMPDEST PUSH1 0x0 DUP2 DUP2 MSTORE PUSH1 0x10 PUSH1 0x20 MSTORE PUSH1 0x40 SWAP1 KECCAK256 SLOAD PUSH1 0x1 PUSH1 0xFF SWAP1 SWAP2 AND GT PUSH2 0x882 JUMPI PUSH1 0x40 MLOAD PUSH3 0x461BCD PUSH1 0xE5 SHL DUP2 MSTORE PUSH1 0x20 PUSH1 0x4 DUP3 ADD MSTORE PUSH1 0x22 PUSH1 0x24 DUP3 ADD MSTORE PUSH32 0x656C20746F6B656E206465626520736572206465206C766C206D61796F722061 PUSH1 0x44 DUP3 ADD MSTORE PUSH32 0x2031000000000000000000000000000000000000000000000000000000000000 PUSH1 0x64 DUP3 ADD MSTORE PUSH1 0x84 ADD PUSH2 0x753 JUMP JUMPDEST CALLER PUSH2 0x88C DUP3 PUSH2 0x117C JUMP JUMPDEST PUSH1 0x1 PUSH1 0x1 PUSH1 0xA0 SHL SUB AND EQ PUSH2 0x8E2 JUMPI PUSH1 0x40 MLOAD PUSH3 0x461BCD PUSH1 0xE5 SHL DUP2 MSTORE PUSH1 0x20 PUSH1 0x4 DUP3 ADD MSTORE PUSH1 0x1A PUSH1 0x24 DUP3 ADD MSTORE PUSH32 0x656C20746F6B656E20646562652070657274656E656365727465000000000000 PUSH1 0x44 DUP3 ADD MSTORE PUSH1 0x64 ADD PUSH2 0x753 JUMP JUMPDEST PUSH1 0x0 DUP2 DUP2 MSTORE PUSH1 0x15 PUSH1 0x20 DUP2 DUP2 MSTORE PUSH1 0x40 DUP1 DUP5 KECCAK256 DUP1 SLOAD DUP6 MSTORE PUSH1 0x16 DUP4 MSTORE DUP2 DUP6 KECCAK256 DUP1 SLOAD PUSH1 0xFF NOT SWAP1 DUP2 AND SWAP1 SWAP2 SSTORE PUSH1 0x1 DUP3 ADD SLOAD DUP7 MSTORE DUP3 DUP7 KECCAK256 DUP1 SLOAD DUP3 AND SWAP1 SSTORE PUSH1 0x2 DUP3 ADD SLOAD DUP7 MSTORE DUP3 DUP7 KECCAK256 DUP1 SLOAD SWAP1 SWAP2 AND SWAP1 SSTORE PUSH1 0x1B SLOAD DUP7 DUP7 MSTORE SWAP4 SWAP1 SWAP3 MSTORE SWAP1 SLOAD DUP2 MLOAD PUSH4 0xD058E437 PUSH1 0xE0 SHL DUP2 MSTORE PUSH1 0x4 DUP2 ADD SWAP2 SWAP1 SWAP2 MSTORE CALLER PUSH1 0x24 DUP3 ADD MSTORE SWAP1 MLOAD PUSH1 0x1 PUSH1 0x1 PUSH1 0xA0 SHL SUB SWAP1 SWAP3 AND SWAP3 PUSH4 0xD058E437 SWAP3 PUSH1 0x44 DUP1 DUP5 ADD SWAP4 DUP3 SWAP1 SUB ADD DUP2 DUP4 DUP8 DUP1 EXTCODESIZE ISZERO DUP1 ISZERO PUSH2 0x97F JUMPI PUSH1 0x0 DUP1 REVERT JUMPDEST POP GAS CALL ISZERO DUP1 ISZERO PUSH2 0x993 JUMPI RETURNDATASIZE PUSH1 0x0 DUP1 RETURNDATACOPY RETURNDATASIZE PUSH1 0x0 REVERT JUMPDEST POP POP PUSH1 0x1B SLOAD PUSH1 0x0 DUP5 DUP2 MSTORE PUSH1 0x15 PUSH1 0x20 MSTORE PUSH1 0x40 SWAP1 DUP2 SWAP1 KECCAK256 PUSH1 0x1 ADD SLOAD SWAP1 MLOAD PUSH4 0xD058E437 PUSH1 0xE0 SHL DUP2 MSTORE PUSH1 0x4 DUP2 ADD SWAP2 SWAP1 SWAP2 MSTORE CALLER PUSH1 0x24 DUP3 ADD MSTORE PUSH1 0x1 PUSH1 0x1 PUSH1 0xA0 SHL SUB SWAP1 SWAP2 AND SWAP3 POP PUSH4 0xD058E437 SWAP2 POP PUSH1 0x44 ADD PUSH1 0x0 PUSH1 0x40 MLOAD DUP1 DUP4 SUB DUP2 PUSH1 0x0 DUP8 DUP1 EXTCODESIZE ISZERO DUP1 ISZERO PUSH2 0x9F7 JUMPI PUSH1 0x0 DUP1 REVERT JUMPDEST POP GAS CALL ISZERO DUP1 ISZERO PUSH2 0xA0B JUMPI RETURNDATASIZE PUSH1 0x0 DUP1 RETURNDATACOPY RETURNDATASIZE PUSH1 0x0 REVERT JUMPDEST POP POP PUSH1 0x1B SLOAD PUSH1 0x0 DUP5 DUP2 MSTORE PUSH1 0x15 PUSH1 0x20 MSTORE PUSH1 0x40 SWAP1 DUP2 SWAP1 KECCAK256 PUSH1 0x2 ADD SLOAD SWAP1 MLOAD PUSH4 0xD058E437 PUSH1 0xE0 SHL DUP2 MSTORE PUSH1 0x4 DUP2 ADD SWAP2 SWAP1 SWAP2 MSTORE CALLER PUSH1 0x24 DUP3 ADD MSTORE PUSH1 0x1 PUSH1 0x1 PUSH1 0xA0 SHL SUB SWAP1 SWAP2 AND SWAP3 POP PUSH4 0xD058E437 SWAP2 POP PUSH1 0x44 ADD PUSH1 0x0 PUSH1 0x40 MLOAD DUP1 DUP4 SUB DUP2 PUSH1 0x0 DUP8 DUP1 EXTCODESIZE ISZERO DUP1 ISZERO PUSH2 0xA6F JUMPI PUSH1 0x0 DUP1 REVERT JUMPDEST POP GAS CALL ISZERO DUP1 ISZERO PUSH2 0xA83 JUMPI RETURNDATASIZE PUSH1 0x0 DUP1 RETURNDATACOPY RETURNDATASIZE PUSH1 0x0 REVERT JUMPDEST POP POP PUSH1 0x1B SLOAD PUSH1 0x0 DUP5 DUP2 MSTORE PUSH1 0x15 PUSH1 0x20 MSTORE PUSH1 0x40 SWAP1 DUP2 SWAP1 KECCAK256 SLOAD SWAP1 MLOAD PUSH4 0x1D9F9855 PUSH1 0xE1 SHL DUP2 MSTORE PUSH1 0x4 DUP2 ADD SWAP2 SWAP1 SWAP2 MSTORE CALLER PUSH1 0x24 DUP3 ADD MSTORE PUSH1 0x1 PUSH1 0x1 PUSH1 0xA0 SHL SUB SWAP1 SWAP2 AND SWAP3 POP PUSH4 0x3B3F30AA SWAP2 POP PUSH1 0x44 ADD PUSH1 0x0 PUSH1 0x40 MLOAD DUP1 DUP4 SUB DUP2 PUSH1 0x0 DUP8 DUP1 EXTCODESIZE ISZERO DUP1 ISZERO PUSH2 0xAE4 JUMPI PUSH1 0x0 DUP1 REVERT JUMPDEST POP GAS CALL ISZERO DUP1 ISZERO PUSH2 0xAF8 JUMPI RETURNDATASIZE PUSH1 0x0 DUP1 RETURNDATACOPY RETURNDATASIZE PUSH1 0x0 REVERT JUMPDEST POP POP PUSH1 0x1B SLOAD PUSH1 0x0 DUP5 DUP2 MSTORE PUSH1 0x15 PUSH1 0x20 MSTORE PUSH1 0x40 SWAP1 DUP2 SWAP1 KECCAK256 PUSH1 0x1 ADD SLOAD SWAP1 MLOAD PUSH4 0x1D9F9855 PUSH1 0xE1 SHL DUP2 MSTORE PUSH1 0x4 DUP2 ADD SWAP2 SWAP1 SWAP2 MSTORE CALLER PUSH1 0x24 DUP3 ADD MSTORE PUSH1 0x1 PUSH1 0x1 PUSH1 0xA0 SHL SUB SWAP1 SWAP2 AND SWAP3 POP PUSH4 0x3B3F30AA SWAP2 POP PUSH1 0x44 ADD PUSH1 0x0 PUSH1 0x40 MLOAD DUP1 DUP4 SUB DUP2 PUSH1 0x0 DUP8 DUP1 EXTCODESIZE ISZERO DUP1 ISZERO PUSH2 0xB5C JUMPI PUSH1 0x0 DUP1 REVERT JUMPDEST POP GAS CALL ISZERO DUP1 ISZERO PUSH2 0xB70 JUMPI RETURNDATASIZE PUSH1 0x0 DUP1 RETURNDATACOPY RETURNDATASIZE PUSH1 0x0 REVERT JUMPDEST POP POP PUSH1 0x1B SLOAD PUSH1 0x0 DUP5 DUP2 MSTORE PUSH1 0x15 PUSH1 0x20 MSTORE PUSH1 0x40 SWAP1 DUP2 SWAP1 KECCAK256 PUSH1 0x2 ADD SLOAD SWAP1 MLOAD PUSH4 0x1D9F9855 PUSH1 0xE1 SHL DUP2 MSTORE PUSH1 0x4 DUP2 ADD SWAP2 SWAP1 SWAP2 MSTORE CALLER PUSH1 0x24 DUP3 ADD MSTORE PUSH1 0x1 PUSH1 0x1 PUSH1 0xA0 SHL SUB SWAP1 SWAP2 AND SWAP3 POP PUSH4 0x3B3F30AA SWAP2 POP PUSH1 0x44 ADD PUSH1 0x0 PUSH1 0x40 MLOAD DUP1 DUP4 SUB DUP2 PUSH1 0x0 DUP8 DUP1 EXTCODESIZE ISZERO DUP1 ISZERO PUSH2 0xBD4 JUMPI PUSH1 0x0 DUP1 REVERT JUMPDEST POP GAS CALL ISZERO DUP1 ISZERO PUSH2 0xBE8 JUMPI RETURNDATASIZE PUSH1 0x0 DUP1 RETURNDATACOPY RETURNDATASIZE PUSH1 0x0 REVERT JUMPDEST POP POP POP POP PUSH2 0xBF5 DUP2 PUSH2 0xDA9 JUMP JUMPDEST POP JUMP JUMPDEST PUSH2 0xC02 CALLER DUP3 PUSH2 0x1E82 JUMP JUMPDEST PUSH2 0xC64 JUMPI PUSH1 0x40 MLOAD PUSH3 0x461BCD PUSH1 0xE5 SHL DUP2 MSTORE PUSH1 0x20 PUSH1 0x4 DUP3 ADD MSTORE PUSH1 0x2D PUSH1 0x24 DUP3 ADD MSTORE PUSH32 0x4552433732313A2063616C6C6572206973206E6F7420746F6B656E206F776E65 PUSH1 0x44 DUP3 ADD MSTORE PUSH13 0x1C881BDC88185C1C1C9BDD9959 PUSH1 0x9A SHL PUSH1 0x64 DUP3 ADD MSTORE PUSH1 0x84 ADD PUSH2 0x753 JUMP JUMPDEST PUSH2 0x7F4 DUP4 DUP4 DUP4 PUSH2 0x1F01 JUMP JUMPDEST PUSH1 0x0 PUSH2 0xC7A DUP4 PUSH2 0x142A JUMP JUMPDEST DUP3 LT PUSH2 0xCEE JUMPI PUSH1 0x40 MLOAD PUSH3 0x461BCD PUSH1 0xE5 SHL DUP2 MSTORE PUSH1 0x20 PUSH1 0x4 DUP3 ADD MSTORE PUSH1 0x2B PUSH1 0x24 DUP3 ADD MSTORE PUSH32 0x455243373231456E756D657261626C653A206F776E657220696E646578206F75 PUSH1 0x44 DUP3 ADD MSTORE PUSH32 0x74206F6620626F756E6473000000000000000000000000000000000000000000 PUSH1 0x64 DUP3 ADD MSTORE PUSH1 0x84 ADD PUSH2 0x753 JUMP JUMPDEST POP PUSH1 0x1 PUSH1 0x1 PUSH1 0xA0 SHL SUB SWAP2 SWAP1 SWAP2 AND PUSH1 0x0 SWAP1 DUP2 MSTORE PUSH1 0x6 PUSH1 0x20 SWAP1 DUP2 MSTORE PUSH1 0x40 DUP1 DUP4 KECCAK256 SWAP4 DUP4 MSTORE SWAP3 SWAP1 MSTORE KECCAK256 SLOAD SWAP1 JUMP JUMPDEST DUP1 MLOAD PUSH2 0xD2A SWAP1 PUSH1 0xB SWAP1 PUSH1 0x20 DUP5 ADD SWAP1 PUSH2 0x36C4 JUMP JUMPDEST POP POP JUMP JUMPDEST PUSH2 0x7F4 DUP4 DUP4 DUP4 PUSH1 0x40 MLOAD DUP1 PUSH1 0x20 ADD PUSH1 0x40 MSTORE DUP1 PUSH1 0x0 DUP2 MSTORE POP PUSH2 0x1624 JUMP JUMPDEST CALLER PUSH2 0xD53 DUP3 PUSH2 0x117C JUMP JUMPDEST PUSH1 0x1 PUSH1 0x1 PUSH1 0xA0 SHL SUB AND EQ PUSH2 0xDA9 JUMPI PUSH1 0x40 MLOAD PUSH3 0x461BCD PUSH1 0xE5 SHL DUP2 MSTORE PUSH1 0x20 PUSH1 0x4 DUP3 ADD MSTORE PUSH1 0x1A PUSH1 0x24 DUP3 ADD MSTORE PUSH32 0x656C20746F6B656E20646562652070657274656E656365727465000000000000 PUSH1 0x44 DUP3 ADD MSTORE PUSH1 0x64 ADD PUSH2 0x753 JUMP JUMPDEST PUSH2 0xDB2 DUP2 PUSH2 0x2107 JUMP JUMPDEST PUSH1 0x0 DUP2 DUP2 MSTORE PUSH1 0xA PUSH1 0x20 MSTORE PUSH1 0x40 SWAP1 KECCAK256 DUP1 SLOAD PUSH2 0xDCB SWAP1 PUSH2 0x3E2A JUMP JUMPDEST ISZERO SWAP1 POP PUSH2 0xBF5 JUMPI PUSH1 0x0 DUP2 DUP2 MSTORE PUSH1 0xA PUSH1 0x20 MSTORE PUSH1 0x40 DUP2 KECCAK256 PUSH2 0xBF5 SWAP2 PUSH2 0x3748 JUMP JUMPDEST PUSH1 0x0 DUP2 DUP2 MSTORE PUSH1 0x13 PUSH1 0x20 MSTORE PUSH1 0x40 DUP2 KECCAK256 DUP1 SLOAD PUSH1 0x60 SWAP3 SWAP2 SWAP1 PUSH2 0xE07 SWAP1 PUSH2 0x3E2A JUMP JUMPDEST DUP1 PUSH1 0x1F ADD PUSH1 0x20 DUP1 SWAP2 DIV MUL PUSH1 0x20 ADD PUSH1 0x40 MLOAD SWAP1 DUP2 ADD PUSH1 0x40 MSTORE DUP1 SWAP3 SWAP2 SWAP1 DUP2 DUP2 MSTORE PUSH1 0x20 ADD DUP3 DUP1 SLOAD PUSH2 0xE33 SWAP1 PUSH2 0x3E2A JUMP JUMPDEST DUP1 ISZERO PUSH2 0xE80 JUMPI DUP1 PUSH1 0x1F LT PUSH2 0xE55 JUMPI PUSH2 0x100 DUP1 DUP4 SLOAD DIV MUL DUP4 MSTORE SWAP2 PUSH1 0x20 ADD SWAP2 PUSH2 0xE80 JUMP JUMPDEST DUP3 ADD SWAP2 SWAP1 PUSH1 0x0 MSTORE PUSH1 0x20 PUSH1 0x0 KECCAK256 SWAP1 JUMPDEST DUP2 SLOAD DUP2 MSTORE SWAP1 PUSH1 0x1 ADD SWAP1 PUSH1 0x20 ADD DUP1 DUP4 GT PUSH2 0xE63 JUMPI DUP3 SWAP1 SUB PUSH1 0x1F AND DUP3 ADD SWAP2 JUMPDEST POP SWAP4 SWAP8 SWAP7 POP POP POP POP POP POP POP JUMP JUMPDEST PUSH1 0x0 PUSH2 0xE98 PUSH1 0x8 SLOAD SWAP1 JUMP JUMPDEST DUP3 LT PUSH2 0xF0C JUMPI PUSH1 0x40 MLOAD PUSH3 0x461BCD PUSH1 0xE5 SHL DUP2 MSTORE PUSH1 0x20 PUSH1 0x4 DUP3 ADD MSTORE PUSH1 0x2C PUSH1 0x24 DUP3 ADD MSTORE PUSH32 0x455243373231456E756D657261626C653A20676C6F62616C20696E646578206F PUSH1 0x44 DUP3 ADD MSTORE PUSH32 0x7574206F6620626F756E64730000000000000000000000000000000000000000 PUSH1 0x64 DUP3 ADD MSTORE PUSH1 0x84 ADD PUSH2 0x753 JUMP JUMPDEST PUSH1 0x8 DUP3 DUP2 SLOAD DUP2 LT PUSH2 0xF1F JUMPI PUSH2 0xF1F PUSH2 0x3E65 JUMP JUMPDEST SWAP1 PUSH1 0x0 MSTORE PUSH1 0x20 PUSH1 0x0 KECCAK256 ADD SLOAD SWAP1 POP SWAP2 SWAP1 POP JUMP JUMPDEST PUSH1 0x0 PUSH1 0xD SLOAD PUSH1 0x1 PUSH2 0xF42 SWAP2 SWAP1 PUSH2 0x3E91 JUMP JUMPDEST SWAP1 POP PUSH2 0xF4E DUP3 DUP3 PUSH2 0x21AA JUMP JUMPDEST PUSH1 0x1C SLOAD PUSH2 0xF64 SWAP1 PUSH1 0x1 PUSH1 0x1 PUSH1 0xA0 SHL SUB AND DUP3 PUSH2 0x6C2 JUMP JUMPDEST PUSH1 0x0 PUSH2 0xF6E PUSH2 0x21C4 JUMP JUMPDEST SWAP1 POP PUSH1 0x0 PUSH1 0x40 MLOAD DUP1 PUSH1 0x40 ADD PUSH1 0x40 MSTORE DUP1 PUSH1 0x5 DUP2 MSTORE PUSH1 0x20 ADD PUSH5 0x173539B7B7 PUSH1 0xD9 SHL DUP2 MSTORE POP SWAP1 POP PUSH1 0x0 DUP3 PUSH2 0xFA9 PUSH2 0xFA4 DUP7 PUSH1 0xC SLOAD PUSH2 0x21D3 JUMP JUMPDEST PUSH2 0x2318 JUMP JUMPDEST PUSH1 0x40 MLOAD PUSH1 0x20 ADD PUSH2 0xFBA SWAP3 SWAP2 SWAP1 PUSH2 0x3EA9 JUMP JUMPDEST PUSH1 0x40 DUP1 MLOAD PUSH1 0x1F NOT DUP2 DUP5 SUB ADD DUP2 MSTORE SWAP1 DUP3 SWAP1 MSTORE PUSH2 0xFD9 SWAP2 DUP5 SWAP1 PUSH1 0x20 ADD PUSH2 0x3EA9 JUMP JUMPDEST PUSH1 0x40 DUP1 MLOAD PUSH1 0x1F NOT DUP2 DUP5 SUB ADD DUP2 MSTORE SWAP2 DUP2 MSTORE PUSH1 0x0 DUP7 DUP2 MSTORE PUSH1 0xA PUSH1 0x20 SWAP1 DUP2 MSTORE SWAP2 SWAP1 KECCAK256 DUP3 MLOAD SWAP3 SWAP4 POP PUSH2 0x100B SWAP3 SWAP1 SWAP2 DUP5 ADD SWAP1 PUSH2 0x36C4 JUMP JUMPDEST POP PUSH1 0x11 SLOAD PUSH1 0x0 DUP6 DUP2 MSTORE PUSH1 0x12 PUSH1 0x20 MSTORE PUSH1 0x40 DUP2 KECCAK256 SWAP2 SWAP1 SWAP2 SSTORE PUSH1 0xC SLOAD PUSH2 0x102F SWAP1 DUP7 SWAP1 PUSH2 0x21D3 JUMP JUMPDEST PUSH1 0x11 SLOAD PUSH2 0x103D SWAP1 PUSH1 0x64 PUSH2 0x3ED8 JUMP JUMPDEST PUSH2 0x1047 SWAP2 SWAP1 PUSH2 0x3E91 JUMP JUMPDEST PUSH1 0x0 DUP2 DUP2 MSTORE PUSH1 0x14 PUSH1 0x20 SWAP1 DUP2 MSTORE PUSH1 0x40 DUP1 DUP4 KECCAK256 DUP10 DUP5 MSTORE PUSH1 0x13 SWAP1 SWAP3 MSTORE SWAP1 SWAP2 KECCAK256 DUP2 SLOAD SWAP3 SWAP4 POP SWAP2 PUSH2 0x1072 SWAP1 PUSH2 0x3E2A JUMP JUMPDEST PUSH2 0x107D SWAP3 SWAP2 SWAP1 PUSH2 0x3782 JUMP JUMPDEST POP PUSH1 0x0 DUP6 DUP2 MSTORE PUSH1 0x10 PUSH1 0x20 SWAP1 DUP2 MSTORE PUSH1 0x40 DUP1 DUP4 KECCAK256 DUP1 SLOAD PUSH1 0xFF NOT AND PUSH1 0x1 OR SWAP1 SSTORE PUSH1 0x11 SLOAD DUP4 MSTORE PUSH1 0x18 SWAP1 SWAP2 MSTORE DUP2 KECCAK256 PUSH1 0xC SLOAD SWAP1 SWAP2 SWAP1 PUSH2 0x10B7 SWAP1 DUP9 SWAP1 PUSH2 0x21D3 JUMP JUMPDEST DUP2 MSTORE PUSH1 0x20 DUP2 ADD SWAP2 SWAP1 SWAP2 MSTORE PUSH1 0x40 ADD PUSH1 0x0 KECCAK256 SLOAD PUSH1 0xFF AND ISZERO PUSH2 0x10E4 JUMPI PUSH1 0x0 DUP6 DUP2 MSTORE PUSH1 0x17 PUSH1 0x20 MSTORE PUSH1 0x40 DUP2 KECCAK256 SSTORE PUSH2 0x114A JUMP JUMPDEST PUSH1 0x19 PUSH1 0x0 PUSH1 0x11 SLOAD DUP2 MSTORE PUSH1 0x20 ADD SWAP1 DUP2 MSTORE PUSH1 0x20 ADD PUSH1 0x0 KECCAK256 PUSH1 0x0 PUSH2 0x1107 DUP8 PUSH1 0xC SLOAD PUSH2 0x21D3 JUMP JUMPDEST DUP2 MSTORE PUSH1 0x20 DUP2 ADD SWAP2 SWAP1 SWAP2 MSTORE PUSH1 0x40 ADD PUSH1 0x0 KECCAK256 SLOAD PUSH1 0xFF AND ISZERO PUSH2 0x1137 JUMPI PUSH1 0x0 DUP6 DUP2 MSTORE PUSH1 0x17 PUSH1 0x20 MSTORE PUSH1 0x40 SWAP1 KECCAK256 PUSH1 0x1 SWAP1 SSTORE PUSH2 0x114A JUMP JUMPDEST PUSH1 0x0 DUP6 DUP2 MSTORE PUSH1 0x17 PUSH1 0x20 MSTORE PUSH1 0x40 SWAP1 KECCAK256 PUSH1 0x2 SWAP1 SSTORE JUMPDEST PUSH1 0xD DUP1 SLOAD SWAP1 PUSH1 0x0 PUSH2 0x115A DUP4 PUSH2 0x3EF7 JUMP JUMPDEST SWAP1 SWAP2 SSTORE POP POP POP PUSH1 0x0 SWAP4 DUP5 MSTORE POP POP PUSH1 0xF PUSH1 0x20 MSTORE POP PUSH1 0x40 SWAP1 KECCAK256 DUP1 SLOAD PUSH1 0xFF NOT AND SWAP1 SSTORE POP JUMP JUMPDEST PUSH1 0x0 DUP2 DUP2 MSTORE PUSH1 0x2 PUSH1 0x20 MSTORE PUSH1 0x40 DUP2 KECCAK256 SLOAD PUSH1 0x1 PUSH1 0x1 PUSH1 0xA0 SHL SUB AND DUP1 PUSH2 0x603 JUMPI PUSH1 0x40 MLOAD PUSH3 0x461BCD PUSH1 0xE5 SHL DUP2 MSTORE PUSH1 0x20 PUSH1 0x4 DUP3 ADD MSTORE PUSH1 0x18 PUSH1 0x24 DUP3 ADD MSTORE PUSH32 0x4552433732313A20696E76616C696420746F6B656E2049440000000000000000 PUSH1 0x44 DUP3 ADD MSTORE PUSH1 0x64 ADD PUSH2 0x753 JUMP JUMPDEST PUSH1 0x0 PUSH1 0xD SLOAD PUSH1 0x1 PUSH2 0x11F2 SWAP2 SWAP1 PUSH2 0x3E91 JUMP JUMPDEST SWAP1 POP PUSH2 0x11FE DUP3 DUP3 PUSH2 0x21AA JUMP JUMPDEST PUSH1 0x1C SLOAD PUSH2 0x1214 SWAP1 PUSH1 0x1 PUSH1 0x1 PUSH1 0xA0 SHL SUB AND DUP3 PUSH2 0x6C2 JUMP JUMPDEST PUSH1 0x0 PUSH2 0x121E PUSH2 0x21C4 JUMP JUMPDEST SWAP1 POP PUSH1 0x0 PUSH1 0x40 MLOAD DUP1 PUSH1 0x40 ADD PUSH1 0x40 MSTORE DUP1 PUSH1 0x5 DUP2 MSTORE PUSH1 0x20 ADD PUSH5 0x173539B7B7 PUSH1 0xD9 SHL DUP2 MSTORE POP SWAP1 POP PUSH1 0x0 DUP3 PUSH2 0x1254 PUSH2 0xFA4 DUP7 PUSH1 0xC SLOAD PUSH2 0x21D3 JUMP JUMPDEST PUSH1 0x40 MLOAD PUSH1 0x20 ADD PUSH2 0x1265 SWAP3 SWAP2 SWAP1 PUSH2 0x3EA9 JUMP JUMPDEST PUSH1 0x40 DUP1 MLOAD PUSH1 0x1F NOT DUP2 DUP5 SUB ADD DUP2 MSTORE SWAP1 DUP3 SWAP1 MSTORE PUSH2 0x1284 SWAP2 DUP5 SWAP1 PUSH1 0x20 ADD PUSH2 0x3EA9 JUMP JUMPDEST PUSH1 0x40 DUP1 MLOAD PUSH1 0x1F NOT DUP2 DUP5 SUB ADD DUP2 MSTORE SWAP2 DUP2 MSTORE PUSH1 0x0 DUP7 DUP2 MSTORE PUSH1 0xA PUSH1 0x20 SWAP1 DUP2 MSTORE SWAP2 SWAP1 KECCAK256 DUP3 MLOAD SWAP3 SWAP4 POP PUSH2 0x12B6 SWAP3 SWAP1 SWAP2 DUP5 ADD SWAP1 PUSH2 0x36C4 JUMP JUMPDEST POP PUSH1 0x11 SLOAD PUSH1 0x0 DUP6 DUP2 MSTORE PUSH1 0x12 PUSH1 0x20 MSTORE PUSH1 0x40 DUP2 KECCAK256 SWAP2 SWAP1 SWAP2 SSTORE PUSH1 0xC SLOAD PUSH2 0x12DA SWAP1 DUP7 SWAP1 PUSH2 0x21D3 JUMP JUMPDEST PUSH1 0x11 SLOAD PUSH2 0x12E8 SWAP1 PUSH1 0x64 PUSH2 0x3ED8 JUMP JUMPDEST PUSH2 0x12F2 SWAP2 SWAP1 PUSH2 0x3E91 JUMP JUMPDEST PUSH1 0x0 DUP2 DUP2 MSTORE PUSH1 0x14 PUSH1 0x20 SWAP1 DUP2 MSTORE PUSH1 0x40 DUP1 DUP4 KECCAK256 DUP10 DUP5 MSTORE PUSH1 0x13 SWAP1 SWAP3 MSTORE SWAP1 SWAP2 KECCAK256 DUP2 SLOAD SWAP3 SWAP4 POP SWAP2 PUSH2 0x131D SWAP1 PUSH2 0x3E2A JUMP JUMPDEST PUSH2 0x1328 SWAP3 SWAP2 SWAP1 PUSH2 0x3782 JUMP JUMPDEST POP PUSH1 0x0 DUP6 DUP2 MSTORE PUSH1 0x10 PUSH1 0x20 SWAP1 DUP2 MSTORE PUSH1 0x40 DUP1 DUP4 KECCAK256 DUP1 SLOAD PUSH1 0xFF NOT AND PUSH1 0x1 OR SWAP1 SSTORE PUSH1 0x11 SLOAD DUP4 MSTORE PUSH1 0x18 SWAP1 SWAP2 MSTORE DUP2 KECCAK256 PUSH1 0xC SLOAD SWAP1 SWAP2 SWAP1 PUSH2 0x1362 SWAP1 DUP9 SWAP1 PUSH2 0x21D3 JUMP JUMPDEST DUP2 MSTORE PUSH1 0x20 DUP2 ADD SWAP2 SWAP1 SWAP2 MSTORE PUSH1 0x40 ADD PUSH1 0x0 KECCAK256 SLOAD PUSH1 0xFF AND ISZERO PUSH2 0x138F JUMPI PUSH1 0x0 DUP6 DUP2 MSTORE PUSH1 0x17 PUSH1 0x20 MSTORE PUSH1 0x40 DUP2 KECCAK256 SSTORE PUSH2 0x13F5 JUMP JUMPDEST PUSH1 0x19 PUSH1 0x0 PUSH1 0x11 SLOAD DUP2 MSTORE PUSH1 0x20 ADD SWAP1 DUP2 MSTORE PUSH1 0x20 ADD PUSH1 0x0 KECCAK256 PUSH1 0x0 PUSH2 0x13B2 DUP8 PUSH1 0xC SLOAD PUSH2 0x21D3 JUMP JUMPDEST DUP2 MSTORE PUSH1 0x20 DUP2 ADD SWAP2 SWAP1 SWAP2 MSTORE PUSH1 0x40 ADD PUSH1 0x0 KECCAK256 SLOAD PUSH1 0xFF AND ISZERO PUSH2 0x13E2 JUMPI PUSH1 0x0 DUP6 DUP2 MSTORE PUSH1 0x17 PUSH1 0x20 MSTORE PUSH1 0x40 SWAP1 KECCAK256 PUSH1 0x1 SWAP1 SSTORE PUSH2 0x13F5 JUMP JUMPDEST PUSH1 0x0 DUP6 DUP2 MSTORE PUSH1 0x17 PUSH1 0x20 MSTORE PUSH1 0x40 SWAP1 KECCAK256 PUSH1 0x2 SWAP1 SSTORE JUMPDEST PUSH1 0xD DUP1 SLOAD SWAP1 PUSH1 0x0 PUSH2 0x1405 DUP4 PUSH2 0x3EF7 JUMP JUMPDEST SWAP1 SWAP2 SSTORE POP POP POP PUSH1 0x0 SWAP4 DUP5 MSTORE POP POP PUSH1 0xF PUSH1 0x20 MSTORE POP PUSH1 0x40 SWAP1 KECCAK256 DUP1 SLOAD PUSH1 0xFF NOT AND PUSH1 0x1 OR SWAP1 SSTORE POP JUMP JUMPDEST PUSH1 0x0 PUSH1 0x1 PUSH1 0x1 PUSH1 0xA0 SHL SUB DUP3 AND PUSH2 0x14A8 JUMPI PUSH1 0x40 MLOAD PUSH3 0x461BCD PUSH1 0xE5 SHL DUP2 MSTORE PUSH1 0x20 PUSH1 0x4 DUP3 ADD MSTORE PUSH1 0x29 PUSH1 0x24 DUP3 ADD MSTORE PUSH32 0x4552433732313A2061646472657373207A65726F206973206E6F742061207661 PUSH1 0x44 DUP3 ADD MSTORE PUSH32 0x6C6964206F776E65720000000000000000000000000000000000000000000000 PUSH1 0x64 DUP3 ADD MSTORE PUSH1 0x84 ADD PUSH2 0x753 JUMP JUMPDEST POP PUSH1 0x1 PUSH1 0x1 PUSH1 0xA0 SHL SUB AND PUSH1 0x0 SWAP1 DUP2 MSTORE PUSH1 0x3 PUSH1 0x20 MSTORE PUSH1 0x40 SWAP1 KECCAK256 SLOAD SWAP1 JUMP JUMPDEST PUSH1 0x0 PUSH2 0x14CF DUP3 PUSH2 0x1DB0 JUMP JUMPDEST POP PUSH1 0x0 SWAP1 DUP2 MSTORE PUSH1 0xF PUSH1 0x20 MSTORE PUSH1 0x40 SWAP1 KECCAK256 SLOAD PUSH1 0xFF AND SWAP1 JUMP JUMPDEST PUSH1 0x0 JUMPDEST DUP3 DUP2 LT ISZERO PUSH2 0x7F4 JUMPI PUSH1 0x1 PUSH1 0x18 PUSH1 0x0 PUSH1 0x11 SLOAD DUP2 MSTORE PUSH1 0x20 ADD SWAP1 DUP2 MSTORE PUSH1 0x20 ADD PUSH1 0x0 KECCAK256 PUSH1 0x0 DUP5 DUP5 DUP2 MLOAD DUP2 LT PUSH2 0x151B JUMPI PUSH2 0x151B PUSH2 0x3E65 JUMP JUMPDEST PUSH1 0x20 MUL PUSH1 0x20 ADD ADD MLOAD DUP2 MSTORE PUSH1 0x20 ADD SWAP1 DUP2 MSTORE PUSH1 0x20 ADD PUSH1 0x0 KECCAK256 PUSH1 0x0 PUSH2 0x100 EXP DUP2 SLOAD DUP2 PUSH1 0xFF MUL NOT AND SWAP1 DUP4 ISZERO ISZERO MUL OR SWAP1 SSTORE POP DUP1 DUP1 PUSH2 0x1553 SWAP1 PUSH2 0x3EF7 JUMP JUMPDEST SWAP2 POP POP PUSH2 0x14E8 JUMP JUMPDEST PUSH1 0x60 PUSH1 0x1 DUP1 SLOAD PUSH2 0x618 SWAP1 PUSH2 0x3E2A JUMP JUMPDEST PUSH2 0xD2A CALLER DUP4 DUP4 PUSH2 0x23C2 JUMP JUMPDEST PUSH1 0x11 DUP1 SLOAD SWAP1 PUSH1 0x0 PUSH2 0x1585 DUP4 PUSH2 0x3EF7 JUMP JUMPDEST SWAP2 SWAP1 POP SSTORE POP PUSH1 0x0 JUMPDEST DUP6 DUP2 LT ISZERO PUSH2 0x15FC JUMPI PUSH2 0x15EA DUP9 DUP3 DUP2 MLOAD DUP2 LT PUSH2 0x15AA JUMPI PUSH2 0x15AA PUSH2 0x3E65 JUMP JUMPDEST PUSH1 0x20 MUL PUSH1 0x20 ADD ADD MLOAD PUSH1 0x11 SLOAD PUSH1 0x64 PUSH2 0x15C1 SWAP2 SWAP1 PUSH2 0x3ED8 JUMP JUMPDEST PUSH2 0x15CB SWAP2 SWAP1 PUSH2 0x3E91 JUMP JUMPDEST DUP9 DUP4 DUP2 MLOAD DUP2 LT PUSH2 0x15DD JUMPI PUSH2 0x15DD PUSH2 0x3E65 JUMP JUMPDEST PUSH1 0x20 MUL PUSH1 0x20 ADD ADD MLOAD PUSH2 0x174B JUMP JUMPDEST DUP1 PUSH2 0x15F4 DUP2 PUSH2 0x3EF7 JUMP JUMPDEST SWAP2 POP POP PUSH2 0x158D JUMP JUMPDEST POP PUSH2 0x1607 DUP5 DUP5 PUSH2 0x14E5 JUMP JUMPDEST PUSH2 0x1611 DUP3 DUP3 PUSH2 0x176A JUMP JUMPDEST PUSH2 0x161A DUP9 PUSH2 0xD17 JUMP JUMPDEST POP POP POP POP POP POP POP POP JUMP JUMPDEST PUSH2 0x162E CALLER DUP4 PUSH2 0x1E82 JUMP JUMPDEST PUSH2 0x1690 JUMPI PUSH1 0x40 MLOAD PUSH3 0x461BCD PUSH1 0xE5 SHL DUP2 MSTORE PUSH1 0x20 PUSH1 0x4 DUP3 ADD MSTORE PUSH1 0x2D PUSH1 0x24 DUP3 ADD MSTORE PUSH32 0x4552433732313A2063616C6C6572206973206E6F7420746F6B656E206F776E65 PUSH1 0x44 DUP3 ADD MSTORE PUSH13 0x1C881BDC88185C1C1C9BDD9959 PUSH1 0x9A SHL PUSH1 0x64 DUP3 ADD MSTORE PUSH1 0x84 ADD PUSH2 0x753 JUMP JUMPDEST PUSH2 0x169C DUP5 DUP5 DUP5 DUP5 PUSH2 0x2491 JUMP JUMPDEST POP POP POP POP JUMP JUMPDEST PUSH2 0x16BD CALLER DUP4 DUP4 PUSH1 0x40 MLOAD DUP1 PUSH1 0x20 ADD PUSH1 0x40 MSTORE DUP1 PUSH1 0x0 DUP2 MSTORE POP PUSH2 0x2491 JUMP JUMPDEST PUSH1 0x1B SLOAD PUSH1 0x40 MLOAD PUSH4 0xD058E437 PUSH1 0xE0 SHL DUP2 MSTORE PUSH1 0x4 DUP2 ADD DUP4 SWAP1 MSTORE PUSH1 0x1 PUSH1 0x1 PUSH1 0xA0 SHL SUB DUP5 DUP2 AND PUSH1 0x24 DUP4 ADD MSTORE SWAP1 SWAP2 AND SWAP1 PUSH4 0xD058E437 SWAP1 PUSH1 0x44 ADD PUSH1 0x0 PUSH1 0x40 MLOAD DUP1 DUP4 SUB DUP2 PUSH1 0x0 DUP8 DUP1 EXTCODESIZE ISZERO DUP1 ISZERO PUSH2 0x170B JUMPI PUSH1 0x0 DUP1 REVERT JUMPDEST POP GAS CALL ISZERO DUP1 ISZERO PUSH2 0x171F JUMPI RETURNDATASIZE PUSH1 0x0 DUP1 RETURNDATACOPY RETURNDATASIZE PUSH1 0x0 REVERT JUMPDEST POP POP POP POP POP POP JUMP JUMPDEST PUSH1 0x60 PUSH2 0x1732 DUP3 PUSH2 0x1DB0 JUMP JUMPDEST PUSH1 0x0 DUP3 DUP2 MSTORE PUSH1 0xA PUSH1 0x20 MSTORE PUSH1 0x40 DUP2 KECCAK256 DUP1 SLOAD PUSH2 0xE07 SWAP1 PUSH2 0x3E2A JUMP JUMPDEST PUSH1 0x0 DUP3 DUP2 MSTORE PUSH1 0x14 PUSH1 0x20 SWAP1 DUP2 MSTORE PUSH1 0x40 SWAP1 SWAP2 KECCAK256 DUP3 MLOAD PUSH2 0x7F4 SWAP3 DUP5 ADD SWAP1 PUSH2 0x36C4 JUMP JUMPDEST PUSH1 0x0 JUMPDEST DUP3 DUP2 LT ISZERO PUSH2 0x7F4 JUMPI PUSH1 0x1 PUSH1 0x19 PUSH1 0x0 PUSH1 0x11 SLOAD DUP2 MSTORE PUSH1 0x20 ADD SWAP1 DUP2 MSTORE PUSH1 0x20 ADD PUSH1 0x0 KECCAK256 PUSH1 0x0 DUP5 DUP5 DUP2 MLOAD DUP2 LT PUSH2 0x17A0 JUMPI PUSH2 0x17A0 PUSH2 0x3E65 JUMP JUMPDEST PUSH1 0x20 MUL PUSH1 0x20 ADD ADD MLOAD DUP2 MSTORE PUSH1 0x20 ADD SWAP1 DUP2 MSTORE PUSH1 0x20 ADD PUSH1 0x0 KECCAK256 PUSH1 0x0 PUSH2 0x100 EXP DUP2 SLOAD DUP2 PUSH1 0xFF MUL NOT AND SWAP1 DUP4 ISZERO ISZERO MUL OR SWAP1 SSTORE POP DUP1 DUP1 PUSH2 0x17D8 SWAP1 PUSH2 0x3EF7 JUMP JUMPDEST SWAP2 POP POP PUSH2 0x176D JUMP JUMPDEST PUSH1 0x1A SLOAD PUSH1 0x40 DUP1 MLOAD PUSH1 0x20 DUP2 ADD SWAP1 SWAP2 MSTORE PUSH1 0x0 DUP2 MSTORE PUSH2 0xD2A SWAP2 PUSH1 0x1 PUSH1 0x1 PUSH1 0xA0 SHL SUB AND SWAP1 DUP5 SWAP1 DUP5 SWAP1 PUSH2 0x2491 JUMP JUMPDEST PUSH1 0x0 DUP3 DUP2 MSTORE PUSH1 0x10 PUSH1 0x20 MSTORE PUSH1 0x40 DUP1 DUP3 KECCAK256 SLOAD DUP6 DUP4 MSTORE SWAP2 KECCAK256 SLOAD PUSH1 0xFF SWAP1 DUP2 AND SWAP2 AND EQ DUP1 ISZERO PUSH2 0x184D JUMPI POP PUSH1 0x0 DUP2 DUP2 MSTORE PUSH1 0x10 PUSH1 0x20 MSTORE PUSH1 0x40 DUP1 DUP3 KECCAK256 SLOAD DUP6 DUP4 MSTORE SWAP2 KECCAK256 SLOAD PUSH1 0xFF SWAP1 DUP2 AND SWAP2 AND EQ JUMPDEST PUSH2 0x18BF JUMPI PUSH1 0x40 MLOAD PUSH3 0x461BCD PUSH1 0xE5 SHL DUP2 MSTORE PUSH1 0x20 PUSH1 0x4 DUP3 ADD MSTORE PUSH1 0x21 PUSH1 0x24 DUP3 ADD MSTORE PUSH32 0x6C6F7320746F6B656E20646562656E207365722064656C206D69736D6F206C76 PUSH1 0x44 DUP3 ADD MSTORE PUSH32 0x6C00000000000000000000000000000000000000000000000000000000000000 PUSH1 0x64 DUP3 ADD MSTORE PUSH1 0x84 ADD PUSH2 0x753 JUMP JUMPDEST PUSH1 0x0 DUP3 DUP2 MSTORE PUSH1 0xF PUSH1 0x20 MSTORE PUSH1 0x40 DUP1 DUP3 KECCAK256 SLOAD DUP6 DUP4 MSTORE SWAP2 KECCAK256 SLOAD PUSH1 0xFF SWAP1 DUP2 AND ISZERO ISZERO SWAP2 AND ISZERO ISZERO EQ DUP1 ISZERO PUSH2 0x190B JUMPI POP PUSH1 0x0 DUP2 DUP2 MSTORE PUSH1 0xF PUSH1 0x20 MSTORE PUSH1 0x40 DUP1 DUP3 KECCAK256 SLOAD DUP6 DUP4 MSTORE SWAP2 KECCAK256 SLOAD PUSH1 0xFF SWAP1 DUP2 AND ISZERO ISZERO SWAP2 AND ISZERO ISZERO EQ JUMPDEST PUSH2 0x197D JUMPI PUSH1 0x40 MLOAD PUSH3 0x461BCD PUSH1 0xE5 SHL DUP2 MSTORE PUSH1 0x20 PUSH1 0x4 DUP3 ADD MSTORE PUSH1 0x22 PUSH1 0x24 DUP3 ADD MSTORE PUSH32 0x6C6F7320746F6B656E20646562656E207365722064656C206D69736D6F207469 PUSH1 0x44 DUP3 ADD MSTORE PUSH32 0x706F000000000000000000000000000000000000000000000000000000000000 PUSH1 0x64 DUP3 ADD MSTORE PUSH1 0x84 ADD PUSH2 0x753 JUMP JUMPDEST PUSH1 0x0 DUP4 DUP2 MSTORE PUSH1 0x16 PUSH1 0x20 MSTORE PUSH1 0x40 SWAP1 KECCAK256 SLOAD PUSH1 0xFF AND ISZERO DUP1 PUSH2 0x19AA JUMPI POP PUSH1 0x0 DUP3 DUP2 MSTORE PUSH1 0x16 PUSH1 0x20 MSTORE PUSH1 0x40 SWAP1 KECCAK256 SLOAD PUSH1 0xFF AND ISZERO JUMPDEST DUP1 PUSH2 0x19C4 JUMPI POP PUSH1 0x0 DUP2 DUP2 MSTORE PUSH1 0x16 PUSH1 0x20 MSTORE PUSH1 0x40 SWAP1 KECCAK256 SLOAD PUSH1 0xFF AND ISZERO JUMPDEST PUSH2 0x1A10 JUMPI PUSH1 0x40 MLOAD PUSH3 0x461BCD PUSH1 0xE5 SHL DUP2 MSTORE PUSH1 0x20 PUSH1 0x4 DUP3 ADD MSTORE PUSH1 0x17 PUSH1 0x24 DUP3 ADD MSTORE PUSH32 0x756E20746F6B656E206573746120626C6F636B6561646F000000000000000000 PUSH1 0x44 DUP3 ADD MSTORE PUSH1 0x64 ADD PUSH2 0x753 JUMP JUMPDEST PUSH1 0x0 DUP4 DUP2 MSTORE PUSH1 0x10 PUSH1 0x20 MSTORE PUSH1 0x40 SWAP1 KECCAK256 SLOAD PUSH1 0xFF AND PUSH1 0x3 EQ ISZERO PUSH2 0x1A72 JUMPI PUSH1 0x40 MLOAD PUSH3 0x461BCD PUSH1 0xE5 SHL DUP2 MSTORE PUSH1 0x20 PUSH1 0x4 DUP3 ADD MSTORE PUSH1 0x1F PUSH1 0x24 DUP3 ADD MSTORE PUSH32 0x6E6F207365207075656465207573617220756E20746F6B656E206C766C203300 PUSH1 0x44 DUP3 ADD MSTORE PUSH1 0x64 ADD PUSH2 0x753 JUMP JUMPDEST PUSH2 0x1A7B DUP3 PUSH2 0x117C JUMP JUMPDEST PUSH1 0x1 PUSH1 0x1 PUSH1 0xA0 SHL SUB AND PUSH2 0x1A8D DUP5 PUSH2 0x117C JUMP JUMPDEST PUSH1 0x1 PUSH1 0x1 PUSH1 0xA0 SHL SUB AND EQ DUP1 ISZERO PUSH2 0x1AC4 JUMPI POP PUSH2 0x1AA7 DUP2 PUSH2 0x117C JUMP JUMPDEST PUSH1 0x1 PUSH1 0x1 PUSH1 0xA0 SHL SUB AND PUSH2 0x1AB9 DUP5 PUSH2 0x117C JUMP JUMPDEST PUSH1 0x1 PUSH1 0x1 PUSH1 0xA0 SHL SUB AND EQ JUMPDEST DUP1 ISZERO PUSH2 0x1AE0 JUMPI POP CALLER PUSH2 0x1AD5 DUP5 PUSH2 0x117C JUMP JUMPDEST PUSH1 0x1 PUSH1 0x1 PUSH1 0xA0 SHL SUB AND EQ JUMPDEST PUSH2 0x1B2C JUMPI PUSH1 0x40 MLOAD PUSH3 0x461BCD PUSH1 0xE5 SHL DUP2 MSTORE PUSH1 0x20 PUSH1 0x4 DUP3 ADD MSTORE PUSH1 0x1C PUSH1 0x24 DUP3 ADD MSTORE PUSH32 0x6C6F7320746F6B656E20646562656E2070657274656E65636572746500000000 PUSH1 0x44 DUP3 ADD MSTORE PUSH1 0x64 ADD PUSH2 0x753 JUMP JUMPDEST PUSH1 0x0 DUP4 DUP2 MSTORE PUSH1 0x10 PUSH1 0x20 MSTORE PUSH1 0x40 SWAP1 KECCAK256 SLOAD PUSH1 0xFF AND PUSH1 0x1 EQ ISZERO PUSH2 0x1B57 JUMPI PUSH2 0x1B52 CALLER DUP5 DUP5 DUP5 PUSH2 0x250F JUMP JUMPDEST PUSH2 0x1B63 JUMP JUMPDEST PUSH2 0x1B63 CALLER DUP5 DUP5 DUP5 PUSH2 0x296F JUMP JUMPDEST PUSH1 0x1A SLOAD PUSH1 0x40 DUP1 MLOAD PUSH1 0x20 DUP2 ADD SWAP1 SWAP2 MSTORE PUSH1 0x0 DUP2 MSTORE PUSH2 0x1B8E SWAP2 CALLER SWAP2 PUSH1 0x1 PUSH1 0x1 PUSH1 0xA0 SHL SUB SWAP1 SWAP2 AND SWAP1 DUP7 SWAP1 PUSH2 0x2491 JUMP JUMPDEST PUSH1 0x1A SLOAD PUSH1 0x40 DUP1 MLOAD PUSH1 0x20 DUP2 ADD SWAP1 SWAP2 MSTORE PUSH1 0x0 DUP2 MSTORE PUSH2 0x1BB9 SWAP2 CALLER SWAP2 PUSH1 0x1 PUSH1 0x1 PUSH1 0xA0 SHL SUB SWAP1 SWAP2 AND SWAP1 DUP6 SWAP1 PUSH2 0x2491 JUMP JUMPDEST PUSH1 0x1A SLOAD PUSH1 0x40 DUP1 MLOAD PUSH1 0x20 DUP2 ADD SWAP1 SWAP2 MSTORE PUSH1 0x0 DUP2 MSTORE PUSH2 0x1BE4 SWAP2 CALLER SWAP2 PUSH1 0x1 PUSH1 0x1 PUSH1 0xA0 SHL SUB SWAP1 SWAP2 AND SWAP1 DUP5 SWAP1 PUSH2 0x2491 JUMP JUMPDEST PUSH1 0x1B SLOAD PUSH1 0x40 MLOAD PUSH4 0xD058E437 PUSH1 0xE0 SHL DUP2 MSTORE PUSH1 0x4 DUP2 ADD DUP6 SWAP1 MSTORE CALLER PUSH1 0x24 DUP3 ADD MSTORE PUSH1 0x1 PUSH1 0x1 PUSH1 0xA0 SHL SUB SWAP1 SWAP2 AND SWAP1 PUSH4 0xD058E437 SWAP1 PUSH1 0x44 ADD PUSH1 0x0 PUSH1 0x40 MLOAD DUP1 DUP4 SUB DUP2 PUSH1 0x0 DUP8 DUP1 EXTCODESIZE ISZERO DUP1 ISZERO PUSH2 0x1C30 JUMPI PUSH1 0x0 DUP1 REVERT JUMPDEST POP GAS CALL ISZERO DUP1 ISZERO PUSH2 0x1C44 JUMPI RETURNDATASIZE PUSH1 0x0 DUP1 RETURNDATACOPY RETURNDATASIZE PUSH1 0x0 REVERT JUMPDEST POP POP PUSH1 0x1B SLOAD PUSH1 0x40 MLOAD PUSH4 0xD058E437 PUSH1 0xE0 SHL DUP2 MSTORE PUSH1 0x4 DUP2 ADD DUP7 SWAP1 MSTORE CALLER PUSH1 0x24 DUP3 ADD MSTORE PUSH1 0x1 PUSH1 0x1 PUSH1 0xA0 SHL SUB SWAP1 SWAP2 AND SWAP3 POP PUSH4 0xD058E437 SWAP2 POP PUSH1 0x44 ADD PUSH1 0x0 PUSH1 0x40 MLOAD DUP1 DUP4 SUB DUP2 PUSH1 0x0 DUP8 DUP1 EXTCODESIZE ISZERO DUP1 ISZERO PUSH2 0x1C94 JUMPI PUSH1 0x0 DUP1 REVERT JUMPDEST POP GAS CALL ISZERO DUP1 ISZERO PUSH2 0x1CA8 JUMPI RETURNDATASIZE PUSH1 0x0 DUP1 RETURNDATACOPY RETURNDATASIZE PUSH1 0x0 REVERT JUMPDEST POP POP PUSH1 0x1B SLOAD PUSH1 0x40 MLOAD PUSH4 0xD058E437 PUSH1 0xE0 SHL DUP2 MSTORE PUSH1 0x4 DUP2 ADD DUP6 SWAP1 MSTORE CALLER PUSH1 0x24 DUP3 ADD MSTORE PUSH1 0x1 PUSH1 0x1 PUSH1 0xA0 SHL SUB SWAP1 SWAP2 AND SWAP3 POP PUSH4 0xD058E437 SWAP2 POP PUSH1 0x44 ADD PUSH1 0x0 PUSH1 0x40 MLOAD DUP1 DUP4 SUB DUP2 PUSH1 0x0 DUP8 DUP1 EXTCODESIZE ISZERO DUP1 ISZERO PUSH2 0x1CF8 JUMPI PUSH1 0x0 DUP1 REVERT JUMPDEST POP GAS CALL ISZERO DUP1 ISZERO PUSH2 0x1D0C JUMPI RETURNDATASIZE PUSH1 0x0 DUP1 RETURNDATACOPY RETURNDATASIZE PUSH1 0x0 REVERT JUMPDEST POP POP POP POP POP POP POP JUMP JUMPDEST PUSH1 0x0 PUSH1 0x1 PUSH1 0x1 PUSH1 0xE0 SHL SUB NOT DUP3 AND PUSH32 0x80AC58CD00000000000000000000000000000000000000000000000000000000 EQ DUP1 PUSH2 0x1D78 JUMPI POP PUSH1 0x1 PUSH1 0x1 PUSH1 0xE0 SHL SUB NOT DUP3 AND PUSH32 0x5B5E139F00000000000000000000000000000000000000000000000000000000 EQ JUMPDEST DUP1 PUSH2 0x603 JUMPI POP PUSH32 0x1FFC9A700000000000000000000000000000000000000000000000000000000 PUSH1 0x1 PUSH1 0x1 PUSH1 0xE0 SHL SUB NOT DUP4 AND EQ PUSH2 0x603 JUMP JUMPDEST PUSH1 0x0 DUP2 DUP2 MSTORE PUSH1 0x2 PUSH1 0x20 MSTORE PUSH1 0x40 SWAP1 KECCAK256 SLOAD PUSH1 0x1 PUSH1 0x1 PUSH1 0xA0 SHL SUB AND PUSH2 0xBF5 JUMPI PUSH1 0x40 MLOAD PUSH3 0x461BCD PUSH1 0xE5 SHL DUP2 MSTORE PUSH1 0x20 PUSH1 0x4 DUP3 ADD MSTORE PUSH1 0x18 PUSH1 0x24 DUP3 ADD MSTORE PUSH32 0x4552433732313A20696E76616C696420746F6B656E2049440000000000000000 PUSH1 0x44 DUP3 ADD MSTORE PUSH1 0x64 ADD PUSH2 0x753 JUMP JUMPDEST PUSH1 0x0 DUP2 DUP2 MSTORE PUSH1 0x4 PUSH1 0x20 MSTORE PUSH1 0x40 SWAP1 KECCAK256 DUP1 SLOAD PUSH1 0x1 PUSH1 0x1 PUSH1 0xA0 SHL SUB NOT AND PUSH1 0x1 PUSH1 0x1 PUSH1 0xA0 SHL SUB DUP5 AND SWAP1 DUP2 OR SWAP1 SWAP2 SSTORE DUP2 SWAP1 PUSH2 0x1E49 DUP3 PUSH2 0x117C JUMP JUMPDEST PUSH1 0x1 PUSH1 0x1 PUSH1 0xA0 SHL SUB AND PUSH32 0x8C5BE1E5EBEC7D5BD14F71427D1E84F3DD0314C0F7B2291E5B200AC8C7C3B925 PUSH1 0x40 MLOAD PUSH1 0x40 MLOAD DUP1 SWAP2 SUB SWAP1 LOG4 POP POP JUMP JUMPDEST PUSH1 0x0 DUP1 PUSH2 0x1E8E DUP4 PUSH2 0x117C JUMP JUMPDEST SWAP1 POP DUP1 PUSH1 0x1 PUSH1 0x1 PUSH1 0xA0 SHL SUB AND DUP5 PUSH1 0x1 PUSH1 0x1 PUSH1 0xA0 SHL SUB AND EQ DUP1 PUSH2 0x1ED5 JUMPI POP PUSH1 0x1 PUSH1 0x1 PUSH1 0xA0 SHL SUB DUP1 DUP3 AND PUSH1 0x0 SWAP1 DUP2 MSTORE PUSH1 0x5 PUSH1 0x20 SWAP1 DUP2 MSTORE PUSH1 0x40 DUP1 DUP4 KECCAK256 SWAP4 DUP9 AND DUP4 MSTORE SWAP3 SWAP1 MSTORE KECCAK256 SLOAD PUSH1 0xFF AND JUMPDEST DUP1 PUSH2 0x1EF9 JUMPI POP DUP4 PUSH1 0x1 PUSH1 0x1 PUSH1 0xA0 SHL SUB AND PUSH2 0x1EEE DUP5 PUSH2 0x69B JUMP JUMPDEST PUSH1 0x1 PUSH1 0x1 PUSH1 0xA0 SHL SUB AND EQ JUMPDEST SWAP5 SWAP4 POP POP POP POP JUMP JUMPDEST DUP3 PUSH1 0x1 PUSH1 0x1 PUSH1 0xA0 SHL SUB AND PUSH2 0x1F14 DUP3 PUSH2 0x117C JUMP JUMPDEST PUSH1 0x1 PUSH1 0x1 PUSH1 0xA0 SHL SUB AND EQ PUSH2 0x1F78 JUMPI PUSH1 0x40 MLOAD PUSH3 0x461BCD PUSH1 0xE5 SHL DUP2 MSTORE PUSH1 0x20 PUSH1 0x4 DUP3 ADD MSTORE PUSH1 0x25 PUSH1 0x24 DUP3 ADD MSTORE PUSH32 0x4552433732313A207472616E736665722066726F6D20696E636F727265637420 PUSH1 0x44 DUP3 ADD MSTORE PUSH5 0x37BBB732B9 PUSH1 0xD9 SHL PUSH1 0x64 DUP3 ADD MSTORE PUSH1 0x84 ADD PUSH2 0x753 JUMP JUMPDEST PUSH1 0x1 PUSH1 0x1 PUSH1 0xA0 SHL SUB DUP3 AND PUSH2 0x1FF3 JUMPI PUSH1 0x40 MLOAD PUSH3 0x461BCD PUSH1 0xE5 SHL DUP2 MSTORE PUSH1 0x20 PUSH1 0x4 DUP3 ADD MSTORE PUSH1 0x24 DUP1 DUP3 ADD MSTORE PUSH32 0x4552433732313A207472616E7366657220746F20746865207A65726F20616464 PUSH1 0x44 DUP3 ADD MSTORE PUSH32 0x7265737300000000000000000000000000000000000000000000000000000000 PUSH1 0x64 DUP3 ADD MSTORE PUSH1 0x84 ADD PUSH2 0x753 JUMP JUMPDEST PUSH2 0x2000 DUP4 DUP4 DUP4 PUSH1 0x1 PUSH2 0x2F22 JUMP JUMPDEST DUP3 PUSH1 0x1 PUSH1 0x1 PUSH1 0xA0 SHL SUB AND PUSH2 0x2013 DUP3 PUSH2 0x117C JUMP JUMPDEST PUSH1 0x1 PUSH1 0x1 PUSH1 0xA0 SHL SUB AND EQ PUSH2 0x2077 JUMPI PUSH1 0x40 MLOAD PUSH3 0x461BCD PUSH1 0xE5 SHL DUP2 MSTORE PUSH1 0x20 PUSH1 0x4 DUP3 ADD MSTORE PUSH1 0x25 PUSH1 0x24 DUP3 ADD MSTORE PUSH32 0x4552433732313A207472616E736665722066726F6D20696E636F727265637420 PUSH1 0x44 DUP3 ADD MSTORE PUSH5 0x37BBB732B9 PUSH1 0xD9 SHL PUSH1 0x64 DUP3 ADD MSTORE PUSH1 0x84 ADD PUSH2 0x753 JUMP JUMPDEST PUSH1 0x0 DUP2 DUP2 MSTORE PUSH1 0x4 PUSH1 0x20 SWAP1 DUP2 MSTORE PUSH1 0x40 DUP1 DUP4 KECCAK256 DUP1 SLOAD PUSH1 0x1 PUSH1 0x1 PUSH1 0xA0 SHL SUB NOT SWAP1 DUP2 AND SWAP1 SWAP2 SSTORE PUSH1 0x1 PUSH1 0x1 PUSH1 0xA0 SHL SUB DUP8 DUP2 AND DUP1 DUP7 MSTORE PUSH1 0x3 DUP6 MSTORE DUP4 DUP7 KECCAK256 DUP1 SLOAD PUSH1 0x0 NOT ADD SWAP1 SSTORE SWAP1 DUP8 AND DUP1 DUP7 MSTORE DUP4 DUP7 KECCAK256 DUP1 SLOAD PUSH1 0x1 ADD SWAP1 SSTORE DUP7 DUP7 MSTORE PUSH1 0x2 SWAP1 SWAP5 MSTORE DUP3 DUP6 KECCAK256 DUP1 SLOAD SWAP1 SWAP3 AND DUP5 OR SWAP1 SWAP2 SSTORE SWAP1 MLOAD DUP5 SWAP4 PUSH32 0xDDF252AD1BE2C89B69C2B068FC378DAA952BA7F163C4A11628F55A4DF523B3EF SWAP2 LOG4 POP POP POP JUMP JUMPDEST PUSH1 0x0 PUSH2 0x2112 DUP3 PUSH2 0x117C JUMP JUMPDEST SWAP1 POP PUSH2 0x2122 DUP2 PUSH1 0x0 DUP5 PUSH1 0x1 PUSH2 0x2F22 JUMP JUMPDEST PUSH2 0x212B DUP3 PUSH2 0x117C JUMP JUMPDEST PUSH1 0x0 DUP4 DUP2 MSTORE PUSH1 0x4 PUSH1 0x20 SWAP1 DUP2 MSTORE PUSH1 0x40 DUP1 DUP4 KECCAK256 DUP1 SLOAD PUSH1 0x1 PUSH1 0x1 PUSH1 0xA0 SHL SUB NOT SWAP1 DUP2 AND SWAP1 SWAP2 SSTORE PUSH1 0x1 PUSH1 0x1 PUSH1 0xA0 SHL SUB DUP6 AND DUP1 DUP6 MSTORE PUSH1 0x3 DUP5 MSTORE DUP3 DUP6 KECCAK256 DUP1 SLOAD PUSH1 0x0 NOT ADD SWAP1 SSTORE DUP8 DUP6 MSTORE PUSH1 0x2 SWAP1 SWAP4 MSTORE DUP2 DUP5 KECCAK256 DUP1 SLOAD SWAP1 SWAP2 AND SWAP1 SSTORE MLOAD SWAP3 SWAP4 POP DUP5 SWAP3 PUSH32 0xDDF252AD1BE2C89B69C2B068FC378DAA952BA7F163C4A11628F55A4DF523B3EF SWAP1 DUP4 SWAP1 LOG4 POP POP JUMP JUMPDEST PUSH2 0xD2A DUP3 DUP3 PUSH1 0x40 MLOAD DUP1 PUSH1 0x20 ADD PUSH1 0x40 MSTORE DUP1 PUSH1 0x0 DUP2 MSTORE POP PUSH2 0x305E JUMP JUMPDEST PUSH1 0x60 PUSH1 0xB DUP1 SLOAD PUSH2 0x618 SWAP1 PUSH2 0x3E2A JUMP JUMPDEST PUSH1 0x40 DUP1 MLOAD PUSH1 0xC0 DUP2 ADD DUP3 MSTORE PUSH1 0x2 DUP2 MSTORE PUSH1 0x3 PUSH1 0x20 DUP3 ADD MSTORE PUSH1 0x4 SWAP2 DUP2 ADD SWAP2 SWAP1 SWAP2 MSTORE PUSH1 0x5 PUSH1 0x60 DUP3 ADD MSTORE PUSH1 0x6 PUSH1 0x80 DUP3 ADD MSTORE PUSH1 0x7 PUSH1 0xA0 DUP3 ADD MSTORE PUSH1 0x0 SWAP1 DUP2 PUSH1 0xA DUP2 DUP1 JUMPDEST DUP8 DUP3 EQ PUSH2 0x22DB JUMPI DUP4 PUSH2 0x228F JUMPI PUSH2 0x2225 DUP4 DUP10 PUSH2 0x3F28 JUMP JUMPDEST SWAP2 POP PUSH1 0x0 PUSH2 0x2233 DUP5 DUP11 PUSH2 0x3F28 JUMP JUMPDEST SWAP1 POP DUP6 PUSH2 0x2241 PUSH1 0x6 DUP8 PUSH2 0x3F28 JUMP JUMPDEST PUSH1 0x6 DUP2 LT PUSH2 0x2251 JUMPI PUSH2 0x2251 PUSH2 0x3E65 JUMP JUMPDEST PUSH1 0x20 MUL ADD MLOAD PUSH2 0x2263 SWAP1 PUSH1 0xFF AND DUP3 PUSH2 0x3ED8 JUMP JUMPDEST PUSH2 0x226D SWAP1 DUP4 PUSH2 0x3E91 JUMP JUMPDEST SWAP2 POP PUSH2 0x227A PUSH1 0x1 DUP7 PUSH2 0x3E91 JUMP JUMPDEST SWAP5 POP PUSH2 0x2287 PUSH1 0xA DUP6 PUSH2 0x3ED8 JUMP JUMPDEST SWAP4 POP POP PUSH2 0x220F JUMP JUMPDEST PUSH2 0x2299 DUP4 DUP10 PUSH2 0x3F28 JUMP JUMPDEST SWAP2 POP PUSH1 0x0 PUSH2 0x22A8 PUSH1 0xA DUP6 PUSH2 0x3F3C JUMP JUMPDEST PUSH2 0x22B3 PUSH1 0xA DUP7 PUSH2 0x3F3C JUMP JUMPDEST PUSH2 0x22BD SWAP1 DUP12 PUSH2 0x3F28 JUMP JUMPDEST PUSH2 0x22C7 DUP7 DUP13 PUSH2 0x3F28 JUMP JUMPDEST PUSH2 0x22D1 SWAP2 SWAP1 PUSH2 0x3F50 JUMP JUMPDEST PUSH2 0x2233 SWAP2 SWAP1 PUSH2 0x3F3C JUMP JUMPDEST PUSH1 0x0 PUSH2 0x22E7 DUP9 DUP4 PUSH2 0x3F3C JUMP JUMPDEST SWAP1 POP PUSH1 0x0 DUP3 PUSH2 0x22F6 DUP11 DUP5 PUSH2 0x3ED8 JUMP JUMPDEST PUSH2 0x2300 SWAP1 DUP12 PUSH2 0x3E91 JUMP JUMPDEST PUSH2 0x230A SWAP2 SWAP1 PUSH2 0x3F50 JUMP JUMPDEST SWAP11 SWAP10 POP POP POP POP POP POP POP POP POP POP JUMP JUMPDEST PUSH1 0x60 PUSH1 0x0 PUSH2 0x2325 DUP4 PUSH2 0x30DC JUMP JUMPDEST PUSH1 0x1 ADD SWAP1 POP PUSH1 0x0 DUP2 PUSH8 0xFFFFFFFFFFFFFFFF DUP2 GT ISZERO PUSH2 0x2345 JUMPI PUSH2 0x2345 PUSH2 0x397F JUMP JUMPDEST PUSH1 0x40 MLOAD SWAP1 DUP1 DUP3 MSTORE DUP1 PUSH1 0x1F ADD PUSH1 0x1F NOT AND PUSH1 0x20 ADD DUP3 ADD PUSH1 0x40 MSTORE DUP1 ISZERO PUSH2 0x236F JUMPI PUSH1 0x20 DUP3 ADD DUP2 DUP1 CALLDATASIZE DUP4 CALLDATACOPY ADD SWAP1 POP JUMPDEST POP SWAP1 POP DUP2 DUP2 ADD PUSH1 0x20 ADD JUMPDEST PUSH1 0x0 NOT ADD PUSH32 0x3031323334353637383961626364656600000000000000000000000000000000 PUSH1 0xA DUP7 MOD BYTE DUP2 MSTORE8 PUSH1 0xA DUP6 DIV SWAP5 POP DUP5 PUSH2 0x23B5 JUMPI PUSH2 0x23BA JUMP JUMPDEST PUSH2 0x2379 JUMP JUMPDEST POP SWAP4 SWAP3 POP POP POP JUMP JUMPDEST DUP2 PUSH1 0x1 PUSH1 0x1 PUSH1 0xA0 SHL SUB AND DUP4 PUSH1 0x1 PUSH1 0x1 PUSH1 0xA0 SHL SUB AND EQ ISZERO PUSH2 0x2424 JUMPI PUSH1 0x40 MLOAD PUSH3 0x461BCD PUSH1 0xE5 SHL DUP2 MSTORE PUSH1 0x20 PUSH1 0x4 DUP3 ADD MSTORE PUSH1 0x19 PUSH1 0x24 DUP3 ADD MSTORE PUSH32 0x4552433732313A20617070726F766520746F2063616C6C657200000000000000 PUSH1 0x44 DUP3 ADD MSTORE PUSH1 0x64 ADD PUSH2 0x753 JUMP JUMPDEST PUSH1 0x1 PUSH1 0x1 PUSH1 0xA0 SHL SUB DUP4 DUP2 AND PUSH1 0x0 DUP2 DUP2 MSTORE PUSH1 0x5 PUSH1 0x20 SWAP1 DUP2 MSTORE PUSH1 0x40 DUP1 DUP4 KECCAK256 SWAP5 DUP8 AND DUP1 DUP5 MSTORE SWAP5 DUP3 MSTORE SWAP2 DUP3 SWAP1 KECCAK256 DUP1 SLOAD PUSH1 0xFF NOT AND DUP7 ISZERO ISZERO SWAP1 DUP2 OR SWAP1 SWAP2 SSTORE SWAP2 MLOAD SWAP2 DUP3 MSTORE PUSH32 0x17307EAB39AB6107E8899845AD3D59BD9653F200F220920489CA2B5937696C31 SWAP2 ADD PUSH1 0x40 MLOAD DUP1 SWAP2 SUB SWAP1 LOG3 POP POP POP JUMP JUMPDEST PUSH2 0x249C DUP5 DUP5 DUP5 PUSH2 0x1F01 JUMP JUMPDEST PUSH2 0x24A8 DUP5 DUP5 DUP5 DUP5 PUSH2 0x31BE JUMP JUMPDEST PUSH2 0x169C JUMPI PUSH1 0x40 MLOAD PUSH3 0x461BCD PUSH1 0xE5 SHL DUP2 MSTORE PUSH1 0x20 PUSH1 0x4 DUP3 ADD MSTORE PUSH1 0x32 PUSH1 0x24 DUP3 ADD MSTORE PUSH32 0x4552433732313A207472616E7366657220746F206E6F6E204552433732315265 PUSH1 0x44 DUP3 ADD MSTORE PUSH18 0x31B2B4BB32B91034B6B83632B6B2B73A32B9 PUSH1 0x71 SHL PUSH1 0x64 DUP3 ADD MSTORE PUSH1 0x84 ADD PUSH2 0x753 JUMP JUMPDEST PUSH1 0x40 DUP1 MLOAD PUSH1 0x6 DUP1 DUP3 MSTORE PUSH1 0xE0 DUP3 ADD SWAP1 SWAP3 MSTORE PUSH1 0x0 SWAP2 PUSH1 0x20 DUP3 ADD PUSH1 0xC0 DUP1 CALLDATASIZE DUP4 CALLDATACOPY ADD SWAP1 POP POP SWAP1 POP DUP4 DUP2 PUSH1 0x0 DUP2 MLOAD DUP2 LT PUSH2 0x2546 JUMPI PUSH2 0x2546 PUSH2 0x3E65 JUMP JUMPDEST PUSH1 0x20 MUL PUSH1 0x20 ADD ADD DUP2 DUP2 MSTORE POP POP DUP3 DUP2 PUSH1 0x1 DUP2 MLOAD DUP2 LT PUSH2 0x2566 JUMPI PUSH2 0x2566 PUSH2 0x3E65 JUMP JUMPDEST PUSH1 0x20 MUL PUSH1 0x20 ADD ADD DUP2 DUP2 MSTORE POP POP DUP2 DUP2 PUSH1 0x2 DUP2 MLOAD DUP2 LT PUSH2 0x2586 JUMPI PUSH2 0x2586 PUSH2 0x3E65 JUMP JUMPDEST PUSH1 0x20 SWAP1 DUP2 MUL SWAP2 SWAP1 SWAP2 ADD ADD MSTORE PUSH1 0x40 DUP1 MLOAD PUSH1 0x3 DUP1 DUP3 MSTORE PUSH1 0x80 DUP3 ADD SWAP1 SWAP3 MSTORE PUSH1 0x0 SWAP2 DUP2 PUSH1 0x20 ADD PUSH1 0x20 DUP3 MUL DUP1 CALLDATASIZE DUP4 CALLDATACOPY ADD SWAP1 POP POP SWAP1 POP PUSH1 0x0 DUP1 PUSH1 0x0 JUMPDEST PUSH1 0x3 DUP2 LT ISZERO PUSH2 0x26D7 JUMPI PUSH1 0x17 PUSH1 0x0 DUP7 DUP4 DUP2 MLOAD DUP2 LT PUSH2 0x25DB JUMPI PUSH2 0x25DB PUSH2 0x3E65 JUMP JUMPDEST PUSH1 0x20 MUL PUSH1 0x20 ADD ADD MLOAD DUP2 MSTORE PUSH1 0x20 ADD SWAP1 DUP2 MSTORE PUSH1 0x20 ADD PUSH1 0x0 KECCAK256 SLOAD PUSH1 0x0 EQ ISZERO PUSH2 0x263F JUMPI DUP5 DUP2 DUP2 MLOAD DUP2 LT PUSH2 0x260C JUMPI PUSH2 0x260C PUSH2 0x3E65 JUMP JUMPDEST PUSH1 0x20 MUL PUSH1 0x20 ADD ADD MLOAD DUP5 DUP5 DUP2 MLOAD DUP2 LT PUSH2 0x2626 JUMPI PUSH2 0x2626 PUSH2 0x3E65 JUMP JUMPDEST PUSH1 0x20 SWAP1 DUP2 MUL SWAP2 SWAP1 SWAP2 ADD ADD MSTORE DUP3 PUSH2 0x263B DUP2 PUSH2 0x3EF7 JUMP JUMPDEST SWAP4 POP POP JUMPDEST PUSH1 0x17 PUSH1 0x0 DUP7 DUP4 DUP2 MLOAD DUP2 LT PUSH2 0x2655 JUMPI PUSH2 0x2655 PUSH2 0x3E65 JUMP JUMPDEST PUSH1 0x20 MUL PUSH1 0x20 ADD ADD MLOAD DUP2 MSTORE PUSH1 0x20 ADD SWAP1 DUP2 MSTORE PUSH1 0x20 ADD PUSH1 0x0 KECCAK256 SLOAD PUSH1 0x1 EQ ISZERO PUSH2 0x26C5 JUMPI DUP5 DUP2 DUP2 MLOAD DUP2 LT PUSH2 0x2686 JUMPI PUSH2 0x2686 PUSH2 0x3E65 JUMP JUMPDEST PUSH1 0x20 MUL PUSH1 0x20 ADD ADD MLOAD DUP6 DUP4 PUSH1 0x3 PUSH2 0x269C SWAP2 SWAP1 PUSH2 0x3E91 JUMP JUMPDEST DUP2 MLOAD DUP2 LT PUSH2 0x26AC JUMPI PUSH2 0x26AC PUSH2 0x3E65 JUMP JUMPDEST PUSH1 0x20 SWAP1 DUP2 MUL SWAP2 SWAP1 SWAP2 ADD ADD MSTORE DUP2 PUSH2 0x26C1 DUP2 PUSH2 0x3EF7 JUMP JUMPDEST SWAP3 POP POP JUMPDEST DUP1 PUSH2 0x26CF DUP2 PUSH2 0x3EF7 JUMP JUMPDEST SWAP2 POP POP PUSH2 0x25BC JUMP JUMPDEST POP PUSH1 0x60 DUP3 ISZERO PUSH2 0x2755 JUMPI PUSH2 0x26E9 DUP9 PUSH2 0xDE9 JUMP JUMPDEST PUSH2 0x272E DUP6 PUSH1 0x1 PUSH2 0x2707 PUSH1 0xD SLOAD PUSH1 0x1 PUSH2 0x2701 SWAP2 SWAP1 PUSH2 0x3E91 JUMP JUMPDEST DUP9 PUSH2 0x21D3 JUMP JUMPDEST PUSH2 0x2711 SWAP2 SWAP1 PUSH2 0x3F50 JUMP JUMPDEST DUP2 MLOAD DUP2 LT PUSH2 0x2721 JUMPI PUSH2 0x2721 PUSH2 0x3E65 JUMP JUMPDEST PUSH1 0x20 MUL PUSH1 0x20 ADD ADD MLOAD PUSH2 0xDE9 JUMP JUMPDEST PUSH1 0x40 MLOAD PUSH1 0x20 ADD PUSH2 0x273F SWAP3 SWAP2 SWAP1 PUSH2 0x3EA9 JUMP JUMPDEST PUSH1 0x40 MLOAD PUSH1 0x20 DUP2 DUP4 SUB SUB DUP2 MSTORE SWAP1 PUSH1 0x40 MSTORE SWAP1 POP PUSH2 0x27A9 JUMP JUMPDEST PUSH2 0x275E DUP9 PUSH2 0xDE9 JUMP JUMPDEST PUSH2 0x2786 DUP7 PUSH1 0x1 PUSH2 0x2707 PUSH1 0xD SLOAD PUSH1 0x1 PUSH2 0x2776 SWAP2 SWAP1 PUSH2 0x3E91 JUMP JUMPDEST PUSH2 0x2781 DUP9 PUSH1 0x3 PUSH2 0x3E91 JUMP JUMPDEST PUSH2 0x21D3 JUMP JUMPDEST PUSH1 0x40 MLOAD PUSH1 0x20 ADD PUSH2 0x2797 SWAP3 SWAP2 SWAP1 PUSH2 0x3EA9 JUMP JUMPDEST PUSH1 0x40 MLOAD PUSH1 0x20 DUP2 DUP4 SUB SUB DUP2 MSTORE SWAP1 PUSH1 0x40 MSTORE SWAP1 POP JUMPDEST PUSH1 0x0 PUSH1 0x40 MLOAD DUP1 PUSH1 0x80 ADD PUSH1 0x40 MSTORE DUP1 PUSH1 0x4E DUP2 MSTORE PUSH1 0x20 ADD PUSH2 0x3FD7 PUSH1 0x4E SWAP2 CODECOPY SWAP1 POP PUSH1 0x0 PUSH1 0x40 MLOAD DUP1 PUSH1 0x40 ADD PUSH1 0x40 MSTORE DUP1 PUSH1 0x5 DUP2 MSTORE PUSH1 0x20 ADD PUSH5 0x173539B7B7 PUSH1 0xD9 SHL DUP2 MSTORE POP SWAP1 POP PUSH1 0x0 DUP3 DUP5 PUSH1 0x40 MLOAD PUSH1 0x20 ADD PUSH2 0x27FD SWAP3 SWAP2 SWAP1 PUSH2 0x3EA9 JUMP JUMPDEST PUSH1 0x40 DUP1 MLOAD PUSH1 0x1F NOT DUP2 DUP5 SUB ADD DUP2 MSTORE SWAP1 DUP3 SWAP1 MSTORE PUSH2 0x281C SWAP2 DUP5 SWAP1 PUSH1 0x20 ADD PUSH2 0x3EA9 JUMP JUMPDEST PUSH1 0x40 MLOAD PUSH1 0x20 DUP2 DUP4 SUB SUB DUP2 MSTORE SWAP1 PUSH1 0x40 MSTORE SWAP1 POP PUSH2 0x2837 DUP13 DUP3 PUSH2 0x3316 JUMP JUMPDEST PUSH1 0x40 DUP1 MLOAD PUSH1 0x60 DUP2 ADD DUP3 MSTORE DUP13 DUP2 MSTORE PUSH1 0x20 DUP1 DUP3 ADD DUP14 SWAP1 MSTORE DUP2 DUP4 ADD DUP13 SWAP1 MSTORE PUSH1 0xD SLOAD PUSH1 0x0 SWAP1 DUP2 MSTORE PUSH1 0x15 SWAP1 SWAP2 MSTORE SWAP2 SWAP1 SWAP2 KECCAK256 PUSH2 0x286E SWAP2 PUSH1 0x3 PUSH2 0x37FD JUMP JUMPDEST POP PUSH1 0xD SLOAD PUSH1 0x0 SWAP1 DUP2 MSTORE PUSH1 0x15 PUSH1 0x20 MSTORE PUSH1 0x40 SWAP1 DUP2 SWAP1 KECCAK256 DUP2 MLOAD PUSH1 0x60 DUP2 ADD SWAP3 DUP4 SWAP1 MSTORE PUSH2 0x28FA SWAP3 SWAP1 SWAP2 SWAP1 PUSH1 0x3 SWAP1 DUP3 DUP5 JUMPDEST DUP2 SLOAD DUP2 MSTORE PUSH1 0x20 ADD SWAP1 PUSH1 0x1 ADD SWAP1 DUP1 DUP4 GT PUSH2 0x2899 JUMPI POP POP POP POP POP DUP1 MLOAD PUSH1 0x0 SWAP1 DUP2 MSTORE PUSH1 0x16 PUSH1 0x20 SWAP1 DUP2 MSTORE PUSH1 0x40 DUP1 DUP4 KECCAK256 DUP1 SLOAD PUSH1 0xFF NOT SWAP1 DUP2 AND PUSH1 0x1 SWAP1 DUP2 OR SWAP1 SWAP3 SSTORE SWAP3 DUP6 ADD MLOAD DUP5 MSTORE DUP2 DUP5 KECCAK256 DUP1 SLOAD DUP5 AND DUP3 OR SWAP1 SSTORE SWAP4 DUP2 ADD MLOAD DUP4 MSTORE SWAP1 SWAP2 KECCAK256 DUP1 SLOAD SWAP1 SWAP2 AND SWAP1 SWAP2 OR SWAP1 SSTORE JUMP JUMPDEST PUSH1 0xD SLOAD PUSH1 0x0 SWAP1 DUP2 MSTORE PUSH1 0x13 PUSH1 0x20 SWAP1 DUP2 MSTORE PUSH1 0x40 SWAP1 SWAP2 KECCAK256 DUP6 MLOAD PUSH2 0x291C SWAP3 DUP8 ADD SWAP1 PUSH2 0x36C4 JUMP JUMPDEST POP POP PUSH1 0xD DUP1 SLOAD PUSH1 0x0 SWAP1 DUP2 MSTORE PUSH1 0x10 PUSH1 0x20 SWAP1 DUP2 MSTORE PUSH1 0x40 DUP1 DUP4 KECCAK256 DUP1 SLOAD PUSH1 0x2 PUSH1 0xFF NOT SWAP2 DUP3 AND OR SWAP1 SWAP2 SSTORE SWAP14 DUP4 MSTORE PUSH1 0xF SWAP1 SWAP2 MSTORE DUP1 DUP3 KECCAK256 SLOAD SWAP3 SLOAD DUP3 MSTORE SWAP1 KECCAK256 DUP1 SLOAD SWAP1 SWAP12 AND PUSH1 0xFF SWAP1 SWAP2 AND ISZERO ISZERO OR SWAP1 SWAP10 SSTORE POP POP POP POP POP POP POP POP POP POP JUMP JUMPDEST PUSH1 0x40 DUP1 MLOAD PUSH1 0x12 DUP1 DUP3 MSTORE PUSH2 0x260 DUP3 ADD SWAP1 SWAP3 MSTORE PUSH1 0x0 SWAP2 PUSH1 0x20 DUP3 ADD PUSH2 0x240 DUP1 CALLDATASIZE DUP4 CALLDATACOPY ADD SWAP1 POP POP PUSH1 0x0 DUP6 DUP2 MSTORE PUSH1 0x15 PUSH1 0x20 MSTORE PUSH1 0x40 DUP2 KECCAK256 SWAP2 SWAP3 POP ADD SLOAD DUP2 PUSH1 0x0 DUP2 MLOAD DUP2 LT PUSH2 0x29B8 JUMPI PUSH2 0x29B8 PUSH2 0x3E65 JUMP JUMPDEST PUSH1 0x20 SWAP1 DUP2 MUL SWAP2 SWAP1 SWAP2 ADD DUP2 ADD SWAP2 SWAP1 SWAP2 MSTORE PUSH1 0x0 DUP5 DUP2 MSTORE PUSH1 0x15 SWAP1 SWAP2 MSTORE PUSH1 0x40 DUP2 KECCAK256 ADD SLOAD DUP2 PUSH1 0x1 DUP2 MLOAD DUP2 LT PUSH2 0x29EA JUMPI PUSH2 0x29EA PUSH2 0x3E65 JUMP JUMPDEST PUSH1 0x20 SWAP1 DUP2 MUL SWAP2 SWAP1 SWAP2 ADD DUP2 ADD SWAP2 SWAP1 SWAP2 MSTORE PUSH1 0x0 DUP4 DUP2 MSTORE PUSH1 0x15 SWAP1 SWAP2 MSTORE PUSH1 0x40 DUP2 KECCAK256 ADD SLOAD DUP2 PUSH1 0x2 DUP2 MLOAD DUP2 LT PUSH2 0x2A1C JUMPI PUSH2 0x2A1C PUSH2 0x3E65 JUMP JUMPDEST PUSH1 0x20 SWAP1 DUP2 MUL SWAP2 SWAP1 SWAP2 ADD DUP2 ADD SWAP2 SWAP1 SWAP2 MSTORE PUSH1 0x0 DUP6 DUP2 MSTORE PUSH1 0x15 SWAP1 SWAP2 MSTORE PUSH1 0x40 SWAP1 KECCAK256 PUSH1 0x1 ADD SLOAD DUP2 PUSH1 0x3 DUP2 MLOAD DUP2 LT PUSH2 0x2A50 JUMPI PUSH2 0x2A50 PUSH2 0x3E65 JUMP JUMPDEST PUSH1 0x20 SWAP1 DUP2 MUL SWAP2 SWAP1 SWAP2 ADD DUP2 ADD SWAP2 SWAP1 SWAP2 MSTORE PUSH1 0x0 DUP5 DUP2 MSTORE PUSH1 0x15 SWAP1 SWAP2 MSTORE PUSH1 0x40 SWAP1 KECCAK256 PUSH1 0x1 ADD SLOAD DUP2 PUSH1 0x4 DUP2 MLOAD DUP2 LT PUSH2 0x2A84 JUMPI PUSH2 0x2A84 PUSH2 0x3E65 JUMP JUMPDEST PUSH1 0x20 SWAP1 DUP2 MUL SWAP2 SWAP1 SWAP2 ADD DUP2 ADD SWAP2 SWAP1 SWAP2 MSTORE PUSH1 0x0 DUP4 DUP2 MSTORE PUSH1 0x15 SWAP1 SWAP2 MSTORE PUSH1 0x40 SWAP1 KECCAK256 PUSH1 0x1 ADD SLOAD DUP2 PUSH1 0x5 DUP2 MLOAD DUP2 LT PUSH2 0x2AB8 JUMPI PUSH2 0x2AB8 PUSH2 0x3E65 JUMP JUMPDEST PUSH1 0x20 SWAP1 DUP2 MUL SWAP2 SWAP1 SWAP2 ADD DUP2 ADD SWAP2 SWAP1 SWAP2 MSTORE PUSH1 0x0 DUP6 DUP2 MSTORE PUSH1 0x15 SWAP1 SWAP2 MSTORE PUSH1 0x40 SWAP1 KECCAK256 PUSH1 0x2 ADD SLOAD DUP2 PUSH1 0x6 DUP2 MLOAD DUP2 LT PUSH2 0x2AEC JUMPI PUSH2 0x2AEC PUSH2 0x3E65 JUMP JUMPDEST PUSH1 0x20 SWAP1 DUP2 MUL SWAP2 SWAP1 SWAP2 ADD DUP2 ADD SWAP2 SWAP1 SWAP2 MSTORE PUSH1 0x0 DUP5 DUP2 MSTORE PUSH1 0x15 SWAP1 SWAP2 MSTORE PUSH1 0x40 SWAP1 KECCAK256 PUSH1 0x2 ADD SLOAD DUP2 PUSH1 0x7 DUP2 MLOAD DUP2 LT PUSH2 0x2B20 JUMPI PUSH2 0x2B20 PUSH2 0x3E65 JUMP JUMPDEST PUSH1 0x20 SWAP1 DUP2 MUL SWAP2 SWAP1 SWAP2 ADD DUP2 ADD SWAP2 SWAP1 SWAP2 MSTORE PUSH1 0x0 DUP4 DUP2 MSTORE PUSH1 0x15 SWAP1 SWAP2 MSTORE PUSH1 0x40 SWAP1 KECCAK256 PUSH1 0x2 ADD SLOAD DUP2 PUSH1 0x8 DUP2 MLOAD DUP2 LT PUSH2 0x2B54 JUMPI PUSH2 0x2B54 PUSH2 0x3E65 JUMP JUMPDEST PUSH1 0x20 SWAP1 DUP2 MUL SWAP2 SWAP1 SWAP2 ADD ADD MSTORE PUSH1 0x40 DUP1 MLOAD PUSH1 0x9 DUP1 DUP3 MSTORE PUSH2 0x140 DUP3 ADD SWAP1 SWAP3 MSTORE PUSH1 0x0 SWAP2 DUP2 PUSH1 0x20 ADD PUSH1 0x20 DUP3 MUL DUP1 CALLDATASIZE DUP4 CALLDATACOPY ADD SWAP1 POP POP SWAP1 POP PUSH1 0x0 DUP1 PUSH1 0x0 JUMPDEST PUSH1 0x9 DUP2 LT ISZERO PUSH2 0x2CA6 JUMPI PUSH1 0x17 PUSH1 0x0 DUP7 DUP4 DUP2 MLOAD DUP2 LT PUSH2 0x2BAA JUMPI PUSH2 0x2BAA PUSH2 0x3E65 JUMP JUMPDEST PUSH1 0x20 MUL PUSH1 0x20 ADD ADD MLOAD DUP2 MSTORE PUSH1 0x20 ADD SWAP1 DUP2 MSTORE PUSH1 0x20 ADD PUSH1 0x0 KECCAK256 SLOAD PUSH1 0x0 EQ ISZERO PUSH2 0x2C0E JUMPI DUP5 DUP2 DUP2 MLOAD DUP2 LT PUSH2 0x2BDB JUMPI PUSH2 0x2BDB PUSH2 0x3E65 JUMP JUMPDEST PUSH1 0x20 MUL PUSH1 0x20 ADD ADD MLOAD DUP5 DUP5 DUP2 MLOAD DUP2 LT PUSH2 0x2BF5 JUMPI PUSH2 0x2BF5 PUSH2 0x3E65 JUMP JUMPDEST PUSH1 0x20 SWAP1 DUP2 MUL SWAP2 SWAP1 SWAP2 ADD ADD MSTORE DUP3 PUSH2 0x2C0A DUP2 PUSH2 0x3EF7 JUMP JUMPDEST SWAP4 POP POP JUMPDEST PUSH1 0x17 PUSH1 0x0 DUP7 DUP4 DUP2 MLOAD DUP2 LT PUSH2 0x2C24 JUMPI PUSH2 0x2C24 PUSH2 0x3E65 JUMP JUMPDEST PUSH1 0x20 MUL PUSH1 0x20 ADD ADD MLOAD DUP2 MSTORE PUSH1 0x20 ADD SWAP1 DUP2 MSTORE PUSH1 0x20 ADD PUSH1 0x0 KECCAK256 SLOAD PUSH1 0x1 EQ ISZERO PUSH2 0x2C94 JUMPI DUP5 DUP2 DUP2 MLOAD DUP2 LT PUSH2 0x2C55 JUMPI PUSH2 0x2C55 PUSH2 0x3E65 JUMP JUMPDEST PUSH1 0x20 MUL PUSH1 0x20 ADD ADD MLOAD DUP6 DUP4 PUSH1 0x9 PUSH2 0x2C6B SWAP2 SWAP1 PUSH2 0x3E91 JUMP JUMPDEST DUP2 MLOAD DUP2 LT PUSH2 0x2C7B JUMPI PUSH2 0x2C7B PUSH2 0x3E65 JUMP JUMPDEST PUSH1 0x20 SWAP1 DUP2 MUL SWAP2 SWAP1 SWAP2 ADD ADD MSTORE DUP2 PUSH2 0x2C90 DUP2 PUSH2 0x3EF7 JUMP JUMPDEST SWAP3 POP POP JUMPDEST DUP1 PUSH2 0x2C9E DUP2 PUSH2 0x3EF7 JUMP JUMPDEST SWAP2 POP POP PUSH2 0x2B8B JUMP JUMPDEST POP PUSH1 0x60 DUP3 ISZERO PUSH2 0x2CF7 JUMPI PUSH2 0x2CB8 DUP9 PUSH2 0xDE9 JUMP JUMPDEST PUSH2 0x2CD0 DUP6 PUSH1 0x1 PUSH2 0x2707 PUSH1 0xD SLOAD PUSH1 0x1 PUSH2 0x2701 SWAP2 SWAP1 PUSH2 0x3E91 JUMP JUMPDEST PUSH1 0x40 MLOAD PUSH1 0x20 ADD PUSH2 0x2CE1 SWAP3 SWAP2 SWAP1 PUSH2 0x3EA9 JUMP JUMPDEST PUSH1 0x40 MLOAD PUSH1 0x20 DUP2 DUP4 SUB SUB DUP2 MSTORE SWAP1 PUSH1 0x40 MSTORE SWAP1 POP PUSH2 0x2D46 JUMP JUMPDEST PUSH2 0x2D00 DUP9 PUSH2 0xDE9 JUMP JUMPDEST PUSH2 0x2D23 DUP7 PUSH1 0x1 PUSH2 0x2707 PUSH1 0xD SLOAD PUSH1 0x1 PUSH2 0x2D18 SWAP2 SWAP1 PUSH2 0x3E91 JUMP JUMPDEST PUSH2 0x2781 DUP9 PUSH1 0x9 PUSH2 0x3E91 JUMP JUMPDEST PUSH1 0x40 MLOAD PUSH1 0x20 ADD PUSH2 0x2D34 SWAP3 SWAP2 SWAP1 PUSH2 0x3EA9 JUMP JUMPDEST PUSH1 0x40 MLOAD PUSH1 0x20 DUP2 DUP4 SUB SUB DUP2 MSTORE SWAP1 PUSH1 0x40 MSTORE SWAP1 POP JUMPDEST PUSH1 0x0 PUSH1 0x40 MLOAD DUP1 PUSH1 0x80 ADD PUSH1 0x40 MSTORE DUP1 PUSH1 0x44 DUP2 MSTORE PUSH1 0x20 ADD PUSH2 0x4025 PUSH1 0x44 SWAP2 CODECOPY SWAP1 POP PUSH1 0x0 PUSH1 0x40 MLOAD DUP1 PUSH1 0x40 ADD PUSH1 0x40 MSTORE DUP1 PUSH1 0x4 DUP2 MSTORE PUSH1 0x20 ADD PUSH32 0x2E706E6700000000000000000000000000000000000000000000000000000000 DUP2 MSTORE POP SWAP1 POP PUSH1 0x0 DUP3 DUP5 PUSH1 0x40 MLOAD PUSH1 0x20 ADD PUSH2 0x2DB2 SWAP3 SWAP2 SWAP1 PUSH2 0x3EA9 JUMP JUMPDEST PUSH1 0x40 DUP1 MLOAD PUSH1 0x1F NOT DUP2 DUP5 SUB ADD DUP2 MSTORE SWAP1 DUP3 SWAP1 MSTORE PUSH2 0x2DD1 SWAP2 DUP5 SWAP1 PUSH1 0x20 ADD PUSH2 0x3EA9 JUMP JUMPDEST PUSH1 0x40 MLOAD PUSH1 0x20 DUP2 DUP4 SUB SUB DUP2 MSTORE SWAP1 PUSH1 0x40 MSTORE SWAP1 POP PUSH2 0x2DEC DUP13 DUP3 PUSH2 0x3316 JUMP JUMPDEST PUSH1 0x40 DUP1 MLOAD PUSH1 0x60 DUP2 ADD DUP3 MSTORE DUP13 DUP2 MSTORE PUSH1 0x20 DUP1 DUP3 ADD DUP14 SWAP1 MSTORE DUP2 DUP4 ADD DUP13 SWAP1 MSTORE PUSH1 0xD SLOAD PUSH1 0x0 SWAP1 DUP2 MSTORE PUSH1 0x15 SWAP1 SWAP2 MSTORE SWAP2 SWAP1 SWAP2 KECCAK256 PUSH2 0x2E23 SWAP2 PUSH1 0x3 PUSH2 0x37FD JUMP JUMPDEST POP PUSH1 0xD SLOAD PUSH1 0x0 SWAP1 DUP2 MSTORE PUSH1 0x15 PUSH1 0x20 SWAP1 DUP2 MSTORE PUSH1 0x40 SWAP2 DUP3 SWAP1 KECCAK256 DUP3 MLOAD PUSH1 0x60 DUP2 ADD SWAP4 DUP5 SWAP1 MSTORE DUP2 SLOAD DUP2 MSTORE PUSH2 0x2EAD SWAP4 SWAP1 SWAP3 PUSH1 0x3 SWAP2 SWAP1 PUSH1 0x1 DUP5 ADD SWAP1 DUP6 ADD DUP1 DUP4 GT PUSH2 0x2899 JUMPI POP POP POP POP POP DUP1 MLOAD PUSH1 0x0 SWAP1 DUP2 MSTORE PUSH1 0x16 PUSH1 0x20 SWAP1 DUP2 MSTORE PUSH1 0x40 DUP1 DUP4 KECCAK256 DUP1 SLOAD PUSH1 0xFF NOT SWAP1 DUP2 AND PUSH1 0x1 SWAP1 DUP2 OR SWAP1 SWAP3 SSTORE SWAP3 DUP6 ADD MLOAD DUP5 MSTORE DUP2 DUP5 KECCAK256 DUP1 SLOAD DUP5 AND DUP3 OR SWAP1 SSTORE SWAP4 DUP2 ADD MLOAD DUP4 MSTORE SWAP1 SWAP2 KECCAK256 DUP1 SLOAD SWAP1 SWAP2 AND SWAP1 SWAP2 OR SWAP1 SSTORE JUMP JUMPDEST PUSH1 0xD SLOAD PUSH1 0x0 SWAP1 DUP2 MSTORE PUSH1 0x13 PUSH1 0x20 SWAP1 DUP2 MSTORE PUSH1 0x40 SWAP1 SWAP2 KECCAK256 DUP6 MLOAD PUSH2 0x2ECF SWAP3 DUP8 ADD SWAP1 PUSH2 0x36C4 JUMP JUMPDEST POP POP PUSH1 0xD DUP1 SLOAD PUSH1 0x0 SWAP1 DUP2 MSTORE PUSH1 0x10 PUSH1 0x20 SWAP1 DUP2 MSTORE PUSH1 0x40 DUP1 DUP4 KECCAK256 DUP1 SLOAD PUSH1 0x3 PUSH1 0xFF NOT SWAP2 DUP3 AND OR SWAP1 SWAP2 SSTORE SWAP14 DUP4 MSTORE PUSH1 0xF SWAP1 SWAP2 MSTORE DUP1 DUP3 KECCAK256 SLOAD SWAP3 SLOAD DUP3 MSTORE SWAP1 KECCAK256 DUP1 SLOAD SWAP1 SWAP12 AND PUSH1 0xFF SWAP1 SWAP2 AND ISZERO ISZERO OR SWAP1 SWAP10 SSTORE POP POP POP POP POP POP POP POP POP POP JUMP JUMPDEST PUSH1 0x1 DUP2 GT ISZERO PUSH2 0x2F99 JUMPI PUSH1 0x40 MLOAD PUSH3 0x461BCD PUSH1 0xE5 SHL DUP2 MSTORE PUSH1 0x20 PUSH1 0x4 DUP3 ADD MSTORE PUSH1 0x35 PUSH1 0x24 DUP3 ADD MSTORE PUSH32 0x455243373231456E756D657261626C653A20636F6E7365637574697665207472 PUSH1 0x44 DUP3 ADD MSTORE PUSH32 0x616E7366657273206E6F7420737570706F727465640000000000000000000000 PUSH1 0x64 DUP3 ADD MSTORE PUSH1 0x84 ADD PUSH2 0x753 JUMP JUMPDEST DUP2 PUSH1 0x1 PUSH1 0x1 PUSH1 0xA0 SHL SUB DUP6 AND PUSH2 0x2FF5 JUMPI PUSH2 0x2FF0 DUP2 PUSH1 0x8 DUP1 SLOAD PUSH1 0x0 DUP4 DUP2 MSTORE PUSH1 0x9 PUSH1 0x20 MSTORE PUSH1 0x40 DUP2 KECCAK256 DUP3 SWAP1 SSTORE PUSH1 0x1 DUP3 ADD DUP4 SSTORE SWAP2 SWAP1 SWAP2 MSTORE PUSH32 0xF3F7A9FE364FAAB93B216DA50A3214154F22A0A2B415B23A84C8169E8B636EE3 ADD SSTORE JUMP JUMPDEST PUSH2 0x3018 JUMP JUMPDEST DUP4 PUSH1 0x1 PUSH1 0x1 PUSH1 0xA0 SHL SUB AND DUP6 PUSH1 0x1 PUSH1 0x1 PUSH1 0xA0 SHL SUB AND EQ PUSH2 0x3018 JUMPI PUSH2 0x3018 DUP6 DUP3 PUSH2 0x339B JUMP JUMPDEST PUSH1 0x1 PUSH1 0x1 PUSH1 0xA0 SHL SUB DUP5 AND PUSH2 0x3034 JUMPI PUSH2 0x302F DUP2 PUSH2 0x3438 JUMP JUMPDEST PUSH2 0x3057 JUMP JUMPDEST DUP5 PUSH1 0x1 PUSH1 0x1 PUSH1 0xA0 SHL SUB AND DUP5 PUSH1 0x1 PUSH1 0x1 PUSH1 0xA0 SHL SUB AND EQ PUSH2 0x3057 JUMPI PUSH2 0x3057 DUP5 DUP3 PUSH2 0x34E7 JUMP JUMPDEST POP POP POP POP POP JUMP JUMPDEST PUSH2 0x3068 DUP4 DUP4 PUSH2 0x352B JUMP JUMPDEST PUSH2 0x3075 PUSH1 0x0 DUP5 DUP5 DUP5 PUSH2 0x31BE JUMP JUMPDEST PUSH2 0x7F4 JUMPI PUSH1 0x40 MLOAD PUSH3 0x461BCD PUSH1 0xE5 SHL DUP2 MSTORE PUSH1 0x20 PUSH1 0x4 DUP3 ADD MSTORE PUSH1 0x32 PUSH1 0x24 DUP3 ADD MSTORE PUSH32 0x4552433732313A207472616E7366657220746F206E6F6E204552433732315265 PUSH1 0x44 DUP3 ADD MSTORE PUSH18 0x31B2B4BB32B91034B6B83632B6B2B73A32B9 PUSH1 0x71 SHL PUSH1 0x64 DUP3 ADD MSTORE PUSH1 0x84 ADD PUSH2 0x753 JUMP JUMPDEST PUSH1 0x0 DUP1 PUSH27 0x184F03E93FF9F4DAA797ED6E38ED64BF6A1F010000000000000000 DUP4 LT PUSH2 0x3125 JUMPI PUSH27 0x184F03E93FF9F4DAA797ED6E38ED64BF6A1F010000000000000000 DUP4 DIV SWAP3 POP PUSH1 0x40 ADD JUMPDEST PUSH14 0x4EE2D6D415B85ACEF8100000000 DUP4 LT PUSH2 0x3151 JUMPI PUSH14 0x4EE2D6D415B85ACEF8100000000 DUP4 DIV SWAP3 POP PUSH1 0x20 ADD JUMPDEST PUSH7 0x2386F26FC10000 DUP4 LT PUSH2 0x316F JUMPI PUSH7 0x2386F26FC10000 DUP4 DIV SWAP3 POP PUSH1 0x10 ADD JUMPDEST PUSH4 0x5F5E100 DUP4 LT PUSH2 0x3187 JUMPI PUSH4 0x5F5E100 DUP4 DIV SWAP3 POP PUSH1 0x8 ADD JUMPDEST PUSH2 0x2710 DUP4 LT PUSH2 0x319B JUMPI PUSH2 0x2710 DUP4 DIV SWAP3 POP PUSH1 0x4 ADD JUMPDEST PUSH1 0x64 DUP4 LT PUSH2 0x31AD JUMPI PUSH1 0x64 DUP4 DIV SWAP3 POP PUSH1 0x2 ADD JUMPDEST PUSH1 0xA DUP4 LT PUSH2 0x603 JUMPI PUSH1 0x1 ADD SWAP3 SWAP2 POP POP JUMP JUMPDEST PUSH1 0x0 PUSH1 0x1 PUSH1 0x1 PUSH1 0xA0 SHL SUB DUP5 AND EXTCODESIZE ISZERO PUSH2 0x330B JUMPI PUSH1 0x40 MLOAD PUSH4 0xA85BD01 PUSH1 0xE1 SHL DUP2 MSTORE PUSH1 0x1 PUSH1 0x1 PUSH1 0xA0 SHL SUB DUP6 AND SWAP1 PUSH4 0x150B7A02 SWAP1 PUSH2 0x3202 SWAP1 CALLER SWAP1 DUP10 SWAP1 DUP9 SWAP1 DUP9 SWAP1 PUSH1 0x4 ADD PUSH2 0x3F67 JUMP JUMPDEST PUSH1 0x20 PUSH1 0x40 MLOAD DUP1 DUP4 SUB DUP2 PUSH1 0x0 DUP8 DUP1 EXTCODESIZE ISZERO DUP1 ISZERO PUSH2 0x321C JUMPI PUSH1 0x0 DUP1 REVERT JUMPDEST POP GAS CALL SWAP3 POP POP POP DUP1 ISZERO PUSH2 0x324C JUMPI POP PUSH1 0x40 DUP1 MLOAD PUSH1 0x1F RETURNDATASIZE SWAP1 DUP2 ADD PUSH1 0x1F NOT AND DUP3 ADD SWAP1 SWAP3 MSTORE PUSH2 0x3249 SWAP2 DUP2 ADD SWAP1 PUSH2 0x3FA3 JUMP JUMPDEST PUSH1 0x1 JUMPDEST PUSH2 0x32F1 JUMPI RETURNDATASIZE DUP1 DUP1 ISZERO PUSH2 0x327A JUMPI PUSH1 0x40 MLOAD SWAP2 POP PUSH1 0x1F NOT PUSH1 0x3F RETURNDATASIZE ADD AND DUP3 ADD PUSH1 0x40 MSTORE RETURNDATASIZE DUP3 MSTORE RETURNDATASIZE PUSH1 0x0 PUSH1 0x20 DUP5 ADD RETURNDATACOPY PUSH2 0x327F JUMP JUMPDEST PUSH1 0x60 SWAP2 POP JUMPDEST POP DUP1 MLOAD PUSH2 0x32E9 JUMPI PUSH1 0x40 MLOAD PUSH3 0x461BCD PUSH1 0xE5 SHL DUP2 MSTORE PUSH1 0x20 PUSH1 0x4 DUP3 ADD MSTORE PUSH1 0x32 PUSH1 0x24 DUP3 ADD MSTORE PUSH32 0x4552433732313A207472616E7366657220746F206E6F6E204552433732315265 PUSH1 0x44 DUP3 ADD MSTORE PUSH18 0x31B2B4BB32B91034B6B83632B6B2B73A32B9 PUSH1 0x71 SHL PUSH1 0x64 DUP3 ADD MSTORE PUSH1 0x84 ADD PUSH2 0x753 JUMP JUMPDEST DUP1 MLOAD DUP2 PUSH1 0x20 ADD REVERT JUMPDEST PUSH1 0x1 PUSH1 0x1 PUSH1 0xE0 SHL SUB NOT AND PUSH4 0xA85BD01 PUSH1 0xE1 SHL EQ SWAP1 POP PUSH2 0x1EF9 JUMP JUMPDEST POP PUSH1 0x1 SWAP5 SWAP4 POP POP POP POP JUMP JUMPDEST PUSH1 0x0 PUSH1 0xD SLOAD PUSH1 0x1 PUSH2 0x3327 SWAP2 SWAP1 PUSH2 0x3E91 JUMP JUMPDEST SWAP1 POP PUSH2 0x3333 DUP4 DUP3 PUSH2 0x21AA JUMP JUMPDEST PUSH1 0x1C SLOAD PUSH2 0x3349 SWAP1 PUSH1 0x1 PUSH1 0x1 PUSH1 0xA0 SHL SUB AND DUP3 PUSH2 0x6C2 JUMP JUMPDEST PUSH1 0x0 DUP2 DUP2 MSTORE PUSH1 0xA PUSH1 0x20 SWAP1 DUP2 MSTORE PUSH1 0x40 SWAP1 SWAP2 KECCAK256 DUP4 MLOAD DUP5 SWAP3 PUSH2 0x336C SWAP3 SWAP2 SWAP1 DUP5 ADD SWAP1 PUSH2 0x36C4 JUMP JUMPDEST POP PUSH1 0x11 SLOAD PUSH1 0x0 DUP4 DUP2 MSTORE PUSH1 0x12 PUSH1 0x20 MSTORE PUSH1 0x40 DUP2 KECCAK256 SWAP2 SWAP1 SWAP2 SSTORE PUSH1 0xD DUP1 SLOAD SWAP2 PUSH2 0x3390 DUP4 PUSH2 0x3EF7 JUMP JUMPDEST SWAP2 SWAP1 POP SSTORE POP POP POP POP POP JUMP JUMPDEST PUSH1 0x0 PUSH1 0x1 PUSH2 0x33A8 DUP5 PUSH2 0x142A JUMP JUMPDEST PUSH2 0x33B2 SWAP2 SWAP1 PUSH2 0x3F50 JUMP JUMPDEST PUSH1 0x0 DUP4 DUP2 MSTORE PUSH1 0x7 PUSH1 0x20 MSTORE PUSH1 0x40 SWAP1 KECCAK256 SLOAD SWAP1 SWAP2 POP DUP1 DUP3 EQ PUSH2 0x3405 JUMPI PUSH1 0x1 PUSH1 0x1 PUSH1 0xA0 SHL SUB DUP5 AND PUSH1 0x0 SWAP1 DUP2 MSTORE PUSH1 0x6 PUSH1 0x20 SWAP1 DUP2 MSTORE PUSH1 0x40 DUP1 DUP4 KECCAK256 DUP6 DUP5 MSTORE DUP3 MSTORE DUP1 DUP4 KECCAK256 SLOAD DUP5 DUP5 MSTORE DUP2 DUP5 KECCAK256 DUP2 SWAP1 SSTORE DUP4 MSTORE PUSH1 0x7 SWAP1 SWAP2 MSTORE SWAP1 KECCAK256 DUP2 SWAP1 SSTORE JUMPDEST POP PUSH1 0x0 SWAP2 DUP3 MSTORE PUSH1 0x7 PUSH1 0x20 SWAP1 DUP2 MSTORE PUSH1 0x40 DUP1 DUP5 KECCAK256 DUP5 SWAP1 SSTORE PUSH1 0x1 PUSH1 0x1 PUSH1 0xA0 SHL SUB SWAP1 SWAP5 AND DUP4 MSTORE PUSH1 0x6 DUP2 MSTORE DUP4 DUP4 KECCAK256 SWAP2 DUP4 MSTORE MSTORE SWAP1 DUP2 KECCAK256 SSTORE JUMP JUMPDEST PUSH1 0x8 SLOAD PUSH1 0x0 SWAP1 PUSH2 0x344A SWAP1 PUSH1 0x1 SWAP1 PUSH2 0x3F50 JUMP JUMPDEST PUSH1 0x0 DUP4 DUP2 MSTORE PUSH1 0x9 PUSH1 0x20 MSTORE PUSH1 0x40 DUP2 KECCAK256 SLOAD PUSH1 0x8 DUP1 SLOAD SWAP4 SWAP5 POP SWAP1 SWAP3 DUP5 SWAP1 DUP2 LT PUSH2 0x3472 JUMPI PUSH2 0x3472 PUSH2 0x3E65 JUMP JUMPDEST SWAP1 PUSH1 0x0 MSTORE PUSH1 0x20 PUSH1 0x0 KECCAK256 ADD SLOAD SWAP1 POP DUP1 PUSH1 0x8 DUP4 DUP2 SLOAD DUP2 LT PUSH2 0x3493 JUMPI PUSH2 0x3493 PUSH2 0x3E65 JUMP JUMPDEST PUSH1 0x0 SWAP2 DUP3 MSTORE PUSH1 0x20 DUP1 DUP4 KECCAK256 SWAP1 SWAP2 ADD SWAP3 SWAP1 SWAP3 SSTORE DUP3 DUP2 MSTORE PUSH1 0x9 SWAP1 SWAP2 MSTORE PUSH1 0x40 DUP1 DUP3 KECCAK256 DUP5 SWAP1 SSTORE DUP6 DUP3 MSTORE DUP2 KECCAK256 SSTORE PUSH1 0x8 DUP1 SLOAD DUP1 PUSH2 0x34CB JUMPI PUSH2 0x34CB PUSH2 0x3FC0 JUMP JUMPDEST PUSH1 0x1 SWAP1 SUB DUP2 DUP2 SWAP1 PUSH1 0x0 MSTORE PUSH1 0x20 PUSH1 0x0 KECCAK256 ADD PUSH1 0x0 SWAP1 SSTORE SWAP1 SSTORE POP POP POP POP JUMP JUMPDEST PUSH1 0x0 PUSH2 0x34F2 DUP4 PUSH2 0x142A JUMP JUMPDEST PUSH1 0x1 PUSH1 0x1 PUSH1 0xA0 SHL SUB SWAP1 SWAP4 AND PUSH1 0x0 SWAP1 DUP2 MSTORE PUSH1 0x6 PUSH1 0x20 SWAP1 DUP2 MSTORE PUSH1 0x40 DUP1 DUP4 KECCAK256 DUP7 DUP5 MSTORE DUP3 MSTORE DUP1 DUP4 KECCAK256 DUP6 SWAP1 SSTORE SWAP4 DUP3 MSTORE PUSH1 0x7 SWAP1 MSTORE SWAP2 SWAP1 SWAP2 KECCAK256 SWAP2 SWAP1 SWAP2 SSTORE POP JUMP JUMPDEST PUSH1 0x1 PUSH1 0x1 PUSH1 0xA0 SHL SUB DUP3 AND PUSH2 0x3581 JUMPI PUSH1 0x40 MLOAD PUSH3 0x461BCD PUSH1 0xE5 SHL DUP2 MSTORE PUSH1 0x20 PUSH1 0x4 DUP3 ADD DUP2 SWAP1 MSTORE PUSH1 0x24 DUP3 ADD MSTORE PUSH32 0x4552433732313A206D696E7420746F20746865207A65726F2061646472657373 PUSH1 0x44 DUP3 ADD MSTORE PUSH1 0x64 ADD PUSH2 0x753 JUMP JUMPDEST PUSH1 0x0 DUP2 DUP2 MSTORE PUSH1 0x2 PUSH1 0x20 MSTORE PUSH1 0x40 SWAP1 KECCAK256 SLOAD PUSH1 0x1 PUSH1 0x1 PUSH1 0xA0 SHL SUB AND ISZERO PUSH2 0x35E6 JUMPI PUSH1 0x40 MLOAD PUSH3 0x461BCD PUSH1 0xE5 SHL DUP2 MSTORE PUSH1 0x20 PUSH1 0x4 DUP3 ADD MSTORE PUSH1 0x1C PUSH1 0x24 DUP3 ADD MSTORE PUSH32 0x4552433732313A20746F6B656E20616C7265616479206D696E74656400000000 PUSH1 0x44 DUP3 ADD MSTORE PUSH1 0x64 ADD PUSH2 0x753 JUMP JUMPDEST PUSH2 0x35F4 PUSH1 0x0 DUP4 DUP4 PUSH1 0x1 PUSH2 0x2F22 JUMP JUMPDEST PUSH1 0x0 DUP2 DUP2 MSTORE PUSH1 0x2 PUSH1 0x20 MSTORE PUSH1 0x40 SWAP1 KECCAK256 SLOAD PUSH1 0x1 PUSH1 0x1 PUSH1 0xA0 SHL SUB AND ISZERO PUSH2 0x3659 JUMPI PUSH1 0x40 MLOAD PUSH3 0x461BCD PUSH1 0xE5 SHL DUP2 MSTORE PUSH1 0x20 PUSH1 0x4 DUP3 ADD MSTORE PUSH1 0x1C PUSH1 0x24 DUP3 ADD MSTORE PUSH32 0x4552433732313A20746F6B656E20616C7265616479206D696E74656400000000 PUSH1 0x44 DUP3 ADD MSTORE PUSH1 0x64 ADD PUSH2 0x753 JUMP JUMPDEST PUSH1 0x1 PUSH1 0x1 PUSH1 0xA0 SHL SUB DUP3 AND PUSH1 0x0 DUP2 DUP2 MSTORE PUSH1 0x3 PUSH1 0x20 SWAP1 DUP2 MSTORE PUSH1 0x40 DUP1 DUP4 KECCAK256 DUP1 SLOAD PUSH1 0x1 ADD SWAP1 SSTORE DUP5 DUP4 MSTORE PUSH1 0x2 SWAP1 SWAP2 MSTORE DUP1 DUP3 KECCAK256 DUP1 SLOAD PUSH1 0x1 PUSH1 0x1 PUSH1 0xA0 SHL SUB NOT AND DUP5 OR SWAP1 SSTORE MLOAD DUP4 SWAP3 SWAP2 SWAP1 PUSH32 0xDDF252AD1BE2C89B69C2B068FC378DAA952BA7F163C4A11628F55A4DF523B3EF SWAP1 DUP3 SWAP1 LOG4 POP POP JUMP JUMPDEST DUP3 DUP1 SLOAD PUSH2 0x36D0 SWAP1 PUSH2 0x3E2A JUMP JUMPDEST SWAP1 PUSH1 0x0 MSTORE PUSH1 0x20 PUSH1 0x0 KECCAK256 SWAP1 PUSH1 0x1F ADD PUSH1 0x20 SWAP1 DIV DUP2 ADD SWAP3 DUP3 PUSH2 0x36F2 JUMPI PUSH1 0x0 DUP6 SSTORE PUSH2 0x3738 JUMP JUMPDEST DUP3 PUSH1 0x1F LT PUSH2 0x370B JUMPI DUP1 MLOAD PUSH1 0xFF NOT AND DUP4 DUP1 ADD OR DUP6 SSTORE PUSH2 0x3738 JUMP JUMPDEST DUP3 DUP1 ADD PUSH1 0x1 ADD DUP6 SSTORE DUP3 ISZERO PUSH2 0x3738 JUMPI SWAP2 DUP3 ADD JUMPDEST DUP3 DUP2 GT ISZERO PUSH2 0x3738 JUMPI DUP3 MLOAD DUP3 SSTORE SWAP2 PUSH1 0x20 ADD SWAP2 SWAP1 PUSH1 0x1 ADD SWAP1 PUSH2 0x371D JUMP JUMPDEST POP PUSH2 0x3744 SWAP3 SWAP2 POP PUSH2 0x382A JUMP JUMPDEST POP SWAP1 JUMP JUMPDEST POP DUP1 SLOAD PUSH2 0x3754 SWAP1 PUSH2 0x3E2A JUMP JUMPDEST PUSH1 0x0 DUP3 SSTORE DUP1 PUSH1 0x1F LT PUSH2 0x3764 JUMPI POP POP JUMP JUMPDEST PUSH1 0x1F ADD PUSH1 0x20 SWAP1 DIV SWAP1 PUSH1 0x0 MSTORE PUSH1 0x20 PUSH1 0x0 KECCAK256 SWAP1 DUP2 ADD SWAP1 PUSH2 0xBF5 SWAP2 SWAP1 PUSH2 0x382A JUMP JUMPDEST DUP3 DUP1 SLOAD PUSH2 0x378E SWAP1 PUSH2 0x3E2A JUMP JUMPDEST SWAP1 PUSH1 0x0 MSTORE PUSH1 0x20 PUSH1 0x0 KECCAK256 SWAP1 PUSH1 0x1F ADD PUSH1 0x20 SWAP1 DIV DUP2 ADD SWAP3 DUP3 PUSH2 0x37B0 JUMPI PUSH1 0x0 DUP6 SSTORE PUSH2 0x3738 JUMP JUMPDEST DUP3 PUSH1 0x1F LT PUSH2 0x37C1 JUMPI DUP1 SLOAD DUP6 SSTORE PUSH2 0x3738 JUMP JUMPDEST DUP3 DUP1 ADD PUSH1 0x1 ADD DUP6 SSTORE DUP3 ISZERO PUSH2 0x3738 JUMPI PUSH1 0x0 MSTORE PUSH1 0x20 PUSH1 0x0 KECCAK256 SWAP2 PUSH1 0x1F ADD PUSH1 0x20 SWAP1 DIV DUP3 ADD JUMPDEST DUP3 DUP2 GT ISZERO PUSH2 0x3738 JUMPI DUP3 SLOAD DUP3 SSTORE SWAP2 PUSH1 0x1 ADD SWAP2 SWAP1 PUSH1 0x1 ADD SWAP1 PUSH2 0x37E2 JUMP JUMPDEST DUP3 PUSH1 0x3 DUP2 ADD SWAP3 DUP3 ISZERO PUSH2 0x3738 JUMPI SWAP2 PUSH1 0x20 MUL DUP3 ADD DUP3 DUP2 GT ISZERO PUSH2 0x3738 JUMPI DUP3 MLOAD DUP3 SSTORE SWAP2 PUSH1 0x20 ADD SWAP2 SWAP1 PUSH1 0x1 ADD SWAP1 PUSH2 0x371D JUMP JUMPDEST JUMPDEST DUP1 DUP3 GT ISZERO PUSH2 0x3744 JUMPI PUSH1 0x0 DUP2 SSTORE PUSH1 0x1 ADD PUSH2 0x382B JUMP JUMPDEST PUSH1 0x1 PUSH1 0x1 PUSH1 0xE0 SHL SUB NOT DUP2 AND DUP2 EQ PUSH2 0xBF5 JUMPI PUSH1 0x0 DUP1 REVERT JUMPDEST PUSH1 0x0 PUSH1 0x20 DUP3 DUP5 SUB SLT ISZERO PUSH2 0x3867 JUMPI PUSH1 0x0 DUP1 REVERT JUMPDEST DUP2 CALLDATALOAD PUSH2 0x3872 DUP2 PUSH2 0x383F JUMP JUMPDEST SWAP4 SWAP3 POP POP POP JUMP JUMPDEST PUSH1 0x0 JUMPDEST DUP4 DUP2 LT ISZERO PUSH2 0x3894 JUMPI DUP2 DUP2 ADD MLOAD DUP4 DUP3 ADD MSTORE PUSH1 0x20 ADD PUSH2 0x387C JUMP JUMPDEST DUP4 DUP2 GT ISZERO PUSH2 0x169C JUMPI POP POP PUSH1 0x0 SWAP2 ADD MSTORE JUMP JUMPDEST PUSH1 0x0 DUP2 MLOAD DUP1 DUP5 MSTORE PUSH2 0x38BD DUP2 PUSH1 0x20 DUP7 ADD PUSH1 0x20 DUP7 ADD PUSH2 0x3879 JUMP JUMPDEST PUSH1 0x1F ADD PUSH1 0x1F NOT AND SWAP3 SWAP1 SWAP3 ADD PUSH1 0x20 ADD SWAP3 SWAP2 POP POP JUMP JUMPDEST PUSH1 0x20 DUP2 MSTORE PUSH1 0x0 PUSH2 0x3872 PUSH1 0x20 DUP4 ADD DUP5 PUSH2 0x38A5 JUMP JUMPDEST PUSH1 0x0 PUSH1 0x20 DUP3 DUP5 SUB SLT ISZERO PUSH2 0x38F6 JUMPI PUSH1 0x0 DUP1 REVERT JUMPDEST POP CALLDATALOAD SWAP2 SWAP1 POP JUMP JUMPDEST PUSH1 0x1 PUSH1 0x1 PUSH1 0xA0 SHL SUB DUP2 AND DUP2 EQ PUSH2 0xBF5 JUMPI PUSH1 0x0 DUP1 REVERT JUMPDEST PUSH1 0x0 DUP1 PUSH1 0x40 DUP4 DUP6 SUB SLT ISZERO PUSH2 0x3925 JUMPI PUSH1 0x0 DUP1 REVERT JUMPDEST DUP3 CALLDATALOAD PUSH2 0x3930 DUP2 PUSH2 0x38FD JUMP JUMPDEST SWAP5 PUSH1 0x20 SWAP4 SWAP1 SWAP4 ADD CALLDATALOAD SWAP4 POP POP POP JUMP JUMPDEST PUSH1 0x0 DUP1 PUSH1 0x0 PUSH1 0x60 DUP5 DUP7 SUB SLT ISZERO PUSH2 0x3953 JUMPI PUSH1 0x0 DUP1 REVERT JUMPDEST DUP4 CALLDATALOAD PUSH2 0x395E DUP2 PUSH2 0x38FD JUMP JUMPDEST SWAP3 POP PUSH1 0x20 DUP5 ADD CALLDATALOAD PUSH2 0x396E DUP2 PUSH2 0x38FD JUMP JUMPDEST SWAP3 SWAP6 SWAP3 SWAP5 POP POP POP PUSH1 0x40 SWAP2 SWAP1 SWAP2 ADD CALLDATALOAD SWAP1 JUMP JUMPDEST PUSH4 0x4E487B71 PUSH1 0xE0 SHL PUSH1 0x0 MSTORE PUSH1 0x41 PUSH1 0x4 MSTORE PUSH1 0x24 PUSH1 0x0 REVERT JUMPDEST PUSH1 0x40 MLOAD PUSH1 0x1F DUP3 ADD PUSH1 0x1F NOT AND DUP2 ADD PUSH8 0xFFFFFFFFFFFFFFFF DUP2 GT DUP3 DUP3 LT OR ISZERO PUSH2 0x39BE JUMPI PUSH2 0x39BE PUSH2 0x397F JUMP JUMPDEST PUSH1 0x40 MSTORE SWAP2 SWAP1 POP JUMP JUMPDEST PUSH1 0x0 PUSH8 0xFFFFFFFFFFFFFFFF DUP4 GT ISZERO PUSH2 0x39E0 JUMPI PUSH2 0x39E0 PUSH2 0x397F JUMP JUMPDEST PUSH2 0x39F3 PUSH1 0x1F DUP5 ADD PUSH1 0x1F NOT AND PUSH1 0x20 ADD PUSH2 0x3995 JUMP JUMPDEST SWAP1 POP DUP3 DUP2 MSTORE DUP4 DUP4 DUP4 ADD GT ISZERO PUSH2 0x3A07 JUMPI PUSH1 0x0 DUP1 REVERT JUMPDEST DUP3 DUP3 PUSH1 0x20 DUP4 ADD CALLDATACOPY PUSH1 0x0 PUSH1 0x20 DUP5 DUP4 ADD ADD MSTORE SWAP4 SWAP3 POP POP POP JUMP JUMPDEST PUSH1 0x0 DUP3 PUSH1 0x1F DUP4 ADD SLT PUSH2 0x3A2F JUMPI PUSH1 0x0 DUP1 REVERT JUMPDEST PUSH2 0x3872 DUP4 DUP4 CALLDATALOAD PUSH1 0x20 DUP6 ADD PUSH2 0x39C6 JUMP JUMPDEST PUSH1 0x0 PUSH1 0x20 DUP3 DUP5 SUB SLT ISZERO PUSH2 0x3A50 JUMPI PUSH1 0x0 DUP1 REVERT JUMPDEST DUP2 CALLDATALOAD PUSH8 0xFFFFFFFFFFFFFFFF DUP2 GT ISZERO PUSH2 0x3A67 JUMPI PUSH1 0x0 DUP1 REVERT JUMPDEST PUSH2 0x1EF9 DUP5 DUP3 DUP6 ADD PUSH2 0x3A1E JUMP JUMPDEST PUSH1 0x0 PUSH1 0x20 DUP3 DUP5 SUB SLT ISZERO PUSH2 0x3A85 JUMPI PUSH1 0x0 DUP1 REVERT JUMPDEST DUP2 CALLDATALOAD PUSH2 0x3872 DUP2 PUSH2 0x38FD JUMP JUMPDEST PUSH1 0x0 PUSH8 0xFFFFFFFFFFFFFFFF DUP3 GT ISZERO PUSH2 0x3AAA JUMPI PUSH2 0x3AAA PUSH2 0x397F JUMP JUMPDEST POP PUSH1 0x5 SHL PUSH1 0x20 ADD SWAP1 JUMP JUMPDEST PUSH1 0x0 DUP3 PUSH1 0x1F DUP4 ADD SLT PUSH2 0x3AC5 JUMPI PUSH1 0x0 DUP1 REVERT JUMPDEST DUP2 CALLDATALOAD PUSH1 0x20 PUSH2 0x3ADA PUSH2 0x3AD5 DUP4 PUSH2 0x3A90 JUMP JUMPDEST PUSH2 0x3995 JUMP JUMPDEST DUP3 DUP2 MSTORE PUSH1 0x5 SWAP3 SWAP1 SWAP3 SHL DUP5 ADD DUP2 ADD SWAP2 DUP2 DUP2 ADD SWAP1 DUP7 DUP5 GT ISZERO PUSH2 0x3AF9 JUMPI PUSH1 0x0 DUP1 REVERT JUMPDEST DUP3 DUP7 ADD JUMPDEST DUP5 DUP2 LT ISZERO PUSH2 0x3B14 JUMPI DUP1 CALLDATALOAD DUP4 MSTORE SWAP2 DUP4 ADD SWAP2 DUP4 ADD PUSH2 0x3AFD JUMP JUMPDEST POP SWAP7 SWAP6 POP POP POP POP POP POP JUMP JUMPDEST PUSH1 0x0 DUP1 PUSH1 0x40 DUP4 DUP6 SUB SLT ISZERO PUSH2 0x3B32 JUMPI PUSH1 0x0 DUP1 REVERT JUMPDEST DUP3 CALLDATALOAD SWAP2 POP PUSH1 0x20 DUP4 ADD CALLDATALOAD PUSH8 0xFFFFFFFFFFFFFFFF DUP2 GT ISZERO PUSH2 0x3B50 JUMPI PUSH1 0x0 DUP1 REVERT JUMPDEST PUSH2 0x3B5C DUP6 DUP3 DUP7 ADD PUSH2 0x3AB4 JUMP JUMPDEST SWAP2 POP POP SWAP3 POP SWAP3 SWAP1 POP JUMP JUMPDEST PUSH1 0x0 DUP1 PUSH1 0x40 DUP4 DUP6 SUB SLT ISZERO PUSH2 0x3B79 JUMPI PUSH1 0x0 DUP1 REVERT JUMPDEST DUP3 CALLDATALOAD PUSH2 0x3B84 DUP2 PUSH2 0x38FD JUMP JUMPDEST SWAP2 POP PUSH1 0x20 DUP4 ADD CALLDATALOAD DUP1 ISZERO ISZERO DUP2 EQ PUSH2 0x3B99 JUMPI PUSH1 0x0 DUP1 REVERT JUMPDEST DUP1 SWAP2 POP POP SWAP3 POP SWAP3 SWAP1 POP JUMP JUMPDEST PUSH1 0x0 DUP3 PUSH1 0x1F DUP4 ADD SLT PUSH2 0x3BB5 JUMPI PUSH1 0x0 DUP1 REVERT JUMPDEST DUP2 CALLDATALOAD PUSH1 0x20 PUSH2 0x3BC5 PUSH2 0x3AD5 DUP4 PUSH2 0x3A90 JUMP JUMPDEST DUP3 DUP2 MSTORE PUSH1 0x5 SWAP3 SWAP1 SWAP3 SHL DUP5 ADD DUP2 ADD SWAP2 DUP2 DUP2 ADD SWAP1 DUP7 DUP5 GT ISZERO PUSH2 0x3BE4 JUMPI PUSH1 0x0 DUP1 REVERT JUMPDEST DUP3 DUP7 ADD JUMPDEST DUP5 DUP2 LT ISZERO PUSH2 0x3B14 JUMPI DUP1 CALLDATALOAD PUSH8 0xFFFFFFFFFFFFFFFF DUP2 GT ISZERO PUSH2 0x3C08 JUMPI PUSH1 0x0 DUP1 DUP2 REVERT JUMPDEST PUSH2 0x3C16 DUP10 DUP7 DUP4 DUP12 ADD ADD PUSH2 0x3A1E JUMP JUMPDEST DUP5 MSTORE POP SWAP2 DUP4 ADD SWAP2 DUP4 ADD PUSH2 0x3BE8 JUMP JUMPDEST PUSH1 0x0 DUP1 PUSH1 0x0 DUP1 PUSH1 0x0 DUP1 PUSH1 0x0 DUP1 PUSH2 0x100 DUP10 DUP12 SUB SLT ISZERO PUSH2 0x3C41 JUMPI PUSH1 0x0 DUP1 REVERT JUMPDEST DUP9 CALLDATALOAD PUSH8 0xFFFFFFFFFFFFFFFF DUP1 DUP3 GT ISZERO PUSH2 0x3C59 JUMPI PUSH1 0x0 DUP1 REVERT JUMPDEST PUSH2 0x3C65 DUP13 DUP4 DUP14 ADD PUSH2 0x3A1E JUMP JUMPDEST SWAP10 POP PUSH1 0x20 DUP12 ADD CALLDATALOAD SWAP2 POP DUP1 DUP3 GT ISZERO PUSH2 0x3C7B JUMPI PUSH1 0x0 DUP1 REVERT JUMPDEST PUSH2 0x3C87 DUP13 DUP4 DUP14 ADD PUSH2 0x3AB4 JUMP JUMPDEST SWAP9 POP PUSH1 0x40 DUP12 ADD CALLDATALOAD SWAP2 POP DUP1 DUP3 GT ISZERO PUSH2 0x3C9D JUMPI PUSH1 0x0 DUP1 REVERT JUMPDEST PUSH2 0x3CA9 DUP13 DUP4 DUP14 ADD PUSH2 0x3BA4 JUMP JUMPDEST SWAP8 POP PUSH1 0x60 DUP12 ADD CALLDATALOAD SWAP7 POP PUSH1 0x80 DUP12 ADD CALLDATALOAD SWAP6 POP PUSH1 0xA0 DUP12 ADD CALLDATALOAD SWAP2 POP DUP1 DUP3 GT ISZERO PUSH2 0x3CCD JUMPI PUSH1 0x0 DUP1 REVERT JUMPDEST PUSH2 0x3CD9 DUP13 DUP4 DUP14 ADD PUSH2 0x3AB4 JUMP JUMPDEST SWAP5 POP PUSH1 0xC0 DUP12 ADD CALLDATALOAD SWAP4 POP PUSH1 0xE0 DUP12 ADD CALLDATALOAD SWAP2 POP DUP1 DUP3 GT ISZERO PUSH2 0x3CF6 JUMPI PUSH1 0x0 DUP1 REVERT JUMPDEST POP PUSH2 0x3D03 DUP12 DUP3 DUP13 ADD PUSH2 0x3AB4 JUMP JUMPDEST SWAP2 POP POP SWAP3 SWAP6 SWAP9 POP SWAP3 SWAP6 SWAP9 SWAP1 SWAP4 SWAP7 POP JUMP JUMPDEST PUSH1 0x0 DUP1 PUSH1 0x0 DUP1 PUSH1 0x80 DUP6 DUP8 SUB SLT ISZERO PUSH2 0x3D29 JUMPI PUSH1 0x0 DUP1 REVERT JUMPDEST DUP5 CALLDATALOAD PUSH2 0x3D34 DUP2 PUSH2 0x38FD JUMP JUMPDEST SWAP4 POP PUSH1 0x20 DUP6 ADD CALLDATALOAD PUSH2 0x3D44 DUP2 PUSH2 0x38FD JUMP JUMPDEST SWAP3 POP PUSH1 0x40 DUP6 ADD CALLDATALOAD SWAP2 POP PUSH1 0x60 DUP6 ADD CALLDATALOAD PUSH8 0xFFFFFFFFFFFFFFFF DUP2 GT ISZERO PUSH2 0x3D67 JUMPI PUSH1 0x0 DUP1 REVERT JUMPDEST DUP6 ADD PUSH1 0x1F DUP2 ADD DUP8 SGT PUSH2 0x3D78 JUMPI PUSH1 0x0 DUP1 REVERT JUMPDEST PUSH2 0x3D87 DUP8 DUP3 CALLDATALOAD PUSH1 0x20 DUP5 ADD PUSH2 0x39C6 JUMP JUMPDEST SWAP2 POP POP SWAP3 SWAP6 SWAP2 SWAP5 POP SWAP3 POP JUMP JUMPDEST PUSH1 0x0 DUP1 PUSH1 0x40 DUP4 DUP6 SUB SLT ISZERO PUSH2 0x3DA6 JUMPI PUSH1 0x0 DUP1 REVERT JUMPDEST DUP3 CALLDATALOAD SWAP2 POP PUSH1 0x20 DUP4 ADD CALLDATALOAD PUSH8 0xFFFFFFFFFFFFFFFF DUP2 GT ISZERO PUSH2 0x3DC4 JUMPI PUSH1 0x0 DUP1 REVERT JUMPDEST PUSH2 0x3B5C DUP6 DUP3 DUP7 ADD PUSH2 0x3A1E JUMP JUMPDEST PUSH1 0x0 DUP1 PUSH1 0x40 DUP4 DUP6 SUB SLT ISZERO PUSH2 0x3DE3 JUMPI PUSH1 0x0 DUP1 REVERT JUMPDEST DUP3 CALLDATALOAD PUSH2 0x3DEE DUP2 PUSH2 0x38FD JUMP JUMPDEST SWAP2 POP PUSH1 0x20 DUP4 ADD CALLDATALOAD PUSH2 0x3B99 DUP2 PUSH2 0x38FD JUMP JUMPDEST PUSH1 0x0 DUP1 PUSH1 0x0 PUSH1 0x60 DUP5 DUP7 SUB SLT ISZERO PUSH2 0x3E13 JUMPI PUSH1 0x0 DUP1 REVERT JUMPDEST POP POP DUP2 CALLDATALOAD SWAP4 PUSH1 0x20 DUP4 ADD CALLDATALOAD SWAP4 POP PUSH1 0x40 SWAP1 SWAP3 ADD CALLDATALOAD SWAP2 SWAP1 POP JUMP JUMPDEST PUSH1 0x1 DUP2 DUP2 SHR SWAP1 DUP3 AND DUP1 PUSH2 0x3E3E JUMPI PUSH1 0x7F DUP3 AND SWAP2 POP JUMPDEST PUSH1 0x20 DUP3 LT DUP2 EQ ISZERO PUSH2 0x3E5F JUMPI PUSH4 0x4E487B71 PUSH1 0xE0 SHL PUSH1 0x0 MSTORE PUSH1 0x22 PUSH1 0x4 MSTORE PUSH1 0x24 PUSH1 0x0 REVERT JUMPDEST POP SWAP2 SWAP1 POP JUMP JUMPDEST PUSH4 0x4E487B71 PUSH1 0xE0 SHL PUSH1 0x0 MSTORE PUSH1 0x32 PUSH1 0x4 MSTORE PUSH1 0x24 PUSH1 0x0 REVERT JUMPDEST PUSH4 0x4E487B71 PUSH1 0xE0 SHL PUSH1 0x0 MSTORE PUSH1 0x11 PUSH1 0x4 MSTORE PUSH1 0x24 PUSH1 0x0 REVERT JUMPDEST PUSH1 0x0 DUP3 NOT DUP3 GT ISZERO PUSH2 0x3EA4 JUMPI PUSH2 0x3EA4 PUSH2 0x3E7B JUMP JUMPDEST POP ADD SWAP1 JUMP JUMPDEST PUSH1 0x0 DUP4 MLOAD PUSH2 0x3EBB DUP2 DUP5 PUSH1 0x20 DUP9 ADD PUSH2 0x3879 JUMP JUMPDEST DUP4 MLOAD SWAP1 DUP4 ADD SWAP1 PUSH2 0x3ECF DUP2 DUP4 PUSH1 0x20 DUP9 ADD PUSH2 0x3879 JUMP JUMPDEST ADD SWAP5 SWAP4 POP POP POP POP JUMP JUMPDEST PUSH1 0x0 DUP2 PUSH1 0x0 NOT DIV DUP4 GT DUP3 ISZERO ISZERO AND ISZERO PUSH2 0x3EF2 JUMPI PUSH2 0x3EF2 PUSH2 0x3E7B JUMP JUMPDEST POP MUL SWAP1 JUMP JUMPDEST PUSH1 0x0 PUSH1 0x0 NOT DUP3 EQ ISZERO PUSH2 0x3F0B JUMPI PUSH2 0x3F0B PUSH2 0x3E7B JUMP JUMPDEST POP PUSH1 0x1 ADD SWAP1 JUMP JUMPDEST PUSH4 0x4E487B71 PUSH1 0xE0 SHL PUSH1 0x0 MSTORE PUSH1 0x12 PUSH1 0x4 MSTORE PUSH1 0x24 PUSH1 0x0 REVERT JUMPDEST PUSH1 0x0 DUP3 PUSH2 0x3F37 JUMPI PUSH2 0x3F37 PUSH2 0x3F12 JUMP JUMPDEST POP MOD SWAP1 JUMP JUMPDEST PUSH1 0x0 DUP3 PUSH2 0x3F4B JUMPI PUSH2 0x3F4B PUSH2 0x3F12 JUMP JUMPDEST POP DIV SWAP1 JUMP JUMPDEST PUSH1 0x0 DUP3 DUP3 LT ISZERO PUSH2 0x3F62 JUMPI PUSH2 0x3F62 PUSH2 0x3E7B JUMP JUMPDEST POP SUB SWAP1 JUMP JUMPDEST PUSH1 0x0 PUSH1 0x1 PUSH1 0x1 PUSH1 0xA0 SHL SUB DUP1 DUP8 AND DUP4 MSTORE DUP1 DUP7 AND PUSH1 0x20 DUP5 ADD MSTORE POP DUP4 PUSH1 0x40 DUP4 ADD MSTORE PUSH1 0x80 PUSH1 0x60 DUP4 ADD MSTORE PUSH2 0x3F99 PUSH1 0x80 DUP4 ADD DUP5 PUSH2 0x38A5 JUMP JUMPDEST SWAP7 SWAP6 POP POP POP POP POP POP JUMP JUMPDEST PUSH1 0x0 PUSH1 0x20 DUP3 DUP5 SUB SLT ISZERO PUSH2 0x3FB5 JUMPI PUSH1 0x0 DUP1 REVERT JUMPDEST DUP2 MLOAD PUSH2 0x3872 DUP2 PUSH2 0x383F JUMP JUMPDEST PUSH4 0x4E487B71 PUSH1 0xE0 SHL PUSH1 0x0 MSTORE PUSH1 0x31 PUSH1 0x4 MSTORE PUSH1 0x24 PUSH1 0x0 REVERT INVALID PUSH9 0x747470733A2F2F6970 PUSH7 0x732E696F2F6970 PUSH7 0x732F516D593572 PUSH6 0x7A46666B5053 SELFBALANCE PC DIFFICULTY PUSH10 0x4168395A414567684D44 PUSH15 0x484C344150727950634D33614E6E74 PUSH17 0x544B612F6E66746C766C325F312F687474 PUSH17 0x733A2F2F697066732E696F2F697066732F MLOAD PUSH14 0x565071526555447A337237444841 0x4A DIFFICULTY 0x4D PUSH25 0x67614458777457636B554A517173515753675235754E515948 PUSH15 0x2FA2646970667358221220C5BDA069 0xDD 0x5C 0xCF DELEGATECALL SLOAD 0xCA DUP10 EXTCODESIZE MSTORE8 BYTE 0xDF 0xC7 BLOCKHASH PUSH12 0x1907907EEC498DB3F2481165 0xCE PUSH15 0x64736F6C6343000809003300000000 "},"methodIdentifiers":{"_addClase(uint256,string)":"dca77ad2","_getColor(uint256)":"d572c38f","_mintTokenAllowedToEarn(address)":"6f52598b","_mintTokenNotAllowedToEarn(address)":"59b17c5e","_safeTransfer(address,uint256)":"c4f8210e","_safeTransferPool(address,uint256)":"f202dc2e","_setBaseURI(string)":"31b5b907","_setDorados(uint256,uint256[])":"8527788a","_setMod(uint256)":"bf5da0c5","_setMorados(uint256,uint256[])":"ef0b2307","_setTanda(string,uint256[],string[],uint256,uint256,uint256[],uint256,uint256[])":"ac12914f","_setlimite(uint256)":"85dd9033","approve(address,uint256)":"095ea7b3","balance()":"b69ef8a8","balanceOf(address)":"70a08231","burn(uint256)":"42966c68","claseToken(uint256)":"4e72a6fa","downgrade(uint256)":"11bcc81e","getApproved(uint256)":"081812fc","isAllowedToEarn(uint256)":"7bafd87e","isApprovedForAll(address,address)":"e985e9c5","limite()":"20eb8e53","name()":"06fdde03","numClase(uint256)":"cb9375d3","ownerOf(uint256)":"6352211e","poolNFT()":"a0b49778","safeTransferFrom(address,address,uint256)":"42842e0e","safeTransferFrom(address,address,uint256,bytes)":"b88d4fde","setApprovalForAll(address,bool)":"a22cb465","setPoolNFT(address,address)":"f4842257","supportsInterface(bytes4)":"01ffc9a7","symbol()":"95d89b41","tokenByIndex(uint256)":"4f6ccce7","tokenOfOwnerByIndex(address,uint256)":"2f745c59","tokenURI(uint256)":"c87b56dd","totalSupply()":"18160ddd","transferFrom(address,address,uint256)":"23b872dd","upgrade(uint256,uint256,uint256)":"fe1538d4"}}}}}