{
  "_format": "hh-sol-artifact-1",
  "contractName": "Marketplace",
  "sourceName": "contracts/Marketplace.sol",
  "abi": [
    {
      "inputs": [],
      "stateMutability": "nonpayable",
      "type": "constructor"
    },
    {
      "anonymous": false,
      "inputs": [
        {
          "indexed": false,
          "internalType": "address",
          "name": "nftContract",
          "type": "address"
        },
        {
          "indexed": false,
          "internalType": "uint256",
          "name": "tokenId",
          "type": "uint256"
        },
        {
          "indexed": false,
          "internalType": "address",
          "name": "seller",
          "type": "address"
        },
        {
          "indexed": false,
          "internalType": "address",
          "name": "owner",
          "type": "address"
        },
        {
          "indexed": false,
          "internalType": "uint256",
          "name": "price",
          "type": "uint256"
        }
      ],
      "name": "NFTListed",
      "type": "event"
    },
    {
      "anonymous": false,
      "inputs": [
        {
          "indexed": false,
          "internalType": "address",
          "name": "nftContract",
          "type": "address"
        },
        {
          "indexed": false,
          "internalType": "uint256",
          "name": "tokenId",
          "type": "uint256"
        },
        {
          "indexed": false,
          "internalType": "address",
          "name": "seller",
          "type": "address"
        },
        {
          "indexed": false,
          "internalType": "address",
          "name": "owner",
          "type": "address"
        },
        {
          "indexed": false,
          "internalType": "uint256",
          "name": "price",
          "type": "uint256"
        }
      ],
      "name": "NFTSold",
      "type": "event"
    },
    {
      "inputs": [
        {
          "internalType": "address",
          "name": "_nftContract",
          "type": "address"
        },
        {
          "internalType": "uint256",
          "name": "_tokenId",
          "type": "uint256"
        }
      ],
      "name": "buyNft",
      "outputs": [],
      "stateMutability": "payable",
      "type": "function"
    },
    {
      "inputs": [],
      "name": "getListedNfts",
      "outputs": [
        {
          "components": [
            {
              "internalType": "address",
              "name": "nftContract",
              "type": "address"
            },
            {
              "internalType": "uint256",
              "name": "tokenId",
              "type": "uint256"
            },
            {
              "internalType": "address payable",
              "name": "seller",
              "type": "address"
            },
            {
              "internalType": "address payable",
              "name": "owner",
              "type": "address"
            },
            {
              "internalType": "uint256",
              "name": "price",
              "type": "uint256"
            },
            {
              "internalType": "bool",
              "name": "listed",
              "type": "bool"
            }
          ],
          "internalType": "struct Marketplace.NFT[]",
          "name": "",
          "type": "tuple[]"
        }
      ],
      "stateMutability": "view",
      "type": "function"
    },
    {
      "inputs": [],
      "name": "getMyListedNfts",
      "outputs": [
        {
          "components": [
            {
              "internalType": "address",
              "name": "nftContract",
              "type": "address"
            },
            {
              "internalType": "uint256",
              "name": "tokenId",
              "type": "uint256"
            },
            {
              "internalType": "address payable",
              "name": "seller",
              "type": "address"
            },
            {
              "internalType": "address payable",
              "name": "owner",
              "type": "address"
            },
            {
              "internalType": "uint256",
              "name": "price",
              "type": "uint256"
            },
            {
              "internalType": "bool",
              "name": "listed",
              "type": "bool"
            }
          ],
          "internalType": "struct Marketplace.NFT[]",
          "name": "",
          "type": "tuple[]"
        }
      ],
      "stateMutability": "view",
      "type": "function"
    },
    {
      "inputs": [],
      "name": "getMyNfts",
      "outputs": [
        {
          "components": [
            {
              "internalType": "address",
              "name": "nftContract",
              "type": "address"
            },
            {
              "internalType": "uint256",
              "name": "tokenId",
              "type": "uint256"
            },
            {
              "internalType": "address payable",
              "name": "seller",
              "type": "address"
            },
            {
              "internalType": "address payable",
              "name": "owner",
              "type": "address"
            },
            {
              "internalType": "uint256",
              "name": "price",
              "type": "uint256"
            },
            {
              "internalType": "bool",
              "name": "listed",
              "type": "bool"
            }
          ],
          "internalType": "struct Marketplace.NFT[]",
          "name": "",
          "type": "tuple[]"
        }
      ],
      "stateMutability": "view",
      "type": "function"
    },
    {
      "inputs": [
        {
          "internalType": "address",
          "name": "_nftContract",
          "type": "address"
        },
        {
          "internalType": "uint256",
          "name": "_tokenId",
          "type": "uint256"
        },
        {
          "internalType": "uint256",
          "name": "_price",
          "type": "uint256"
        }
      ],
      "name": "listNft",
      "outputs": [],
      "stateMutability": "payable",
      "type": "function"
    },
    {
      "inputs": [
        {
          "internalType": "address",
          "name": "_nftContract",
          "type": "address"
        },
        {
          "internalType": "uint256",
          "name": "_tokenId",
          "type": "uint256"
        },
        {
          "internalType": "uint256",
          "name": "_price",
          "type": "uint256"
        }
      ],
      "name": "resellNft",
      "outputs": [],
      "stateMutability": "payable",
      "type": "function"
    }
  ],
  "bytecode": "0x608060405234801561001057600080fd5b506001600055600380546001600160a01b03191633179055610eb5806100376000396000f3fe6080604052600436106100655760003560e01c80634ddf4f8f116100435780634ddf4f8f146100bf5780638d6cb3fb146100d2578063c922b17c146100e757600080fd5b8063047b07bf1461006a5780631f4cc4db1461009557806334f5b624146100aa575b600080fd5b34801561007657600080fd5b5061007f6100fa565b60405161008c9190610cf0565b60405180910390f35b3480156100a157600080fd5b5061007f6102ea565b6100bd6100b8366004610d96565b61052c565b005b6100bd6100cd366004610dc9565b6106b8565b3480156100de57600080fd5b5061007f6108a8565b6100bd6100f5366004610d96565b610a3d565b6060600061010760025490565b90506000805b82811015610168573360046000610125846001610e09565b81526020810191909152604001600020600301546001600160a01b03161415610156578161015281610e21565b9250505b8061016081610e21565b91505061010d565b5060008167ffffffffffffffff81111561018457610184610e3c565b6040519080825280602002602001820160405280156101e457816020015b6040805160c08101825260008082526020808301829052928201819052606082018190526080820181905260a082015282526000199092019101816101a25790505b5090506000805b848110156102e0573360046000610203846001610e09565b81526020810191909152604001600020600301546001600160a01b031614156102ce5760046000610235836001610e09565b81526020808201929092526040908101600020815160c08101835281546001600160a01b0390811682526001830154948201949094526002820154841692810192909252600381015490921660608201526004820154608082015260059091015460ff16151560a082015283518490849081106102b4576102b4610e52565b602002602001018190525081806102ca90610e21565b9250505b806102d881610e21565b9150506101eb565b5090949350505050565b606060006102f760025490565b90506000805b82811015610386573360046000610315846001610e09565b81526020810191909152604001600020600201546001600160a01b0316148015610361575060046000610349836001610e09565b815260208101919091526040016000206005015460ff165b15610374578161037081610e21565b9250505b8061037e81610e21565b9150506102fd565b5060008167ffffffffffffffff8111156103a2576103a2610e3c565b60405190808252806020026020018201604052801561040257816020015b6040805160c08101825260008082526020808301829052928201819052606082018190526080820181905260a082015282526000199092019101816103c05790505b5090506000805b848110156102e0573360046000610421846001610e09565b81526020810191909152604001600020600201546001600160a01b031614801561046d575060046000610455836001610e09565b815260208101919091526040016000206005015460ff165b1561051a5760046000610481836001610e09565b81526020808201929092526040908101600020815160c08101835281546001600160a01b0390811682526001830154948201949094526002820154841692810192909252600381015490921660608201526004820154608082015260059091015460ff16151560a0820152835184908490811061050057610500610e52565b6020026020010181905250818061051690610e21565b9250505b8061052481610e21565b915050610409565b610534610c3f565b600081116105895760405162461bcd60e51b815260206004820152601c60248201527f5072696365206d757374206265206174206c656173742031207765690000000060448201526064015b60405180910390fd5b6040516323b872dd60e01b8152336004820152306024820152604481018390526001600160a01b038416906323b872dd90606401600060405180830381600087803b1580156105d757600080fd5b505af11580156105eb573d6000803e3d6000fd5b505050600083815260046020819052604090912060028101805473ffffffffffffffffffffffffffffffffffffffff1990811633179091556003820180549091163017905560058101805460ff19166001908117909155918101849055915061065390610c99565b604080516001600160a01b03861681526020810185905233818301523060608201526080810184905290517fa0c6c0d02d86fdacecbaa5fdf5894bab204e31a778250474108540733a9b8d199181900360a00190a1506106b36001600055565b505050565b6106c0610c3f565b60008181526004602081905260409091209081015434101561074a5760405162461bcd60e51b815260206004820152602660248201527f4e6f7420656e6f75676820657468657220746f20636f7665722061736b696e6760448201527f20707269636500000000000000000000000000000000000000000000000000006064820152608401610580565b600281015460405133916001600160a01b0316903480156108fc02916000818181858888f19350505050158015610785573d6000803e3d6000fd5b5060018201546040516323b872dd60e01b81523060048201526001600160a01b0383811660248301526044820192909252908516906323b872dd90606401600060405180830381600087803b1580156107dd57600080fd5b505af11580156107f1573d6000803e3d6000fd5b5050505060038201805473ffffffffffffffffffffffffffffffffffffffff19166001600160a01b03831617905560058201805460ff19169055600180548101905560018201546002830154604080516001600160a01b03808916825260208201949094529183169082015290821660608201523460808201527f16f1dbd97e6bf646d429ed186cce832f1f7fd9907814293b83181e9970ab7bd29060a00160405180910390a150506108a46001600055565b5050565b606060006108b560025490565b905060006108c260015490565b6108cc9083610e68565b905060008167ffffffffffffffff8111156108e9576108e9610e3c565b60405190808252806020026020018201604052801561094957816020015b6040805160c08101825260008082526020808301829052928201819052606082018190526080820181905260a082015282526000199092019101816109075790505b5090506000805b848110156102e05760046000610967836001610e09565b815260208101919091526040016000206005015460ff1615610a2b5760046000610992836001610e09565b81526020808201929092526040908101600020815160c08101835281546001600160a01b0390811682526001830154948201949094526002820154841692810192909252600381015490921660608201526004820154608082015260059091015460ff16151560a08201528351849084908110610a1157610a11610e52565b60200260200101819052508180610a2790610e21565b9250505b80610a3581610e21565b915050610950565b610a45610c3f565b60008111610a955760405162461bcd60e51b815260206004820152601c60248201527f5072696365206d757374206265206174206c65617374203120776569000000006044820152606401610580565b6040516323b872dd60e01b8152336004820152306024820152604481018390526001600160a01b038416906323b872dd90606401600060405180830381600087803b158015610ae357600080fd5b505af1158015610af7573d6000803e3d6000fd5b50505050610b09600280546001019055565b6040805160c0810182526001600160a01b0380861682526020808301868152338486018181523060608701818152608088018a8152600160a08a0181815260008e81526004998a90528c90209a518b54908b1673ffffffffffffffffffffffffffffffffffffffff19918216178c559751918b0191909155935160028a018054918a16918816919091179055905160038901805491909816951694909417909555915192850192909255516005909301805493151560ff199094169390931790925591517fa0c6c0d02d86fdacecbaa5fdf5894bab204e31a778250474108540733a9b8d1992610c2d92879287929087906001600160a01b039586168152602081019490945291841660408401529092166060820152608081019190915260a00190565b60405180910390a16106b36001600055565b60026000541415610c925760405162461bcd60e51b815260206004820152601f60248201527f5265656e7472616e637947756172643a207265656e7472616e742063616c6c006044820152606401610580565b6002600055565b805480610ce85760405162461bcd60e51b815260206004820152601b60248201527f436f756e7465723a2064656372656d656e74206f766572666c6f7700000000006044820152606401610580565b600019019055565b602080825282518282018190526000919060409081850190868401855b82811015610d6d57815180516001600160a01b039081168652878201518887015286820151811687870152606080830151909116908601526080808201519086015260a09081015115159085015260c09093019290850190600101610d0d565b5091979650505050505050565b80356001600160a01b0381168114610d9157600080fd5b919050565b600080600060608486031215610dab57600080fd5b610db484610d7a565b95602085013595506040909401359392505050565b60008060408385031215610ddc57600080fd5b610de583610d7a565b946020939093013593505050565b634e487b7160e01b600052601160045260246000fd5b60008219821115610e1c57610e1c610df3565b500190565b6000600019821415610e3557610e35610df3565b5060010190565b634e487b7160e01b600052604160045260246000fd5b634e487b7160e01b600052603260045260246000fd5b600082821015610e7a57610e7a610df3565b50039056fea2646970667358221220219a6ac75483d903338366c0883c036d084817bd88b6abd25360f5d65b0e74ea64736f6c63430008090033",
  "linkReferences": {},
  "deployedLinkReferences": {}
}