{
  "_format": "hh-sol-artifact-1",
  "contractName": "NFTMarketplace",
  "sourceName": "contracts/NFTMarketplace .sol",
  "abi": [
    {
      "inputs": [
        {
          "internalType": "address",
          "name": "_nftAddress",
          "type": "address"
        }
      ],
      "stateMutability": "nonpayable",
      "type": "constructor"
    },
    {
      "anonymous": false,
      "inputs": [
        {
          "indexed": true,
          "internalType": "uint256",
          "name": "tokenId",
          "type": "uint256"
        }
      ],
      "name": "SaleCancelled",
      "type": "event"
    },
    {
      "anonymous": false,
      "inputs": [
        {
          "indexed": true,
          "internalType": "address",
          "name": "seller",
          "type": "address"
        },
        {
          "indexed": true,
          "internalType": "uint256",
          "name": "tokenId",
          "type": "uint256"
        },
        {
          "indexed": false,
          "internalType": "uint256",
          "name": "price",
          "type": "uint256"
        }
      ],
      "name": "SaleCreated",
      "type": "event"
    },
    {
      "anonymous": false,
      "inputs": [
        {
          "indexed": true,
          "internalType": "address",
          "name": "buyer",
          "type": "address"
        },
        {
          "indexed": true,
          "internalType": "uint256",
          "name": "tokenId",
          "type": "uint256"
        },
        {
          "indexed": false,
          "internalType": "uint256",
          "name": "price",
          "type": "uint256"
        }
      ],
      "name": "SaleSuccessful",
      "type": "event"
    },
    {
      "inputs": [
        {
          "internalType": "uint256",
          "name": "_tokenId",
          "type": "uint256"
        }
      ],
      "name": "buy",
      "outputs": [],
      "stateMutability": "payable",
      "type": "function"
    },
    {
      "inputs": [
        {
          "internalType": "uint256",
          "name": "_tokenId",
          "type": "uint256"
        }
      ],
      "name": "cancelSale",
      "outputs": [],
      "stateMutability": "nonpayable",
      "type": "function"
    },
    {
      "inputs": [
        {
          "internalType": "uint256",
          "name": "_tokenId",
          "type": "uint256"
        },
        {
          "internalType": "uint256",
          "name": "_price",
          "type": "uint256"
        }
      ],
      "name": "createSale",
      "outputs": [],
      "stateMutability": "nonpayable",
      "type": "function"
    },
    {
      "inputs": [],
      "name": "feePercentage",
      "outputs": [
        {
          "internalType": "uint256",
          "name": "",
          "type": "uint256"
        }
      ],
      "stateMutability": "view",
      "type": "function"
    },
    {
      "inputs": [],
      "name": "getSales",
      "outputs": [
        {
          "components": [
            {
              "internalType": "address",
              "name": "seller",
              "type": "address"
            },
            {
              "internalType": "uint256",
              "name": "tokenId",
              "type": "uint256"
            },
            {
              "internalType": "uint256",
              "name": "price",
              "type": "uint256"
            },
            {
              "internalType": "bool",
              "name": "sold",
              "type": "bool"
            }
          ],
          "internalType": "struct NFTMarketplace.Sale[]",
          "name": "",
          "type": "tuple[]"
        }
      ],
      "stateMutability": "view",
      "type": "function"
    },
    {
      "inputs": [],
      "name": "nft",
      "outputs": [
        {
          "internalType": "contract ERC721",
          "name": "",
          "type": "address"
        }
      ],
      "stateMutability": "view",
      "type": "function"
    },
    {
      "inputs": [],
      "name": "owner",
      "outputs": [
        {
          "internalType": "address",
          "name": "",
          "type": "address"
        }
      ],
      "stateMutability": "view",
      "type": "function"
    },
    {
      "inputs": [
        {
          "internalType": "uint256",
          "name": "",
          "type": "uint256"
        }
      ],
      "name": "sales",
      "outputs": [
        {
          "internalType": "address",
          "name": "seller",
          "type": "address"
        },
        {
          "internalType": "uint256",
          "name": "tokenId",
          "type": "uint256"
        },
        {
          "internalType": "uint256",
          "name": "price",
          "type": "uint256"
        },
        {
          "internalType": "bool",
          "name": "sold",
          "type": "bool"
        }
      ],
      "stateMutability": "view",
      "type": "function"
    },
    {
      "inputs": [
        {
          "internalType": "uint256",
          "name": "_feePercentage",
          "type": "uint256"
        }
      ],
      "name": "setFeePercentage",
      "outputs": [],
      "stateMutability": "nonpayable",
      "type": "function"
    },
    {
      "inputs": [
        {
          "internalType": "uint256",
          "name": "",
          "type": "uint256"
        }
      ],
      "name": "tokenIdToSale",
      "outputs": [
        {
          "internalType": "address",
          "name": "seller",
          "type": "address"
        },
        {
          "internalType": "uint256",
          "name": "tokenId",
          "type": "uint256"
        },
        {
          "internalType": "uint256",
          "name": "price",
          "type": "uint256"
        },
        {
          "internalType": "bool",
          "name": "sold",
          "type": "bool"
        }
      ],
      "stateMutability": "view",
      "type": "function"
    }
  ],
  "bytecode": "0x6080604052600560035534801561001557600080fd5b50604051610d74380380610d7483398101604081905261003491610059565b600080546001600160a01b0319166001600160a01b0392909216919091179055610089565b60006020828403121561006b57600080fd5b81516001600160a01b038116811461008257600080fd5b9392505050565b610cdc806100986000396000f3fe6080604052600436106100b15760003560e01c8063a001ecdd11610069578063b5f522f71161004e578063b5f522f71461020f578063bd94b0051461022f578063d96a094a1461024f57600080fd5b8063a001ecdd146101cb578063ae06c1b7146101ef57600080fd5b806347ccca021161009a57806347ccca021461015e5780636019061b146101965780638da5cb5b146101b857600080fd5b80630d83304c146100b657806338644c5e146100e1575b600080fd5b3480156100c257600080fd5b506100cb610262565b6040516100d89190610b2d565b60405180910390f35b3480156100ed57600080fd5b506101326100fc366004610b9c565b600260208190526000918252604090912080546001820154928201546003909201546001600160a01b0390911692919060ff1684565b604080516001600160a01b039095168552602085019390935291830152151560608201526080016100d8565b34801561016a57600080fd5b5060005461017e906001600160a01b031681565b6040516001600160a01b0390911681526020016100d8565b3480156101a257600080fd5b506101b66101b1366004610bb5565b6102f1565b005b3480156101c457600080fd5b503061017e565b3480156101d757600080fd5b506101e160035481565b6040519081526020016100d8565b3480156101fb57600080fd5b506101b661020a366004610b9c565b610560565b34801561021b57600080fd5b5061013261022a366004610b9c565b6105da565b34801561023b57600080fd5b506101b661024a366004610b9c565b610621565b6101b661025d366004610b9c565b610801565b60606001805480602002602001604051908101604052809291908181526020016000905b828210156102e8576000848152602090819020604080516080810182526004860290920180546001600160a01b03168352600180820154848601526002820154928401929092526003015460ff16151560608301529083529092019101610286565b50505050905090565b6000546040517f6352211e0000000000000000000000000000000000000000000000000000000081526004810184905233916001600160a01b031690636352211e9060240160206040518083038186803b15801561034e57600080fd5b505afa158015610362573d6000803e3d6000fd5b505050506040513d601f19601f820116820180604052508101906103869190610bd7565b6001600160a01b0316146103e15760405162461bcd60e51b815260206004820152601760248201527f596f7520646f206e6f74206f776e2074686973204e465400000000000000000060448201526064015b60405180910390fd5b60408051608081018252338082526020808301868152838501868152600060608601818152600180548082018255818452885160049091027fb10e2d527612073b26eecdfd717e6a320cf44b4afac2b0732d9fcbe2b7fa0cf6810180546001600160a01b0393841673ffffffffffffffffffffffffffffffffffffffff199182161790915587517fb10e2d527612073b26eecdfd717e6a320cf44b4afac2b0732d9fcbe2b7fa0cf783015586517fb10e2d527612073b26eecdfd717e6a320cf44b4afac2b0732d9fcbe2b7fa0cf883015584517fb10e2d527612073b26eecdfd717e6a320cf44b4afac2b0732d9fcbe2b7fa0cf9909201805492151560ff199384161790558d86526002808a52958c90208b5181549416939091169290921782559551918101919091559251918301919091555160039091018054911515919092161790559251848152919285927f2c5a9de64e99c2ab1b836ad03048ec0bef7c0a2af3dd947595c46274e50a7c8291015b60405180910390a3505050565b3330146105d55760405162461bcd60e51b815260206004820152603260248201527f4f6e6c792074686520636f6e7472616374206f776e65722063616e207365742060448201527f746865206665652070657263656e74616765000000000000000000000000000060648201526084016103d8565b600355565b600181815481106105ea57600080fd5b600091825260209091206004909102018054600182015460028301546003909301546001600160a01b039092169350919060ff1684565b6000818152600260205260409020546001600160a01b031633146106ad5760405162461bcd60e51b815260206004820152602260248201527f596f7520617265206e6f74207468652073656c6c6572206f662074686973204e60448201527f465400000000000000000000000000000000000000000000000000000000000060648201526084016103d8565b60008181526002602052604090206003015460ff161561070f5760405162461bcd60e51b815260206004820152601e60248201527f54686973204e46542068617320616c7265616479206265656e20736f6c64000060448201526064016103d8565b60008181526002602081905260408220805473ffffffffffffffffffffffffffffffffffffffff1916815560018101839055908101829055600301805460ff191690555b6001548110156107d257816001828154811061077157610771610c07565b90600052602060002090600402016001015414156107c057600180828154811061079d5761079d610c07565b60009182526020909120600490910201600301805460ff19169115159190911790555b806107ca81610c33565b915050610753565b5060405181907f2c56893f6f6026d19bd17b7d05c9f15c522de1ae2b1c3a825f91a73c799321f290600090a250565b600081815260026020526040902080546001600160a01b03166108665760405162461bcd60e51b815260206004820152601860248201527f54686973204e4654206973206e6f7420666f722073616c65000000000000000060448201526064016103d8565b600381015460ff16156108bb5760405162461bcd60e51b815260206004820152601e60248201527f54686973204e46542068617320616c7265616479206265656e20736f6c64000060448201526064016103d8565b8060020154341461090e5760405162461bcd60e51b815260206004820152601c60248201527f496e636f727265637420616d6f756e74206f66204554482073656e740000000060448201526064016103d8565b600054815460018301546040517f42842e0e0000000000000000000000000000000000000000000000000000000081526001600160a01b03928316600482015233602482015260448101919091529116906342842e0e90606401600060405180830381600087803b15801561098257600080fd5b505af1158015610996573d6000803e3d6000fd5b50505060008381526002602081905260408220805473ffffffffffffffffffffffffffffffffffffffff1916815560018101839055908101829055600301805460ff1916905590505b600154811015610a5e5782600182815481106109fd576109fd610c07565b9060005260206000209060040201600101541415610a4c576001808281548110610a2957610a29610c07565b60009182526020909120600490910201600301805460ff19169115159190911790555b80610a5681610c33565b9150506109df565b506000606460035434610a719190610c4e565b610a7b9190610c6d565b604051909150309082156108fc029083906000818181858888f19350505050158015610aab573d6000803e3d6000fd5b5081546001600160a01b03166108fc610ac48334610c8f565b6040518115909202916000818181858888f19350505050158015610aec573d6000803e3d6000fd5b5082336001600160a01b03167fd27b201d09e3da1bf82990e64d788700dd1e485be8cd747648aeacbf09fa21e6846002015460405161055391815260200190565b602080825282518282018190526000919060409081850190868401855b82811015610b8f57815180516001600160a01b031685528681015187860152858101518686015260609081015115159085015260809093019290850190600101610b4a565b5091979650505050505050565b600060208284031215610bae57600080fd5b5035919050565b60008060408385031215610bc857600080fd5b50508035926020909101359150565b600060208284031215610be957600080fd5b81516001600160a01b0381168114610c0057600080fd5b9392505050565b634e487b7160e01b600052603260045260246000fd5b634e487b7160e01b600052601160045260246000fd5b6000600019821415610c4757610c47610c1d565b5060010190565b6000816000190483118215151615610c6857610c68610c1d565b500290565b600082610c8a57634e487b7160e01b600052601260045260246000fd5b500490565b600082821015610ca157610ca1610c1d565b50039056fea264697066735822122004d84ea4af1676b57bc87f17e85e70766e6325ba39b9d6fba513fd87d854ec3664736f6c63430008090033",
  "linkReferences": {},
  "deployedLinkReferences": {}
}