{
  "_format": "hh-sol-artifact-1",
  "contractName": "NFTMarketplace",
  "sourceName": "contracts/NFTMarketplace .sol",
  "abi": [
    {
      "inputs": [
        {
          "internalType": "address",
          "name": "_nftAddress",
          "type": "address"
        }
      ],
      "stateMutability": "nonpayable",
      "type": "constructor"
    },
    {
      "anonymous": false,
      "inputs": [
        {
          "indexed": true,
          "internalType": "uint256",
          "name": "tokenId",
          "type": "uint256"
        }
      ],
      "name": "SaleCancelled",
      "type": "event"
    },
    {
      "anonymous": false,
      "inputs": [
        {
          "indexed": true,
          "internalType": "address",
          "name": "seller",
          "type": "address"
        },
        {
          "indexed": true,
          "internalType": "uint256",
          "name": "tokenId",
          "type": "uint256"
        },
        {
          "indexed": false,
          "internalType": "uint256",
          "name": "price",
          "type": "uint256"
        }
      ],
      "name": "SaleCreated",
      "type": "event"
    },
    {
      "anonymous": false,
      "inputs": [
        {
          "indexed": true,
          "internalType": "address",
          "name": "buyer",
          "type": "address"
        },
        {
          "indexed": true,
          "internalType": "uint256",
          "name": "tokenId",
          "type": "uint256"
        },
        {
          "indexed": false,
          "internalType": "uint256",
          "name": "price",
          "type": "uint256"
        }
      ],
      "name": "SaleSuccessful",
      "type": "event"
    },
    {
      "inputs": [
        {
          "internalType": "uint256",
          "name": "_tokenId",
          "type": "uint256"
        }
      ],
      "name": "buy",
      "outputs": [],
      "stateMutability": "payable",
      "type": "function"
    },
    {
      "inputs": [
        {
          "internalType": "uint256",
          "name": "_tokenId",
          "type": "uint256"
        }
      ],
      "name": "cancelSale",
      "outputs": [],
      "stateMutability": "nonpayable",
      "type": "function"
    },
    {
      "inputs": [
        {
          "internalType": "uint256",
          "name": "_tokenId",
          "type": "uint256"
        },
        {
          "internalType": "uint256",
          "name": "_price",
          "type": "uint256"
        }
      ],
      "name": "createSale",
      "outputs": [],
      "stateMutability": "nonpayable",
      "type": "function"
    },
    {
      "inputs": [],
      "name": "feePercentage",
      "outputs": [
        {
          "internalType": "uint256",
          "name": "",
          "type": "uint256"
        }
      ],
      "stateMutability": "view",
      "type": "function"
    },
    {
      "inputs": [
        {
          "internalType": "uint256",
          "name": "_tokenId",
          "type": "uint256"
        }
      ],
      "name": "getPrice",
      "outputs": [
        {
          "internalType": "uint256",
          "name": "",
          "type": "uint256"
        }
      ],
      "stateMutability": "view",
      "type": "function"
    },
    {
      "inputs": [],
      "name": "getSales",
      "outputs": [
        {
          "components": [
            {
              "internalType": "address",
              "name": "seller",
              "type": "address"
            },
            {
              "internalType": "uint256",
              "name": "tokenId",
              "type": "uint256"
            },
            {
              "internalType": "uint256",
              "name": "price",
              "type": "uint256"
            },
            {
              "internalType": "bool",
              "name": "sold",
              "type": "bool"
            }
          ],
          "internalType": "struct NFTMarketplace.Sale[]",
          "name": "",
          "type": "tuple[]"
        }
      ],
      "stateMutability": "view",
      "type": "function"
    },
    {
      "inputs": [],
      "name": "nft",
      "outputs": [
        {
          "internalType": "contract ERC721",
          "name": "",
          "type": "address"
        }
      ],
      "stateMutability": "view",
      "type": "function"
    },
    {
      "inputs": [],
      "name": "owner",
      "outputs": [
        {
          "internalType": "address",
          "name": "",
          "type": "address"
        }
      ],
      "stateMutability": "view",
      "type": "function"
    },
    {
      "inputs": [
        {
          "internalType": "uint256",
          "name": "",
          "type": "uint256"
        }
      ],
      "name": "sales",
      "outputs": [
        {
          "internalType": "address",
          "name": "seller",
          "type": "address"
        },
        {
          "internalType": "uint256",
          "name": "tokenId",
          "type": "uint256"
        },
        {
          "internalType": "uint256",
          "name": "price",
          "type": "uint256"
        },
        {
          "internalType": "bool",
          "name": "sold",
          "type": "bool"
        }
      ],
      "stateMutability": "view",
      "type": "function"
    },
    {
      "inputs": [
        {
          "internalType": "uint256",
          "name": "_feePercentage",
          "type": "uint256"
        }
      ],
      "name": "setFeePercentage",
      "outputs": [],
      "stateMutability": "nonpayable",
      "type": "function"
    },
    {
      "inputs": [
        {
          "internalType": "uint256",
          "name": "",
          "type": "uint256"
        }
      ],
      "name": "tokenIdToSale",
      "outputs": [
        {
          "internalType": "address",
          "name": "seller",
          "type": "address"
        },
        {
          "internalType": "uint256",
          "name": "tokenId",
          "type": "uint256"
        },
        {
          "internalType": "uint256",
          "name": "price",
          "type": "uint256"
        },
        {
          "internalType": "bool",
          "name": "sold",
          "type": "bool"
        }
      ],
      "stateMutability": "view",
      "type": "function"
    }
  ],
  "bytecode": "0x6080604052600560035534801561001557600080fd5b50604051610f6c380380610f6c83398101604081905261003491610059565b600080546001600160a01b0319166001600160a01b0392909216919091179055610089565b60006020828403121561006b57600080fd5b81516001600160a01b038116811461008257600080fd5b9392505050565b610ed4806100986000396000f3fe6080604052600436106100bc5760003560e01c8063a001ecdd11610074578063bd94b0051161004e578063bd94b0051461023a578063d96a094a1461025a578063e75722301461026d57600080fd5b8063a001ecdd146101d6578063ae06c1b7146101fa578063b5f522f71461021a57600080fd5b806347ccca02116100a557806347ccca02146101695780636019061b146101a15780638da5cb5b146101c357600080fd5b80630d83304c146100c157806338644c5e146100ec575b600080fd5b3480156100cd57600080fd5b506100d661028d565b6040516100e39190610d03565b60405180910390f35b3480156100f857600080fd5b5061013d610107366004610d72565b600260208190526000918252604090912080546001820154928201546003909201546001600160a01b0390911692919060ff1684565b604080516001600160a01b039095168552602085019390935291830152151560608201526080016100e3565b34801561017557600080fd5b50600054610189906001600160a01b031681565b6040516001600160a01b0390911681526020016100e3565b3480156101ad57600080fd5b506101c16101bc366004610d8b565b61031c565b005b3480156101cf57600080fd5b5030610189565b3480156101e257600080fd5b506101ec60035481565b6040519081526020016100e3565b34801561020657600080fd5b506101c1610215366004610d72565b61058b565b34801561022657600080fd5b5061013d610235366004610d72565b610605565b34801561024657600080fd5b506101c1610255366004610d72565b61064c565b6101c1610268366004610d72565b61082c565b34801561027957600080fd5b506101ec610288366004610d72565b610c61565b60606001805480602002602001604051908101604052809291908181526020016000905b82821015610313576000848152602090819020604080516080810182526004860290920180546001600160a01b03168352600180820154848601526002820154928401929092526003015460ff161515606083015290835290920191016102b1565b50505050905090565b6000546040517f6352211e0000000000000000000000000000000000000000000000000000000081526004810184905233916001600160a01b031690636352211e9060240160206040518083038186803b15801561037957600080fd5b505afa15801561038d573d6000803e3d6000fd5b505050506040513d601f19601f820116820180604052508101906103b19190610dad565b6001600160a01b03161461040c5760405162461bcd60e51b815260206004820152601760248201527f596f7520646f206e6f74206f776e2074686973204e465400000000000000000060448201526064015b60405180910390fd5b60408051608081018252338082526020808301868152838501868152600060608601818152600180548082018255818452885160049091027fb10e2d527612073b26eecdfd717e6a320cf44b4afac2b0732d9fcbe2b7fa0cf6810180546001600160a01b0393841673ffffffffffffffffffffffffffffffffffffffff199182161790915587517fb10e2d527612073b26eecdfd717e6a320cf44b4afac2b0732d9fcbe2b7fa0cf783015586517fb10e2d527612073b26eecdfd717e6a320cf44b4afac2b0732d9fcbe2b7fa0cf883015584517fb10e2d527612073b26eecdfd717e6a320cf44b4afac2b0732d9fcbe2b7fa0cf9909201805492151560ff199384161790558d86526002808a52958c90208b5181549416939091169290921782559551918101919091559251918301919091555160039091018054911515919092161790559251848152919285927f2c5a9de64e99c2ab1b836ad03048ec0bef7c0a2af3dd947595c46274e50a7c8291015b60405180910390a3505050565b3330146106005760405162461bcd60e51b815260206004820152603260248201527f4f6e6c792074686520636f6e7472616374206f776e65722063616e207365742060448201527f746865206665652070657263656e7461676500000000000000000000000000006064820152608401610403565b600355565b6001818154811061061557600080fd5b600091825260209091206004909102018054600182015460028301546003909301546001600160a01b039092169350919060ff1684565b6000818152600260205260409020546001600160a01b031633146106d85760405162461bcd60e51b815260206004820152602260248201527f596f7520617265206e6f74207468652073656c6c6572206f662074686973204e60448201527f46540000000000000000000000000000000000000000000000000000000000006064820152608401610403565b60008181526002602052604090206003015460ff161561073a5760405162461bcd60e51b815260206004820152601e60248201527f54686973204e46542068617320616c7265616479206265656e20736f6c6400006044820152606401610403565b60008181526002602081905260408220805473ffffffffffffffffffffffffffffffffffffffff1916815560018101839055908101829055600301805460ff191690555b6001548110156107fd57816001828154811061079c5761079c610ddd565b90600052602060002090600402016001015414156107eb5760018082815481106107c8576107c8610ddd565b60009182526020909120600490910201600301805460ff19169115159190911790555b806107f581610e09565b91505061077e565b5060405181907f2c56893f6f6026d19bd17b7d05c9f15c522de1ae2b1c3a825f91a73c799321f290600090a250565b600081815260026020526040902080546001600160a01b03166108915760405162461bcd60e51b815260206004820152601860248201527f54686973204e4654206973206e6f7420666f722073616c6500000000000000006044820152606401610403565b600381015460ff16156108e65760405162461bcd60e51b815260206004820152601e60248201527f54686973204e46542068617320616c7265616479206265656e20736f6c6400006044820152606401610403565b806002015434146109395760405162461bcd60e51b815260206004820152601c60248201527f496e636f727265637420616d6f756e74206f66204554482073656e74000000006044820152606401610403565b60005481546040517fe985e9c50000000000000000000000000000000000000000000000000000000081526001600160a01b03918216600482015230602482015291169063e985e9c59060440160206040518083038186803b15801561099e57600080fd5b505afa1580156109b2573d6000803e3d6000fd5b505050506040513d601f19601f820116820180604052508101906109d69190610e24565b610a485760405162461bcd60e51b815260206004820152602d60248201527f436f6e7472616374206973206e6f7420617070726f76656420746f207472616e60448201527f736665722074686973204e4654000000000000000000000000000000000000006064820152608401610403565b60005481546040517f42842e0e0000000000000000000000000000000000000000000000000000000081526001600160a01b039182166004820152336024820152604481018590529116906342842e0e90606401600060405180830381600087803b158015610ab657600080fd5b505af1158015610aca573d6000803e3d6000fd5b50505060008381526002602081905260408220805473ffffffffffffffffffffffffffffffffffffffff1916815560018101839055908101829055600301805460ff1916905590505b600154811015610b92578260018281548110610b3157610b31610ddd565b9060005260206000209060040201600101541415610b80576001808281548110610b5d57610b5d610ddd565b60009182526020909120600490910201600301805460ff19169115159190911790555b80610b8a81610e09565b915050610b13565b506000606460035434610ba59190610e46565b610baf9190610e65565b604051909150309082156108fc029083906000818181858888f19350505050158015610bdf573d6000803e3d6000fd5b5081546001600160a01b03166108fc610bf88334610e87565b6040518115909202916000818181858888f19350505050158015610c20573d6000803e3d6000fd5b5082336001600160a01b03167fd27b201d09e3da1bf82990e64d788700dd1e485be8cd747648aeacbf09fa21e6846002015460405161057e91815260200190565b6000818152600260208181526040808420815160808101835281546001600160a01b031680825260018301549482019490945293810154918401919091526003015460ff1615156060830152610cf95760405162461bcd60e51b815260206004820152601860248201527f54686973204e4654206973206e6f7420666f722073616c6500000000000000006044820152606401610403565b6040015192915050565b602080825282518282018190526000919060409081850190868401855b82811015610d6557815180516001600160a01b031685528681015187860152858101518686015260609081015115159085015260809093019290850190600101610d20565b5091979650505050505050565b600060208284031215610d8457600080fd5b5035919050565b60008060408385031215610d9e57600080fd5b50508035926020909101359150565b600060208284031215610dbf57600080fd5b81516001600160a01b0381168114610dd657600080fd5b9392505050565b634e487b7160e01b600052603260045260246000fd5b634e487b7160e01b600052601160045260246000fd5b6000600019821415610e1d57610e1d610df3565b5060010190565b600060208284031215610e3657600080fd5b81518015158114610dd657600080fd5b6000816000190483118215151615610e6057610e60610df3565b500290565b600082610e8257634e487b7160e01b600052601260045260246000fd5b500490565b600082821015610e9957610e99610df3565b50039056fea26469706673582212204b75764ca5a0f7339f79c9165e2d6097bc3923f9455e9065405bb14dcb27045164736f6c63430008090033",
  "linkReferences": {},
  "deployedLinkReferences": {}
}