{
  "_format": "hh-sol-artifact-1",
  "contractName": "PoolNFT",
  "sourceName": "src/blockchain/contracts/PoolNFT.sol",
  "abi": [
    {
      "inputs": [
        {
          "internalType": "contract InnomicNFT",
          "name": "_token",
          "type": "address"
        }
      ],
      "stateMutability": "nonpayable",
      "type": "constructor"
    },
    {
      "stateMutability": "payable",
      "type": "fallback"
    },
    {
      "inputs": [
        {
          "internalType": "uint256",
          "name": "tokenId",
          "type": "uint256"
        },
        {
          "internalType": "address",
          "name": "owner",
          "type": "address"
        }
      ],
      "name": "guardar",
      "outputs": [],
      "stateMutability": "nonpayable",
      "type": "function"
    },
    {
      "inputs": [
        {
          "internalType": "address",
          "name": "",
          "type": "address"
        },
        {
          "internalType": "address",
          "name": "",
          "type": "address"
        },
        {
          "internalType": "uint256",
          "name": "",
          "type": "uint256"
        },
        {
          "internalType": "bytes",
          "name": "",
          "type": "bytes"
        }
      ],
      "name": "onERC721Received",
      "outputs": [
        {
          "internalType": "bytes4",
          "name": "",
          "type": "bytes4"
        }
      ],
      "stateMutability": "nonpayable",
      "type": "function"
    },
    {
      "inputs": [
        {
          "internalType": "uint256",
          "name": "tokenId",
          "type": "uint256"
        },
        {
          "internalType": "address",
          "name": "owner",
          "type": "address"
        }
      ],
      "name": "sacar",
      "outputs": [],
      "stateMutability": "nonpayable",
      "type": "function"
    },
    {
      "inputs": [
        {
          "internalType": "uint256",
          "name": "money",
          "type": "uint256"
        },
        {
          "internalType": "address payable",
          "name": "owner",
          "type": "address"
        }
      ],
      "name": "sacarDinero",
      "outputs": [],
      "stateMutability": "nonpayable",
      "type": "function"
    },
    {
      "inputs": [],
      "name": "token",
      "outputs": [
        {
          "internalType": "contract InnomicNFT",
          "name": "",
          "type": "address"
        }
      ],
      "stateMutability": "view",
      "type": "function"
    },
    {
      "stateMutability": "payable",
      "type": "receive"
    }
  ],
  "bytecode": "0x60a060405234801561001057600080fd5b5060405161053c38038061053c83398101604081905261002f91610040565b6001600160a01b0316608052610070565b60006020828403121561005257600080fd5b81516001600160a01b038116811461006957600080fd5b9392505050565b6080516104aa6100926000396000818161015d015261026501526104aa6000f3fe60806040526004361061004b5760003560e01c80630f92329714610054578063150b7a02146100745780633b3f30aa146100d5578063d058e437146100f5578063fc0c546a1461014b57005b3661005257005b005b34801561006057600080fd5b5061005261006f36600461034e565b610197565b34801561008057600080fd5b5061009f61008f366004610394565b630a85bd0160e11b949350505050565b6040517fffffffff0000000000000000000000000000000000000000000000000000000090911681526020015b60405180910390f35b3480156100e157600080fd5b506100526100f036600461034e565b6101d2565b34801561010157600080fd5b5061005261011036600461034e565b600091825260208290526040909120805473ffffffffffffffffffffffffffffffffffffffff19166001600160a01b03909216919091179055565b34801561015757600080fd5b5061017f7f000000000000000000000000000000000000000000000000000000000000000081565b6040516001600160a01b0390911681526020016100cc565b6040516001600160a01b0382169083156108fc029084906000818181858888f193505050501580156101cd573d6000803e3d6000fd5b505050565b6000828152602081905260409020546001600160a01b0382811691161461023f5760405162461bcd60e51b815260206004820152601a60248201527f6c6f7320746f6b656e206e6f2074652070657274656e6563656e000000000000604482015260640160405180910390fd5b6040516379016e1760e11b81526001600160a01b038281166004830152602482018490527f0000000000000000000000000000000000000000000000000000000000000000169063f202dc2e90604401600060405180830381600087803b1580156102a957600080fd5b505af11580156102bd573d6000803e3d6000fd5b5050506000838152602081815260409182902054915160609290921b6bffffffffffffffffffffffff191690820152603401905060405160208183030381529060405251600014610332576000828152602081905260409020805473ffffffffffffffffffffffffffffffffffffffff191690555b5050565b6001600160a01b038116811461034b57600080fd5b50565b6000806040838503121561036157600080fd5b82359150602083013561037381610336565b809150509250929050565b634e487b7160e01b600052604160045260246000fd5b600080600080608085870312156103aa57600080fd5b84356103b581610336565b935060208501356103c581610336565b925060408501359150606085013567ffffffffffffffff808211156103e957600080fd5b818701915087601f8301126103fd57600080fd5b81358181111561040f5761040f61037e565b604051601f8201601f19908116603f011681019083821181831017156104375761043761037e565b816040528281528a602084870101111561045057600080fd5b8260208601602083013760006020848301015280955050505050509295919450925056fea26469706673582212208a00da62722d20d3dc095442896fc65c1270bc6d1d2818bc0bf59177f8c5de1364736f6c63430008090033",
  "linkReferences": {},
  "deployedLinkReferences": {}
}