{
  "_format": "hh-sol-artifact-1",
  "contractName": "PoolNFT",
  "sourceName": "contracts/PoolNFT.sol",
  "abi": [
    {
      "inputs": [
        {
          "internalType": "contract InnomicNFT",
          "name": "_token",
          "type": "address"
        }
      ],
      "stateMutability": "nonpayable",
      "type": "constructor"
    },
    {
      "inputs": [
        {
          "internalType": "uint256",
          "name": "tokenId",
          "type": "uint256"
        },
        {
          "internalType": "address",
          "name": "owner",
          "type": "address"
        }
      ],
      "name": "guardar",
      "outputs": [],
      "stateMutability": "nonpayable",
      "type": "function"
    },
    {
      "inputs": [
        {
          "internalType": "address",
          "name": "",
          "type": "address"
        },
        {
          "internalType": "address",
          "name": "",
          "type": "address"
        },
        {
          "internalType": "uint256",
          "name": "",
          "type": "uint256"
        },
        {
          "internalType": "bytes",
          "name": "",
          "type": "bytes"
        }
      ],
      "name": "onERC721Received",
      "outputs": [
        {
          "internalType": "bytes4",
          "name": "",
          "type": "bytes4"
        }
      ],
      "stateMutability": "nonpayable",
      "type": "function"
    },
    {
      "inputs": [
        {
          "internalType": "uint256",
          "name": "tokenId",
          "type": "uint256"
        },
        {
          "internalType": "address",
          "name": "owner",
          "type": "address"
        }
      ],
      "name": "sacar",
      "outputs": [],
      "stateMutability": "nonpayable",
      "type": "function"
    },
    {
      "inputs": [],
      "name": "token",
      "outputs": [
        {
          "internalType": "contract InnomicNFT",
          "name": "",
          "type": "address"
        }
      ],
      "stateMutability": "view",
      "type": "function"
    }
  ],
  "bytecode": "0x60a060405234801561001057600080fd5b5060405161050c38038061050c83398101604081905261002f91610040565b6001600160a01b0316608052610070565b60006020828403121561005257600080fd5b81516001600160a01b038116811461006957600080fd5b9392505050565b60805161047a610092600039600081816101210152610291015261047a6000f3fe608060405234801561001057600080fd5b506004361061004c5760003560e01c8063150b7a02146100515780633b3f30aa146100be578063d058e437146100d3578063fc0c546a1461011c575b600080fd5b61008861005f36600461033c565b7f150b7a0200000000000000000000000000000000000000000000000000000000949350505050565b6040517fffffffff0000000000000000000000000000000000000000000000000000000090911681526020015b60405180910390f35b6100d16100cc366004610418565b61015b565b005b6100d16100e1366004610418565b600091825260208290526040909120805473ffffffffffffffffffffffffffffffffffffffff19166001600160a01b03909216919091179055565b6101437f000000000000000000000000000000000000000000000000000000000000000081565b6040516001600160a01b0390911681526020016100b5565b6000828152602081905260409020546001600160a01b038281169116146101e2576040517f08c379a000000000000000000000000000000000000000000000000000000000815260206004820152601a60248201527f6c6f7320746f6b656e206e6f2074652070657274656e6563656e000000000000604482015260640160405180910390fd5b6000828152602081815260409182902054915160609290921b6bffffffffffffffffffffffff19169082015260340160405160208183030381529060405251600014610252576000828152602081905260409020805473ffffffffffffffffffffffffffffffffffffffff191690555b6040517ff202dc2e0000000000000000000000000000000000000000000000000000000081526001600160a01b038281166004830152602482018490527f0000000000000000000000000000000000000000000000000000000000000000169063f202dc2e90604401600060405180830381600087803b1580156102d557600080fd5b505af11580156102e9573d6000803e3d6000fd5b505050505050565b80356001600160a01b038116811461030857600080fd5b919050565b7f4e487b7100000000000000000000000000000000000000000000000000000000600052604160045260246000fd5b6000806000806080858703121561035257600080fd5b61035b856102f1565b9350610369602086016102f1565b925060408501359150606085013567ffffffffffffffff8082111561038d57600080fd5b818701915087601f8301126103a157600080fd5b8135818111156103b3576103b361030d565b604051601f8201601f19908116603f011681019083821181831017156103db576103db61030d565b816040528281528a60208487010111156103f457600080fd5b82602086016020830137600060208483010152809550505050505092959194509250565b6000806040838503121561042b57600080fd5b8235915061043b602084016102f1565b9050925092905056fea26469706673582212200da57571c44c1c616976cb455c6010be80e7592cd08466fee373e48c5728a66664736f6c63430008090033",
  "linkReferences": {},
  "deployedLinkReferences": {}
}