{
  "_format": "hh-sol-artifact-1",
  "contractName": "InnomicNFT",
  "sourceName": "contracts/InnomicNFT.sol",
  "abi": [
    {
      "inputs": [
        {
          "internalType": "string",
          "name": "name_",
          "type": "string"
        },
        {
          "internalType": "string",
          "name": "symbol_",
          "type": "string"
        },
        {
          "internalType": "string",
          "name": "newBaseURI",
          "type": "string"
        },
        {
          "internalType": "uint256[]",
          "name": "carpetas",
          "type": "uint256[]"
        },
        {
          "internalType": "string[]",
          "name": "clases_",
          "type": "string[]"
        },
        {
          "internalType": "uint256",
          "name": "lc",
          "type": "uint256"
        },
        {
          "internalType": "uint256",
          "name": "ld",
          "type": "uint256"
        },
        {
          "internalType": "uint256[]",
          "name": "dorados",
          "type": "uint256[]"
        },
        {
          "internalType": "uint256",
          "name": "lm",
          "type": "uint256"
        },
        {
          "internalType": "uint256[]",
          "name": "morados",
          "type": "uint256[]"
        }
      ],
      "stateMutability": "nonpayable",
      "type": "constructor"
    },
    {
      "anonymous": false,
      "inputs": [
        {
          "indexed": true,
          "internalType": "address",
          "name": "owner",
          "type": "address"
        },
        {
          "indexed": true,
          "internalType": "address",
          "name": "approved",
          "type": "address"
        },
        {
          "indexed": true,
          "internalType": "uint256",
          "name": "tokenId",
          "type": "uint256"
        }
      ],
      "name": "Approval",
      "type": "event"
    },
    {
      "anonymous": false,
      "inputs": [
        {
          "indexed": true,
          "internalType": "address",
          "name": "owner",
          "type": "address"
        },
        {
          "indexed": true,
          "internalType": "address",
          "name": "operator",
          "type": "address"
        },
        {
          "indexed": false,
          "internalType": "bool",
          "name": "approved",
          "type": "bool"
        }
      ],
      "name": "ApprovalForAll",
      "type": "event"
    },
    {
      "anonymous": false,
      "inputs": [
        {
          "indexed": true,
          "internalType": "address",
          "name": "from",
          "type": "address"
        },
        {
          "indexed": true,
          "internalType": "address",
          "name": "to",
          "type": "address"
        },
        {
          "indexed": true,
          "internalType": "uint256",
          "name": "tokenId",
          "type": "uint256"
        }
      ],
      "name": "Transfer",
      "type": "event"
    },
    {
      "inputs": [
        {
          "internalType": "uint256",
          "name": "carpeta",
          "type": "uint256"
        },
        {
          "internalType": "string",
          "name": "clase_",
          "type": "string"
        }
      ],
      "name": "_addClase",
      "outputs": [],
      "stateMutability": "nonpayable",
      "type": "function"
    },
    {
      "inputs": [
        {
          "internalType": "uint256",
          "name": "tokenId",
          "type": "uint256"
        }
      ],
      "name": "_getColor",
      "outputs": [
        {
          "internalType": "uint256",
          "name": "",
          "type": "uint256"
        }
      ],
      "stateMutability": "view",
      "type": "function"
    },
    {
      "inputs": [
        {
          "internalType": "address",
          "name": "to",
          "type": "address"
        }
      ],
      "name": "_mintTokenAllowedToEarn",
      "outputs": [],
      "stateMutability": "nonpayable",
      "type": "function"
    },
    {
      "inputs": [
        {
          "internalType": "address",
          "name": "to",
          "type": "address"
        }
      ],
      "name": "_mintTokenNotAllowedToEarn",
      "outputs": [],
      "stateMutability": "nonpayable",
      "type": "function"
    },
    {
      "inputs": [
        {
          "internalType": "address",
          "name": "to",
          "type": "address"
        },
        {
          "internalType": "uint256",
          "name": "tokenId",
          "type": "uint256"
        }
      ],
      "name": "_safeTransfer",
      "outputs": [],
      "stateMutability": "nonpayable",
      "type": "function"
    },
    {
      "inputs": [
        {
          "internalType": "address",
          "name": "to",
          "type": "address"
        },
        {
          "internalType": "uint256",
          "name": "tokenId",
          "type": "uint256"
        }
      ],
      "name": "_safeTransferPool",
      "outputs": [],
      "stateMutability": "nonpayable",
      "type": "function"
    },
    {
      "inputs": [
        {
          "internalType": "string",
          "name": "newBaseURI",
          "type": "string"
        }
      ],
      "name": "_setBaseURI",
      "outputs": [],
      "stateMutability": "nonpayable",
      "type": "function"
    },
    {
      "inputs": [
        {
          "internalType": "uint256",
          "name": "l",
          "type": "uint256"
        },
        {
          "internalType": "uint256[]",
          "name": "dorados",
          "type": "uint256[]"
        }
      ],
      "name": "_setDorados",
      "outputs": [],
      "stateMutability": "nonpayable",
      "type": "function"
    },
    {
      "inputs": [
        {
          "internalType": "uint256",
          "name": "newmod",
          "type": "uint256"
        }
      ],
      "name": "_setMod",
      "outputs": [],
      "stateMutability": "nonpayable",
      "type": "function"
    },
    {
      "inputs": [
        {
          "internalType": "uint256",
          "name": "l",
          "type": "uint256"
        },
        {
          "internalType": "uint256[]",
          "name": "morados",
          "type": "uint256[]"
        }
      ],
      "name": "_setMorados",
      "outputs": [],
      "stateMutability": "nonpayable",
      "type": "function"
    },
    {
      "inputs": [
        {
          "internalType": "string",
          "name": "newBaseURI",
          "type": "string"
        },
        {
          "internalType": "uint256[]",
          "name": "carpetas",
          "type": "uint256[]"
        },
        {
          "internalType": "string[]",
          "name": "clases_",
          "type": "string[]"
        },
        {
          "internalType": "uint256",
          "name": "lc",
          "type": "uint256"
        },
        {
          "internalType": "uint256",
          "name": "ld",
          "type": "uint256"
        },
        {
          "internalType": "uint256[]",
          "name": "dorados",
          "type": "uint256[]"
        },
        {
          "internalType": "uint256",
          "name": "lm",
          "type": "uint256"
        },
        {
          "internalType": "uint256[]",
          "name": "morados",
          "type": "uint256[]"
        }
      ],
      "name": "_setTanda",
      "outputs": [],
      "stateMutability": "nonpayable",
      "type": "function"
    },
    {
      "inputs": [
        {
          "internalType": "uint256",
          "name": "newlimite",
          "type": "uint256"
        }
      ],
      "name": "_setlimite",
      "outputs": [],
      "stateMutability": "nonpayable",
      "type": "function"
    },
    {
      "inputs": [
        {
          "internalType": "address",
          "name": "to",
          "type": "address"
        },
        {
          "internalType": "uint256",
          "name": "tokenId",
          "type": "uint256"
        }
      ],
      "name": "approve",
      "outputs": [],
      "stateMutability": "nonpayable",
      "type": "function"
    },
    {
      "inputs": [],
      "name": "balance",
      "outputs": [
        {
          "internalType": "uint256",
          "name": "",
          "type": "uint256"
        }
      ],
      "stateMutability": "view",
      "type": "function"
    },
    {
      "inputs": [
        {
          "internalType": "address",
          "name": "owner",
          "type": "address"
        }
      ],
      "name": "balanceOf",
      "outputs": [
        {
          "internalType": "uint256",
          "name": "",
          "type": "uint256"
        }
      ],
      "stateMutability": "view",
      "type": "function"
    },
    {
      "inputs": [
        {
          "internalType": "uint256",
          "name": "tokenId",
          "type": "uint256"
        }
      ],
      "name": "claseToken",
      "outputs": [
        {
          "internalType": "string",
          "name": "",
          "type": "string"
        }
      ],
      "stateMutability": "view",
      "type": "function"
    },
    {
      "inputs": [
        {
          "internalType": "uint256",
          "name": "tokenId",
          "type": "uint256"
        }
      ],
      "name": "downgrade",
      "outputs": [],
      "stateMutability": "nonpayable",
      "type": "function"
    },
    {
      "inputs": [
        {
          "internalType": "uint256",
          "name": "tokenId",
          "type": "uint256"
        }
      ],
      "name": "getApproved",
      "outputs": [
        {
          "internalType": "address",
          "name": "",
          "type": "address"
        }
      ],
      "stateMutability": "view",
      "type": "function"
    },
    {
      "inputs": [
        {
          "internalType": "uint256",
          "name": "tokenId",
          "type": "uint256"
        }
      ],
      "name": "isAllowedToEarn",
      "outputs": [
        {
          "internalType": "bool",
          "name": "",
          "type": "bool"
        }
      ],
      "stateMutability": "view",
      "type": "function"
    },
    {
      "inputs": [
        {
          "internalType": "address",
          "name": "owner",
          "type": "address"
        },
        {
          "internalType": "address",
          "name": "operator",
          "type": "address"
        }
      ],
      "name": "isApprovedForAll",
      "outputs": [
        {
          "internalType": "bool",
          "name": "",
          "type": "bool"
        }
      ],
      "stateMutability": "view",
      "type": "function"
    },
    {
      "inputs": [],
      "name": "limite",
      "outputs": [
        {
          "internalType": "uint256",
          "name": "",
          "type": "uint256"
        }
      ],
      "stateMutability": "view",
      "type": "function"
    },
    {
      "inputs": [],
      "name": "name",
      "outputs": [
        {
          "internalType": "string",
          "name": "",
          "type": "string"
        }
      ],
      "stateMutability": "view",
      "type": "function"
    },
    {
      "inputs": [
        {
          "internalType": "uint256",
          "name": "tokenId",
          "type": "uint256"
        }
      ],
      "name": "numClase",
      "outputs": [
        {
          "internalType": "string",
          "name": "",
          "type": "string"
        }
      ],
      "stateMutability": "view",
      "type": "function"
    },
    {
      "inputs": [
        {
          "internalType": "uint256",
          "name": "tokenId",
          "type": "uint256"
        }
      ],
      "name": "ownerOf",
      "outputs": [
        {
          "internalType": "address",
          "name": "",
          "type": "address"
        }
      ],
      "stateMutability": "view",
      "type": "function"
    },
    {
      "inputs": [],
      "name": "poolNFT",
      "outputs": [
        {
          "internalType": "contract PoolNFT",
          "name": "",
          "type": "address"
        }
      ],
      "stateMutability": "view",
      "type": "function"
    },
    {
      "inputs": [
        {
          "internalType": "address",
          "name": "from",
          "type": "address"
        },
        {
          "internalType": "address",
          "name": "to",
          "type": "address"
        },
        {
          "internalType": "uint256",
          "name": "tokenId",
          "type": "uint256"
        }
      ],
      "name": "safeTransferFrom",
      "outputs": [],
      "stateMutability": "nonpayable",
      "type": "function"
    },
    {
      "inputs": [
        {
          "internalType": "address",
          "name": "from",
          "type": "address"
        },
        {
          "internalType": "address",
          "name": "to",
          "type": "address"
        },
        {
          "internalType": "uint256",
          "name": "tokenId",
          "type": "uint256"
        },
        {
          "internalType": "bytes",
          "name": "data",
          "type": "bytes"
        }
      ],
      "name": "safeTransferFrom",
      "outputs": [],
      "stateMutability": "nonpayable",
      "type": "function"
    },
    {
      "inputs": [
        {
          "internalType": "address",
          "name": "operator",
          "type": "address"
        },
        {
          "internalType": "bool",
          "name": "approved",
          "type": "bool"
        }
      ],
      "name": "setApprovalForAll",
      "outputs": [],
      "stateMutability": "nonpayable",
      "type": "function"
    },
    {
      "inputs": [
        {
          "internalType": "address",
          "name": "poola",
          "type": "address"
        },
        {
          "internalType": "contract PoolNFT",
          "name": "pool",
          "type": "address"
        }
      ],
      "name": "setPoolNFT",
      "outputs": [],
      "stateMutability": "nonpayable",
      "type": "function"
    },
    {
      "inputs": [
        {
          "internalType": "bytes4",
          "name": "interfaceId",
          "type": "bytes4"
        }
      ],
      "name": "supportsInterface",
      "outputs": [
        {
          "internalType": "bool",
          "name": "",
          "type": "bool"
        }
      ],
      "stateMutability": "view",
      "type": "function"
    },
    {
      "inputs": [],
      "name": "symbol",
      "outputs": [
        {
          "internalType": "string",
          "name": "",
          "type": "string"
        }
      ],
      "stateMutability": "view",
      "type": "function"
    },
    {
      "inputs": [
        {
          "internalType": "uint256",
          "name": "tokenId",
          "type": "uint256"
        }
      ],
      "name": "tokenURI",
      "outputs": [
        {
          "internalType": "string",
          "name": "",
          "type": "string"
        }
      ],
      "stateMutability": "view",
      "type": "function"
    },
    {
      "inputs": [
        {
          "internalType": "address",
          "name": "from",
          "type": "address"
        },
        {
          "internalType": "address",
          "name": "to",
          "type": "address"
        },
        {
          "internalType": "uint256",
          "name": "tokenId",
          "type": "uint256"
        }
      ],
      "name": "transferFrom",
      "outputs": [],
      "stateMutability": "nonpayable",
      "type": "function"
    },
    {
      "inputs": [
        {
          "internalType": "uint256",
          "name": "tokenId1",
          "type": "uint256"
        },
        {
          "internalType": "uint256",
          "name": "tokenId2",
          "type": "uint256"
        },
        {
          "internalType": "uint256",
          "name": "tokenId3",
          "type": "uint256"
        }
      ],
      "name": "upgrade",
      "outputs": [],
      "stateMutability": "nonpayable",
      "type": "function"
    }
  ],
  "bytecode": "0x6080604052600880556002600a556000600d553480156200001f57600080fd5b506040516200410738038062004107833981016040819052620000429162000548565b89518a908a906200005b906000906020850190620002a2565b50805162000071906001906020840190620002a2565b5050506200008c88888888888888886200009c60201b60201c565b505050505050505050506200075b565b600d8054906000620000ae83620006ad565b919050555060005b858110156200013b5762000126888281518110620000d857620000d8620006cb565b6020026020010151600d546064620000f19190620006e1565b620000fd919062000703565b888381518110620001125762000112620006cb565b60200260200101516200016960201b60201c565b806200013281620006ad565b915050620000b6565b506200014884846200018f565b6200015482826200020c565b6200015f8862000289565b5050505050505050565b600082815260106020908152604090912082516200018a92840190620002a2565b505050565b60005b828110156200018a57600160146000600d5481526020019081526020016000206000848481518110620001c957620001c9620006cb565b6020026020010151815260200190815260200160002060006101000a81548160ff02191690831515021790555080806200020390620006ad565b91505062000192565b60005b828110156200018a57600160156000600d5481526020019081526020016000206000848481518110620002465762000246620006cb565b6020026020010151815260200190815260200160002060006101000a81548160ff02191690831515021790555080806200028090620006ad565b9150506200020f565b80516200029e906007906020840190620002a2565b5050565b828054620002b0906200071e565b90600052602060002090601f016020900481019282620002d457600085556200031f565b82601f10620002ef57805160ff19168380011785556200031f565b828001600101855582156200031f579182015b828111156200031f57825182559160200191906001019062000302565b506200032d92915062000331565b5090565b5b808211156200032d576000815560010162000332565b634e487b7160e01b600052604160045260246000fd5b604051601f8201601f191681016001600160401b038111828210171562000389576200038962000348565b604052919050565b600082601f830112620003a357600080fd5b81516001600160401b03811115620003bf57620003bf62000348565b6020620003d5601f8301601f191682016200035e565b8281528582848701011115620003ea57600080fd5b60005b838110156200040a578581018301518282018401528201620003ed565b838111156200041c5760008385840101525b5095945050505050565b60006001600160401b0382111562000442576200044262000348565b5060051b60200190565b600082601f8301126200045e57600080fd5b8151602062000477620004718362000426565b6200035e565b82815260059290921b840181019181810190868411156200049757600080fd5b8286015b84811015620004b457805183529183019183016200049b565b509695505050505050565b600082601f830112620004d157600080fd5b81516020620004e4620004718362000426565b82815260059290921b840181019181810190868411156200050457600080fd5b8286015b84811015620004b45780516001600160401b03811115620005295760008081fd5b620005398986838b010162000391565b84525091830191830162000508565b6000806000806000806000806000806101408b8d0312156200056957600080fd5b8a516001600160401b03808211156200058157600080fd5b6200058f8e838f0162000391565b9b5060208d0151915080821115620005a657600080fd5b620005b48e838f0162000391565b9a5060408d0151915080821115620005cb57600080fd5b620005d98e838f0162000391565b995060608d0151915080821115620005f057600080fd5b620005fe8e838f016200044c565b985060808d01519150808211156200061557600080fd5b620006238e838f01620004bf565b975060a08d0151965060c08d0151955060e08d01519150808211156200064857600080fd5b620006568e838f016200044c565b94506101008d015193506101208d01519150808211156200067657600080fd5b50620006858d828e016200044c565b9150509295989b9194979a5092959850565b634e487b7160e01b600052601160045260246000fd5b6000600019821415620006c457620006c462000697565b5060010190565b634e487b7160e01b600052603260045260246000fd5b6000816000190483118215151615620006fe57620006fe62000697565b500290565b6000821982111562000719576200071962000697565b500190565b600181811c908216806200073357607f821691505b602082108114156200075557634e487b7160e01b600052602260045260246000fd5b50919050565b61399c806200076b6000396000f3fe608060405234801561001057600080fd5b50600436106102265760003560e01c806395d89b411161012a578063c87b56dd116100bd578063e985e9c51161008c578063f202dc2e11610071578063f202dc2e146104ba578063f4842257146104cd578063fe1538d41461050957600080fd5b8063e985e9c51461046b578063ef0b2307146104a757600080fd5b8063c87b56dd14610425578063cb9375d31461030b578063d572c38f14610438578063dca77ad21461045857600080fd5b8063b69ef8a8116100f9578063b69ef8a8146103e4578063b88d4fde146103ec578063bf5da0c5146103ff578063c4f8210e1461041257600080fd5b806395d89b41146103a3578063a0b49778146103ab578063a22cb465146103be578063ac12914f146103d157600080fd5b806342842e0e116101bd5780636f52598b1161018c5780637bafd87e116101715780637bafd87e1461036a5780638527788a1461037d57806385dd90331461039057600080fd5b80636f52598b1461034457806370a082311461035757600080fd5b806342842e0e146102f85780634e72a6fa1461030b57806359b17c5e1461031e5780636352211e1461033157600080fd5b806311bcc81e116101f957806311bcc81e146102a857806320eb8e53146102bb57806323b872dd146102d257806331b5b907146102e557600080fd5b806301ffc9a71461022b57806306fdde0314610253578063081812fc14610268578063095ea7b314610293575b600080fd5b61023e6102393660046131b7565b61051c565b60405190151581526020015b60405180910390f35b61025b6105b9565b60405161024a9190613233565b61027b610276366004613246565b61064b565b6040516001600160a01b03909116815260200161024a565b6102a66102a1366004613274565b610672565b005b6102a66102b6366004613246565b6107a9565b6102c4600a5481565b60405190815260200161024a565b6102a66102e03660046132a0565b610a43565b6102a66102f33660046133a0565b610aba565b6102a66103063660046132a0565b610ad1565b61025b610319366004613246565b610aec565b6102a661032c3660046133d5565b610b90565b61027b61033f366004613246565b610dc4565b6102a66103523660046133d5565b610e29565b6102c46103653660046133d5565b61105b565b61023e610378366004613246565b6110f5565b6102a661038b366004613481565b611116565b6102a661039e366004613246565b600a55565b61025b61118c565b60175461027b906001600160a01b031681565b6102a66103cc3660046134c8565b61119b565b6102a66103df366004613586565b6111a6565b6009546102c4565b6102a66103fa366004613675565b611255565b6102a661040d366004613246565b600855565b6102a6610420366004613274565b6112d3565b61025b610433366004613246565b611358565b6102c4610446366004613246565b60009081526013602052604090205490565b6102a66104663660046136f5565b61137c565b61023e610479366004613732565b6001600160a01b03918216600090815260056020908152604080832093909416825291909152205460ff1690565b6102a66104b5366004613481565b61139b565b6102a66104c8366004613274565b611411565b6102a66104db366004613732565b601680546001600160a01b039384166001600160a01b03199182161790915560178054929093169116179055565b6102a6610517366004613760565b61143a565b60006001600160e01b031982167f80ac58cd00000000000000000000000000000000000000000000000000000000148061057f57506001600160e01b031982167f5b5e139f00000000000000000000000000000000000000000000000000000000145b806105b357507f01ffc9a7000000000000000000000000000000000000000000000000000000006001600160e01b03198316145b92915050565b6060600080546105c89061378c565b80601f01602080910402602001604051908101604052809291908181526020018280546105f49061378c565b80156106415780601f1061061657610100808354040283529160200191610641565b820191906000526020600020905b81548152906001019060200180831161062457829003601f168201915b5050505050905090565b600061065682611946565b506000908152600460205260409020546001600160a01b031690565b600061067d82610dc4565b9050806001600160a01b0316836001600160a01b0316141561070c5760405162461bcd60e51b815260206004820152602160248201527f4552433732313a20617070726f76616c20746f2063757272656e74206f776e6560448201527f720000000000000000000000000000000000000000000000000000000000000060648201526084015b60405180910390fd5b336001600160a01b038216148061072857506107288133610479565b61079a5760405162461bcd60e51b815260206004820152603d60248201527f4552433732313a20617070726f76652063616c6c6572206973206e6f7420746f60448201527f6b656e206f776e6572206f7220617070726f76656420666f7220616c6c0000006064820152608401610703565b6107a483836119aa565b505050565b6000818152600c6020526040902054600160ff909116116108325760405162461bcd60e51b815260206004820152602260248201527f656c20746f6b656e206465626520736572206465206c766c206d61796f72206160448201527f20310000000000000000000000000000000000000000000000000000000000006064820152608401610703565b3361083c82610dc4565b6001600160a01b0316146108925760405162461bcd60e51b815260206004820152601a60248201527f656c20746f6b656e20646562652070657274656e6563657274650000000000006044820152606401610703565b60008181526011602081815260408084208054855260128352818520805460ff199081169091556001820154865282862080548216905560028201548652828620805490911690556017548686529390925290548151631d9f985560e11b8152600481019190915233602482015290516001600160a01b0390921692633b3f30aa9260448084019382900301818387803b15801561092f57600080fd5b505af1158015610943573d6000803e3d6000fd5b505060175460008481526011602052604090819020600101549051631d9f985560e11b815260048101919091523360248201526001600160a01b039091169250633b3f30aa9150604401600060405180830381600087803b1580156109a757600080fd5b505af11580156109bb573d6000803e3d6000fd5b505060175460008481526011602052604090819020600201549051631d9f985560e11b815260048101919091523360248201526001600160a01b039091169250633b3f30aa9150604401600060405180830381600087803b158015610a1f57600080fd5b505af1158015610a33573d6000803e3d6000fd5b50505050610a4081611a18565b50565b610a4d3382611a58565b610aaf5760405162461bcd60e51b815260206004820152602d60248201527f4552433732313a2063616c6c6572206973206e6f7420746f6b656e206f776e6560448201526c1c881bdc88185c1c1c9bdd9959609a1b6064820152608401610703565b6107a4838383611ad7565b8051610acd906007906020840190613026565b5050565b6107a483838360405180602001604052806000815250611255565b6000818152600f6020526040812080546060929190610b0a9061378c565b80601f0160208091040260200160405190810160405280929190818152602001828054610b369061378c565b8015610b835780601f10610b5857610100808354040283529160200191610b83565b820191906000526020600020905b815481529060010190602001808311610b6657829003601f168201915b5093979650505050505050565b60006009546001610ba191906137f3565b9050610bad8282611cdd565b6000610bb7611cf7565b90506000604051806040016040528060048152602001632e706e6760e01b8152509050600082610bf1610bec86600854611d06565b611e4b565b604051602001610c0292919061380b565b60408051601f1981840301815290829052610c2191849060200161380b565b60408051601f198184030181529181526000868152600660209081529190208251929350610c53929091840190613026565b50600d546000858152600e6020526040812091909155600854610c77908690611d06565b600d54610c8590606461383a565b610c8f91906137f3565b6000818152601060209081526040808320898452600f909252909120815492935091610cba9061378c565b610cc59291906130aa565b506000858152600c60209081526040808320805460ff19166001179055600d54835260149091528120600854909190610cff908890611d06565b815260208101919091526040016000205460ff1615610d2c57600085815260136020526040812055610d92565b60156000600d5481526020019081526020016000206000610d4f87600854611d06565b815260208101919091526040016000205460ff1615610d7f57600085815260136020526040902060019055610d92565b6000858152601360205260409020600290555b60098054906000610da283613859565b90915550505060009384525050600b6020525060409020805460ff1916905550565b6000818152600260205260408120546001600160a01b0316806105b35760405162461bcd60e51b815260206004820152601860248201527f4552433732313a20696e76616c696420746f6b656e20494400000000000000006044820152606401610703565b60006009546001610e3a91906137f3565b9050610e468282611cdd565b6000610e50611cf7565b90506000604051806040016040528060048152602001632e706e6760e01b8152509050600082610e85610bec86600854611d06565b604051602001610e9692919061380b565b60408051601f1981840301815290829052610eb591849060200161380b565b60408051601f198184030181529181526000868152600660209081529190208251929350610ee7929091840190613026565b50600d546000858152600e6020526040812091909155600854610f0b908690611d06565b600d54610f1990606461383a565b610f2391906137f3565b6000818152601060209081526040808320898452600f909252909120815492935091610f4e9061378c565b610f599291906130aa565b506000858152600c60209081526040808320805460ff19166001179055600d54835260149091528120600854909190610f93908890611d06565b815260208101919091526040016000205460ff1615610fc057600085815260136020526040812055611026565b60156000600d5481526020019081526020016000206000610fe387600854611d06565b815260208101919091526040016000205460ff161561101357600085815260136020526040902060019055611026565b6000858152601360205260409020600290555b6009805490600061103683613859565b90915550505060009384525050600b6020525060409020805460ff1916600117905550565b60006001600160a01b0382166110d95760405162461bcd60e51b815260206004820152602960248201527f4552433732313a2061646472657373207a65726f206973206e6f74206120766160448201527f6c6964206f776e657200000000000000000000000000000000000000000000006064820152608401610703565b506001600160a01b031660009081526003602052604090205490565b600061110082611946565b506000908152600b602052604090205460ff1690565b60005b828110156107a457600160146000600d548152602001908152602001600020600084848151811061114c5761114c6137c7565b6020026020010151815260200190815260200160002060006101000a81548160ff021916908315150217905550808061118490613859565b915050611119565b6060600180546105c89061378c565b610acd338383611ef5565b600d80549060006111b683613859565b919050555060005b8581101561122d5761121b8882815181106111db576111db6137c7565b6020026020010151600d5460646111f2919061383a565b6111fc91906137f3565b88838151811061120e5761120e6137c7565b602002602001015161137c565b8061122581613859565b9150506111be565b506112388484611116565b611242828261139b565b61124b88610aba565b5050505050505050565b61125f3383611a58565b6112c15760405162461bcd60e51b815260206004820152602d60248201527f4552433732313a2063616c6c6572206973206e6f7420746f6b656e206f776e6560448201526c1c881bdc88185c1c1c9bdd9959609a1b6064820152608401610703565b6112cd84848484611fc4565b50505050565b6112ee33838360405180602001604052806000815250611fc4565b60175460405163d058e43760e01b8152600481018390526001600160a01b0384811660248301529091169063d058e43790604401600060405180830381600087803b15801561133c57600080fd5b505af1158015611350573d6000803e3d6000fd5b505050505050565b606061136382611946565b60008281526006602052604081208054610b0a9061378c565b600082815260106020908152604090912082516107a492840190613026565b60005b828110156107a457600160156000600d54815260200190815260200160002060008484815181106113d1576113d16137c7565b6020026020010151815260200190815260200160002060006101000a81548160ff021916908315150217905550808061140990613859565b91505061139e565b601654604080516020810190915260008152610acd916001600160a01b03169084908490611fc4565b6000828152600c60205260408082205485835291205460ff908116911614801561147e57506000818152600c60205260408082205485835291205460ff9081169116145b6114f05760405162461bcd60e51b815260206004820152602160248201527f6c6f7320746f6b656e20646562656e207365722064656c206d69736d6f206c7660448201527f6c000000000000000000000000000000000000000000000000000000000000006064820152608401610703565b6000828152600b60205260408082205485835291205460ff90811615159116151514801561153c57506000818152600b60205260408082205485835291205460ff908116151591161515145b6115ae5760405162461bcd60e51b815260206004820152602260248201527f6c6f7320746f6b656e20646562656e207365722064656c206d69736d6f20746960448201527f706f0000000000000000000000000000000000000000000000000000000000006064820152608401610703565b60008381526012602052604090205460ff1615806115db575060008281526012602052604090205460ff16155b806115f5575060008181526012602052604090205460ff16155b6116415760405162461bcd60e51b815260206004820152601760248201527f756e20746f6b656e206573746120626c6f636b6561646f0000000000000000006044820152606401610703565b6000838152600c602052604090205460ff16600314156116a35760405162461bcd60e51b815260206004820152601f60248201527f6e6f207365207075656465207573617220756e20746f6b656e206c766c2033006044820152606401610703565b6116ac82610dc4565b6001600160a01b03166116be84610dc4565b6001600160a01b03161480156116f557506116d881610dc4565b6001600160a01b03166116ea84610dc4565b6001600160a01b0316145b801561171157503361170684610dc4565b6001600160a01b0316145b61175d5760405162461bcd60e51b815260206004820152601c60248201527f6c6f7320746f6b656e20646562656e2070657274656e656365727465000000006044820152606401610703565b6000838152600c602052604090205460ff16600114156117885761178333848484612042565b611794565b611794338484846124a1565b6016546040805160208101909152600081526117bf9133916001600160a01b03909116908690611fc4565b6016546040805160208101909152600081526117ea9133916001600160a01b03909116908590611fc4565b6016546040805160208101909152600081526118159133916001600160a01b03909116908490611fc4565b60175460405163d058e43760e01b8152600481018590523360248201526001600160a01b039091169063d058e43790604401600060405180830381600087803b15801561186157600080fd5b505af1158015611875573d6000803e3d6000fd5b505060175460405163d058e43760e01b8152600481018690523360248201526001600160a01b03909116925063d058e4379150604401600060405180830381600087803b1580156118c557600080fd5b505af11580156118d9573d6000803e3d6000fd5b505060175460405163d058e43760e01b8152600481018590523360248201526001600160a01b03909116925063d058e4379150604401600060405180830381600087803b15801561192957600080fd5b505af115801561193d573d6000803e3d6000fd5b50505050505050565b6000818152600260205260409020546001600160a01b0316610a405760405162461bcd60e51b815260206004820152601860248201527f4552433732313a20696e76616c696420746f6b656e20494400000000000000006044820152606401610703565b600081815260046020526040902080546001600160a01b0319166001600160a01b03841690811790915581906119df82610dc4565b6001600160a01b03167f8c5be1e5ebec7d5bd14f71427d1e84f3dd0314c0f7b2291e5b200ac8c7c3b92560405160405180910390a45050565b611a2181612a3b565b60008181526006602052604090208054611a3a9061378c565b159050610a40576000818152600660205260408120610a4091613125565b600080611a6483610dc4565b9050806001600160a01b0316846001600160a01b03161480611aab57506001600160a01b0380821660009081526005602090815260408083209388168352929052205460ff165b80611acf5750836001600160a01b0316611ac48461064b565b6001600160a01b0316145b949350505050565b826001600160a01b0316611aea82610dc4565b6001600160a01b031614611b4e5760405162461bcd60e51b815260206004820152602560248201527f4552433732313a207472616e736665722066726f6d20696e636f72726563742060448201526437bbb732b960d91b6064820152608401610703565b6001600160a01b038216611bc95760405162461bcd60e51b8152602060048201526024808201527f4552433732313a207472616e7366657220746f20746865207a65726f2061646460448201527f72657373000000000000000000000000000000000000000000000000000000006064820152608401610703565b611bd68383836001612ade565b826001600160a01b0316611be982610dc4565b6001600160a01b031614611c4d5760405162461bcd60e51b815260206004820152602560248201527f4552433732313a207472616e736665722066726f6d20696e636f72726563742060448201526437bbb732b960d91b6064820152608401610703565b600081815260046020908152604080832080546001600160a01b03199081169091556001600160a01b0387811680865260038552838620805460001901905590871680865283862080546001019055868652600290945282852080549092168417909155905184937fddf252ad1be2c89b69c2b068fc378daa952ba7f163c4a11628f55a4df523b3ef91a4505050565b610acd828260405180602001604052806000815250612b66565b6060600780546105c89061378c565b6040805160c08101825260028152600360208201526004918101919091526005606082015260066080820152600760a082015260009081600a81805b878214611e0e5783611dc257611d58838961388a565b91506000611d66848a61388a565b905085611d7460068761388a565b60068110611d8457611d846137c7565b6020020151611d969060ff168261383a565b611da090836137f3565b9150611dad6001866137f3565b9450611dba600a8561383a565b935050611d42565b611dcc838961388a565b91506000611ddb600a8561389e565b611de6600a8661389e565b611df0908b61388a565b611dfa868c61388a565b611e0491906138b2565b611d66919061389e565b6000611e1a888361389e565b9050600082611e298a8461383a565b611e33908b6137f3565b611e3d91906138b2565b9a9950505050505050505050565b60606000611e5883612be4565b600101905060008167ffffffffffffffff811115611e7857611e786132e1565b6040519080825280601f01601f191660200182016040528015611ea2576020820181803683370190505b5090508181016020015b600019017f3031323334353637383961626364656600000000000000000000000000000000600a86061a8153600a8504945084611ee857611eed565b611eac565b509392505050565b816001600160a01b0316836001600160a01b03161415611f575760405162461bcd60e51b815260206004820152601960248201527f4552433732313a20617070726f766520746f2063616c6c6572000000000000006044820152606401610703565b6001600160a01b03838116600081815260056020908152604080832094871680845294825291829020805460ff191686151590811790915591519182527f17307eab39ab6107e8899845ad3d59bd9653f200f220920489ca2b5937696c31910160405180910390a3505050565b611fcf848484611ad7565b611fdb84848484612cc6565b6112cd5760405162461bcd60e51b815260206004820152603260248201527f4552433732313a207472616e7366657220746f206e6f6e20455243373231526560448201527131b2b4bb32b91034b6b83632b6b2b73a32b960711b6064820152608401610703565b60408051600680825260e082019092526000916020820160c0803683370190505090508381600081518110612079576120796137c7565b6020026020010181815250508281600181518110612099576120996137c7565b60200260200101818152505081816002815181106120b9576120b96137c7565b60209081029190910101526040805160038082526080820190925260009181602001602082028036833701905050905060008060005b600381101561220a576013600086838151811061210e5761210e6137c7565b6020026020010151815260200190815260200160002054600014156121725784818151811061213f5761213f6137c7565b6020026020010151848481518110612159576121596137c7565b60209081029190910101528261216e81613859565b9350505b60136000868381518110612188576121886137c7565b6020026020010151815260200190815260200160002054600114156121f8578481815181106121b9576121b96137c7565b6020026020010151858360036121cf91906137f3565b815181106121df576121df6137c7565b6020908102919091010152816121f481613859565b9250505b8061220281613859565b9150506120ef565b50606082156122885761221c88610aec565b61226185600161223a600954600161223491906137f3565b88611d06565b61224491906138b2565b81518110612254576122546137c7565b6020026020010151610aec565b60405160200161227292919061380b565b60405160208183030381529060405290506122dc565b61229188610aec565b6122b986600161223a60095460016122a991906137f3565b6122b48860036137f3565b611d06565b6040516020016122ca92919061380b565b60405160208183030381529060405290505b60006040518060800160405280604481526020016139236044913990506000604051806040016040528060048152602001632e706e6760e01b81525090506000828460405160200161232f92919061380b565b60408051601f198184030181529082905261234e91849060200161380b565b60405160208183030381529060405290506123698c82612e1e565b604080516060810182528c815260208082018d90528183018c905260095460009081526011909152919091206123a091600361315f565b50600954600090815260116020526040908190208151606081019283905261242c9290919060039082845b8154815260200190600101908083116123cb57505050505080516000908152601260209081526040808320805460ff199081166001908117909255928501518452818420805484168217905593810151835290912080549091169091179055565b6009546000908152600f60209081526040909120855161244e92870190613026565b5050600980546000908152600c602090815260408083208054600260ff19918216179091559d8352600b909152808220549254825290208054909b1660ff90911615151790995550505050505050505050565b604080516012808252610260820190925260009160208201610240803683370190505060008581526011602052604081209192500154816000815181106124ea576124ea6137c7565b602090810291909101810191909152600084815260119091526040812001548160018151811061251c5761251c6137c7565b602090810291909101810191909152600083815260119091526040812001548160028151811061254e5761254e6137c7565b60209081029190910181019190915260008581526011909152604090206001015481600381518110612582576125826137c7565b602090810291909101810191909152600084815260119091526040902060010154816004815181106125b6576125b66137c7565b602090810291909101810191909152600083815260119091526040902060010154816005815181106125ea576125ea6137c7565b6020908102919091018101919091526000858152601190915260409020600201548160068151811061261e5761261e6137c7565b60209081029190910181019190915260008481526011909152604090206002015481600781518110612652576126526137c7565b60209081029190910181019190915260008381526011909152604090206002015481600881518110612686576126866137c7565b6020908102919091010152604080516009808252610140820190925260009181602001602082028036833701905050905060008060005b60098110156127d857601360008683815181106126dc576126dc6137c7565b6020026020010151815260200190815260200160002054600014156127405784818151811061270d5761270d6137c7565b6020026020010151848481518110612727576127276137c7565b60209081029190910101528261273c81613859565b9350505b60136000868381518110612756576127566137c7565b6020026020010151815260200190815260200160002054600114156127c657848181518110612787576127876137c7565b60200260200101518583600961279d91906137f3565b815181106127ad576127ad6137c7565b6020908102919091010152816127c281613859565b9250505b806127d081613859565b9150506126bd565b5060608215612829576127ea88610aec565b61280285600161223a600954600161223491906137f3565b60405160200161281392919061380b565b6040516020818303038152906040529050612878565b61283288610aec565b61285586600161223a600954600161284a91906137f3565b6122b48860096137f3565b60405160200161286692919061380b565b60405160208183030381529060405290505b60006040518060800160405280604481526020016139236044913990506000604051806040016040528060048152602001632e706e6760e01b8152509050600082846040516020016128cb92919061380b565b60408051601f19818403018152908290526128ea91849060200161380b565b60405160208183030381529060405290506129058c82612e1e565b604080516060810182528c815260208082018d90528183018c9052600954600090815260119091529190912061293c91600361315f565b5060095460009081526011602090815260409182902082516060810193849052815481526129c693909260039190600184019085018083116123cb57505050505080516000908152601260209081526040808320805460ff199081166001908117909255928501518452818420805484168217905593810151835290912080549091169091179055565b6009546000908152600f6020908152604090912085516129e892870190613026565b5050600980546000908152600c602090815260408083208054600360ff19918216179091559d8352600b909152808220549254825290208054909b1660ff90911615151790995550505050505050505050565b6000612a4682610dc4565b9050612a56816000846001612ade565b612a5f82610dc4565b600083815260046020908152604080832080546001600160a01b03199081169091556001600160a01b0385168085526003845282852080546000190190558785526002909352818420805490911690555192935084927fddf252ad1be2c89b69c2b068fc378daa952ba7f163c4a11628f55a4df523b3ef908390a45050565b60018111156112cd576001600160a01b03841615612b24576001600160a01b03841660009081526003602052604081208054839290612b1e9084906138b2565b90915550505b6001600160a01b038316156112cd576001600160a01b03831660009081526003602052604081208054839290612b5b9084906137f3565b909155505050505050565b612b708383612e8d565b612b7d6000848484612cc6565b6107a45760405162461bcd60e51b815260206004820152603260248201527f4552433732313a207472616e7366657220746f206e6f6e20455243373231526560448201527131b2b4bb32b91034b6b83632b6b2b73a32b960711b6064820152608401610703565b6000807a184f03e93ff9f4daa797ed6e38ed64bf6a1f0100000000000000008310612c2d577a184f03e93ff9f4daa797ed6e38ed64bf6a1f010000000000000000830492506040015b6d04ee2d6d415b85acef81000000008310612c59576d04ee2d6d415b85acef8100000000830492506020015b662386f26fc100008310612c7757662386f26fc10000830492506010015b6305f5e1008310612c8f576305f5e100830492506008015b6127108310612ca357612710830492506004015b60648310612cb5576064830492506002015b600a83106105b35760010192915050565b60006001600160a01b0384163b15612e1357604051630a85bd0160e11b81526001600160a01b0385169063150b7a0290612d0a9033908990889088906004016138c9565b602060405180830381600087803b158015612d2457600080fd5b505af1925050508015612d54575060408051601f3d908101601f19168201909252612d5191810190613905565b60015b612df9573d808015612d82576040519150601f19603f3d011682016040523d82523d6000602084013e612d87565b606091505b508051612df15760405162461bcd60e51b815260206004820152603260248201527f4552433732313a207472616e7366657220746f206e6f6e20455243373231526560448201527131b2b4bb32b91034b6b83632b6b2b73a32b960711b6064820152608401610703565b805181602001fd5b6001600160e01b031916630a85bd0160e11b149050611acf565b506001949350505050565b60006009546001612e2f91906137f3565b9050612e3b8382611cdd565b600081815260066020908152604090912083518492612e5e929190840190613026565b50600d546000838152600e60205260408120919091556009805491612e8283613859565b919050555050505050565b6001600160a01b038216612ee35760405162461bcd60e51b815260206004820181905260248201527f4552433732313a206d696e7420746f20746865207a65726f20616464726573736044820152606401610703565b6000818152600260205260409020546001600160a01b031615612f485760405162461bcd60e51b815260206004820152601c60248201527f4552433732313a20746f6b656e20616c7265616479206d696e746564000000006044820152606401610703565b612f56600083836001612ade565b6000818152600260205260409020546001600160a01b031615612fbb5760405162461bcd60e51b815260206004820152601c60248201527f4552433732313a20746f6b656e20616c7265616479206d696e746564000000006044820152606401610703565b6001600160a01b038216600081815260036020908152604080832080546001019055848352600290915280822080546001600160a01b0319168417905551839291907fddf252ad1be2c89b69c2b068fc378daa952ba7f163c4a11628f55a4df523b3ef908290a45050565b8280546130329061378c565b90600052602060002090601f016020900481019282613054576000855561309a565b82601f1061306d57805160ff191683800117855561309a565b8280016001018555821561309a579182015b8281111561309a57825182559160200191906001019061307f565b506130a692915061318c565b5090565b8280546130b69061378c565b90600052602060002090601f0160209004810192826130d8576000855561309a565b82601f106130e9578054855561309a565b8280016001018555821561309a57600052602060002091601f016020900482015b8281111561309a57825482559160010191906001019061310a565b5080546131319061378c565b6000825580601f10613141575050565b601f016020900490600052602060002090810190610a40919061318c565b826003810192821561309a579160200282018281111561309a57825182559160200191906001019061307f565b5b808211156130a6576000815560010161318d565b6001600160e01b031981168114610a4057600080fd5b6000602082840312156131c957600080fd5b81356131d4816131a1565b9392505050565b60005b838110156131f65781810151838201526020016131de565b838111156112cd5750506000910152565b6000815180845261321f8160208601602086016131db565b601f01601f19169290920160200192915050565b6020815260006131d46020830184613207565b60006020828403121561325857600080fd5b5035919050565b6001600160a01b0381168114610a4057600080fd5b6000806040838503121561328757600080fd5b82356132928161325f565b946020939093013593505050565b6000806000606084860312156132b557600080fd5b83356132c08161325f565b925060208401356132d08161325f565b929592945050506040919091013590565b634e487b7160e01b600052604160045260246000fd5b604051601f8201601f1916810167ffffffffffffffff81118282101715613320576133206132e1565b604052919050565b600067ffffffffffffffff831115613342576133426132e1565b613355601f8401601f19166020016132f7565b905082815283838301111561336957600080fd5b828260208301376000602084830101529392505050565b600082601f83011261339157600080fd5b6131d483833560208501613328565b6000602082840312156133b257600080fd5b813567ffffffffffffffff8111156133c957600080fd5b611acf84828501613380565b6000602082840312156133e757600080fd5b81356131d48161325f565b600067ffffffffffffffff82111561340c5761340c6132e1565b5060051b60200190565b600082601f83011261342757600080fd5b8135602061343c613437836133f2565b6132f7565b82815260059290921b8401810191818101908684111561345b57600080fd5b8286015b84811015613476578035835291830191830161345f565b509695505050505050565b6000806040838503121561349457600080fd5b82359150602083013567ffffffffffffffff8111156134b257600080fd5b6134be85828601613416565b9150509250929050565b600080604083850312156134db57600080fd5b82356134e68161325f565b9150602083013580151581146134fb57600080fd5b809150509250929050565b600082601f83011261351757600080fd5b81356020613527613437836133f2565b82815260059290921b8401810191818101908684111561354657600080fd5b8286015b8481101561347657803567ffffffffffffffff81111561356a5760008081fd5b6135788986838b0101613380565b84525091830191830161354a565b600080600080600080600080610100898b0312156135a357600080fd5b883567ffffffffffffffff808211156135bb57600080fd5b6135c78c838d01613380565b995060208b01359150808211156135dd57600080fd5b6135e98c838d01613416565b985060408b01359150808211156135ff57600080fd5b61360b8c838d01613506565b975060608b0135965060808b0135955060a08b013591508082111561362f57600080fd5b61363b8c838d01613416565b945060c08b0135935060e08b013591508082111561365857600080fd5b506136658b828c01613416565b9150509295985092959890939650565b6000806000806080858703121561368b57600080fd5b84356136968161325f565b935060208501356136a68161325f565b925060408501359150606085013567ffffffffffffffff8111156136c957600080fd5b8501601f810187136136da57600080fd5b6136e987823560208401613328565b91505092959194509250565b6000806040838503121561370857600080fd5b82359150602083013567ffffffffffffffff81111561372657600080fd5b6134be85828601613380565b6000806040838503121561374557600080fd5b82356137508161325f565b915060208301356134fb8161325f565b60008060006060848603121561377557600080fd5b505081359360208301359350604090920135919050565b600181811c908216806137a057607f821691505b602082108114156137c157634e487b7160e01b600052602260045260246000fd5b50919050565b634e487b7160e01b600052603260045260246000fd5b634e487b7160e01b600052601160045260246000fd5b60008219821115613806576138066137dd565b500190565b6000835161381d8184602088016131db565b8351908301906138318183602088016131db565b01949350505050565b6000816000190483118215151615613854576138546137dd565b500290565b600060001982141561386d5761386d6137dd565b5060010190565b634e487b7160e01b600052601260045260246000fd5b60008261389957613899613874565b500690565b6000826138ad576138ad613874565b500490565b6000828210156138c4576138c46137dd565b500390565b60006001600160a01b038087168352808616602084015250836040830152608060608301526138fb6080830184613207565b9695505050505050565b60006020828403121561391757600080fd5b81516131d4816131a156fe68747470733a2f2f697066732e696f2f697066732f516d565071526555447a3372374448414a444d7867614458777457636b554a517173515753675235754e5159486e2fa2646970667358221220b3bb881fd04f56e2d228e9d3c3e776c8efd389203b60f1bc684c954834c11c2664736f6c63430008090033",
  "linkReferences": {},
  "deployedLinkReferences": {}
}