{
  "_format": "hh-sol-artifact-1",
  "contractName": "InnomicNFT",
  "sourceName": "contracts/InnomicNFT.sol",
  "abi": [
    {
      "inputs": [
        {
          "internalType": "string",
          "name": "name_",
          "type": "string"
        },
        {
          "internalType": "string",
          "name": "symbol_",
          "type": "string"
        },
        {
          "internalType": "string",
          "name": "newBaseURI",
          "type": "string"
        },
        {
          "internalType": "uint256[]",
          "name": "carpetas",
          "type": "uint256[]"
        },
        {
          "internalType": "string[]",
          "name": "clases_",
          "type": "string[]"
        },
        {
          "internalType": "uint256",
          "name": "lc",
          "type": "uint256"
        },
        {
          "internalType": "uint256",
          "name": "ld",
          "type": "uint256"
        },
        {
          "internalType": "uint256[]",
          "name": "dorados",
          "type": "uint256[]"
        },
        {
          "internalType": "uint256",
          "name": "lm",
          "type": "uint256"
        },
        {
          "internalType": "uint256[]",
          "name": "morados",
          "type": "uint256[]"
        }
      ],
      "stateMutability": "nonpayable",
      "type": "constructor"
    },
    {
      "anonymous": false,
      "inputs": [
        {
          "indexed": true,
          "internalType": "address",
          "name": "owner",
          "type": "address"
        },
        {
          "indexed": true,
          "internalType": "address",
          "name": "approved",
          "type": "address"
        },
        {
          "indexed": true,
          "internalType": "uint256",
          "name": "tokenId",
          "type": "uint256"
        }
      ],
      "name": "Approval",
      "type": "event"
    },
    {
      "anonymous": false,
      "inputs": [
        {
          "indexed": true,
          "internalType": "address",
          "name": "owner",
          "type": "address"
        },
        {
          "indexed": true,
          "internalType": "address",
          "name": "operator",
          "type": "address"
        },
        {
          "indexed": false,
          "internalType": "bool",
          "name": "approved",
          "type": "bool"
        }
      ],
      "name": "ApprovalForAll",
      "type": "event"
    },
    {
      "anonymous": false,
      "inputs": [
        {
          "indexed": true,
          "internalType": "address",
          "name": "from",
          "type": "address"
        },
        {
          "indexed": true,
          "internalType": "address",
          "name": "to",
          "type": "address"
        },
        {
          "indexed": true,
          "internalType": "uint256",
          "name": "tokenId",
          "type": "uint256"
        }
      ],
      "name": "Transfer",
      "type": "event"
    },
    {
      "inputs": [
        {
          "internalType": "uint256",
          "name": "carpeta",
          "type": "uint256"
        },
        {
          "internalType": "string",
          "name": "clase_",
          "type": "string"
        }
      ],
      "name": "_addClase",
      "outputs": [],
      "stateMutability": "nonpayable",
      "type": "function"
    },
    {
      "inputs": [
        {
          "internalType": "uint256",
          "name": "tokenId",
          "type": "uint256"
        }
      ],
      "name": "_getColor",
      "outputs": [
        {
          "internalType": "uint256",
          "name": "",
          "type": "uint256"
        }
      ],
      "stateMutability": "view",
      "type": "function"
    },
    {
      "inputs": [
        {
          "internalType": "address",
          "name": "to",
          "type": "address"
        }
      ],
      "name": "_mintTokenAllowedToEarn",
      "outputs": [],
      "stateMutability": "nonpayable",
      "type": "function"
    },
    {
      "inputs": [
        {
          "internalType": "address",
          "name": "to",
          "type": "address"
        }
      ],
      "name": "_mintTokenNotAllowedToEarn",
      "outputs": [],
      "stateMutability": "nonpayable",
      "type": "function"
    },
    {
      "inputs": [
        {
          "internalType": "address",
          "name": "to",
          "type": "address"
        },
        {
          "internalType": "uint256",
          "name": "tokenId",
          "type": "uint256"
        }
      ],
      "name": "_safeTransfer",
      "outputs": [],
      "stateMutability": "nonpayable",
      "type": "function"
    },
    {
      "inputs": [
        {
          "internalType": "address",
          "name": "to",
          "type": "address"
        },
        {
          "internalType": "uint256",
          "name": "tokenId",
          "type": "uint256"
        }
      ],
      "name": "_safeTransferPool",
      "outputs": [],
      "stateMutability": "nonpayable",
      "type": "function"
    },
    {
      "inputs": [
        {
          "internalType": "string",
          "name": "newBaseURI",
          "type": "string"
        }
      ],
      "name": "_setBaseURI",
      "outputs": [],
      "stateMutability": "nonpayable",
      "type": "function"
    },
    {
      "inputs": [
        {
          "internalType": "uint256",
          "name": "l",
          "type": "uint256"
        },
        {
          "internalType": "uint256[]",
          "name": "dorados",
          "type": "uint256[]"
        }
      ],
      "name": "_setDorados",
      "outputs": [],
      "stateMutability": "nonpayable",
      "type": "function"
    },
    {
      "inputs": [
        {
          "internalType": "uint256",
          "name": "newmod",
          "type": "uint256"
        }
      ],
      "name": "_setMod",
      "outputs": [],
      "stateMutability": "nonpayable",
      "type": "function"
    },
    {
      "inputs": [
        {
          "internalType": "uint256",
          "name": "l",
          "type": "uint256"
        },
        {
          "internalType": "uint256[]",
          "name": "morados",
          "type": "uint256[]"
        }
      ],
      "name": "_setMorados",
      "outputs": [],
      "stateMutability": "nonpayable",
      "type": "function"
    },
    {
      "inputs": [
        {
          "internalType": "string",
          "name": "newBaseURI",
          "type": "string"
        },
        {
          "internalType": "uint256[]",
          "name": "carpetas",
          "type": "uint256[]"
        },
        {
          "internalType": "string[]",
          "name": "clases_",
          "type": "string[]"
        },
        {
          "internalType": "uint256",
          "name": "lc",
          "type": "uint256"
        },
        {
          "internalType": "uint256",
          "name": "ld",
          "type": "uint256"
        },
        {
          "internalType": "uint256[]",
          "name": "dorados",
          "type": "uint256[]"
        },
        {
          "internalType": "uint256",
          "name": "lm",
          "type": "uint256"
        },
        {
          "internalType": "uint256[]",
          "name": "morados",
          "type": "uint256[]"
        }
      ],
      "name": "_setTanda",
      "outputs": [],
      "stateMutability": "nonpayable",
      "type": "function"
    },
    {
      "inputs": [
        {
          "internalType": "uint256",
          "name": "newlimite",
          "type": "uint256"
        }
      ],
      "name": "_setlimite",
      "outputs": [],
      "stateMutability": "nonpayable",
      "type": "function"
    },
    {
      "inputs": [
        {
          "internalType": "address",
          "name": "to",
          "type": "address"
        },
        {
          "internalType": "uint256",
          "name": "tokenId",
          "type": "uint256"
        }
      ],
      "name": "approve",
      "outputs": [],
      "stateMutability": "nonpayable",
      "type": "function"
    },
    {
      "inputs": [],
      "name": "balance",
      "outputs": [
        {
          "internalType": "uint256",
          "name": "",
          "type": "uint256"
        }
      ],
      "stateMutability": "view",
      "type": "function"
    },
    {
      "inputs": [
        {
          "internalType": "address",
          "name": "owner",
          "type": "address"
        }
      ],
      "name": "balanceOf",
      "outputs": [
        {
          "internalType": "uint256",
          "name": "",
          "type": "uint256"
        }
      ],
      "stateMutability": "view",
      "type": "function"
    },
    {
      "inputs": [
        {
          "internalType": "uint256",
          "name": "tokenId",
          "type": "uint256"
        }
      ],
      "name": "burn",
      "outputs": [],
      "stateMutability": "nonpayable",
      "type": "function"
    },
    {
      "inputs": [
        {
          "internalType": "uint256",
          "name": "tokenId",
          "type": "uint256"
        }
      ],
      "name": "claseToken",
      "outputs": [
        {
          "internalType": "string",
          "name": "",
          "type": "string"
        }
      ],
      "stateMutability": "view",
      "type": "function"
    },
    {
      "inputs": [
        {
          "internalType": "uint256",
          "name": "tokenId",
          "type": "uint256"
        }
      ],
      "name": "downgrade",
      "outputs": [],
      "stateMutability": "nonpayable",
      "type": "function"
    },
    {
      "inputs": [
        {
          "internalType": "uint256",
          "name": "tokenId",
          "type": "uint256"
        }
      ],
      "name": "getApproved",
      "outputs": [
        {
          "internalType": "address",
          "name": "",
          "type": "address"
        }
      ],
      "stateMutability": "view",
      "type": "function"
    },
    {
      "inputs": [
        {
          "internalType": "uint256",
          "name": "tokenId",
          "type": "uint256"
        }
      ],
      "name": "isAllowedToEarn",
      "outputs": [
        {
          "internalType": "bool",
          "name": "",
          "type": "bool"
        }
      ],
      "stateMutability": "view",
      "type": "function"
    },
    {
      "inputs": [
        {
          "internalType": "address",
          "name": "owner",
          "type": "address"
        },
        {
          "internalType": "address",
          "name": "operator",
          "type": "address"
        }
      ],
      "name": "isApprovedForAll",
      "outputs": [
        {
          "internalType": "bool",
          "name": "",
          "type": "bool"
        }
      ],
      "stateMutability": "view",
      "type": "function"
    },
    {
      "inputs": [],
      "name": "limite",
      "outputs": [
        {
          "internalType": "uint256",
          "name": "",
          "type": "uint256"
        }
      ],
      "stateMutability": "view",
      "type": "function"
    },
    {
      "inputs": [],
      "name": "name",
      "outputs": [
        {
          "internalType": "string",
          "name": "",
          "type": "string"
        }
      ],
      "stateMutability": "view",
      "type": "function"
    },
    {
      "inputs": [
        {
          "internalType": "uint256",
          "name": "tokenId",
          "type": "uint256"
        }
      ],
      "name": "numClase",
      "outputs": [
        {
          "internalType": "string",
          "name": "",
          "type": "string"
        }
      ],
      "stateMutability": "view",
      "type": "function"
    },
    {
      "inputs": [
        {
          "internalType": "uint256",
          "name": "tokenId",
          "type": "uint256"
        }
      ],
      "name": "ownerOf",
      "outputs": [
        {
          "internalType": "address",
          "name": "",
          "type": "address"
        }
      ],
      "stateMutability": "view",
      "type": "function"
    },
    {
      "inputs": [],
      "name": "poolNFT",
      "outputs": [
        {
          "internalType": "contract PoolNFT",
          "name": "",
          "type": "address"
        }
      ],
      "stateMutability": "view",
      "type": "function"
    },
    {
      "inputs": [
        {
          "internalType": "address",
          "name": "from",
          "type": "address"
        },
        {
          "internalType": "address",
          "name": "to",
          "type": "address"
        },
        {
          "internalType": "uint256",
          "name": "tokenId",
          "type": "uint256"
        }
      ],
      "name": "safeTransferFrom",
      "outputs": [],
      "stateMutability": "nonpayable",
      "type": "function"
    },
    {
      "inputs": [
        {
          "internalType": "address",
          "name": "from",
          "type": "address"
        },
        {
          "internalType": "address",
          "name": "to",
          "type": "address"
        },
        {
          "internalType": "uint256",
          "name": "tokenId",
          "type": "uint256"
        },
        {
          "internalType": "bytes",
          "name": "data",
          "type": "bytes"
        }
      ],
      "name": "safeTransferFrom",
      "outputs": [],
      "stateMutability": "nonpayable",
      "type": "function"
    },
    {
      "inputs": [
        {
          "internalType": "address",
          "name": "operator",
          "type": "address"
        },
        {
          "internalType": "bool",
          "name": "approved",
          "type": "bool"
        }
      ],
      "name": "setApprovalForAll",
      "outputs": [],
      "stateMutability": "nonpayable",
      "type": "function"
    },
    {
      "inputs": [
        {
          "internalType": "address",
          "name": "poola",
          "type": "address"
        },
        {
          "internalType": "contract PoolNFT",
          "name": "pool",
          "type": "address"
        }
      ],
      "name": "setPoolNFT",
      "outputs": [],
      "stateMutability": "nonpayable",
      "type": "function"
    },
    {
      "inputs": [
        {
          "internalType": "bytes4",
          "name": "interfaceId",
          "type": "bytes4"
        }
      ],
      "name": "supportsInterface",
      "outputs": [
        {
          "internalType": "bool",
          "name": "",
          "type": "bool"
        }
      ],
      "stateMutability": "view",
      "type": "function"
    },
    {
      "inputs": [],
      "name": "symbol",
      "outputs": [
        {
          "internalType": "string",
          "name": "",
          "type": "string"
        }
      ],
      "stateMutability": "view",
      "type": "function"
    },
    {
      "inputs": [
        {
          "internalType": "uint256",
          "name": "index",
          "type": "uint256"
        }
      ],
      "name": "tokenByIndex",
      "outputs": [
        {
          "internalType": "uint256",
          "name": "",
          "type": "uint256"
        }
      ],
      "stateMutability": "view",
      "type": "function"
    },
    {
      "inputs": [
        {
          "internalType": "address",
          "name": "owner",
          "type": "address"
        },
        {
          "internalType": "uint256",
          "name": "index",
          "type": "uint256"
        }
      ],
      "name": "tokenOfOwnerByIndex",
      "outputs": [
        {
          "internalType": "uint256",
          "name": "",
          "type": "uint256"
        }
      ],
      "stateMutability": "view",
      "type": "function"
    },
    {
      "inputs": [
        {
          "internalType": "uint256",
          "name": "tokenId",
          "type": "uint256"
        }
      ],
      "name": "tokenURI",
      "outputs": [
        {
          "internalType": "string",
          "name": "",
          "type": "string"
        }
      ],
      "stateMutability": "view",
      "type": "function"
    },
    {
      "inputs": [],
      "name": "totalSupply",
      "outputs": [
        {
          "internalType": "uint256",
          "name": "",
          "type": "uint256"
        }
      ],
      "stateMutability": "view",
      "type": "function"
    },
    {
      "inputs": [
        {
          "internalType": "address",
          "name": "from",
          "type": "address"
        },
        {
          "internalType": "address",
          "name": "to",
          "type": "address"
        },
        {
          "internalType": "uint256",
          "name": "tokenId",
          "type": "uint256"
        }
      ],
      "name": "transferFrom",
      "outputs": [],
      "stateMutability": "nonpayable",
      "type": "function"
    },
    {
      "inputs": [
        {
          "internalType": "uint256",
          "name": "tokenId1",
          "type": "uint256"
        },
        {
          "internalType": "uint256",
          "name": "tokenId2",
          "type": "uint256"
        },
        {
          "internalType": "uint256",
          "name": "tokenId3",
          "type": "uint256"
        }
      ],
      "name": "upgrade",
      "outputs": [],
      "stateMutability": "nonpayable",
      "type": "function"
    }
  ],
  "bytecode": "0x60806040526008600c556002600e5560006011553480156200002057600080fd5b50604051620047f4380380620047f4833981016040819052620000439162000549565b89518a908a906200005c906000906020850190620002a3565b50805162000072906001906020840190620002a3565b5050506200008d88888888888888886200009d60201b60201c565b505050505050505050506200075c565b60118054906000620000af83620006ae565b919050555060005b858110156200013c5762000127888281518110620000d957620000d9620006cc565b60200260200101516011546064620000f29190620006e2565b620000fe919062000704565b888381518110620001135762000113620006cc565b60200260200101516200016a60201b60201c565b806200013381620006ae565b915050620000b7565b5062000149848462000190565b6200015582826200020d565b62000160886200028a565b5050505050505050565b600082815260146020908152604090912082516200018b92840190620002a3565b505050565b60005b828110156200018b5760016018600060115481526020019081526020016000206000848481518110620001ca57620001ca620006cc565b6020026020010151815260200190815260200160002060006101000a81548160ff02191690831515021790555080806200020490620006ae565b91505062000193565b60005b828110156200018b5760016019600060115481526020019081526020016000206000848481518110620002475762000247620006cc565b6020026020010151815260200190815260200160002060006101000a81548160ff02191690831515021790555080806200028190620006ae565b91505062000210565b80516200029f90600b906020840190620002a3565b5050565b828054620002b1906200071f565b90600052602060002090601f016020900481019282620002d5576000855562000320565b82601f10620002f057805160ff191683800117855562000320565b8280016001018555821562000320579182015b828111156200032057825182559160200191906001019062000303565b506200032e92915062000332565b5090565b5b808211156200032e576000815560010162000333565b634e487b7160e01b600052604160045260246000fd5b604051601f8201601f191681016001600160401b03811182821017156200038a576200038a62000349565b604052919050565b600082601f830112620003a457600080fd5b81516001600160401b03811115620003c057620003c062000349565b6020620003d6601f8301601f191682016200035f565b8281528582848701011115620003eb57600080fd5b60005b838110156200040b578581018301518282018401528201620003ee565b838111156200041d5760008385840101525b5095945050505050565b60006001600160401b0382111562000443576200044362000349565b5060051b60200190565b600082601f8301126200045f57600080fd5b8151602062000478620004728362000427565b6200035f565b82815260059290921b840181019181810190868411156200049857600080fd5b8286015b84811015620004b557805183529183019183016200049c565b509695505050505050565b600082601f830112620004d257600080fd5b81516020620004e5620004728362000427565b82815260059290921b840181019181810190868411156200050557600080fd5b8286015b84811015620004b55780516001600160401b038111156200052a5760008081fd5b6200053a8986838b010162000392565b84525091830191830162000509565b6000806000806000806000806000806101408b8d0312156200056a57600080fd5b8a516001600160401b03808211156200058257600080fd5b620005908e838f0162000392565b9b5060208d0151915080821115620005a757600080fd5b620005b58e838f0162000392565b9a5060408d0151915080821115620005cc57600080fd5b620005da8e838f0162000392565b995060608d0151915080821115620005f157600080fd5b620005ff8e838f016200044d565b985060808d01519150808211156200061657600080fd5b620006248e838f01620004c0565b975060a08d0151965060c08d0151955060e08d01519150808211156200064957600080fd5b620006578e838f016200044d565b94506101008d015193506101208d01519150808211156200067757600080fd5b50620006868d828e016200044d565b9150509295989b9194979a5092959850565b634e487b7160e01b600052601160045260246000fd5b6000600019821415620006c557620006c562000698565b5060010190565b634e487b7160e01b600052603260045260246000fd5b6000816000190483118215151615620006ff57620006ff62000698565b500290565b600082198211156200071a576200071a62000698565b500190565b600181811c908216806200073457607f821691505b602082108114156200075657634e487b7160e01b600052602260045260246000fd5b50919050565b614088806200076c6000396000f3fe608060405234801561001057600080fd5b50600436106102925760003560e01c80638527788a11610160578063c4f8210e116100d8578063e985e9c51161008c578063f202dc2e11610071578063f202dc2e14610563578063f484225714610576578063fe1538d4146105b257600080fd5b8063e985e9c514610514578063ef0b23071461055057600080fd5b8063cb9375d3116100bd578063cb9375d3146103a1578063d572c38f146104e1578063dca77ad21461050157600080fd5b8063c4f8210e146104bb578063c87b56dd146104ce57600080fd5b8063a22cb4651161012f578063b69ef8a811610114578063b69ef8a81461048d578063b88d4fde14610495578063bf5da0c5146104a857600080fd5b8063a22cb46514610467578063ac12914f1461047a57600080fd5b80638527788a1461042657806385dd90331461043957806395d89b411461044c578063a0b497781461045457600080fd5b806331b5b9071161020e57806359b17c5e116101c25780636f52598b116101a75780636f52598b146103ed57806370a08231146104005780637bafd87e1461041357600080fd5b806359b17c5e146103c75780636352211e146103da57600080fd5b806342966c68116101f357806342966c681461038e5780634e72a6fa146103a15780634f6ccce7146103b457600080fd5b806331b5b9071461036857806342842e0e1461037b57600080fd5b806311bcc81e1161026557806320eb8e531161024a57806320eb8e531461033957806323b872dd146103425780632f745c591461035557600080fd5b806311bcc81e1461031457806318160ddd1461032757600080fd5b806301ffc9a71461029757806306fdde03146102bf578063081812fc146102d4578063095ea7b3146102ff575b600080fd5b6102aa6102a536600461388d565b6105c5565b60405190151581526020015b60405180910390f35b6102c7610609565b6040516102b69190613909565b6102e76102e236600461391c565b61069b565b6040516001600160a01b0390911681526020016102b6565b61031261030d36600461394a565b6106c2565b005b61031261032236600461391c565b6107f9565b6008545b6040519081526020016102b6565b61032b600e5481565b610312610350366004613976565b610bf8565b61032b61036336600461394a565b610c6f565b610312610376366004613a76565b610d17565b610312610389366004613976565b610d2e565b61031261039c36600461391c565b610d49565b6102c76103af36600461391c565b610de9565b61032b6103c236600461391c565b610e8d565b6103126103d5366004613aab565b610f31565b6102e76103e836600461391c565b611166565b6103126103fb366004613aab565b6111cb565b61032b61040e366004613aab565b6113fe565b6102aa61042136600461391c565b611498565b610312610434366004613b57565b6114b9565b61031261044736600461391c565b600e55565b6102c761152f565b601b546102e7906001600160a01b031681565b610312610475366004613b9e565b61153e565b610312610488366004613c5c565b611549565b600d5461032b565b6103126104a3366004613d4b565b6115f8565b6103126104b636600461391c565b600c55565b6103126104c936600461394a565b611676565b6102c76104dc36600461391c565b6116fb565b61032b6104ef36600461391c565b60009081526017602052604090205490565b61031261050f366004613dcb565b61171f565b6102aa610522366004613e08565b6001600160a01b03918216600090815260056020908152604080832093909416825291909152205460ff1690565b61031261055e366004613b57565b61173e565b61031261057136600461394a565b6117b4565b610312610584366004613e08565b601a80546001600160a01b039384166001600160a01b031991821617909155601b8054929093169116179055565b6103126105c0366004613e36565b6117dd565b60006001600160e01b031982167f780e9d63000000000000000000000000000000000000000000000000000000001480610603575061060382611ce9565b92915050565b60606000805461061890613e62565b80601f016020809104026020016040519081016040528092919081815260200182805461064490613e62565b80156106915780601f1061066657610100808354040283529160200191610691565b820191906000526020600020905b81548152906001019060200180831161067457829003601f168201915b5050505050905090565b60006106a682611d84565b506000908152600460205260409020546001600160a01b031690565b60006106cd82611166565b9050806001600160a01b0316836001600160a01b0316141561075c5760405162461bcd60e51b815260206004820152602160248201527f4552433732313a20617070726f76616c20746f2063757272656e74206f776e6560448201527f720000000000000000000000000000000000000000000000000000000000000060648201526084015b60405180910390fd5b336001600160a01b038216148061077857506107788133610522565b6107ea5760405162461bcd60e51b815260206004820152603d60248201527f4552433732313a20617070726f76652063616c6c6572206973206e6f7420746f60448201527f6b656e206f776e6572206f7220617070726f76656420666f7220616c6c0000006064820152608401610753565b6107f48383611de8565b505050565b600081815260106020526040902054600160ff909116116108825760405162461bcd60e51b815260206004820152602260248201527f656c20746f6b656e206465626520736572206465206c766c206d61796f72206160448201527f20310000000000000000000000000000000000000000000000000000000000006064820152608401610753565b3361088c82611166565b6001600160a01b0316146108e25760405162461bcd60e51b815260206004820152601a60248201527f656c20746f6b656e20646562652070657274656e6563657274650000000000006044820152606401610753565b60008181526015602081815260408084208054855260168352818520805460ff19908116909155600182015486528286208054821690556002820154865282862080549091169055601b54868652939092529054815163d058e43760e01b8152600481019190915233602482015290516001600160a01b039092169263d058e4379260448084019382900301818387803b15801561097f57600080fd5b505af1158015610993573d6000803e3d6000fd5b5050601b546000848152601560205260409081902060010154905163d058e43760e01b815260048101919091523360248201526001600160a01b03909116925063d058e4379150604401600060405180830381600087803b1580156109f757600080fd5b505af1158015610a0b573d6000803e3d6000fd5b5050601b546000848152601560205260409081902060020154905163d058e43760e01b815260048101919091523360248201526001600160a01b03909116925063d058e4379150604401600060405180830381600087803b158015610a6f57600080fd5b505af1158015610a83573d6000803e3d6000fd5b5050601b5460008481526015602052604090819020549051631d9f985560e11b815260048101919091523360248201526001600160a01b039091169250633b3f30aa9150604401600060405180830381600087803b158015610ae457600080fd5b505af1158015610af8573d6000803e3d6000fd5b5050601b5460008481526015602052604090819020600101549051631d9f985560e11b815260048101919091523360248201526001600160a01b039091169250633b3f30aa9150604401600060405180830381600087803b158015610b5c57600080fd5b505af1158015610b70573d6000803e3d6000fd5b5050601b5460008481526015602052604090819020600201549051631d9f985560e11b815260048101919091523360248201526001600160a01b039091169250633b3f30aa9150604401600060405180830381600087803b158015610bd457600080fd5b505af1158015610be8573d6000803e3d6000fd5b50505050610bf581610da9565b50565b610c023382611e56565b610c645760405162461bcd60e51b815260206004820152602d60248201527f4552433732313a2063616c6c6572206973206e6f7420746f6b656e206f776e6560448201526c1c881bdc88185c1c1c9bdd9959609a1b6064820152608401610753565b6107f4838383611ed5565b6000610c7a836113fe565b8210610cee5760405162461bcd60e51b815260206004820152602b60248201527f455243373231456e756d657261626c653a206f776e657220696e646578206f7560448201527f74206f6620626f756e64730000000000000000000000000000000000000000006064820152608401610753565b506001600160a01b03919091166000908152600660209081526040808320938352929052205490565b8051610d2a90600b9060208401906136fc565b5050565b6107f4838383604051806020016040528060008152506115f8565b33610d5382611166565b6001600160a01b031614610da95760405162461bcd60e51b815260206004820152601a60248201527f656c20746f6b656e20646562652070657274656e6563657274650000000000006044820152606401610753565b610db2816120db565b6000818152600a602052604090208054610dcb90613e62565b159050610bf5576000818152600a60205260408120610bf591613780565b600081815260136020526040812080546060929190610e0790613e62565b80601f0160208091040260200160405190810160405280929190818152602001828054610e3390613e62565b8015610e805780601f10610e5557610100808354040283529160200191610e80565b820191906000526020600020905b815481529060010190602001808311610e6357829003601f168201915b5093979650505050505050565b6000610e9860085490565b8210610f0c5760405162461bcd60e51b815260206004820152602c60248201527f455243373231456e756d657261626c653a20676c6f62616c20696e646578206f60448201527f7574206f6620626f756e647300000000000000000000000000000000000000006064820152608401610753565b60088281548110610f1f57610f1f613e9d565b90600052602060002001549050919050565b6000600d546001610f429190613ec9565b9050610f4e828261217e565b6000610f58612198565b9050600060405180604001604052806005815260200164173539b7b760d91b8152509050600082610f93610f8e86600c546121a7565b6122ec565b604051602001610fa4929190613ee1565b60408051601f1981840301815290829052610fc3918490602001613ee1565b60408051601f198184030181529181526000868152600a60209081529190208251929350610ff59290918401906136fc565b50601154600085815260126020526040812091909155600c546110199086906121a7565b601154611027906064613f10565b6110319190613ec9565b6000818152601460209081526040808320898452601390925290912081549293509161105c90613e62565b6110679291906137ba565b506000858152601060209081526040808320805460ff19166001179055601154835260189091528120600c549091906110a19088906121a7565b815260208101919091526040016000205460ff16156110ce57600085815260176020526040812055611134565b60196000601154815260200190815260200160002060006110f187600c546121a7565b815260208101919091526040016000205460ff161561112157600085815260176020526040902060019055611134565b6000858152601760205260409020600290555b600d805490600061114483613f2f565b90915550505060009384525050600f6020525060409020805460ff1916905550565b6000818152600260205260408120546001600160a01b0316806106035760405162461bcd60e51b815260206004820152601860248201527f4552433732313a20696e76616c696420746f6b656e20494400000000000000006044820152606401610753565b6000600d5460016111dc9190613ec9565b90506111e8828261217e565b60006111f2612198565b9050600060405180604001604052806005815260200164173539b7b760d91b8152509050600082611228610f8e86600c546121a7565b604051602001611239929190613ee1565b60408051601f1981840301815290829052611258918490602001613ee1565b60408051601f198184030181529181526000868152600a6020908152919020825192935061128a9290918401906136fc565b50601154600085815260126020526040812091909155600c546112ae9086906121a7565b6011546112bc906064613f10565b6112c69190613ec9565b600081815260146020908152604080832089845260139092529091208154929350916112f190613e62565b6112fc9291906137ba565b506000858152601060209081526040808320805460ff19166001179055601154835260189091528120600c549091906113369088906121a7565b815260208101919091526040016000205460ff1615611363576000858152601760205260408120556113c9565b601960006011548152602001908152602001600020600061138687600c546121a7565b815260208101919091526040016000205460ff16156113b6576000858152601760205260409020600190556113c9565b6000858152601760205260409020600290555b600d80549060006113d983613f2f565b90915550505060009384525050600f6020525060409020805460ff1916600117905550565b60006001600160a01b03821661147c5760405162461bcd60e51b815260206004820152602960248201527f4552433732313a2061646472657373207a65726f206973206e6f74206120766160448201527f6c6964206f776e657200000000000000000000000000000000000000000000006064820152608401610753565b506001600160a01b031660009081526003602052604090205490565b60006114a382611d84565b506000908152600f602052604090205460ff1690565b60005b828110156107f457600160186000601154815260200190815260200160002060008484815181106114ef576114ef613e9d565b6020026020010151815260200190815260200160002060006101000a81548160ff021916908315150217905550808061152790613f2f565b9150506114bc565b60606001805461061890613e62565b610d2a338383612396565b6011805490600061155983613f2f565b919050555060005b858110156115d0576115be88828151811061157e5761157e613e9d565b602002602001015160115460646115959190613f10565b61159f9190613ec9565b8883815181106115b1576115b1613e9d565b602002602001015161171f565b806115c881613f2f565b915050611561565b506115db84846114b9565b6115e5828261173e565b6115ee88610d17565b5050505050505050565b6116023383611e56565b6116645760405162461bcd60e51b815260206004820152602d60248201527f4552433732313a2063616c6c6572206973206e6f7420746f6b656e206f776e6560448201526c1c881bdc88185c1c1c9bdd9959609a1b6064820152608401610753565b61167084848484612465565b50505050565b61169133838360405180602001604052806000815250612465565b601b5460405163d058e43760e01b8152600481018390526001600160a01b0384811660248301529091169063d058e43790604401600060405180830381600087803b1580156116df57600080fd5b505af11580156116f3573d6000803e3d6000fd5b505050505050565b606061170682611d84565b6000828152600a602052604081208054610e0790613e62565b600082815260146020908152604090912082516107f4928401906136fc565b60005b828110156107f4576001601960006011548152602001908152602001600020600084848151811061177457611774613e9d565b6020026020010151815260200190815260200160002060006101000a81548160ff02191690831515021790555080806117ac90613f2f565b915050611741565b601a54604080516020810190915260008152610d2a916001600160a01b03169084908490612465565b6000828152601060205260408082205485835291205460ff908116911614801561182157506000818152601060205260408082205485835291205460ff9081169116145b6118935760405162461bcd60e51b815260206004820152602160248201527f6c6f7320746f6b656e20646562656e207365722064656c206d69736d6f206c7660448201527f6c000000000000000000000000000000000000000000000000000000000000006064820152608401610753565b6000828152600f60205260408082205485835291205460ff9081161515911615151480156118df57506000818152600f60205260408082205485835291205460ff908116151591161515145b6119515760405162461bcd60e51b815260206004820152602260248201527f6c6f7320746f6b656e20646562656e207365722064656c206d69736d6f20746960448201527f706f0000000000000000000000000000000000000000000000000000000000006064820152608401610753565b60008381526016602052604090205460ff16158061197e575060008281526016602052604090205460ff16155b80611998575060008181526016602052604090205460ff16155b6119e45760405162461bcd60e51b815260206004820152601760248201527f756e20746f6b656e206573746120626c6f636b6561646f0000000000000000006044820152606401610753565b60008381526010602052604090205460ff1660031415611a465760405162461bcd60e51b815260206004820152601f60248201527f6e6f207365207075656465207573617220756e20746f6b656e206c766c2033006044820152606401610753565b611a4f82611166565b6001600160a01b0316611a6184611166565b6001600160a01b0316148015611a985750611a7b81611166565b6001600160a01b0316611a8d84611166565b6001600160a01b0316145b8015611ab4575033611aa984611166565b6001600160a01b0316145b611b005760405162461bcd60e51b815260206004820152601c60248201527f6c6f7320746f6b656e20646562656e2070657274656e656365727465000000006044820152606401610753565b60008381526010602052604090205460ff1660011415611b2b57611b26338484846124e3565b611b37565b611b3733848484612942565b601a54604080516020810190915260008152611b629133916001600160a01b03909116908690612465565b601a54604080516020810190915260008152611b8d9133916001600160a01b03909116908590612465565b601a54604080516020810190915260008152611bb89133916001600160a01b03909116908490612465565b601b5460405163d058e43760e01b8152600481018590523360248201526001600160a01b039091169063d058e43790604401600060405180830381600087803b158015611c0457600080fd5b505af1158015611c18573d6000803e3d6000fd5b5050601b5460405163d058e43760e01b8152600481018690523360248201526001600160a01b03909116925063d058e4379150604401600060405180830381600087803b158015611c6857600080fd5b505af1158015611c7c573d6000803e3d6000fd5b5050601b5460405163d058e43760e01b8152600481018590523360248201526001600160a01b03909116925063d058e4379150604401600060405180830381600087803b158015611ccc57600080fd5b505af1158015611ce0573d6000803e3d6000fd5b50505050505050565b60006001600160e01b031982167f80ac58cd000000000000000000000000000000000000000000000000000000001480611d4c57506001600160e01b031982167f5b5e139f00000000000000000000000000000000000000000000000000000000145b8061060357507f01ffc9a7000000000000000000000000000000000000000000000000000000006001600160e01b0319831614610603565b6000818152600260205260409020546001600160a01b0316610bf55760405162461bcd60e51b815260206004820152601860248201527f4552433732313a20696e76616c696420746f6b656e20494400000000000000006044820152606401610753565b600081815260046020526040902080546001600160a01b0319166001600160a01b0384169081179091558190611e1d82611166565b6001600160a01b03167f8c5be1e5ebec7d5bd14f71427d1e84f3dd0314c0f7b2291e5b200ac8c7c3b92560405160405180910390a45050565b600080611e6283611166565b9050806001600160a01b0316846001600160a01b03161480611ea957506001600160a01b0380821660009081526005602090815260408083209388168352929052205460ff165b80611ecd5750836001600160a01b0316611ec28461069b565b6001600160a01b0316145b949350505050565b826001600160a01b0316611ee882611166565b6001600160a01b031614611f4c5760405162461bcd60e51b815260206004820152602560248201527f4552433732313a207472616e736665722066726f6d20696e636f72726563742060448201526437bbb732b960d91b6064820152608401610753565b6001600160a01b038216611fc75760405162461bcd60e51b8152602060048201526024808201527f4552433732313a207472616e7366657220746f20746865207a65726f2061646460448201527f72657373000000000000000000000000000000000000000000000000000000006064820152608401610753565b611fd48383836001612edc565b826001600160a01b0316611fe782611166565b6001600160a01b03161461204b5760405162461bcd60e51b815260206004820152602560248201527f4552433732313a207472616e736665722066726f6d20696e636f72726563742060448201526437bbb732b960d91b6064820152608401610753565b600081815260046020908152604080832080546001600160a01b03199081169091556001600160a01b0387811680865260038552838620805460001901905590871680865283862080546001019055868652600290945282852080549092168417909155905184937fddf252ad1be2c89b69c2b068fc378daa952ba7f163c4a11628f55a4df523b3ef91a4505050565b60006120e682611166565b90506120f6816000846001612edc565b6120ff82611166565b600083815260046020908152604080832080546001600160a01b03199081169091556001600160a01b0385168085526003845282852080546000190190558785526002909352818420805490911690555192935084927fddf252ad1be2c89b69c2b068fc378daa952ba7f163c4a11628f55a4df523b3ef908390a45050565b610d2a828260405180602001604052806000815250613024565b6060600b805461061890613e62565b6040805160c08101825260028152600360208201526004918101919091526005606082015260066080820152600760a082015260009081600a81805b8782146122af5783612263576121f98389613f60565b91506000612207848a613f60565b905085612215600687613f60565b6006811061222557612225613e9d565b60200201516122379060ff1682613f10565b6122419083613ec9565b915061224e600186613ec9565b945061225b600a85613f10565b9350506121e3565b61226d8389613f60565b9150600061227c600a85613f74565b612287600a86613f74565b612291908b613f60565b61229b868c613f60565b6122a59190613f88565b6122079190613f74565b60006122bb8883613f74565b90506000826122ca8a84613f10565b6122d4908b613ec9565b6122de9190613f88565b9a9950505050505050505050565b606060006122f9836130a2565b600101905060008167ffffffffffffffff811115612319576123196139b7565b6040519080825280601f01601f191660200182016040528015612343576020820181803683370190505b5090508181016020015b600019017f3031323334353637383961626364656600000000000000000000000000000000600a86061a8153600a85049450846123895761238e565b61234d565b509392505050565b816001600160a01b0316836001600160a01b031614156123f85760405162461bcd60e51b815260206004820152601960248201527f4552433732313a20617070726f766520746f2063616c6c6572000000000000006044820152606401610753565b6001600160a01b03838116600081815260056020908152604080832094871680845294825291829020805460ff191686151590811790915591519182527f17307eab39ab6107e8899845ad3d59bd9653f200f220920489ca2b5937696c31910160405180910390a3505050565b612470848484611ed5565b61247c84848484613184565b6116705760405162461bcd60e51b815260206004820152603260248201527f4552433732313a207472616e7366657220746f206e6f6e20455243373231526560448201527131b2b4bb32b91034b6b83632b6b2b73a32b960711b6064820152608401610753565b60408051600680825260e082019092526000916020820160c080368337019050509050838160008151811061251a5761251a613e9d565b602002602001018181525050828160018151811061253a5761253a613e9d565b602002602001018181525050818160028151811061255a5761255a613e9d565b60209081029190910101526040805160038082526080820190925260009181602001602082028036833701905050905060008060005b60038110156126ab57601760008683815181106125af576125af613e9d565b602002602001015181526020019081526020016000205460001415612613578481815181106125e0576125e0613e9d565b60200260200101518484815181106125fa576125fa613e9d565b60209081029190910101528261260f81613f2f565b9350505b6017600086838151811061262957612629613e9d565b6020026020010151815260200190815260200160002054600114156126995784818151811061265a5761265a613e9d565b6020026020010151858360036126709190613ec9565b8151811061268057612680613e9d565b60209081029190910101528161269581613f2f565b9250505b806126a381613f2f565b915050612590565b5060608215612729576126bd88610de9565b6127028560016126db600d5460016126d59190613ec9565b886121a7565b6126e59190613f88565b815181106126f5576126f5613e9d565b6020026020010151610de9565b604051602001612713929190613ee1565b604051602081830303815290604052905061277d565b61273288610de9565b61275a8660016126db600d54600161274a9190613ec9565b612755886003613ec9565b6121a7565b60405160200161276b929190613ee1565b60405160208183030381529060405290505b600060405180608001604052806044815260200161400f6044913990506000604051806040016040528060048152602001632e706e6760e01b8152509050600082846040516020016127d0929190613ee1565b60408051601f19818403018152908290526127ef918490602001613ee1565b604051602081830303815290604052905061280a8c826132dc565b604080516060810182528c815260208082018d90528183018c9052600d546000908152601590915291909120612841916003613835565b50600d5460009081526015602052604090819020815160608101928390526128cd9290919060039082845b81548152602001906001019080831161286c57505050505080516000908152601660209081526040808320805460ff199081166001908117909255928501518452818420805484168217905593810151835290912080549091169091179055565b600d54600090815260136020908152604090912085516128ef928701906136fc565b5050600d805460009081526010602090815260408083208054600260ff19918216179091559d8352600f909152808220549254825290208054909b1660ff90911615151790995550505050505050505050565b6040805160128082526102608201909252600091602082016102408036833701905050600085815260156020526040812091925001548160008151811061298b5761298b613e9d565b60209081029190910181019190915260008481526015909152604081200154816001815181106129bd576129bd613e9d565b60209081029190910181019190915260008381526015909152604081200154816002815181106129ef576129ef613e9d565b60209081029190910181019190915260008581526015909152604090206001015481600381518110612a2357612a23613e9d565b60209081029190910181019190915260008481526015909152604090206001015481600481518110612a5757612a57613e9d565b60209081029190910181019190915260008381526015909152604090206001015481600581518110612a8b57612a8b613e9d565b60209081029190910181019190915260008581526015909152604090206002015481600681518110612abf57612abf613e9d565b60209081029190910181019190915260008481526015909152604090206002015481600781518110612af357612af3613e9d565b60209081029190910181019190915260008381526015909152604090206002015481600881518110612b2757612b27613e9d565b6020908102919091010152604080516009808252610140820190925260009181602001602082028036833701905050905060008060005b6009811015612c795760176000868381518110612b7d57612b7d613e9d565b602002602001015181526020019081526020016000205460001415612be157848181518110612bae57612bae613e9d565b6020026020010151848481518110612bc857612bc8613e9d565b602090810291909101015282612bdd81613f2f565b9350505b60176000868381518110612bf757612bf7613e9d565b602002602001015181526020019081526020016000205460011415612c6757848181518110612c2857612c28613e9d565b602002602001015185836009612c3e9190613ec9565b81518110612c4e57612c4e613e9d565b602090810291909101015281612c6381613f2f565b9250505b80612c7181613f2f565b915050612b5e565b5060608215612cca57612c8b88610de9565b612ca38560016126db600d5460016126d59190613ec9565b604051602001612cb4929190613ee1565b6040516020818303038152906040529050612d19565b612cd388610de9565b612cf68660016126db600d546001612ceb9190613ec9565b612755886009613ec9565b604051602001612d07929190613ee1565b60405160208183030381529060405290505b600060405180608001604052806044815260200161400f6044913990506000604051806040016040528060048152602001632e706e6760e01b815250905060008284604051602001612d6c929190613ee1565b60408051601f1981840301815290829052612d8b918490602001613ee1565b6040516020818303038152906040529050612da68c826132dc565b604080516060810182528c815260208082018d90528183018c9052600d546000908152601590915291909120612ddd916003613835565b50600d546000908152601560209081526040918290208251606081019384905281548152612e67939092600391906001840190850180831161286c57505050505080516000908152601660209081526040808320805460ff199081166001908117909255928501518452818420805484168217905593810151835290912080549091169091179055565b600d5460009081526013602090815260409091208551612e89928701906136fc565b5050600d805460009081526010602090815260408083208054600360ff19918216179091559d8352600f909152808220549254825290208054909b1660ff90911615151790995550505050505050505050565b612ee88484848461334b565b6001811115612f5f5760405162461bcd60e51b815260206004820152603560248201527f455243373231456e756d657261626c653a20636f6e736563757469766520747260448201527f616e7366657273206e6f7420737570706f7274656400000000000000000000006064820152608401610753565b816001600160a01b038516612fbb57612fb681600880546000838152600960205260408120829055600182018355919091527ff3f7a9fe364faab93b216da50a3214154f22a0a2b415b23a84c8169e8b636ee30155565b612fde565b836001600160a01b0316856001600160a01b031614612fde57612fde85826133d3565b6001600160a01b038416612ffa57612ff581613470565b61301d565b846001600160a01b0316846001600160a01b03161461301d5761301d848261351f565b5050505050565b61302e8383613563565b61303b6000848484613184565b6107f45760405162461bcd60e51b815260206004820152603260248201527f4552433732313a207472616e7366657220746f206e6f6e20455243373231526560448201527131b2b4bb32b91034b6b83632b6b2b73a32b960711b6064820152608401610753565b6000807a184f03e93ff9f4daa797ed6e38ed64bf6a1f01000000000000000083106130eb577a184f03e93ff9f4daa797ed6e38ed64bf6a1f010000000000000000830492506040015b6d04ee2d6d415b85acef81000000008310613117576d04ee2d6d415b85acef8100000000830492506020015b662386f26fc10000831061313557662386f26fc10000830492506010015b6305f5e100831061314d576305f5e100830492506008015b612710831061316157612710830492506004015b60648310613173576064830492506002015b600a83106106035760010192915050565b60006001600160a01b0384163b156132d157604051630a85bd0160e11b81526001600160a01b0385169063150b7a02906131c8903390899088908890600401613f9f565b602060405180830381600087803b1580156131e257600080fd5b505af1925050508015613212575060408051601f3d908101601f1916820190925261320f91810190613fdb565b60015b6132b7573d808015613240576040519150601f19603f3d011682016040523d82523d6000602084013e613245565b606091505b5080516132af5760405162461bcd60e51b815260206004820152603260248201527f4552433732313a207472616e7366657220746f206e6f6e20455243373231526560448201527131b2b4bb32b91034b6b83632b6b2b73a32b960711b6064820152608401610753565b805181602001fd5b6001600160e01b031916630a85bd0160e11b149050611ecd565b506001949350505050565b6000600d5460016132ed9190613ec9565b90506132f9838261217e565b6000818152600a602090815260409091208351849261331c9291908401906136fc565b50601154600083815260126020526040812091909155600d80549161334083613f2f565b919050555050505050565b6001811115611670576001600160a01b03841615613391576001600160a01b0384166000908152600360205260408120805483929061338b908490613f88565b90915550505b6001600160a01b03831615611670576001600160a01b038316600090815260036020526040812080548392906133c8908490613ec9565b909155505050505050565b600060016133e0846113fe565b6133ea9190613f88565b60008381526007602052604090205490915080821461343d576001600160a01b03841660009081526006602090815260408083208584528252808320548484528184208190558352600790915290208190555b5060009182526007602090815260408084208490556001600160a01b039094168352600681528383209183525290812055565b60085460009061348290600190613f88565b600083815260096020526040812054600880549394509092849081106134aa576134aa613e9d565b9060005260206000200154905080600883815481106134cb576134cb613e9d565b600091825260208083209091019290925582815260099091526040808220849055858252812055600880548061350357613503613ff8565b6001900381819060005260206000200160009055905550505050565b600061352a836113fe565b6001600160a01b039093166000908152600660209081526040808320868452825280832085905593825260079052919091209190915550565b6001600160a01b0382166135b95760405162461bcd60e51b815260206004820181905260248201527f4552433732313a206d696e7420746f20746865207a65726f20616464726573736044820152606401610753565b6000818152600260205260409020546001600160a01b03161561361e5760405162461bcd60e51b815260206004820152601c60248201527f4552433732313a20746f6b656e20616c7265616479206d696e746564000000006044820152606401610753565b61362c600083836001612edc565b6000818152600260205260409020546001600160a01b0316156136915760405162461bcd60e51b815260206004820152601c60248201527f4552433732313a20746f6b656e20616c7265616479206d696e746564000000006044820152606401610753565b6001600160a01b038216600081815260036020908152604080832080546001019055848352600290915280822080546001600160a01b0319168417905551839291907fddf252ad1be2c89b69c2b068fc378daa952ba7f163c4a11628f55a4df523b3ef908290a45050565b82805461370890613e62565b90600052602060002090601f01602090048101928261372a5760008555613770565b82601f1061374357805160ff1916838001178555613770565b82800160010185558215613770579182015b82811115613770578251825591602001919060010190613755565b5061377c929150613862565b5090565b50805461378c90613e62565b6000825580601f1061379c575050565b601f016020900490600052602060002090810190610bf59190613862565b8280546137c690613e62565b90600052602060002090601f0160209004810192826137e85760008555613770565b82601f106137f95780548555613770565b8280016001018555821561377057600052602060002091601f016020900482015b8281111561377057825482559160010191906001019061381a565b82600381019282156137705791602002820182811115613770578251825591602001919060010190613755565b5b8082111561377c5760008155600101613863565b6001600160e01b031981168114610bf557600080fd5b60006020828403121561389f57600080fd5b81356138aa81613877565b9392505050565b60005b838110156138cc5781810151838201526020016138b4565b838111156116705750506000910152565b600081518084526138f58160208601602086016138b1565b601f01601f19169290920160200192915050565b6020815260006138aa60208301846138dd565b60006020828403121561392e57600080fd5b5035919050565b6001600160a01b0381168114610bf557600080fd5b6000806040838503121561395d57600080fd5b823561396881613935565b946020939093013593505050565b60008060006060848603121561398b57600080fd5b833561399681613935565b925060208401356139a681613935565b929592945050506040919091013590565b634e487b7160e01b600052604160045260246000fd5b604051601f8201601f1916810167ffffffffffffffff811182821017156139f6576139f66139b7565b604052919050565b600067ffffffffffffffff831115613a1857613a186139b7565b613a2b601f8401601f19166020016139cd565b9050828152838383011115613a3f57600080fd5b828260208301376000602084830101529392505050565b600082601f830112613a6757600080fd5b6138aa838335602085016139fe565b600060208284031215613a8857600080fd5b813567ffffffffffffffff811115613a9f57600080fd5b611ecd84828501613a56565b600060208284031215613abd57600080fd5b81356138aa81613935565b600067ffffffffffffffff821115613ae257613ae26139b7565b5060051b60200190565b600082601f830112613afd57600080fd5b81356020613b12613b0d83613ac8565b6139cd565b82815260059290921b84018101918181019086841115613b3157600080fd5b8286015b84811015613b4c5780358352918301918301613b35565b509695505050505050565b60008060408385031215613b6a57600080fd5b82359150602083013567ffffffffffffffff811115613b8857600080fd5b613b9485828601613aec565b9150509250929050565b60008060408385031215613bb157600080fd5b8235613bbc81613935565b915060208301358015158114613bd157600080fd5b809150509250929050565b600082601f830112613bed57600080fd5b81356020613bfd613b0d83613ac8565b82815260059290921b84018101918181019086841115613c1c57600080fd5b8286015b84811015613b4c57803567ffffffffffffffff811115613c405760008081fd5b613c4e8986838b0101613a56565b845250918301918301613c20565b600080600080600080600080610100898b031215613c7957600080fd5b883567ffffffffffffffff80821115613c9157600080fd5b613c9d8c838d01613a56565b995060208b0135915080821115613cb357600080fd5b613cbf8c838d01613aec565b985060408b0135915080821115613cd557600080fd5b613ce18c838d01613bdc565b975060608b0135965060808b0135955060a08b0135915080821115613d0557600080fd5b613d118c838d01613aec565b945060c08b0135935060e08b0135915080821115613d2e57600080fd5b50613d3b8b828c01613aec565b9150509295985092959890939650565b60008060008060808587031215613d6157600080fd5b8435613d6c81613935565b93506020850135613d7c81613935565b925060408501359150606085013567ffffffffffffffff811115613d9f57600080fd5b8501601f81018713613db057600080fd5b613dbf878235602084016139fe565b91505092959194509250565b60008060408385031215613dde57600080fd5b82359150602083013567ffffffffffffffff811115613dfc57600080fd5b613b9485828601613a56565b60008060408385031215613e1b57600080fd5b8235613e2681613935565b91506020830135613bd181613935565b600080600060608486031215613e4b57600080fd5b505081359360208301359350604090920135919050565b600181811c90821680613e7657607f821691505b60208210811415613e9757634e487b7160e01b600052602260045260246000fd5b50919050565b634e487b7160e01b600052603260045260246000fd5b634e487b7160e01b600052601160045260246000fd5b60008219821115613edc57613edc613eb3565b500190565b60008351613ef38184602088016138b1565b835190830190613f078183602088016138b1565b01949350505050565b6000816000190483118215151615613f2a57613f2a613eb3565b500290565b6000600019821415613f4357613f43613eb3565b5060010190565b634e487b7160e01b600052601260045260246000fd5b600082613f6f57613f6f613f4a565b500690565b600082613f8357613f83613f4a565b500490565b600082821015613f9a57613f9a613eb3565b500390565b60006001600160a01b03808716835280861660208401525083604083015260806060830152613fd160808301846138dd565b9695505050505050565b600060208284031215613fed57600080fd5b81516138aa81613877565b634e487b7160e01b600052603160045260246000fdfe68747470733a2f2f697066732e696f2f697066732f516d565071526555447a3372374448414a444d7867614458777457636b554a517173515753675235754e5159486e2fa2646970667358221220c064834824121a62370da036524c5254050f92fa79c1d1ed3cdc6fb2789ddd4b64736f6c63430008090033",
  "linkReferences": {},
  "deployedLinkReferences": {}
}