{
  "_format": "hh-sol-artifact-1",
  "contractName": "InnomicNFT",
  "sourceName": "contracts/InnomicNFT.sol",
  "abi": [
    {
      "inputs": [
        {
          "internalType": "string",
          "name": "name_",
          "type": "string"
        },
        {
          "internalType": "string",
          "name": "symbol_",
          "type": "string"
        },
        {
          "internalType": "string",
          "name": "newBaseURI",
          "type": "string"
        },
        {
          "internalType": "uint256[]",
          "name": "carpetas",
          "type": "uint256[]"
        },
        {
          "internalType": "string[]",
          "name": "clases_",
          "type": "string[]"
        },
        {
          "internalType": "uint256",
          "name": "lc",
          "type": "uint256"
        },
        {
          "internalType": "uint256",
          "name": "ld",
          "type": "uint256"
        },
        {
          "internalType": "uint256[]",
          "name": "dorados",
          "type": "uint256[]"
        },
        {
          "internalType": "uint256",
          "name": "lm",
          "type": "uint256"
        },
        {
          "internalType": "uint256[]",
          "name": "morados",
          "type": "uint256[]"
        }
      ],
      "stateMutability": "nonpayable",
      "type": "constructor"
    },
    {
      "anonymous": false,
      "inputs": [
        {
          "indexed": true,
          "internalType": "address",
          "name": "owner",
          "type": "address"
        },
        {
          "indexed": true,
          "internalType": "address",
          "name": "approved",
          "type": "address"
        },
        {
          "indexed": true,
          "internalType": "uint256",
          "name": "tokenId",
          "type": "uint256"
        }
      ],
      "name": "Approval",
      "type": "event"
    },
    {
      "anonymous": false,
      "inputs": [
        {
          "indexed": true,
          "internalType": "address",
          "name": "owner",
          "type": "address"
        },
        {
          "indexed": true,
          "internalType": "address",
          "name": "operator",
          "type": "address"
        },
        {
          "indexed": false,
          "internalType": "bool",
          "name": "approved",
          "type": "bool"
        }
      ],
      "name": "ApprovalForAll",
      "type": "event"
    },
    {
      "anonymous": false,
      "inputs": [
        {
          "indexed": true,
          "internalType": "address",
          "name": "from",
          "type": "address"
        },
        {
          "indexed": true,
          "internalType": "address",
          "name": "to",
          "type": "address"
        },
        {
          "indexed": true,
          "internalType": "uint256",
          "name": "tokenId",
          "type": "uint256"
        }
      ],
      "name": "Transfer",
      "type": "event"
    },
    {
      "inputs": [
        {
          "internalType": "uint256",
          "name": "carpeta",
          "type": "uint256"
        },
        {
          "internalType": "string",
          "name": "clase_",
          "type": "string"
        }
      ],
      "name": "_addClase",
      "outputs": [],
      "stateMutability": "nonpayable",
      "type": "function"
    },
    {
      "inputs": [
        {
          "internalType": "uint256",
          "name": "tokenId",
          "type": "uint256"
        }
      ],
      "name": "_getColor",
      "outputs": [
        {
          "internalType": "uint256",
          "name": "",
          "type": "uint256"
        }
      ],
      "stateMutability": "view",
      "type": "function"
    },
    {
      "inputs": [
        {
          "internalType": "address",
          "name": "to",
          "type": "address"
        }
      ],
      "name": "_mintTokenAllowedToEarn",
      "outputs": [],
      "stateMutability": "nonpayable",
      "type": "function"
    },
    {
      "inputs": [
        {
          "internalType": "address",
          "name": "to",
          "type": "address"
        }
      ],
      "name": "_mintTokenNotAllowedToEarn",
      "outputs": [],
      "stateMutability": "nonpayable",
      "type": "function"
    },
    {
      "inputs": [
        {
          "internalType": "address",
          "name": "to",
          "type": "address"
        },
        {
          "internalType": "uint256",
          "name": "tokenId",
          "type": "uint256"
        }
      ],
      "name": "_safeTransfer",
      "outputs": [],
      "stateMutability": "nonpayable",
      "type": "function"
    },
    {
      "inputs": [
        {
          "internalType": "address",
          "name": "to",
          "type": "address"
        },
        {
          "internalType": "uint256",
          "name": "tokenId",
          "type": "uint256"
        }
      ],
      "name": "_safeTransferPool",
      "outputs": [],
      "stateMutability": "nonpayable",
      "type": "function"
    },
    {
      "inputs": [
        {
          "internalType": "string",
          "name": "newBaseURI",
          "type": "string"
        }
      ],
      "name": "_setBaseURI",
      "outputs": [],
      "stateMutability": "nonpayable",
      "type": "function"
    },
    {
      "inputs": [
        {
          "internalType": "uint256",
          "name": "l",
          "type": "uint256"
        },
        {
          "internalType": "uint256[]",
          "name": "dorados",
          "type": "uint256[]"
        }
      ],
      "name": "_setDorados",
      "outputs": [],
      "stateMutability": "nonpayable",
      "type": "function"
    },
    {
      "inputs": [
        {
          "internalType": "uint256",
          "name": "newmod",
          "type": "uint256"
        }
      ],
      "name": "_setMod",
      "outputs": [],
      "stateMutability": "nonpayable",
      "type": "function"
    },
    {
      "inputs": [
        {
          "internalType": "uint256",
          "name": "l",
          "type": "uint256"
        },
        {
          "internalType": "uint256[]",
          "name": "morados",
          "type": "uint256[]"
        }
      ],
      "name": "_setMorados",
      "outputs": [],
      "stateMutability": "nonpayable",
      "type": "function"
    },
    {
      "inputs": [
        {
          "internalType": "string",
          "name": "newBaseURI",
          "type": "string"
        },
        {
          "internalType": "uint256[]",
          "name": "carpetas",
          "type": "uint256[]"
        },
        {
          "internalType": "string[]",
          "name": "clases_",
          "type": "string[]"
        },
        {
          "internalType": "uint256",
          "name": "lc",
          "type": "uint256"
        },
        {
          "internalType": "uint256",
          "name": "ld",
          "type": "uint256"
        },
        {
          "internalType": "uint256[]",
          "name": "dorados",
          "type": "uint256[]"
        },
        {
          "internalType": "uint256",
          "name": "lm",
          "type": "uint256"
        },
        {
          "internalType": "uint256[]",
          "name": "morados",
          "type": "uint256[]"
        }
      ],
      "name": "_setTanda",
      "outputs": [],
      "stateMutability": "nonpayable",
      "type": "function"
    },
    {
      "inputs": [
        {
          "internalType": "uint256",
          "name": "newlimite",
          "type": "uint256"
        }
      ],
      "name": "_setlimite",
      "outputs": [],
      "stateMutability": "nonpayable",
      "type": "function"
    },
    {
      "inputs": [
        {
          "internalType": "address",
          "name": "to",
          "type": "address"
        },
        {
          "internalType": "uint256",
          "name": "tokenId",
          "type": "uint256"
        }
      ],
      "name": "approve",
      "outputs": [],
      "stateMutability": "nonpayable",
      "type": "function"
    },
    {
      "inputs": [],
      "name": "balance",
      "outputs": [
        {
          "internalType": "uint256",
          "name": "",
          "type": "uint256"
        }
      ],
      "stateMutability": "view",
      "type": "function"
    },
    {
      "inputs": [
        {
          "internalType": "address",
          "name": "owner",
          "type": "address"
        }
      ],
      "name": "balanceOf",
      "outputs": [
        {
          "internalType": "uint256",
          "name": "",
          "type": "uint256"
        }
      ],
      "stateMutability": "view",
      "type": "function"
    },
    {
      "inputs": [
        {
          "internalType": "uint256",
          "name": "tokenId",
          "type": "uint256"
        }
      ],
      "name": "claseToken",
      "outputs": [
        {
          "internalType": "string",
          "name": "",
          "type": "string"
        }
      ],
      "stateMutability": "view",
      "type": "function"
    },
    {
      "inputs": [
        {
          "internalType": "uint256",
          "name": "tokenId",
          "type": "uint256"
        }
      ],
      "name": "downgrade",
      "outputs": [],
      "stateMutability": "nonpayable",
      "type": "function"
    },
    {
      "inputs": [
        {
          "internalType": "uint256",
          "name": "tokenId",
          "type": "uint256"
        }
      ],
      "name": "getApproved",
      "outputs": [
        {
          "internalType": "address",
          "name": "",
          "type": "address"
        }
      ],
      "stateMutability": "view",
      "type": "function"
    },
    {
      "inputs": [
        {
          "internalType": "uint256",
          "name": "tokenId",
          "type": "uint256"
        }
      ],
      "name": "isAllowedToEarn",
      "outputs": [
        {
          "internalType": "bool",
          "name": "",
          "type": "bool"
        }
      ],
      "stateMutability": "view",
      "type": "function"
    },
    {
      "inputs": [
        {
          "internalType": "address",
          "name": "owner",
          "type": "address"
        },
        {
          "internalType": "address",
          "name": "operator",
          "type": "address"
        }
      ],
      "name": "isApprovedForAll",
      "outputs": [
        {
          "internalType": "bool",
          "name": "",
          "type": "bool"
        }
      ],
      "stateMutability": "view",
      "type": "function"
    },
    {
      "inputs": [],
      "name": "limite",
      "outputs": [
        {
          "internalType": "uint256",
          "name": "",
          "type": "uint256"
        }
      ],
      "stateMutability": "view",
      "type": "function"
    },
    {
      "inputs": [],
      "name": "name",
      "outputs": [
        {
          "internalType": "string",
          "name": "",
          "type": "string"
        }
      ],
      "stateMutability": "view",
      "type": "function"
    },
    {
      "inputs": [
        {
          "internalType": "uint256",
          "name": "tokenId",
          "type": "uint256"
        }
      ],
      "name": "numClase",
      "outputs": [
        {
          "internalType": "string",
          "name": "",
          "type": "string"
        }
      ],
      "stateMutability": "view",
      "type": "function"
    },
    {
      "inputs": [
        {
          "internalType": "uint256",
          "name": "tokenId",
          "type": "uint256"
        }
      ],
      "name": "ownerOf",
      "outputs": [
        {
          "internalType": "address",
          "name": "",
          "type": "address"
        }
      ],
      "stateMutability": "view",
      "type": "function"
    },
    {
      "inputs": [],
      "name": "poolNFT",
      "outputs": [
        {
          "internalType": "contract PoolNFT",
          "name": "",
          "type": "address"
        }
      ],
      "stateMutability": "view",
      "type": "function"
    },
    {
      "inputs": [
        {
          "internalType": "address",
          "name": "from",
          "type": "address"
        },
        {
          "internalType": "address",
          "name": "to",
          "type": "address"
        },
        {
          "internalType": "uint256",
          "name": "tokenId",
          "type": "uint256"
        }
      ],
      "name": "safeTransferFrom",
      "outputs": [],
      "stateMutability": "nonpayable",
      "type": "function"
    },
    {
      "inputs": [
        {
          "internalType": "address",
          "name": "from",
          "type": "address"
        },
        {
          "internalType": "address",
          "name": "to",
          "type": "address"
        },
        {
          "internalType": "uint256",
          "name": "tokenId",
          "type": "uint256"
        },
        {
          "internalType": "bytes",
          "name": "data",
          "type": "bytes"
        }
      ],
      "name": "safeTransferFrom",
      "outputs": [],
      "stateMutability": "nonpayable",
      "type": "function"
    },
    {
      "inputs": [
        {
          "internalType": "address",
          "name": "operator",
          "type": "address"
        },
        {
          "internalType": "bool",
          "name": "approved",
          "type": "bool"
        }
      ],
      "name": "setApprovalForAll",
      "outputs": [],
      "stateMutability": "nonpayable",
      "type": "function"
    },
    {
      "inputs": [
        {
          "internalType": "address",
          "name": "poola",
          "type": "address"
        },
        {
          "internalType": "contract PoolNFT",
          "name": "pool",
          "type": "address"
        }
      ],
      "name": "setPoolNFT",
      "outputs": [],
      "stateMutability": "nonpayable",
      "type": "function"
    },
    {
      "inputs": [
        {
          "internalType": "bytes4",
          "name": "interfaceId",
          "type": "bytes4"
        }
      ],
      "name": "supportsInterface",
      "outputs": [
        {
          "internalType": "bool",
          "name": "",
          "type": "bool"
        }
      ],
      "stateMutability": "view",
      "type": "function"
    },
    {
      "inputs": [],
      "name": "symbol",
      "outputs": [
        {
          "internalType": "string",
          "name": "",
          "type": "string"
        }
      ],
      "stateMutability": "view",
      "type": "function"
    },
    {
      "inputs": [
        {
          "internalType": "uint256",
          "name": "tokenId",
          "type": "uint256"
        }
      ],
      "name": "tokenURI",
      "outputs": [
        {
          "internalType": "string",
          "name": "",
          "type": "string"
        }
      ],
      "stateMutability": "view",
      "type": "function"
    },
    {
      "inputs": [
        {
          "internalType": "address",
          "name": "from",
          "type": "address"
        },
        {
          "internalType": "address",
          "name": "to",
          "type": "address"
        },
        {
          "internalType": "uint256",
          "name": "tokenId",
          "type": "uint256"
        }
      ],
      "name": "transferFrom",
      "outputs": [],
      "stateMutability": "nonpayable",
      "type": "function"
    },
    {
      "inputs": [
        {
          "internalType": "uint256",
          "name": "tokenId1",
          "type": "uint256"
        },
        {
          "internalType": "uint256",
          "name": "tokenId2",
          "type": "uint256"
        },
        {
          "internalType": "uint256",
          "name": "tokenId3",
          "type": "uint256"
        }
      ],
      "name": "upgrade",
      "outputs": [],
      "stateMutability": "nonpayable",
      "type": "function"
    }
  ],
  "bytecode": "0x6080604052600880556002600a556000600d553480156200001f57600080fd5b506040516200426c3803806200426c833981016040819052620000429162000548565b89518a908a906200005b906000906020850190620002a2565b50805162000071906001906020840190620002a2565b5050506200008c88888888888888886200009c60201b60201c565b505050505050505050506200075b565b600d8054906000620000ae83620006ad565b919050555060005b858110156200013b5762000126888281518110620000d857620000d8620006cb565b6020026020010151600d546064620000f19190620006e1565b620000fd919062000703565b888381518110620001125762000112620006cb565b60200260200101516200016960201b60201c565b806200013281620006ad565b915050620000b6565b506200014884846200018f565b6200015482826200020c565b6200015f8862000289565b5050505050505050565b600082815260106020908152604090912082516200018a92840190620002a2565b505050565b60005b828110156200018a57600160146000600d5481526020019081526020016000206000848481518110620001c957620001c9620006cb565b6020026020010151815260200190815260200160002060006101000a81548160ff02191690831515021790555080806200020390620006ad565b91505062000192565b60005b828110156200018a57600160156000600d5481526020019081526020016000206000848481518110620002465762000246620006cb565b6020026020010151815260200190815260200160002060006101000a81548160ff02191690831515021790555080806200028090620006ad565b9150506200020f565b80516200029e906007906020840190620002a2565b5050565b828054620002b0906200071e565b90600052602060002090601f016020900481019282620002d457600085556200031f565b82601f10620002ef57805160ff19168380011785556200031f565b828001600101855582156200031f579182015b828111156200031f57825182559160200191906001019062000302565b506200032d92915062000331565b5090565b5b808211156200032d576000815560010162000332565b634e487b7160e01b600052604160045260246000fd5b604051601f8201601f191681016001600160401b038111828210171562000389576200038962000348565b604052919050565b600082601f830112620003a357600080fd5b81516001600160401b03811115620003bf57620003bf62000348565b6020620003d5601f8301601f191682016200035e565b8281528582848701011115620003ea57600080fd5b60005b838110156200040a578581018301518282018401528201620003ed565b838111156200041c5760008385840101525b5095945050505050565b60006001600160401b0382111562000442576200044262000348565b5060051b60200190565b600082601f8301126200045e57600080fd5b8151602062000477620004718362000426565b6200035e565b82815260059290921b840181019181810190868411156200049757600080fd5b8286015b84811015620004b457805183529183019183016200049b565b509695505050505050565b600082601f830112620004d157600080fd5b81516020620004e4620004718362000426565b82815260059290921b840181019181810190868411156200050457600080fd5b8286015b84811015620004b45780516001600160401b03811115620005295760008081fd5b620005398986838b010162000391565b84525091830191830162000508565b6000806000806000806000806000806101408b8d0312156200056957600080fd5b8a516001600160401b03808211156200058157600080fd5b6200058f8e838f0162000391565b9b5060208d0151915080821115620005a657600080fd5b620005b48e838f0162000391565b9a5060408d0151915080821115620005cb57600080fd5b620005d98e838f0162000391565b995060608d0151915080821115620005f057600080fd5b620005fe8e838f016200044c565b985060808d01519150808211156200061557600080fd5b620006238e838f01620004bf565b975060a08d0151965060c08d0151955060e08d01519150808211156200064857600080fd5b620006568e838f016200044c565b94506101008d015193506101208d01519150808211156200067657600080fd5b50620006858d828e016200044c565b9150509295989b9194979a5092959850565b634e487b7160e01b600052601160045260246000fd5b6000600019821415620006c457620006c462000697565b5060010190565b634e487b7160e01b600052603260045260246000fd5b6000816000190483118215151615620006fe57620006fe62000697565b500290565b6000821982111562000719576200071962000697565b500190565b600181811c908216806200073357607f821691505b602082108114156200075557634e487b7160e01b600052602260045260246000fd5b50919050565b613b01806200076b6000396000f3fe608060405234801561001057600080fd5b50600436106102265760003560e01c806395d89b411161012a578063c87b56dd116100bd578063e985e9c51161008c578063f202dc2e11610071578063f202dc2e146104ba578063f4842257146104cd578063fe1538d41461050957600080fd5b8063e985e9c51461046b578063ef0b2307146104a757600080fd5b8063c87b56dd14610425578063cb9375d31461030b578063d572c38f14610438578063dca77ad21461045857600080fd5b8063b69ef8a8116100f9578063b69ef8a8146103e4578063b88d4fde146103ec578063bf5da0c5146103ff578063c4f8210e1461041257600080fd5b806395d89b41146103a3578063a0b49778146103ab578063a22cb465146103be578063ac12914f146103d157600080fd5b806342842e0e116101bd5780636f52598b1161018c5780637bafd87e116101715780637bafd87e1461036a5780638527788a1461037d57806385dd90331461039057600080fd5b80636f52598b1461034457806370a082311461035757600080fd5b806342842e0e146102f85780634e72a6fa1461030b57806359b17c5e1461031e5780636352211e1461033157600080fd5b806311bcc81e116101f957806311bcc81e146102a857806320eb8e53146102bb57806323b872dd146102d257806331b5b907146102e557600080fd5b806301ffc9a71461022b57806306fdde0314610253578063081812fc14610268578063095ea7b314610293575b600080fd5b61023e61023936600461331c565b61051c565b60405190151581526020015b60405180910390f35b61025b6105b9565b60405161024a9190613398565b61027b6102763660046133ab565b61064b565b6040516001600160a01b03909116815260200161024a565b6102a66102a13660046133d9565b610672565b005b6102a66102b63660046133ab565b6107a9565b6102c4600a5481565b60405190815260200161024a565b6102a66102e0366004613405565b610ba8565b6102a66102f3366004613505565b610c1f565b6102a6610306366004613405565b610c36565b61025b6103193660046133ab565b610c51565b6102a661032c36600461353a565b610cf5565b61027b61033f3660046133ab565b610f29565b6102a661035236600461353a565b610f8e565b6102c461036536600461353a565b6111c0565b61023e6103783660046133ab565b61125a565b6102a661038b3660046135e6565b61127b565b6102a661039e3660046133ab565b600a55565b61025b6112f1565b60175461027b906001600160a01b031681565b6102a66103cc36600461362d565b611300565b6102a66103df3660046136eb565b61130b565b6009546102c4565b6102a66103fa3660046137da565b6113ba565b6102a661040d3660046133ab565b600855565b6102a66104203660046133d9565b611438565b61025b6104333660046133ab565b6114bd565b6102c46104463660046133ab565b60009081526013602052604090205490565b6102a661046636600461385a565b6114e1565b61023e610479366004613897565b6001600160a01b03918216600090815260056020908152604080832093909416825291909152205460ff1690565b6102a66104b53660046135e6565b611500565b6102a66104c83660046133d9565b611576565b6102a66104db366004613897565b601680546001600160a01b039384166001600160a01b03199182161790915560178054929093169116179055565b6102a66105173660046138c5565b61159f565b60006001600160e01b031982167f80ac58cd00000000000000000000000000000000000000000000000000000000148061057f57506001600160e01b031982167f5b5e139f00000000000000000000000000000000000000000000000000000000145b806105b357507f01ffc9a7000000000000000000000000000000000000000000000000000000006001600160e01b03198316145b92915050565b6060600080546105c8906138f1565b80601f01602080910402602001604051908101604052809291908181526020018280546105f4906138f1565b80156106415780601f1061061657610100808354040283529160200191610641565b820191906000526020600020905b81548152906001019060200180831161062457829003601f168201915b5050505050905090565b600061065682611aab565b506000908152600460205260409020546001600160a01b031690565b600061067d82610f29565b9050806001600160a01b0316836001600160a01b0316141561070c5760405162461bcd60e51b815260206004820152602160248201527f4552433732313a20617070726f76616c20746f2063757272656e74206f776e6560448201527f720000000000000000000000000000000000000000000000000000000000000060648201526084015b60405180910390fd5b336001600160a01b038216148061072857506107288133610479565b61079a5760405162461bcd60e51b815260206004820152603d60248201527f4552433732313a20617070726f76652063616c6c6572206973206e6f7420746f60448201527f6b656e206f776e6572206f7220617070726f76656420666f7220616c6c0000006064820152608401610703565b6107a48383611b0f565b505050565b6000818152600c6020526040902054600160ff909116116108325760405162461bcd60e51b815260206004820152602260248201527f656c20746f6b656e206465626520736572206465206c766c206d61796f72206160448201527f20310000000000000000000000000000000000000000000000000000000000006064820152608401610703565b3361083c82610f29565b6001600160a01b0316146108925760405162461bcd60e51b815260206004820152601a60248201527f656c20746f6b656e20646562652070657274656e6563657274650000000000006044820152606401610703565b60008181526011602081815260408084208054855260128352818520805460ff19908116909155600182015486528286208054821690556002820154865282862080549091169055601754868652939092529054815163d058e43760e01b8152600481019190915233602482015290516001600160a01b039092169263d058e4379260448084019382900301818387803b15801561092f57600080fd5b505af1158015610943573d6000803e3d6000fd5b50506017546000848152601160205260409081902060010154905163d058e43760e01b815260048101919091523360248201526001600160a01b03909116925063d058e4379150604401600060405180830381600087803b1580156109a757600080fd5b505af11580156109bb573d6000803e3d6000fd5b50506017546000848152601160205260409081902060020154905163d058e43760e01b815260048101919091523360248201526001600160a01b03909116925063d058e4379150604401600060405180830381600087803b158015610a1f57600080fd5b505af1158015610a33573d6000803e3d6000fd5b505060175460008481526011602052604090819020549051631d9f985560e11b815260048101919091523360248201526001600160a01b039091169250633b3f30aa9150604401600060405180830381600087803b158015610a9457600080fd5b505af1158015610aa8573d6000803e3d6000fd5b505060175460008481526011602052604090819020600101549051631d9f985560e11b815260048101919091523360248201526001600160a01b039091169250633b3f30aa9150604401600060405180830381600087803b158015610b0c57600080fd5b505af1158015610b20573d6000803e3d6000fd5b505060175460008481526011602052604090819020600201549051631d9f985560e11b815260048101919091523360248201526001600160a01b039091169250633b3f30aa9150604401600060405180830381600087803b158015610b8457600080fd5b505af1158015610b98573d6000803e3d6000fd5b50505050610ba581611b7d565b50565b610bb23382611bbd565b610c145760405162461bcd60e51b815260206004820152602d60248201527f4552433732313a2063616c6c6572206973206e6f7420746f6b656e206f776e6560448201526c1c881bdc88185c1c1c9bdd9959609a1b6064820152608401610703565b6107a4838383611c3c565b8051610c3290600790602084019061318b565b5050565b6107a4838383604051806020016040528060008152506113ba565b6000818152600f6020526040812080546060929190610c6f906138f1565b80601f0160208091040260200160405190810160405280929190818152602001828054610c9b906138f1565b8015610ce85780601f10610cbd57610100808354040283529160200191610ce8565b820191906000526020600020905b815481529060010190602001808311610ccb57829003601f168201915b5093979650505050505050565b60006009546001610d069190613958565b9050610d128282611e42565b6000610d1c611e5c565b90506000604051806040016040528060048152602001632e706e6760e01b8152509050600082610d56610d5186600854611e6b565b611fb0565b604051602001610d67929190613970565b60408051601f1981840301815290829052610d86918490602001613970565b60408051601f198184030181529181526000868152600660209081529190208251929350610db892909184019061318b565b50600d546000858152600e6020526040812091909155600854610ddc908690611e6b565b600d54610dea90606461399f565b610df49190613958565b6000818152601060209081526040808320898452600f909252909120815492935091610e1f906138f1565b610e2a92919061320f565b506000858152600c60209081526040808320805460ff19166001179055600d54835260149091528120600854909190610e64908890611e6b565b815260208101919091526040016000205460ff1615610e9157600085815260136020526040812055610ef7565b60156000600d5481526020019081526020016000206000610eb487600854611e6b565b815260208101919091526040016000205460ff1615610ee457600085815260136020526040902060019055610ef7565b6000858152601360205260409020600290555b60098054906000610f07836139be565b90915550505060009384525050600b6020525060409020805460ff1916905550565b6000818152600260205260408120546001600160a01b0316806105b35760405162461bcd60e51b815260206004820152601860248201527f4552433732313a20696e76616c696420746f6b656e20494400000000000000006044820152606401610703565b60006009546001610f9f9190613958565b9050610fab8282611e42565b6000610fb5611e5c565b90506000604051806040016040528060048152602001632e706e6760e01b8152509050600082610fea610d5186600854611e6b565b604051602001610ffb929190613970565b60408051601f198184030181529082905261101a918490602001613970565b60408051601f19818403018152918152600086815260066020908152919020825192935061104c92909184019061318b565b50600d546000858152600e6020526040812091909155600854611070908690611e6b565b600d5461107e90606461399f565b6110889190613958565b6000818152601060209081526040808320898452600f9092529091208154929350916110b3906138f1565b6110be92919061320f565b506000858152600c60209081526040808320805460ff19166001179055600d548352601490915281206008549091906110f8908890611e6b565b815260208101919091526040016000205460ff16156111255760008581526013602052604081205561118b565b60156000600d548152602001908152602001600020600061114887600854611e6b565b815260208101919091526040016000205460ff16156111785760008581526013602052604090206001905561118b565b6000858152601360205260409020600290555b6009805490600061119b836139be565b90915550505060009384525050600b6020525060409020805460ff1916600117905550565b60006001600160a01b03821661123e5760405162461bcd60e51b815260206004820152602960248201527f4552433732313a2061646472657373207a65726f206973206e6f74206120766160448201527f6c6964206f776e657200000000000000000000000000000000000000000000006064820152608401610703565b506001600160a01b031660009081526003602052604090205490565b600061126582611aab565b506000908152600b602052604090205460ff1690565b60005b828110156107a457600160146000600d54815260200190815260200160002060008484815181106112b1576112b161392c565b6020026020010151815260200190815260200160002060006101000a81548160ff02191690831515021790555080806112e9906139be565b91505061127e565b6060600180546105c8906138f1565b610c3233838361205a565b600d805490600061131b836139be565b919050555060005b85811015611392576113808882815181106113405761134061392c565b6020026020010151600d546064611357919061399f565b6113619190613958565b8883815181106113735761137361392c565b60200260200101516114e1565b8061138a816139be565b915050611323565b5061139d848461127b565b6113a78282611500565b6113b088610c1f565b5050505050505050565b6113c43383611bbd565b6114265760405162461bcd60e51b815260206004820152602d60248201527f4552433732313a2063616c6c6572206973206e6f7420746f6b656e206f776e6560448201526c1c881bdc88185c1c1c9bdd9959609a1b6064820152608401610703565b61143284848484612129565b50505050565b61145333838360405180602001604052806000815250612129565b60175460405163d058e43760e01b8152600481018390526001600160a01b0384811660248301529091169063d058e43790604401600060405180830381600087803b1580156114a157600080fd5b505af11580156114b5573d6000803e3d6000fd5b505050505050565b60606114c882611aab565b60008281526006602052604081208054610c6f906138f1565b600082815260106020908152604090912082516107a49284019061318b565b60005b828110156107a457600160156000600d54815260200190815260200160002060008484815181106115365761153661392c565b6020026020010151815260200190815260200160002060006101000a81548160ff021916908315150217905550808061156e906139be565b915050611503565b601654604080516020810190915260008152610c32916001600160a01b03169084908490612129565b6000828152600c60205260408082205485835291205460ff90811691161480156115e357506000818152600c60205260408082205485835291205460ff9081169116145b6116555760405162461bcd60e51b815260206004820152602160248201527f6c6f7320746f6b656e20646562656e207365722064656c206d69736d6f206c7660448201527f6c000000000000000000000000000000000000000000000000000000000000006064820152608401610703565b6000828152600b60205260408082205485835291205460ff9081161515911615151480156116a157506000818152600b60205260408082205485835291205460ff908116151591161515145b6117135760405162461bcd60e51b815260206004820152602260248201527f6c6f7320746f6b656e20646562656e207365722064656c206d69736d6f20746960448201527f706f0000000000000000000000000000000000000000000000000000000000006064820152608401610703565b60008381526012602052604090205460ff161580611740575060008281526012602052604090205460ff16155b8061175a575060008181526012602052604090205460ff16155b6117a65760405162461bcd60e51b815260206004820152601760248201527f756e20746f6b656e206573746120626c6f636b6561646f0000000000000000006044820152606401610703565b6000838152600c602052604090205460ff16600314156118085760405162461bcd60e51b815260206004820152601f60248201527f6e6f207365207075656465207573617220756e20746f6b656e206c766c2033006044820152606401610703565b61181182610f29565b6001600160a01b031661182384610f29565b6001600160a01b031614801561185a575061183d81610f29565b6001600160a01b031661184f84610f29565b6001600160a01b0316145b801561187657503361186b84610f29565b6001600160a01b0316145b6118c25760405162461bcd60e51b815260206004820152601c60248201527f6c6f7320746f6b656e20646562656e2070657274656e656365727465000000006044820152606401610703565b6000838152600c602052604090205460ff16600114156118ed576118e8338484846121a7565b6118f9565b6118f933848484612606565b6016546040805160208101909152600081526119249133916001600160a01b03909116908690612129565b60165460408051602081019091526000815261194f9133916001600160a01b03909116908590612129565b60165460408051602081019091526000815261197a9133916001600160a01b03909116908490612129565b60175460405163d058e43760e01b8152600481018590523360248201526001600160a01b039091169063d058e43790604401600060405180830381600087803b1580156119c657600080fd5b505af11580156119da573d6000803e3d6000fd5b505060175460405163d058e43760e01b8152600481018690523360248201526001600160a01b03909116925063d058e4379150604401600060405180830381600087803b158015611a2a57600080fd5b505af1158015611a3e573d6000803e3d6000fd5b505060175460405163d058e43760e01b8152600481018590523360248201526001600160a01b03909116925063d058e4379150604401600060405180830381600087803b158015611a8e57600080fd5b505af1158015611aa2573d6000803e3d6000fd5b50505050505050565b6000818152600260205260409020546001600160a01b0316610ba55760405162461bcd60e51b815260206004820152601860248201527f4552433732313a20696e76616c696420746f6b656e20494400000000000000006044820152606401610703565b600081815260046020526040902080546001600160a01b0319166001600160a01b0384169081179091558190611b4482610f29565b6001600160a01b03167f8c5be1e5ebec7d5bd14f71427d1e84f3dd0314c0f7b2291e5b200ac8c7c3b92560405160405180910390a45050565b611b8681612ba0565b60008181526006602052604090208054611b9f906138f1565b159050610ba5576000818152600660205260408120610ba59161328a565b600080611bc983610f29565b9050806001600160a01b0316846001600160a01b03161480611c1057506001600160a01b0380821660009081526005602090815260408083209388168352929052205460ff165b80611c345750836001600160a01b0316611c298461064b565b6001600160a01b0316145b949350505050565b826001600160a01b0316611c4f82610f29565b6001600160a01b031614611cb35760405162461bcd60e51b815260206004820152602560248201527f4552433732313a207472616e736665722066726f6d20696e636f72726563742060448201526437bbb732b960d91b6064820152608401610703565b6001600160a01b038216611d2e5760405162461bcd60e51b8152602060048201526024808201527f4552433732313a207472616e7366657220746f20746865207a65726f2061646460448201527f72657373000000000000000000000000000000000000000000000000000000006064820152608401610703565b611d3b8383836001612c43565b826001600160a01b0316611d4e82610f29565b6001600160a01b031614611db25760405162461bcd60e51b815260206004820152602560248201527f4552433732313a207472616e736665722066726f6d20696e636f72726563742060448201526437bbb732b960d91b6064820152608401610703565b600081815260046020908152604080832080546001600160a01b03199081169091556001600160a01b0387811680865260038552838620805460001901905590871680865283862080546001019055868652600290945282852080549092168417909155905184937fddf252ad1be2c89b69c2b068fc378daa952ba7f163c4a11628f55a4df523b3ef91a4505050565b610c32828260405180602001604052806000815250612ccb565b6060600780546105c8906138f1565b6040805160c08101825260028152600360208201526004918101919091526005606082015260066080820152600760a082015260009081600a81805b878214611f735783611f2757611ebd83896139ef565b91506000611ecb848a6139ef565b905085611ed96006876139ef565b60068110611ee957611ee961392c565b6020020151611efb9060ff168261399f565b611f059083613958565b9150611f12600186613958565b9450611f1f600a8561399f565b935050611ea7565b611f3183896139ef565b91506000611f40600a85613a03565b611f4b600a86613a03565b611f55908b6139ef565b611f5f868c6139ef565b611f699190613a17565b611ecb9190613a03565b6000611f7f8883613a03565b9050600082611f8e8a8461399f565b611f98908b613958565b611fa29190613a17565b9a9950505050505050505050565b60606000611fbd83612d49565b600101905060008167ffffffffffffffff811115611fdd57611fdd613446565b6040519080825280601f01601f191660200182016040528015612007576020820181803683370190505b5090508181016020015b600019017f3031323334353637383961626364656600000000000000000000000000000000600a86061a8153600a850494508461204d57612052565b612011565b509392505050565b816001600160a01b0316836001600160a01b031614156120bc5760405162461bcd60e51b815260206004820152601960248201527f4552433732313a20617070726f766520746f2063616c6c6572000000000000006044820152606401610703565b6001600160a01b03838116600081815260056020908152604080832094871680845294825291829020805460ff191686151590811790915591519182527f17307eab39ab6107e8899845ad3d59bd9653f200f220920489ca2b5937696c31910160405180910390a3505050565b612134848484611c3c565b61214084848484612e2b565b6114325760405162461bcd60e51b815260206004820152603260248201527f4552433732313a207472616e7366657220746f206e6f6e20455243373231526560448201527131b2b4bb32b91034b6b83632b6b2b73a32b960711b6064820152608401610703565b60408051600680825260e082019092526000916020820160c08036833701905050905083816000815181106121de576121de61392c565b60200260200101818152505082816001815181106121fe576121fe61392c565b602002602001018181525050818160028151811061221e5761221e61392c565b60209081029190910101526040805160038082526080820190925260009181602001602082028036833701905050905060008060005b600381101561236f57601360008683815181106122735761227361392c565b6020026020010151815260200190815260200160002054600014156122d7578481815181106122a4576122a461392c565b60200260200101518484815181106122be576122be61392c565b6020908102919091010152826122d3816139be565b9350505b601360008683815181106122ed576122ed61392c565b60200260200101518152602001908152602001600020546001141561235d5784818151811061231e5761231e61392c565b6020026020010151858360036123349190613958565b815181106123445761234461392c565b602090810291909101015281612359816139be565b9250505b80612367816139be565b915050612254565b50606082156123ed5761238188610c51565b6123c685600161239f60095460016123999190613958565b88611e6b565b6123a99190613a17565b815181106123b9576123b961392c565b6020026020010151610c51565b6040516020016123d7929190613970565b6040516020818303038152906040529050612441565b6123f688610c51565b61241e86600161239f600954600161240e9190613958565b612419886003613958565b611e6b565b60405160200161242f929190613970565b60405160208183030381529060405290505b6000604051806080016040528060448152602001613a886044913990506000604051806040016040528060048152602001632e706e6760e01b815250905060008284604051602001612494929190613970565b60408051601f19818403018152908290526124b3918490602001613970565b60405160208183030381529060405290506124ce8c82612f83565b604080516060810182528c815260208082018d90528183018c905260095460009081526011909152919091206125059160036132c4565b5060095460009081526011602052604090819020815160608101928390526125919290919060039082845b81548152602001906001019080831161253057505050505080516000908152601260209081526040808320805460ff199081166001908117909255928501518452818420805484168217905593810151835290912080549091169091179055565b6009546000908152600f6020908152604090912085516125b39287019061318b565b5050600980546000908152600c602090815260408083208054600260ff19918216179091559d8352600b909152808220549254825290208054909b1660ff90911615151790995550505050505050505050565b6040805160128082526102608201909252600091602082016102408036833701905050600085815260116020526040812091925001548160008151811061264f5761264f61392c565b60209081029190910181019190915260008481526011909152604081200154816001815181106126815761268161392c565b60209081029190910181019190915260008381526011909152604081200154816002815181106126b3576126b361392c565b602090810291909101810191909152600085815260119091526040902060010154816003815181106126e7576126e761392c565b6020908102919091018101919091526000848152601190915260409020600101548160048151811061271b5761271b61392c565b6020908102919091018101919091526000838152601190915260409020600101548160058151811061274f5761274f61392c565b602090810291909101810191909152600085815260119091526040902060020154816006815181106127835761278361392c565b602090810291909101810191909152600084815260119091526040902060020154816007815181106127b7576127b761392c565b602090810291909101810191909152600083815260119091526040902060020154816008815181106127eb576127eb61392c565b6020908102919091010152604080516009808252610140820190925260009181602001602082028036833701905050905060008060005b600981101561293d57601360008683815181106128415761284161392c565b6020026020010151815260200190815260200160002054600014156128a5578481815181106128725761287261392c565b602002602001015184848151811061288c5761288c61392c565b6020908102919091010152826128a1816139be565b9350505b601360008683815181106128bb576128bb61392c565b60200260200101518152602001908152602001600020546001141561292b578481815181106128ec576128ec61392c565b6020026020010151858360096129029190613958565b815181106129125761291261392c565b602090810291909101015281612927816139be565b9250505b80612935816139be565b915050612822565b506060821561298e5761294f88610c51565b61296785600161239f60095460016123999190613958565b604051602001612978929190613970565b60405160208183030381529060405290506129dd565b61299788610c51565b6129ba86600161239f60095460016129af9190613958565b612419886009613958565b6040516020016129cb929190613970565b60405160208183030381529060405290505b6000604051806080016040528060448152602001613a886044913990506000604051806040016040528060048152602001632e706e6760e01b815250905060008284604051602001612a30929190613970565b60408051601f1981840301815290829052612a4f918490602001613970565b6040516020818303038152906040529050612a6a8c82612f83565b604080516060810182528c815260208082018d90528183018c90526009546000908152601190915291909120612aa19160036132c4565b506009546000908152601160209081526040918290208251606081019384905281548152612b2b939092600391906001840190850180831161253057505050505080516000908152601260209081526040808320805460ff199081166001908117909255928501518452818420805484168217905593810151835290912080549091169091179055565b6009546000908152600f602090815260409091208551612b4d9287019061318b565b5050600980546000908152600c602090815260408083208054600360ff19918216179091559d8352600b909152808220549254825290208054909b1660ff90911615151790995550505050505050505050565b6000612bab82610f29565b9050612bbb816000846001612c43565b612bc482610f29565b600083815260046020908152604080832080546001600160a01b03199081169091556001600160a01b0385168085526003845282852080546000190190558785526002909352818420805490911690555192935084927fddf252ad1be2c89b69c2b068fc378daa952ba7f163c4a11628f55a4df523b3ef908390a45050565b6001811115611432576001600160a01b03841615612c89576001600160a01b03841660009081526003602052604081208054839290612c83908490613a17565b90915550505b6001600160a01b03831615611432576001600160a01b03831660009081526003602052604081208054839290612cc0908490613958565b909155505050505050565b612cd58383612ff2565b612ce26000848484612e2b565b6107a45760405162461bcd60e51b815260206004820152603260248201527f4552433732313a207472616e7366657220746f206e6f6e20455243373231526560448201527131b2b4bb32b91034b6b83632b6b2b73a32b960711b6064820152608401610703565b6000807a184f03e93ff9f4daa797ed6e38ed64bf6a1f0100000000000000008310612d92577a184f03e93ff9f4daa797ed6e38ed64bf6a1f010000000000000000830492506040015b6d04ee2d6d415b85acef81000000008310612dbe576d04ee2d6d415b85acef8100000000830492506020015b662386f26fc100008310612ddc57662386f26fc10000830492506010015b6305f5e1008310612df4576305f5e100830492506008015b6127108310612e0857612710830492506004015b60648310612e1a576064830492506002015b600a83106105b35760010192915050565b60006001600160a01b0384163b15612f7857604051630a85bd0160e11b81526001600160a01b0385169063150b7a0290612e6f903390899088908890600401613a2e565b602060405180830381600087803b158015612e8957600080fd5b505af1925050508015612eb9575060408051601f3d908101601f19168201909252612eb691810190613a6a565b60015b612f5e573d808015612ee7576040519150601f19603f3d011682016040523d82523d6000602084013e612eec565b606091505b508051612f565760405162461bcd60e51b815260206004820152603260248201527f4552433732313a207472616e7366657220746f206e6f6e20455243373231526560448201527131b2b4bb32b91034b6b83632b6b2b73a32b960711b6064820152608401610703565b805181602001fd5b6001600160e01b031916630a85bd0160e11b149050611c34565b506001949350505050565b60006009546001612f949190613958565b9050612fa08382611e42565b600081815260066020908152604090912083518492612fc392919084019061318b565b50600d546000838152600e60205260408120919091556009805491612fe7836139be565b919050555050505050565b6001600160a01b0382166130485760405162461bcd60e51b815260206004820181905260248201527f4552433732313a206d696e7420746f20746865207a65726f20616464726573736044820152606401610703565b6000818152600260205260409020546001600160a01b0316156130ad5760405162461bcd60e51b815260206004820152601c60248201527f4552433732313a20746f6b656e20616c7265616479206d696e746564000000006044820152606401610703565b6130bb600083836001612c43565b6000818152600260205260409020546001600160a01b0316156131205760405162461bcd60e51b815260206004820152601c60248201527f4552433732313a20746f6b656e20616c7265616479206d696e746564000000006044820152606401610703565b6001600160a01b038216600081815260036020908152604080832080546001019055848352600290915280822080546001600160a01b0319168417905551839291907fddf252ad1be2c89b69c2b068fc378daa952ba7f163c4a11628f55a4df523b3ef908290a45050565b828054613197906138f1565b90600052602060002090601f0160209004810192826131b957600085556131ff565b82601f106131d257805160ff19168380011785556131ff565b828001600101855582156131ff579182015b828111156131ff5782518255916020019190600101906131e4565b5061320b9291506132f1565b5090565b82805461321b906138f1565b90600052602060002090601f01602090048101928261323d57600085556131ff565b82601f1061324e57805485556131ff565b828001600101855582156131ff57600052602060002091601f016020900482015b828111156131ff57825482559160010191906001019061326f565b508054613296906138f1565b6000825580601f106132a6575050565b601f016020900490600052602060002090810190610ba591906132f1565b82600381019282156131ff57916020028201828111156131ff5782518255916020019190600101906131e4565b5b8082111561320b57600081556001016132f2565b6001600160e01b031981168114610ba557600080fd5b60006020828403121561332e57600080fd5b813561333981613306565b9392505050565b60005b8381101561335b578181015183820152602001613343565b838111156114325750506000910152565b60008151808452613384816020860160208601613340565b601f01601f19169290920160200192915050565b602081526000613339602083018461336c565b6000602082840312156133bd57600080fd5b5035919050565b6001600160a01b0381168114610ba557600080fd5b600080604083850312156133ec57600080fd5b82356133f7816133c4565b946020939093013593505050565b60008060006060848603121561341a57600080fd5b8335613425816133c4565b92506020840135613435816133c4565b929592945050506040919091013590565b634e487b7160e01b600052604160045260246000fd5b604051601f8201601f1916810167ffffffffffffffff8111828210171561348557613485613446565b604052919050565b600067ffffffffffffffff8311156134a7576134a7613446565b6134ba601f8401601f191660200161345c565b90508281528383830111156134ce57600080fd5b828260208301376000602084830101529392505050565b600082601f8301126134f657600080fd5b6133398383356020850161348d565b60006020828403121561351757600080fd5b813567ffffffffffffffff81111561352e57600080fd5b611c34848285016134e5565b60006020828403121561354c57600080fd5b8135613339816133c4565b600067ffffffffffffffff82111561357157613571613446565b5060051b60200190565b600082601f83011261358c57600080fd5b813560206135a161359c83613557565b61345c565b82815260059290921b840181019181810190868411156135c057600080fd5b8286015b848110156135db57803583529183019183016135c4565b509695505050505050565b600080604083850312156135f957600080fd5b82359150602083013567ffffffffffffffff81111561361757600080fd5b6136238582860161357b565b9150509250929050565b6000806040838503121561364057600080fd5b823561364b816133c4565b91506020830135801515811461366057600080fd5b809150509250929050565b600082601f83011261367c57600080fd5b8135602061368c61359c83613557565b82815260059290921b840181019181810190868411156136ab57600080fd5b8286015b848110156135db57803567ffffffffffffffff8111156136cf5760008081fd5b6136dd8986838b01016134e5565b8452509183019183016136af565b600080600080600080600080610100898b03121561370857600080fd5b883567ffffffffffffffff8082111561372057600080fd5b61372c8c838d016134e5565b995060208b013591508082111561374257600080fd5b61374e8c838d0161357b565b985060408b013591508082111561376457600080fd5b6137708c838d0161366b565b975060608b0135965060808b0135955060a08b013591508082111561379457600080fd5b6137a08c838d0161357b565b945060c08b0135935060e08b01359150808211156137bd57600080fd5b506137ca8b828c0161357b565b9150509295985092959890939650565b600080600080608085870312156137f057600080fd5b84356137fb816133c4565b9350602085013561380b816133c4565b925060408501359150606085013567ffffffffffffffff81111561382e57600080fd5b8501601f8101871361383f57600080fd5b61384e8782356020840161348d565b91505092959194509250565b6000806040838503121561386d57600080fd5b82359150602083013567ffffffffffffffff81111561388b57600080fd5b613623858286016134e5565b600080604083850312156138aa57600080fd5b82356138b5816133c4565b91506020830135613660816133c4565b6000806000606084860312156138da57600080fd5b505081359360208301359350604090920135919050565b600181811c9082168061390557607f821691505b6020821081141561392657634e487b7160e01b600052602260045260246000fd5b50919050565b634e487b7160e01b600052603260045260246000fd5b634e487b7160e01b600052601160045260246000fd5b6000821982111561396b5761396b613942565b500190565b60008351613982818460208801613340565b835190830190613996818360208801613340565b01949350505050565b60008160001904831182151516156139b9576139b9613942565b500290565b60006000198214156139d2576139d2613942565b5060010190565b634e487b7160e01b600052601260045260246000fd5b6000826139fe576139fe6139d9565b500690565b600082613a1257613a126139d9565b500490565b600082821015613a2957613a29613942565b500390565b60006001600160a01b03808716835280861660208401525083604083015260806060830152613a60608083018461336c565b9695505050505050565b600060208284031215613a7c57600080fd5b81516133398161330656fe68747470733a2f2f697066732e696f2f697066732f516d565071526555447a3372374448414a444d7867614458777457636b554a517173515753675235754e5159486e2fa2646970667358221220056701ea0b5fc94b902a6189d6fd9ab2fecdb4953845d658146f218c233afd8f64736f6c63430008090033",
  "linkReferences": {},
  "deployedLinkReferences": {}
}