{
  "_format": "hh-sol-artifact-1",
  "contractName": "InnomicNFT",
  "sourceName": "contracts/InnomicNFT.sol",
  "abi": [
    {
      "inputs": [
        {
          "internalType": "string",
          "name": "name_",
          "type": "string"
        },
        {
          "internalType": "string",
          "name": "symbol_",
          "type": "string"
        },
        {
          "internalType": "string",
          "name": "newBaseURI",
          "type": "string"
        },
        {
          "internalType": "uint256[]",
          "name": "carpetas",
          "type": "uint256[]"
        },
        {
          "internalType": "string[]",
          "name": "clases_",
          "type": "string[]"
        },
        {
          "internalType": "uint256",
          "name": "lc",
          "type": "uint256"
        },
        {
          "internalType": "uint256",
          "name": "ld",
          "type": "uint256"
        },
        {
          "internalType": "uint256[]",
          "name": "dorados",
          "type": "uint256[]"
        },
        {
          "internalType": "uint256",
          "name": "lm",
          "type": "uint256"
        },
        {
          "internalType": "uint256[]",
          "name": "morados",
          "type": "uint256[]"
        },
        {
          "internalType": "address",
          "name": "marketAddress_",
          "type": "address"
        }
      ],
      "stateMutability": "nonpayable",
      "type": "constructor"
    },
    {
      "anonymous": false,
      "inputs": [
        {
          "indexed": true,
          "internalType": "address",
          "name": "owner",
          "type": "address"
        },
        {
          "indexed": true,
          "internalType": "address",
          "name": "approved",
          "type": "address"
        },
        {
          "indexed": true,
          "internalType": "uint256",
          "name": "tokenId",
          "type": "uint256"
        }
      ],
      "name": "Approval",
      "type": "event"
    },
    {
      "anonymous": false,
      "inputs": [
        {
          "indexed": true,
          "internalType": "address",
          "name": "owner",
          "type": "address"
        },
        {
          "indexed": true,
          "internalType": "address",
          "name": "operator",
          "type": "address"
        },
        {
          "indexed": false,
          "internalType": "bool",
          "name": "approved",
          "type": "bool"
        }
      ],
      "name": "ApprovalForAll",
      "type": "event"
    },
    {
      "anonymous": false,
      "inputs": [
        {
          "indexed": true,
          "internalType": "address",
          "name": "from",
          "type": "address"
        },
        {
          "indexed": true,
          "internalType": "address",
          "name": "to",
          "type": "address"
        },
        {
          "indexed": true,
          "internalType": "uint256",
          "name": "tokenId",
          "type": "uint256"
        }
      ],
      "name": "Transfer",
      "type": "event"
    },
    {
      "inputs": [
        {
          "internalType": "uint256",
          "name": "carpeta",
          "type": "uint256"
        },
        {
          "internalType": "string",
          "name": "clase_",
          "type": "string"
        }
      ],
      "name": "_addClase",
      "outputs": [],
      "stateMutability": "nonpayable",
      "type": "function"
    },
    {
      "inputs": [
        {
          "internalType": "uint256",
          "name": "tokenId",
          "type": "uint256"
        }
      ],
      "name": "_getColor",
      "outputs": [
        {
          "internalType": "uint256",
          "name": "",
          "type": "uint256"
        }
      ],
      "stateMutability": "view",
      "type": "function"
    },
    {
      "inputs": [
        {
          "internalType": "address",
          "name": "to",
          "type": "address"
        }
      ],
      "name": "_mintTokenAllowedToEarn",
      "outputs": [],
      "stateMutability": "nonpayable",
      "type": "function"
    },
    {
      "inputs": [
        {
          "internalType": "address",
          "name": "to",
          "type": "address"
        }
      ],
      "name": "_mintTokenNotAllowedToEarn",
      "outputs": [],
      "stateMutability": "nonpayable",
      "type": "function"
    },
    {
      "inputs": [
        {
          "internalType": "address",
          "name": "to",
          "type": "address"
        },
        {
          "internalType": "uint256",
          "name": "tokenId",
          "type": "uint256"
        }
      ],
      "name": "_safeTransfer",
      "outputs": [],
      "stateMutability": "nonpayable",
      "type": "function"
    },
    {
      "inputs": [
        {
          "internalType": "address",
          "name": "to",
          "type": "address"
        },
        {
          "internalType": "uint256",
          "name": "tokenId",
          "type": "uint256"
        }
      ],
      "name": "_safeTransferPool",
      "outputs": [],
      "stateMutability": "nonpayable",
      "type": "function"
    },
    {
      "inputs": [
        {
          "internalType": "string",
          "name": "newBaseURI",
          "type": "string"
        }
      ],
      "name": "_setBaseURI",
      "outputs": [],
      "stateMutability": "nonpayable",
      "type": "function"
    },
    {
      "inputs": [
        {
          "internalType": "uint256",
          "name": "l",
          "type": "uint256"
        },
        {
          "internalType": "uint256[]",
          "name": "dorados",
          "type": "uint256[]"
        }
      ],
      "name": "_setDorados",
      "outputs": [],
      "stateMutability": "nonpayable",
      "type": "function"
    },
    {
      "inputs": [
        {
          "internalType": "uint256",
          "name": "newmod",
          "type": "uint256"
        }
      ],
      "name": "_setMod",
      "outputs": [],
      "stateMutability": "nonpayable",
      "type": "function"
    },
    {
      "inputs": [
        {
          "internalType": "uint256",
          "name": "l",
          "type": "uint256"
        },
        {
          "internalType": "uint256[]",
          "name": "morados",
          "type": "uint256[]"
        }
      ],
      "name": "_setMorados",
      "outputs": [],
      "stateMutability": "nonpayable",
      "type": "function"
    },
    {
      "inputs": [
        {
          "internalType": "string",
          "name": "newBaseURI",
          "type": "string"
        },
        {
          "internalType": "uint256[]",
          "name": "carpetas",
          "type": "uint256[]"
        },
        {
          "internalType": "string[]",
          "name": "clases_",
          "type": "string[]"
        },
        {
          "internalType": "uint256",
          "name": "lc",
          "type": "uint256"
        },
        {
          "internalType": "uint256",
          "name": "ld",
          "type": "uint256"
        },
        {
          "internalType": "uint256[]",
          "name": "dorados",
          "type": "uint256[]"
        },
        {
          "internalType": "uint256",
          "name": "lm",
          "type": "uint256"
        },
        {
          "internalType": "uint256[]",
          "name": "morados",
          "type": "uint256[]"
        }
      ],
      "name": "_setTanda",
      "outputs": [],
      "stateMutability": "nonpayable",
      "type": "function"
    },
    {
      "inputs": [
        {
          "internalType": "uint256",
          "name": "newlimite",
          "type": "uint256"
        }
      ],
      "name": "_setlimite",
      "outputs": [],
      "stateMutability": "nonpayable",
      "type": "function"
    },
    {
      "inputs": [
        {
          "internalType": "address",
          "name": "to",
          "type": "address"
        },
        {
          "internalType": "uint256",
          "name": "tokenId",
          "type": "uint256"
        }
      ],
      "name": "approve",
      "outputs": [],
      "stateMutability": "nonpayable",
      "type": "function"
    },
    {
      "inputs": [],
      "name": "balance",
      "outputs": [
        {
          "internalType": "uint256",
          "name": "",
          "type": "uint256"
        }
      ],
      "stateMutability": "view",
      "type": "function"
    },
    {
      "inputs": [
        {
          "internalType": "address",
          "name": "owner",
          "type": "address"
        }
      ],
      "name": "balanceOf",
      "outputs": [
        {
          "internalType": "uint256",
          "name": "",
          "type": "uint256"
        }
      ],
      "stateMutability": "view",
      "type": "function"
    },
    {
      "inputs": [
        {
          "internalType": "uint256",
          "name": "tokenId",
          "type": "uint256"
        }
      ],
      "name": "burn",
      "outputs": [],
      "stateMutability": "nonpayable",
      "type": "function"
    },
    {
      "inputs": [
        {
          "internalType": "uint256",
          "name": "tokenId",
          "type": "uint256"
        }
      ],
      "name": "claseToken",
      "outputs": [
        {
          "internalType": "string",
          "name": "",
          "type": "string"
        }
      ],
      "stateMutability": "view",
      "type": "function"
    },
    {
      "inputs": [
        {
          "internalType": "uint256",
          "name": "tokenId",
          "type": "uint256"
        }
      ],
      "name": "downgrade",
      "outputs": [],
      "stateMutability": "nonpayable",
      "type": "function"
    },
    {
      "inputs": [
        {
          "internalType": "uint256",
          "name": "tokenId",
          "type": "uint256"
        }
      ],
      "name": "getApproved",
      "outputs": [
        {
          "internalType": "address",
          "name": "",
          "type": "address"
        }
      ],
      "stateMutability": "view",
      "type": "function"
    },
    {
      "inputs": [
        {
          "internalType": "uint256",
          "name": "tokenId",
          "type": "uint256"
        }
      ],
      "name": "isAllowedToEarn",
      "outputs": [
        {
          "internalType": "bool",
          "name": "",
          "type": "bool"
        }
      ],
      "stateMutability": "view",
      "type": "function"
    },
    {
      "inputs": [
        {
          "internalType": "address",
          "name": "owner",
          "type": "address"
        },
        {
          "internalType": "address",
          "name": "operator",
          "type": "address"
        }
      ],
      "name": "isApprovedForAll",
      "outputs": [
        {
          "internalType": "bool",
          "name": "",
          "type": "bool"
        }
      ],
      "stateMutability": "view",
      "type": "function"
    },
    {
      "inputs": [],
      "name": "limite",
      "outputs": [
        {
          "internalType": "uint256",
          "name": "",
          "type": "uint256"
        }
      ],
      "stateMutability": "view",
      "type": "function"
    },
    {
      "inputs": [],
      "name": "name",
      "outputs": [
        {
          "internalType": "string",
          "name": "",
          "type": "string"
        }
      ],
      "stateMutability": "view",
      "type": "function"
    },
    {
      "inputs": [
        {
          "internalType": "uint256",
          "name": "tokenId",
          "type": "uint256"
        }
      ],
      "name": "numClase",
      "outputs": [
        {
          "internalType": "string",
          "name": "",
          "type": "string"
        }
      ],
      "stateMutability": "view",
      "type": "function"
    },
    {
      "inputs": [
        {
          "internalType": "uint256",
          "name": "tokenId",
          "type": "uint256"
        }
      ],
      "name": "ownerOf",
      "outputs": [
        {
          "internalType": "address",
          "name": "",
          "type": "address"
        }
      ],
      "stateMutability": "view",
      "type": "function"
    },
    {
      "inputs": [],
      "name": "poolNFT",
      "outputs": [
        {
          "internalType": "contract PoolNFT",
          "name": "",
          "type": "address"
        }
      ],
      "stateMutability": "view",
      "type": "function"
    },
    {
      "inputs": [
        {
          "internalType": "address",
          "name": "from",
          "type": "address"
        },
        {
          "internalType": "address",
          "name": "to",
          "type": "address"
        },
        {
          "internalType": "uint256",
          "name": "tokenId",
          "type": "uint256"
        }
      ],
      "name": "safeTransferFrom",
      "outputs": [],
      "stateMutability": "nonpayable",
      "type": "function"
    },
    {
      "inputs": [
        {
          "internalType": "address",
          "name": "from",
          "type": "address"
        },
        {
          "internalType": "address",
          "name": "to",
          "type": "address"
        },
        {
          "internalType": "uint256",
          "name": "tokenId",
          "type": "uint256"
        },
        {
          "internalType": "bytes",
          "name": "data",
          "type": "bytes"
        }
      ],
      "name": "safeTransferFrom",
      "outputs": [],
      "stateMutability": "nonpayable",
      "type": "function"
    },
    {
      "inputs": [
        {
          "internalType": "address",
          "name": "operator",
          "type": "address"
        },
        {
          "internalType": "bool",
          "name": "approved",
          "type": "bool"
        }
      ],
      "name": "setApprovalForAll",
      "outputs": [],
      "stateMutability": "nonpayable",
      "type": "function"
    },
    {
      "inputs": [
        {
          "internalType": "address",
          "name": "poola",
          "type": "address"
        },
        {
          "internalType": "contract PoolNFT",
          "name": "pool",
          "type": "address"
        }
      ],
      "name": "setPoolNFT",
      "outputs": [],
      "stateMutability": "nonpayable",
      "type": "function"
    },
    {
      "inputs": [
        {
          "internalType": "bytes4",
          "name": "interfaceId",
          "type": "bytes4"
        }
      ],
      "name": "supportsInterface",
      "outputs": [
        {
          "internalType": "bool",
          "name": "",
          "type": "bool"
        }
      ],
      "stateMutability": "view",
      "type": "function"
    },
    {
      "inputs": [],
      "name": "symbol",
      "outputs": [
        {
          "internalType": "string",
          "name": "",
          "type": "string"
        }
      ],
      "stateMutability": "view",
      "type": "function"
    },
    {
      "inputs": [
        {
          "internalType": "uint256",
          "name": "index",
          "type": "uint256"
        }
      ],
      "name": "tokenByIndex",
      "outputs": [
        {
          "internalType": "uint256",
          "name": "",
          "type": "uint256"
        }
      ],
      "stateMutability": "view",
      "type": "function"
    },
    {
      "inputs": [
        {
          "internalType": "address",
          "name": "owner",
          "type": "address"
        },
        {
          "internalType": "uint256",
          "name": "index",
          "type": "uint256"
        }
      ],
      "name": "tokenOfOwnerByIndex",
      "outputs": [
        {
          "internalType": "uint256",
          "name": "",
          "type": "uint256"
        }
      ],
      "stateMutability": "view",
      "type": "function"
    },
    {
      "inputs": [
        {
          "internalType": "uint256",
          "name": "tokenId",
          "type": "uint256"
        }
      ],
      "name": "tokenURI",
      "outputs": [
        {
          "internalType": "string",
          "name": "",
          "type": "string"
        }
      ],
      "stateMutability": "view",
      "type": "function"
    },
    {
      "inputs": [],
      "name": "totalSupply",
      "outputs": [
        {
          "internalType": "uint256",
          "name": "",
          "type": "uint256"
        }
      ],
      "stateMutability": "view",
      "type": "function"
    },
    {
      "inputs": [
        {
          "internalType": "address",
          "name": "from",
          "type": "address"
        },
        {
          "internalType": "address",
          "name": "to",
          "type": "address"
        },
        {
          "internalType": "uint256",
          "name": "tokenId",
          "type": "uint256"
        }
      ],
      "name": "transferFrom",
      "outputs": [],
      "stateMutability": "nonpayable",
      "type": "function"
    },
    {
      "inputs": [
        {
          "internalType": "uint256",
          "name": "tokenId1",
          "type": "uint256"
        },
        {
          "internalType": "uint256",
          "name": "tokenId2",
          "type": "uint256"
        },
        {
          "internalType": "uint256",
          "name": "tokenId3",
          "type": "uint256"
        }
      ],
      "name": "upgrade",
      "outputs": [],
      "stateMutability": "nonpayable",
      "type": "function"
    }
  ],
  "bytecode": "0x60806040526002600c556002600e5560006011553480156200002057600080fd5b506040516200488738038062004887833981016040819052620000439162000587565b8a518b908b906200005c906000906020850190620002c4565b50805162000072906001906020840190620002c4565b5050506200008d8989898989898989620000be60201b60201c565b601c80546001600160a01b0319166001600160a01b039290921691909117905550620007d998505050505050505050565b60118054906000620000d0836200072b565b919050555060005b858110156200015d5762000148888281518110620000fa57620000fa62000749565b602002602001015160115460646200011391906200075f565b6200011f919062000781565b88838151811062000134576200013462000749565b60200260200101516200018b60201b60201c565b8062000154816200072b565b915050620000d8565b506200016a8484620001b1565b6200017682826200022e565b6200018188620002ab565b5050505050505050565b60008281526014602090815260409091208251620001ac92840190620002c4565b505050565b60005b82811015620001ac5760016018600060115481526020019081526020016000206000848481518110620001eb57620001eb62000749565b6020026020010151815260200190815260200160002060006101000a81548160ff021916908315150217905550808062000225906200072b565b915050620001b4565b60005b82811015620001ac576001601960006011548152602001908152602001600020600084848151811062000268576200026862000749565b6020026020010151815260200190815260200160002060006101000a81548160ff0219169083151502179055508080620002a2906200072b565b91505062000231565b8051620002c090600b906020840190620002c4565b5050565b828054620002d2906200079c565b90600052602060002090601f016020900481019282620002f6576000855562000341565b82601f106200031157805160ff191683800117855562000341565b8280016001018555821562000341579182015b828111156200034157825182559160200191906001019062000324565b506200034f92915062000353565b5090565b5b808211156200034f576000815560010162000354565b634e487b7160e01b600052604160045260246000fd5b604051601f8201601f191681016001600160401b0381118282101715620003ab57620003ab6200036a565b604052919050565b600082601f830112620003c557600080fd5b81516001600160401b03811115620003e157620003e16200036a565b6020620003f7601f8301601f1916820162000380565b82815285828487010111156200040c57600080fd5b60005b838110156200042c5785810183015182820184015282016200040f565b838111156200043e5760008385840101525b5095945050505050565b60006001600160401b038211156200046457620004646200036a565b5060051b60200190565b600082601f8301126200048057600080fd5b8151602062000499620004938362000448565b62000380565b82815260059290921b84018101918181019086841115620004b957600080fd5b8286015b84811015620004d65780518352918301918301620004bd565b509695505050505050565b600082601f830112620004f357600080fd5b8151602062000506620004938362000448565b82815260059290921b840181019181810190868411156200052657600080fd5b8286015b84811015620004d65780516001600160401b038111156200054b5760008081fd5b6200055b8986838b0101620003b3565b8452509183019183016200052a565b80516001600160a01b03811681146200058257600080fd5b919050565b60008060008060008060008060008060006101608c8e031215620005aa57600080fd5b8b516001600160401b03811115620005c157600080fd5b620005cf8e828f01620003b3565b60208e0151909c5090506001600160401b03811115620005ee57600080fd5b620005fc8e828f01620003b3565b60408e0151909b5090506001600160401b038111156200061b57600080fd5b620006298e828f01620003b3565b60608e0151909a5090506001600160401b038111156200064857600080fd5b620006568e828f016200046e565b60808e015190995090506001600160401b038111156200067557600080fd5b620006838e828f01620004e1565b97505060a08c0151955060c08c0151945060e08c015160018060401b03811115620006ad57600080fd5b620006bb8e828f016200046e565b6101008e01516101208f0151919650945090506001600160401b03811115620006e357600080fd5b620006f18e828f016200046e565b925050620007036101408d016200056a565b90509295989b509295989b9093969950565b634e487b7160e01b600052601160045260246000fd5b600060001982141562000742576200074262000715565b5060010190565b634e487b7160e01b600052603260045260246000fd5b60008160001904831182151516156200077c576200077c62000715565b500290565b6000821982111562000797576200079762000715565b500190565b600181811c90821680620007b157607f821691505b60208210811415620007d357634e487b7160e01b600052602260045260246000fd5b50919050565b61409e80620007e96000396000f3fe608060405234801561001057600080fd5b50600436106102925760003560e01c80638527788a11610160578063c4f8210e116100d8578063e985e9c51161008c578063f202dc2e11610071578063f202dc2e14610563578063f484225714610576578063fe1538d4146105b257600080fd5b8063e985e9c514610514578063ef0b23071461055057600080fd5b8063cb9375d3116100bd578063cb9375d3146103a1578063d572c38f146104e1578063dca77ad21461050157600080fd5b8063c4f8210e146104bb578063c87b56dd146104ce57600080fd5b8063a22cb4651161012f578063b69ef8a811610114578063b69ef8a81461048d578063b88d4fde14610495578063bf5da0c5146104a857600080fd5b8063a22cb46514610467578063ac12914f1461047a57600080fd5b80638527788a1461042657806385dd90331461043957806395d89b411461044c578063a0b497781461045457600080fd5b806331b5b9071161020e57806359b17c5e116101c25780636f52598b116101a75780636f52598b146103ed57806370a08231146104005780637bafd87e1461041357600080fd5b806359b17c5e146103c75780636352211e146103da57600080fd5b806342966c68116101f357806342966c681461038e5780634e72a6fa146103a15780634f6ccce7146103b457600080fd5b806331b5b9071461036857806342842e0e1461037b57600080fd5b806311bcc81e1161026557806320eb8e531161024a57806320eb8e531461033957806323b872dd146103425780632f745c591461035557600080fd5b806311bcc81e1461031457806318160ddd1461032757600080fd5b806301ffc9a71461029757806306fdde03146102bf578063081812fc146102d4578063095ea7b3146102ff575b600080fd5b6102aa6102a5366004613855565b6105c5565b60405190151581526020015b60405180910390f35b6102c7610609565b6040516102b691906138d1565b6102e76102e23660046138e4565b61069b565b6040516001600160a01b0390911681526020016102b6565b61031261030d366004613912565b6106c2565b005b6103126103223660046138e4565b6107f9565b6008545b6040519081526020016102b6565b61032b600e5481565b61031261035036600461393e565b610bf8565b61032b610363366004613912565b610c6f565b610312610376366004613a3e565b610d17565b61031261038936600461393e565b610d2e565b61031261039c3660046138e4565b610d49565b6102c76103af3660046138e4565b610de9565b61032b6103c23660046138e4565b610e8d565b6103126103d5366004613a73565b610f31565b6102e76103e83660046138e4565b61117c565b6103126103fb366004613a73565b6111e1565b61032b61040e366004613a73565b61142a565b6102aa6104213660046138e4565b6114c4565b610312610434366004613b1f565b6114e5565b6103126104473660046138e4565b600e55565b6102c761155b565b601b546102e7906001600160a01b031681565b610312610475366004613b66565b61156a565b610312610488366004613c24565b611575565b600d5461032b565b6103126104a3366004613d13565b611624565b6103126104b63660046138e4565b600c55565b6103126104c9366004613912565b6116a2565b6102c76104dc3660046138e4565b611727565b61032b6104ef3660046138e4565b60009081526017602052604090205490565b61031261050f366004613d93565b61174b565b6102aa610522366004613dd0565b6001600160a01b03918216600090815260056020908152604080832093909416825291909152205460ff1690565b61031261055e366004613b1f565b61176a565b610312610571366004613912565b6117e0565b610312610584366004613dd0565b601a80546001600160a01b039384166001600160a01b031991821617909155601b8054929093169116179055565b6103126105c0366004613dfe565b611809565b60006001600160e01b031982167f780e9d63000000000000000000000000000000000000000000000000000000001480610603575061060382611d15565b92915050565b60606000805461061890613e2a565b80601f016020809104026020016040519081016040528092919081815260200182805461064490613e2a565b80156106915780601f1061066657610100808354040283529160200191610691565b820191906000526020600020905b81548152906001019060200180831161067457829003601f168201915b5050505050905090565b60006106a682611db0565b506000908152600460205260409020546001600160a01b031690565b60006106cd8261117c565b9050806001600160a01b0316836001600160a01b0316141561075c5760405162461bcd60e51b815260206004820152602160248201527f4552433732313a20617070726f76616c20746f2063757272656e74206f776e6560448201527f720000000000000000000000000000000000000000000000000000000000000060648201526084015b60405180910390fd5b336001600160a01b038216148061077857506107788133610522565b6107ea5760405162461bcd60e51b815260206004820152603d60248201527f4552433732313a20617070726f76652063616c6c6572206973206e6f7420746f60448201527f6b656e206f776e6572206f7220617070726f76656420666f7220616c6c0000006064820152608401610753565b6107f48383611e14565b505050565b600081815260106020526040902054600160ff909116116108825760405162461bcd60e51b815260206004820152602260248201527f656c20746f6b656e206465626520736572206465206c766c206d61796f72206160448201527f20310000000000000000000000000000000000000000000000000000000000006064820152608401610753565b3361088c8261117c565b6001600160a01b0316146108e25760405162461bcd60e51b815260206004820152601a60248201527f656c20746f6b656e20646562652070657274656e6563657274650000000000006044820152606401610753565b60008181526015602081815260408084208054855260168352818520805460ff19908116909155600182015486528286208054821690556002820154865282862080549091169055601b54868652939092529054815163d058e43760e01b8152600481019190915233602482015290516001600160a01b039092169263d058e4379260448084019382900301818387803b15801561097f57600080fd5b505af1158015610993573d6000803e3d6000fd5b5050601b546000848152601560205260409081902060010154905163d058e43760e01b815260048101919091523360248201526001600160a01b03909116925063d058e4379150604401600060405180830381600087803b1580156109f757600080fd5b505af1158015610a0b573d6000803e3d6000fd5b5050601b546000848152601560205260409081902060020154905163d058e43760e01b815260048101919091523360248201526001600160a01b03909116925063d058e4379150604401600060405180830381600087803b158015610a6f57600080fd5b505af1158015610a83573d6000803e3d6000fd5b5050601b5460008481526015602052604090819020549051631d9f985560e11b815260048101919091523360248201526001600160a01b039091169250633b3f30aa9150604401600060405180830381600087803b158015610ae457600080fd5b505af1158015610af8573d6000803e3d6000fd5b5050601b5460008481526015602052604090819020600101549051631d9f985560e11b815260048101919091523360248201526001600160a01b039091169250633b3f30aa9150604401600060405180830381600087803b158015610b5c57600080fd5b505af1158015610b70573d6000803e3d6000fd5b5050601b5460008481526015602052604090819020600201549051631d9f985560e11b815260048101919091523360248201526001600160a01b039091169250633b3f30aa9150604401600060405180830381600087803b158015610bd457600080fd5b505af1158015610be8573d6000803e3d6000fd5b50505050610bf581610da9565b50565b610c023382611e82565b610c645760405162461bcd60e51b815260206004820152602d60248201527f4552433732313a2063616c6c6572206973206e6f7420746f6b656e206f776e6560448201526c1c881bdc88185c1c1c9bdd9959609a1b6064820152608401610753565b6107f4838383611f01565b6000610c7a8361142a565b8210610cee5760405162461bcd60e51b815260206004820152602b60248201527f455243373231456e756d657261626c653a206f776e657220696e646578206f7560448201527f74206f6620626f756e64730000000000000000000000000000000000000000006064820152608401610753565b506001600160a01b03919091166000908152600660209081526040808320938352929052205490565b8051610d2a90600b9060208401906136c4565b5050565b6107f483838360405180602001604052806000815250611624565b33610d538261117c565b6001600160a01b031614610da95760405162461bcd60e51b815260206004820152601a60248201527f656c20746f6b656e20646562652070657274656e6563657274650000000000006044820152606401610753565b610db281612107565b6000818152600a602052604090208054610dcb90613e2a565b159050610bf5576000818152600a60205260408120610bf591613748565b600081815260136020526040812080546060929190610e0790613e2a565b80601f0160208091040260200160405190810160405280929190818152602001828054610e3390613e2a565b8015610e805780601f10610e5557610100808354040283529160200191610e80565b820191906000526020600020905b815481529060010190602001808311610e6357829003601f168201915b5093979650505050505050565b6000610e9860085490565b8210610f0c5760405162461bcd60e51b815260206004820152602c60248201527f455243373231456e756d657261626c653a20676c6f62616c20696e646578206f60448201527f7574206f6620626f756e647300000000000000000000000000000000000000006064820152608401610753565b60088281548110610f1f57610f1f613e65565b90600052602060002001549050919050565b6000600d546001610f429190613e91565b9050610f4e82826121aa565b601c54610f64906001600160a01b0316826106c2565b6000610f6e6121c4565b9050600060405180604001604052806005815260200164173539b7b760d91b8152509050600082610fa9610fa486600c546121d3565b612318565b604051602001610fba929190613ea9565b60408051601f1981840301815290829052610fd9918490602001613ea9565b60408051601f198184030181529181526000868152600a6020908152919020825192935061100b9290918401906136c4565b50601154600085815260126020526040812091909155600c5461102f9086906121d3565b60115461103d906064613ed8565b6110479190613e91565b6000818152601460209081526040808320898452601390925290912081549293509161107290613e2a565b61107d929190613782565b506000858152601060209081526040808320805460ff19166001179055601154835260189091528120600c549091906110b79088906121d3565b815260208101919091526040016000205460ff16156110e45760008581526017602052604081205561114a565b601960006011548152602001908152602001600020600061110787600c546121d3565b815260208101919091526040016000205460ff16156111375760008581526017602052604090206001905561114a565b6000858152601760205260409020600290555b600d805490600061115a83613ef7565b90915550505060009384525050600f6020525060409020805460ff1916905550565b6000818152600260205260408120546001600160a01b0316806106035760405162461bcd60e51b815260206004820152601860248201527f4552433732313a20696e76616c696420746f6b656e20494400000000000000006044820152606401610753565b6000600d5460016111f29190613e91565b90506111fe82826121aa565b601c54611214906001600160a01b0316826106c2565b600061121e6121c4565b9050600060405180604001604052806005815260200164173539b7b760d91b8152509050600082611254610fa486600c546121d3565b604051602001611265929190613ea9565b60408051601f1981840301815290829052611284918490602001613ea9565b60408051601f198184030181529181526000868152600a602090815291902082519293506112b69290918401906136c4565b50601154600085815260126020526040812091909155600c546112da9086906121d3565b6011546112e8906064613ed8565b6112f29190613e91565b6000818152601460209081526040808320898452601390925290912081549293509161131d90613e2a565b611328929190613782565b506000858152601060209081526040808320805460ff19166001179055601154835260189091528120600c549091906113629088906121d3565b815260208101919091526040016000205460ff161561138f576000858152601760205260408120556113f5565b60196000601154815260200190815260200160002060006113b287600c546121d3565b815260208101919091526040016000205460ff16156113e2576000858152601760205260409020600190556113f5565b6000858152601760205260409020600290555b600d805490600061140583613ef7565b90915550505060009384525050600f6020525060409020805460ff1916600117905550565b60006001600160a01b0382166114a85760405162461bcd60e51b815260206004820152602960248201527f4552433732313a2061646472657373207a65726f206973206e6f74206120766160448201527f6c6964206f776e657200000000000000000000000000000000000000000000006064820152608401610753565b506001600160a01b031660009081526003602052604090205490565b60006114cf82611db0565b506000908152600f602052604090205460ff1690565b60005b828110156107f4576001601860006011548152602001908152602001600020600084848151811061151b5761151b613e65565b6020026020010151815260200190815260200160002060006101000a81548160ff021916908315150217905550808061155390613ef7565b9150506114e8565b60606001805461061890613e2a565b610d2a3383836123c2565b6011805490600061158583613ef7565b919050555060005b858110156115fc576115ea8882815181106115aa576115aa613e65565b602002602001015160115460646115c19190613ed8565b6115cb9190613e91565b8883815181106115dd576115dd613e65565b602002602001015161174b565b806115f481613ef7565b91505061158d565b5061160784846114e5565b611611828261176a565b61161a88610d17565b5050505050505050565b61162e3383611e82565b6116905760405162461bcd60e51b815260206004820152602d60248201527f4552433732313a2063616c6c6572206973206e6f7420746f6b656e206f776e6560448201526c1c881bdc88185c1c1c9bdd9959609a1b6064820152608401610753565b61169c84848484612491565b50505050565b6116bd33838360405180602001604052806000815250612491565b601b5460405163d058e43760e01b8152600481018390526001600160a01b0384811660248301529091169063d058e43790604401600060405180830381600087803b15801561170b57600080fd5b505af115801561171f573d6000803e3d6000fd5b505050505050565b606061173282611db0565b6000828152600a602052604081208054610e0790613e2a565b600082815260146020908152604090912082516107f4928401906136c4565b60005b828110156107f457600160196000601154815260200190815260200160002060008484815181106117a0576117a0613e65565b6020026020010151815260200190815260200160002060006101000a81548160ff02191690831515021790555080806117d890613ef7565b91505061176d565b601a54604080516020810190915260008152610d2a916001600160a01b03169084908490612491565b6000828152601060205260408082205485835291205460ff908116911614801561184d57506000818152601060205260408082205485835291205460ff9081169116145b6118bf5760405162461bcd60e51b815260206004820152602160248201527f6c6f7320746f6b656e20646562656e207365722064656c206d69736d6f206c7660448201527f6c000000000000000000000000000000000000000000000000000000000000006064820152608401610753565b6000828152600f60205260408082205485835291205460ff90811615159116151514801561190b57506000818152600f60205260408082205485835291205460ff908116151591161515145b61197d5760405162461bcd60e51b815260206004820152602260248201527f6c6f7320746f6b656e20646562656e207365722064656c206d69736d6f20746960448201527f706f0000000000000000000000000000000000000000000000000000000000006064820152608401610753565b60008381526016602052604090205460ff1615806119aa575060008281526016602052604090205460ff16155b806119c4575060008181526016602052604090205460ff16155b611a105760405162461bcd60e51b815260206004820152601760248201527f756e20746f6b656e206573746120626c6f636b6561646f0000000000000000006044820152606401610753565b60008381526010602052604090205460ff1660031415611a725760405162461bcd60e51b815260206004820152601f60248201527f6e6f207365207075656465207573617220756e20746f6b656e206c766c2033006044820152606401610753565b611a7b8261117c565b6001600160a01b0316611a8d8461117c565b6001600160a01b0316148015611ac45750611aa78161117c565b6001600160a01b0316611ab98461117c565b6001600160a01b0316145b8015611ae0575033611ad58461117c565b6001600160a01b0316145b611b2c5760405162461bcd60e51b815260206004820152601c60248201527f6c6f7320746f6b656e20646562656e2070657274656e656365727465000000006044820152606401610753565b60008381526010602052604090205460ff1660011415611b5757611b523384848461250f565b611b63565b611b633384848461296f565b601a54604080516020810190915260008152611b8e9133916001600160a01b03909116908690612491565b601a54604080516020810190915260008152611bb99133916001600160a01b03909116908590612491565b601a54604080516020810190915260008152611be49133916001600160a01b03909116908490612491565b601b5460405163d058e43760e01b8152600481018590523360248201526001600160a01b039091169063d058e43790604401600060405180830381600087803b158015611c3057600080fd5b505af1158015611c44573d6000803e3d6000fd5b5050601b5460405163d058e43760e01b8152600481018690523360248201526001600160a01b03909116925063d058e4379150604401600060405180830381600087803b158015611c9457600080fd5b505af1158015611ca8573d6000803e3d6000fd5b5050601b5460405163d058e43760e01b8152600481018590523360248201526001600160a01b03909116925063d058e4379150604401600060405180830381600087803b158015611cf857600080fd5b505af1158015611d0c573d6000803e3d6000fd5b50505050505050565b60006001600160e01b031982167f80ac58cd000000000000000000000000000000000000000000000000000000001480611d7857506001600160e01b031982167f5b5e139f00000000000000000000000000000000000000000000000000000000145b8061060357507f01ffc9a7000000000000000000000000000000000000000000000000000000006001600160e01b0319831614610603565b6000818152600260205260409020546001600160a01b0316610bf55760405162461bcd60e51b815260206004820152601860248201527f4552433732313a20696e76616c696420746f6b656e20494400000000000000006044820152606401610753565b600081815260046020526040902080546001600160a01b0319166001600160a01b0384169081179091558190611e498261117c565b6001600160a01b03167f8c5be1e5ebec7d5bd14f71427d1e84f3dd0314c0f7b2291e5b200ac8c7c3b92560405160405180910390a45050565b600080611e8e8361117c565b9050806001600160a01b0316846001600160a01b03161480611ed557506001600160a01b0380821660009081526005602090815260408083209388168352929052205460ff165b80611ef95750836001600160a01b0316611eee8461069b565b6001600160a01b0316145b949350505050565b826001600160a01b0316611f148261117c565b6001600160a01b031614611f785760405162461bcd60e51b815260206004820152602560248201527f4552433732313a207472616e736665722066726f6d20696e636f72726563742060448201526437bbb732b960d91b6064820152608401610753565b6001600160a01b038216611ff35760405162461bcd60e51b8152602060048201526024808201527f4552433732313a207472616e7366657220746f20746865207a65726f2061646460448201527f72657373000000000000000000000000000000000000000000000000000000006064820152608401610753565b6120008383836001612f22565b826001600160a01b03166120138261117c565b6001600160a01b0316146120775760405162461bcd60e51b815260206004820152602560248201527f4552433732313a207472616e736665722066726f6d20696e636f72726563742060448201526437bbb732b960d91b6064820152608401610753565b600081815260046020908152604080832080546001600160a01b03199081169091556001600160a01b0387811680865260038552838620805460001901905590871680865283862080546001019055868652600290945282852080549092168417909155905184937fddf252ad1be2c89b69c2b068fc378daa952ba7f163c4a11628f55a4df523b3ef91a4505050565b60006121128261117c565b9050612122816000846001612f22565b61212b8261117c565b600083815260046020908152604080832080546001600160a01b03199081169091556001600160a01b0385168085526003845282852080546000190190558785526002909352818420805490911690555192935084927fddf252ad1be2c89b69c2b068fc378daa952ba7f163c4a11628f55a4df523b3ef908390a45050565b610d2a82826040518060200160405280600081525061305e565b6060600b805461061890613e2a565b6040805160c08101825260028152600360208201526004918101919091526005606082015260066080820152600760a082015260009081600a81805b8782146122db578361228f576122258389613f28565b91506000612233848a613f28565b905085612241600687613f28565b6006811061225157612251613e65565b60200201516122639060ff1682613ed8565b61226d9083613e91565b915061227a600186613e91565b9450612287600a85613ed8565b93505061220f565b6122998389613f28565b915060006122a8600a85613f3c565b6122b3600a86613f3c565b6122bd908b613f28565b6122c7868c613f28565b6122d19190613f50565b6122339190613f3c565b60006122e78883613f3c565b90506000826122f68a84613ed8565b612300908b613e91565b61230a9190613f50565b9a9950505050505050505050565b60606000612325836130dc565b600101905060008167ffffffffffffffff8111156123455761234561397f565b6040519080825280601f01601f19166020018201604052801561236f576020820181803683370190505b5090508181016020015b600019017f3031323334353637383961626364656600000000000000000000000000000000600a86061a8153600a85049450846123b5576123ba565b612379565b509392505050565b816001600160a01b0316836001600160a01b031614156124245760405162461bcd60e51b815260206004820152601960248201527f4552433732313a20617070726f766520746f2063616c6c6572000000000000006044820152606401610753565b6001600160a01b03838116600081815260056020908152604080832094871680845294825291829020805460ff191686151590811790915591519182527f17307eab39ab6107e8899845ad3d59bd9653f200f220920489ca2b5937696c31910160405180910390a3505050565b61249c848484611f01565b6124a8848484846131be565b61169c5760405162461bcd60e51b815260206004820152603260248201527f4552433732313a207472616e7366657220746f206e6f6e20455243373231526560448201527131b2b4bb32b91034b6b83632b6b2b73a32b960711b6064820152608401610753565b60408051600680825260e082019092526000916020820160c080368337019050509050838160008151811061254657612546613e65565b602002602001018181525050828160018151811061256657612566613e65565b602002602001018181525050818160028151811061258657612586613e65565b60209081029190910101526040805160038082526080820190925260009181602001602082028036833701905050905060008060005b60038110156126d757601760008683815181106125db576125db613e65565b60200260200101518152602001908152602001600020546000141561263f5784818151811061260c5761260c613e65565b602002602001015184848151811061262657612626613e65565b60209081029190910101528261263b81613ef7565b9350505b6017600086838151811061265557612655613e65565b6020026020010151815260200190815260200160002054600114156126c55784818151811061268657612686613e65565b60200260200101518583600361269c9190613e91565b815181106126ac576126ac613e65565b6020908102919091010152816126c181613ef7565b9250505b806126cf81613ef7565b9150506125bc565b5060608215612755576126e988610de9565b61272e856001612707600d5460016127019190613e91565b886121d3565b6127119190613f50565b8151811061272157612721613e65565b6020026020010151610de9565b60405160200161273f929190613ea9565b60405160208183030381529060405290506127a9565b61275e88610de9565b612786866001612707600d5460016127769190613e91565b612781886003613e91565b6121d3565b604051602001612797929190613ea9565b60405160208183030381529060405290505b60006040518060800160405280604e8152602001613fd7604e91399050600060405180604001604052806005815260200164173539b7b760d91b8152509050600082846040516020016127fd929190613ea9565b60408051601f198184030181529082905261281c918490602001613ea9565b60405160208183030381529060405290506128378c82613316565b604080516060810182528c815260208082018d90528183018c9052600d54600090815260159091529190912061286e9160036137fd565b50600d5460009081526015602052604090819020815160608101928390526128fa9290919060039082845b81548152602001906001019080831161289957505050505080516000908152601660209081526040808320805460ff199081166001908117909255928501518452818420805484168217905593810151835290912080549091169091179055565b600d546000908152601360209081526040909120855161291c928701906136c4565b5050600d805460009081526010602090815260408083208054600260ff19918216179091559d8352600f909152808220549254825290208054909b1660ff90911615151790995550505050505050505050565b604080516012808252610260820190925260009160208201610240803683370190505060008581526015602052604081209192500154816000815181106129b8576129b8613e65565b60209081029190910181019190915260008481526015909152604081200154816001815181106129ea576129ea613e65565b6020908102919091018101919091526000838152601590915260408120015481600281518110612a1c57612a1c613e65565b60209081029190910181019190915260008581526015909152604090206001015481600381518110612a5057612a50613e65565b60209081029190910181019190915260008481526015909152604090206001015481600481518110612a8457612a84613e65565b60209081029190910181019190915260008381526015909152604090206001015481600581518110612ab857612ab8613e65565b60209081029190910181019190915260008581526015909152604090206002015481600681518110612aec57612aec613e65565b60209081029190910181019190915260008481526015909152604090206002015481600781518110612b2057612b20613e65565b60209081029190910181019190915260008381526015909152604090206002015481600881518110612b5457612b54613e65565b6020908102919091010152604080516009808252610140820190925260009181602001602082028036833701905050905060008060005b6009811015612ca65760176000868381518110612baa57612baa613e65565b602002602001015181526020019081526020016000205460001415612c0e57848181518110612bdb57612bdb613e65565b6020026020010151848481518110612bf557612bf5613e65565b602090810291909101015282612c0a81613ef7565b9350505b60176000868381518110612c2457612c24613e65565b602002602001015181526020019081526020016000205460011415612c9457848181518110612c5557612c55613e65565b602002602001015185836009612c6b9190613e91565b81518110612c7b57612c7b613e65565b602090810291909101015281612c9081613ef7565b9250505b80612c9e81613ef7565b915050612b8b565b5060608215612cf757612cb888610de9565b612cd0856001612707600d5460016127019190613e91565b604051602001612ce1929190613ea9565b6040516020818303038152906040529050612d46565b612d0088610de9565b612d23866001612707600d546001612d189190613e91565b612781886009613e91565b604051602001612d34929190613ea9565b60405160208183030381529060405290505b600060405180608001604052806044815260200161402560449139905060006040518060400160405280600481526020017f2e706e6700000000000000000000000000000000000000000000000000000000815250905060008284604051602001612db2929190613ea9565b60408051601f1981840301815290829052612dd1918490602001613ea9565b6040516020818303038152906040529050612dec8c82613316565b604080516060810182528c815260208082018d90528183018c9052600d546000908152601590915291909120612e239160036137fd565b50600d546000908152601560209081526040918290208251606081019384905281548152612ead939092600391906001840190850180831161289957505050505080516000908152601660209081526040808320805460ff199081166001908117909255928501518452818420805484168217905593810151835290912080549091169091179055565b600d5460009081526013602090815260409091208551612ecf928701906136c4565b5050600d805460009081526010602090815260408083208054600360ff19918216179091559d8352600f909152808220549254825290208054909b1660ff90911615151790995550505050505050505050565b6001811115612f995760405162461bcd60e51b815260206004820152603560248201527f455243373231456e756d657261626c653a20636f6e736563757469766520747260448201527f616e7366657273206e6f7420737570706f7274656400000000000000000000006064820152608401610753565b816001600160a01b038516612ff557612ff081600880546000838152600960205260408120829055600182018355919091527ff3f7a9fe364faab93b216da50a3214154f22a0a2b415b23a84c8169e8b636ee30155565b613018565b836001600160a01b0316856001600160a01b03161461301857613018858261339b565b6001600160a01b0384166130345761302f81613438565b613057565b846001600160a01b0316846001600160a01b0316146130575761305784826134e7565b5050505050565b613068838361352b565b61307560008484846131be565b6107f45760405162461bcd60e51b815260206004820152603260248201527f4552433732313a207472616e7366657220746f206e6f6e20455243373231526560448201527131b2b4bb32b91034b6b83632b6b2b73a32b960711b6064820152608401610753565b6000807a184f03e93ff9f4daa797ed6e38ed64bf6a1f0100000000000000008310613125577a184f03e93ff9f4daa797ed6e38ed64bf6a1f010000000000000000830492506040015b6d04ee2d6d415b85acef81000000008310613151576d04ee2d6d415b85acef8100000000830492506020015b662386f26fc10000831061316f57662386f26fc10000830492506010015b6305f5e1008310613187576305f5e100830492506008015b612710831061319b57612710830492506004015b606483106131ad576064830492506002015b600a83106106035760010192915050565b60006001600160a01b0384163b1561330b57604051630a85bd0160e11b81526001600160a01b0385169063150b7a0290613202903390899088908890600401613f67565b602060405180830381600087803b15801561321c57600080fd5b505af192505050801561324c575060408051601f3d908101601f1916820190925261324991810190613fa3565b60015b6132f1573d80801561327a576040519150601f19603f3d011682016040523d82523d6000602084013e61327f565b606091505b5080516132e95760405162461bcd60e51b815260206004820152603260248201527f4552433732313a207472616e7366657220746f206e6f6e20455243373231526560448201527131b2b4bb32b91034b6b83632b6b2b73a32b960711b6064820152608401610753565b805181602001fd5b6001600160e01b031916630a85bd0160e11b149050611ef9565b506001949350505050565b6000600d5460016133279190613e91565b905061333383826121aa565b601c54613349906001600160a01b0316826106c2565b6000818152600a602090815260409091208351849261336c9291908401906136c4565b50601154600083815260126020526040812091909155600d80549161339083613ef7565b919050555050505050565b600060016133a88461142a565b6133b29190613f50565b600083815260076020526040902054909150808214613405576001600160a01b03841660009081526006602090815260408083208584528252808320548484528184208190558352600790915290208190555b5060009182526007602090815260408084208490556001600160a01b039094168352600681528383209183525290812055565b60085460009061344a90600190613f50565b6000838152600960205260408120546008805493945090928490811061347257613472613e65565b90600052602060002001549050806008838154811061349357613493613e65565b60009182526020808320909101929092558281526009909152604080822084905585825281205560088054806134cb576134cb613fc0565b6001900381819060005260206000200160009055905550505050565b60006134f28361142a565b6001600160a01b039093166000908152600660209081526040808320868452825280832085905593825260079052919091209190915550565b6001600160a01b0382166135815760405162461bcd60e51b815260206004820181905260248201527f4552433732313a206d696e7420746f20746865207a65726f20616464726573736044820152606401610753565b6000818152600260205260409020546001600160a01b0316156135e65760405162461bcd60e51b815260206004820152601c60248201527f4552433732313a20746f6b656e20616c7265616479206d696e746564000000006044820152606401610753565b6135f4600083836001612f22565b6000818152600260205260409020546001600160a01b0316156136595760405162461bcd60e51b815260206004820152601c60248201527f4552433732313a20746f6b656e20616c7265616479206d696e746564000000006044820152606401610753565b6001600160a01b038216600081815260036020908152604080832080546001019055848352600290915280822080546001600160a01b0319168417905551839291907fddf252ad1be2c89b69c2b068fc378daa952ba7f163c4a11628f55a4df523b3ef908290a45050565b8280546136d090613e2a565b90600052602060002090601f0160209004810192826136f25760008555613738565b82601f1061370b57805160ff1916838001178555613738565b82800160010185558215613738579182015b8281111561373857825182559160200191906001019061371d565b5061374492915061382a565b5090565b50805461375490613e2a565b6000825580601f10613764575050565b601f016020900490600052602060002090810190610bf5919061382a565b82805461378e90613e2a565b90600052602060002090601f0160209004810192826137b05760008555613738565b82601f106137c15780548555613738565b8280016001018555821561373857600052602060002091601f016020900482015b828111156137385782548255916001019190600101906137e2565b8260038101928215613738579160200282018281111561373857825182559160200191906001019061371d565b5b80821115613744576000815560010161382b565b6001600160e01b031981168114610bf557600080fd5b60006020828403121561386757600080fd5b81356138728161383f565b9392505050565b60005b8381101561389457818101518382015260200161387c565b8381111561169c5750506000910152565b600081518084526138bd816020860160208601613879565b601f01601f19169290920160200192915050565b60208152600061387260208301846138a5565b6000602082840312156138f657600080fd5b5035919050565b6001600160a01b0381168114610bf557600080fd5b6000806040838503121561392557600080fd5b8235613930816138fd565b946020939093013593505050565b60008060006060848603121561395357600080fd5b833561395e816138fd565b9250602084013561396e816138fd565b929592945050506040919091013590565b634e487b7160e01b600052604160045260246000fd5b604051601f8201601f1916810167ffffffffffffffff811182821017156139be576139be61397f565b604052919050565b600067ffffffffffffffff8311156139e0576139e061397f565b6139f3601f8401601f1916602001613995565b9050828152838383011115613a0757600080fd5b828260208301376000602084830101529392505050565b600082601f830112613a2f57600080fd5b613872838335602085016139c6565b600060208284031215613a5057600080fd5b813567ffffffffffffffff811115613a6757600080fd5b611ef984828501613a1e565b600060208284031215613a8557600080fd5b8135613872816138fd565b600067ffffffffffffffff821115613aaa57613aaa61397f565b5060051b60200190565b600082601f830112613ac557600080fd5b81356020613ada613ad583613a90565b613995565b82815260059290921b84018101918181019086841115613af957600080fd5b8286015b84811015613b145780358352918301918301613afd565b509695505050505050565b60008060408385031215613b3257600080fd5b82359150602083013567ffffffffffffffff811115613b5057600080fd5b613b5c85828601613ab4565b9150509250929050565b60008060408385031215613b7957600080fd5b8235613b84816138fd565b915060208301358015158114613b9957600080fd5b809150509250929050565b600082601f830112613bb557600080fd5b81356020613bc5613ad583613a90565b82815260059290921b84018101918181019086841115613be457600080fd5b8286015b84811015613b1457803567ffffffffffffffff811115613c085760008081fd5b613c168986838b0101613a1e565b845250918301918301613be8565b600080600080600080600080610100898b031215613c4157600080fd5b883567ffffffffffffffff80821115613c5957600080fd5b613c658c838d01613a1e565b995060208b0135915080821115613c7b57600080fd5b613c878c838d01613ab4565b985060408b0135915080821115613c9d57600080fd5b613ca98c838d01613ba4565b975060608b0135965060808b0135955060a08b0135915080821115613ccd57600080fd5b613cd98c838d01613ab4565b945060c08b0135935060e08b0135915080821115613cf657600080fd5b50613d038b828c01613ab4565b9150509295985092959890939650565b60008060008060808587031215613d2957600080fd5b8435613d34816138fd565b93506020850135613d44816138fd565b925060408501359150606085013567ffffffffffffffff811115613d6757600080fd5b8501601f81018713613d7857600080fd5b613d87878235602084016139c6565b91505092959194509250565b60008060408385031215613da657600080fd5b82359150602083013567ffffffffffffffff811115613dc457600080fd5b613b5c85828601613a1e565b60008060408385031215613de357600080fd5b8235613dee816138fd565b91506020830135613b99816138fd565b600080600060608486031215613e1357600080fd5b505081359360208301359350604090920135919050565b600181811c90821680613e3e57607f821691505b60208210811415613e5f57634e487b7160e01b600052602260045260246000fd5b50919050565b634e487b7160e01b600052603260045260246000fd5b634e487b7160e01b600052601160045260246000fd5b60008219821115613ea457613ea4613e7b565b500190565b60008351613ebb818460208801613879565b835190830190613ecf818360208801613879565b01949350505050565b6000816000190483118215151615613ef257613ef2613e7b565b500290565b6000600019821415613f0b57613f0b613e7b565b5060010190565b634e487b7160e01b600052601260045260246000fd5b600082613f3757613f37613f12565b500690565b600082613f4b57613f4b613f12565b500490565b600082821015613f6257613f62613e7b565b500390565b60006001600160a01b03808716835280861660208401525083604083015260806060830152613f9960808301846138a5565b9695505050505050565b600060208284031215613fb557600080fd5b81516138728161383f565b634e487b7160e01b600052603160045260246000fdfe68747470733a2f2f697066732e696f2f697066732f516d593572657a46666b5053475844694168395a414567684d446e484c344150727950634d33614e6e7470544b612f6e66746c766c325f312f68747470733a2f2f697066732e696f2f697066732f516d565071526555447a3372374448414a444d7867614458777457636b554a517173515753675235754e5159486e2fa2646970667358221220c5bda069dd5ccff454ca893b531adfc7406b1907907eec498db3f2481165ce6e64736f6c63430008090033",
  "linkReferences": {},
  "deployedLinkReferences": {}
}