{
  "_format": "hh-sol-artifact-1",
  "contractName": "InnomicNFT",
  "sourceName": "blockchain/contracts/InnomicNFT.sol",
  "abi": [
    {
      "inputs": [
        {
          "internalType": "string",
          "name": "name_",
          "type": "string"
        },
        {
          "internalType": "string",
          "name": "symbol_",
          "type": "string"
        },
        {
          "internalType": "string",
          "name": "newBaseURI",
          "type": "string"
        }
      ],
      "stateMutability": "nonpayable",
      "type": "constructor"
    },
    {
      "anonymous": false,
      "inputs": [
        {
          "indexed": true,
          "internalType": "address",
          "name": "owner",
          "type": "address"
        },
        {
          "indexed": true,
          "internalType": "address",
          "name": "approved",
          "type": "address"
        },
        {
          "indexed": true,
          "internalType": "uint256",
          "name": "tokenId",
          "type": "uint256"
        }
      ],
      "name": "Approval",
      "type": "event"
    },
    {
      "anonymous": false,
      "inputs": [
        {
          "indexed": true,
          "internalType": "address",
          "name": "owner",
          "type": "address"
        },
        {
          "indexed": true,
          "internalType": "address",
          "name": "operator",
          "type": "address"
        },
        {
          "indexed": false,
          "internalType": "bool",
          "name": "approved",
          "type": "bool"
        }
      ],
      "name": "ApprovalForAll",
      "type": "event"
    },
    {
      "anonymous": false,
      "inputs": [
        {
          "indexed": true,
          "internalType": "uint256",
          "name": "itemId",
          "type": "uint256"
        },
        {
          "indexed": true,
          "internalType": "uint256",
          "name": "tokenId",
          "type": "uint256"
        },
        {
          "indexed": false,
          "internalType": "address",
          "name": "seller",
          "type": "address"
        },
        {
          "indexed": false,
          "internalType": "address",
          "name": "owner",
          "type": "address"
        },
        {
          "indexed": false,
          "internalType": "uint256",
          "name": "price",
          "type": "uint256"
        },
        {
          "indexed": false,
          "internalType": "bool",
          "name": "sold",
          "type": "bool"
        }
      ],
      "name": "MarketItemCreated",
      "type": "event"
    },
    {
      "anonymous": false,
      "inputs": [
        {
          "indexed": true,
          "internalType": "uint256",
          "name": "itemId",
          "type": "uint256"
        },
        {
          "indexed": true,
          "internalType": "uint256",
          "name": "tokenId",
          "type": "uint256"
        },
        {
          "indexed": false,
          "internalType": "address",
          "name": "seller",
          "type": "address"
        },
        {
          "indexed": false,
          "internalType": "address",
          "name": "owner",
          "type": "address"
        },
        {
          "indexed": false,
          "internalType": "uint256",
          "name": "price",
          "type": "uint256"
        }
      ],
      "name": "MarketItemSold",
      "type": "event"
    },
    {
      "anonymous": false,
      "inputs": [
        {
          "indexed": true,
          "internalType": "address",
          "name": "from",
          "type": "address"
        },
        {
          "indexed": true,
          "internalType": "address",
          "name": "to",
          "type": "address"
        },
        {
          "indexed": true,
          "internalType": "uint256",
          "name": "tokenId",
          "type": "uint256"
        }
      ],
      "name": "Transfer",
      "type": "event"
    },
    {
      "inputs": [
        {
          "internalType": "address",
          "name": "to",
          "type": "address"
        },
        {
          "internalType": "uint256",
          "name": "URInum",
          "type": "uint256"
        }
      ],
      "name": "_mintTokenAllowedToEarn",
      "outputs": [],
      "stateMutability": "nonpayable",
      "type": "function"
    },
    {
      "inputs": [
        {
          "internalType": "address",
          "name": "to",
          "type": "address"
        },
        {
          "internalType": "uint256",
          "name": "URInum",
          "type": "uint256"
        }
      ],
      "name": "_mintTokenNotAllowedToEarn",
      "outputs": [],
      "stateMutability": "nonpayable",
      "type": "function"
    },
    {
      "inputs": [
        {
          "internalType": "address",
          "name": "to",
          "type": "address"
        },
        {
          "internalType": "uint256",
          "name": "tokenId",
          "type": "uint256"
        }
      ],
      "name": "_safeTransfer",
      "outputs": [],
      "stateMutability": "nonpayable",
      "type": "function"
    },
    {
      "inputs": [
        {
          "internalType": "address",
          "name": "to",
          "type": "address"
        },
        {
          "internalType": "uint256",
          "name": "tokenId",
          "type": "uint256"
        }
      ],
      "name": "_safeTransferPool",
      "outputs": [],
      "stateMutability": "nonpayable",
      "type": "function"
    },
    {
      "inputs": [
        {
          "internalType": "string",
          "name": "newBaseURI",
          "type": "string"
        }
      ],
      "name": "_setBaseURI",
      "outputs": [],
      "stateMutability": "nonpayable",
      "type": "function"
    },
    {
      "inputs": [
        {
          "internalType": "uint256",
          "name": "newlimite",
          "type": "uint256"
        }
      ],
      "name": "_setlimite",
      "outputs": [],
      "stateMutability": "nonpayable",
      "type": "function"
    },
    {
      "inputs": [
        {
          "internalType": "address",
          "name": "to",
          "type": "address"
        },
        {
          "internalType": "uint256",
          "name": "tokenId",
          "type": "uint256"
        }
      ],
      "name": "approve",
      "outputs": [],
      "stateMutability": "nonpayable",
      "type": "function"
    },
    {
      "inputs": [],
      "name": "balance",
      "outputs": [
        {
          "internalType": "uint256",
          "name": "",
          "type": "uint256"
        }
      ],
      "stateMutability": "view",
      "type": "function"
    },
    {
      "inputs": [
        {
          "internalType": "address",
          "name": "owner",
          "type": "address"
        }
      ],
      "name": "balanceOf",
      "outputs": [
        {
          "internalType": "uint256",
          "name": "",
          "type": "uint256"
        }
      ],
      "stateMutability": "view",
      "type": "function"
    },
    {
      "inputs": [
        {
          "internalType": "uint256",
          "name": "tokenId",
          "type": "uint256"
        }
      ],
      "name": "burn",
      "outputs": [],
      "stateMutability": "nonpayable",
      "type": "function"
    },
    {
      "inputs": [
        {
          "internalType": "uint256",
          "name": "tokenId",
          "type": "uint256"
        }
      ],
      "name": "claseToken",
      "outputs": [
        {
          "internalType": "uint256",
          "name": "",
          "type": "uint256"
        }
      ],
      "stateMutability": "view",
      "type": "function"
    },
    {
      "inputs": [
        {
          "internalType": "uint256",
          "name": "tokenId",
          "type": "uint256"
        },
        {
          "internalType": "uint256",
          "name": "price",
          "type": "uint256"
        }
      ],
      "name": "createMarketItem",
      "outputs": [],
      "stateMutability": "payable",
      "type": "function"
    },
    {
      "inputs": [
        {
          "internalType": "uint256",
          "name": "itemId",
          "type": "uint256"
        }
      ],
      "name": "createMarketSale",
      "outputs": [],
      "stateMutability": "payable",
      "type": "function"
    },
    {
      "inputs": [
        {
          "internalType": "uint256",
          "name": "tokenId",
          "type": "uint256"
        }
      ],
      "name": "downgrade",
      "outputs": [],
      "stateMutability": "nonpayable",
      "type": "function"
    },
    {
      "inputs": [],
      "name": "fetchUnSoldMarketItems",
      "outputs": [
        {
          "components": [
            {
              "internalType": "uint256",
              "name": "itemId",
              "type": "uint256"
            },
            {
              "internalType": "uint256",
              "name": "tokenId",
              "type": "uint256"
            },
            {
              "internalType": "address payable",
              "name": "seller",
              "type": "address"
            },
            {
              "internalType": "address payable",
              "name": "owner",
              "type": "address"
            },
            {
              "internalType": "uint256",
              "name": "price",
              "type": "uint256"
            },
            {
              "internalType": "bool",
              "name": "sold",
              "type": "bool"
            }
          ],
          "internalType": "struct InnomicNFT.MarketItem[]",
          "name": "",
          "type": "tuple[]"
        }
      ],
      "stateMutability": "view",
      "type": "function"
    },
    {
      "inputs": [],
      "name": "getAllNFTs",
      "outputs": [
        {
          "internalType": "uint256[]",
          "name": "",
          "type": "uint256[]"
        }
      ],
      "stateMutability": "view",
      "type": "function"
    },
    {
      "inputs": [
        {
          "internalType": "uint256",
          "name": "tokenId",
          "type": "uint256"
        }
      ],
      "name": "getApproved",
      "outputs": [
        {
          "internalType": "address",
          "name": "",
          "type": "address"
        }
      ],
      "stateMutability": "view",
      "type": "function"
    },
    {
      "inputs": [
        {
          "internalType": "uint256",
          "name": "tokenId",
          "type": "uint256"
        }
      ],
      "name": "getParents",
      "outputs": [
        {
          "internalType": "uint256[]",
          "name": "",
          "type": "uint256[]"
        }
      ],
      "stateMutability": "view",
      "type": "function"
    },
    {
      "inputs": [
        {
          "internalType": "uint256",
          "name": "tokenId",
          "type": "uint256"
        }
      ],
      "name": "getUnFusioned",
      "outputs": [
        {
          "internalType": "uint8",
          "name": "",
          "type": "uint8"
        }
      ],
      "stateMutability": "view",
      "type": "function"
    },
    {
      "inputs": [
        {
          "internalType": "uint256",
          "name": "tokenId",
          "type": "uint256"
        }
      ],
      "name": "isAllowedToEarn",
      "outputs": [
        {
          "internalType": "bool",
          "name": "",
          "type": "bool"
        }
      ],
      "stateMutability": "view",
      "type": "function"
    },
    {
      "inputs": [
        {
          "internalType": "address",
          "name": "owner",
          "type": "address"
        },
        {
          "internalType": "address",
          "name": "operator",
          "type": "address"
        }
      ],
      "name": "isApprovedForAll",
      "outputs": [
        {
          "internalType": "bool",
          "name": "",
          "type": "bool"
        }
      ],
      "stateMutability": "view",
      "type": "function"
    },
    {
      "inputs": [],
      "name": "limite",
      "outputs": [
        {
          "internalType": "uint256",
          "name": "",
          "type": "uint256"
        }
      ],
      "stateMutability": "view",
      "type": "function"
    },
    {
      "inputs": [],
      "name": "name",
      "outputs": [
        {
          "internalType": "string",
          "name": "",
          "type": "string"
        }
      ],
      "stateMutability": "view",
      "type": "function"
    },
    {
      "inputs": [
        {
          "internalType": "uint256",
          "name": "tokenId",
          "type": "uint256"
        }
      ],
      "name": "ownerOf",
      "outputs": [
        {
          "internalType": "address",
          "name": "",
          "type": "address"
        }
      ],
      "stateMutability": "view",
      "type": "function"
    },
    {
      "inputs": [],
      "name": "poolNFT",
      "outputs": [
        {
          "internalType": "contract PoolNFT",
          "name": "",
          "type": "address"
        }
      ],
      "stateMutability": "view",
      "type": "function"
    },
    {
      "inputs": [
        {
          "internalType": "address",
          "name": "from",
          "type": "address"
        },
        {
          "internalType": "address",
          "name": "to",
          "type": "address"
        },
        {
          "internalType": "uint256",
          "name": "tokenId",
          "type": "uint256"
        }
      ],
      "name": "safeTransferFrom",
      "outputs": [],
      "stateMutability": "nonpayable",
      "type": "function"
    },
    {
      "inputs": [
        {
          "internalType": "address",
          "name": "from",
          "type": "address"
        },
        {
          "internalType": "address",
          "name": "to",
          "type": "address"
        },
        {
          "internalType": "uint256",
          "name": "tokenId",
          "type": "uint256"
        },
        {
          "internalType": "bytes",
          "name": "data",
          "type": "bytes"
        }
      ],
      "name": "safeTransferFrom",
      "outputs": [],
      "stateMutability": "nonpayable",
      "type": "function"
    },
    {
      "inputs": [
        {
          "internalType": "address",
          "name": "operator",
          "type": "address"
        },
        {
          "internalType": "bool",
          "name": "approved",
          "type": "bool"
        }
      ],
      "name": "setApprovalForAll",
      "outputs": [],
      "stateMutability": "nonpayable",
      "type": "function"
    },
    {
      "inputs": [
        {
          "internalType": "address",
          "name": "poola",
          "type": "address"
        },
        {
          "internalType": "contract PoolNFT",
          "name": "pool",
          "type": "address"
        }
      ],
      "name": "setPoolNFT",
      "outputs": [],
      "stateMutability": "nonpayable",
      "type": "function"
    },
    {
      "inputs": [
        {
          "internalType": "bytes4",
          "name": "interfaceId",
          "type": "bytes4"
        }
      ],
      "name": "supportsInterface",
      "outputs": [
        {
          "internalType": "bool",
          "name": "",
          "type": "bool"
        }
      ],
      "stateMutability": "view",
      "type": "function"
    },
    {
      "inputs": [],
      "name": "symbol",
      "outputs": [
        {
          "internalType": "string",
          "name": "",
          "type": "string"
        }
      ],
      "stateMutability": "view",
      "type": "function"
    },
    {
      "inputs": [
        {
          "internalType": "uint256",
          "name": "index",
          "type": "uint256"
        }
      ],
      "name": "tokenByIndex",
      "outputs": [
        {
          "internalType": "uint256",
          "name": "",
          "type": "uint256"
        }
      ],
      "stateMutability": "view",
      "type": "function"
    },
    {
      "inputs": [
        {
          "internalType": "address",
          "name": "owner",
          "type": "address"
        },
        {
          "internalType": "uint256",
          "name": "index",
          "type": "uint256"
        }
      ],
      "name": "tokenOfOwnerByIndex",
      "outputs": [
        {
          "internalType": "uint256",
          "name": "",
          "type": "uint256"
        }
      ],
      "stateMutability": "view",
      "type": "function"
    },
    {
      "inputs": [
        {
          "internalType": "uint256",
          "name": "tokenId",
          "type": "uint256"
        }
      ],
      "name": "tokenURI",
      "outputs": [
        {
          "internalType": "string",
          "name": "",
          "type": "string"
        }
      ],
      "stateMutability": "view",
      "type": "function"
    },
    {
      "inputs": [],
      "name": "totalSupply",
      "outputs": [
        {
          "internalType": "uint256",
          "name": "",
          "type": "uint256"
        }
      ],
      "stateMutability": "view",
      "type": "function"
    },
    {
      "inputs": [
        {
          "internalType": "address",
          "name": "from",
          "type": "address"
        },
        {
          "internalType": "address",
          "name": "to",
          "type": "address"
        },
        {
          "internalType": "uint256",
          "name": "tokenId",
          "type": "uint256"
        }
      ],
      "name": "transferFrom",
      "outputs": [],
      "stateMutability": "nonpayable",
      "type": "function"
    },
    {
      "inputs": [
        {
          "internalType": "uint256",
          "name": "itemId",
          "type": "uint256"
        }
      ],
      "name": "unListMarketItem",
      "outputs": [],
      "stateMutability": "payable",
      "type": "function"
    },
    {
      "inputs": [
        {
          "internalType": "uint256",
          "name": "tokenId1",
          "type": "uint256"
        },
        {
          "internalType": "uint256",
          "name": "tokenId2",
          "type": "uint256"
        },
        {
          "internalType": "uint256",
          "name": "tokenId3",
          "type": "uint256"
        },
        {
          "internalType": "uint8",
          "name": "num",
          "type": "uint8"
        }
      ],
      "name": "upgrade",
      "outputs": [],
      "stateMutability": "nonpayable",
      "type": "function"
    }
  ],
  "bytecode": "0x60806040526064600d556014601a553480156200001b57600080fd5b5060405162004620380380620046208339810160408190526200003e9162000215565b82518390839062000057906000906020850190620000a2565b5080516200006d906001906020840190620000a2565b50508151620000859150600b906020840190620000a2565b5050601980546001600160a01b0319163317905550620002e39050565b828054620000b090620002a6565b90600052602060002090601f016020900481019282620000d457600085556200011f565b82601f10620000ef57805160ff19168380011785556200011f565b828001600101855582156200011f579182015b828111156200011f57825182559160200191906001019062000102565b506200012d92915062000131565b5090565b5b808211156200012d576000815560010162000132565b634e487b7160e01b600052604160045260246000fd5b600082601f8301126200017057600080fd5b81516001600160401b03808211156200018d576200018d62000148565b604051601f8301601f19908116603f01168101908282118183101715620001b857620001b862000148565b81604052838152602092508683858801011115620001d557600080fd5b600091505b83821015620001f95785820183015181830184015290820190620001da565b838211156200020b5760008385830101525b9695505050505050565b6000806000606084860312156200022b57600080fd5b83516001600160401b03808211156200024357600080fd5b62000251878388016200015e565b945060208601519150808211156200026857600080fd5b62000276878388016200015e565b935060408601519150808211156200028d57600080fd5b506200029c868287016200015e565b9150509250925092565b600181811c90821680620002bb57607f821691505b60208210811415620002dd57634e487b7160e01b600052602260045260246000fd5b50919050565b61432d80620002f36000396000f3fe6080604052600436106102255760003560e01c806370a0823111610123578063b69ef8a8116100ab578063dbab65ee1161006f578063dbab65ee14610671578063e0391b0914610691578063e985e9c5146106a6578063f202dc2e146106ef578063f48422571461070f57600080fd5b8063b69ef8a8146105e9578063b88d4fde146105fe578063be9af5361461061e578063c4f8210e14610631578063c87b56dd1461065157600080fd5b806395d89b41116100f257806395d89b4114610561578063a0b4977814610576578063a22cb46514610596578063a6322736146105b6578063b69868af146105d657600080fd5b806370a08231146104e15780637bafd87e1461050157806385dd9033146105215780638c4964eb1461054157600080fd5b8063242a0087116101b157806342842e0e1161017557806342842e0e1461043457806342966c68146104545780634e72a6fa146104745780634f6ccce7146104a15780636352211e146104c157600080fd5b8063242a0087146103925780632f745c59146103bf57806331b5b907146103df578063361c1995146103ff578063382edbcf1461041257600080fd5b8063095ea7b3116101f8578063095ea7b3146102fb57806311bcc81e1461031d57806318160ddd1461033d57806320eb8e531461035c57806323b872dd1461037257600080fd5b806301ffc9a71461022a578063059f920c1461025f57806306fdde03146102a1578063081812fc146102c3575b600080fd5b34801561023657600080fd5b5061024a610245366004613c54565b610758565b60405190151581526020015b60405180910390f35b34801561026b57600080fd5b5061028f61027a366004613c78565b60009081526013602052604090205460ff1690565b60405160ff9091168152602001610256565b3480156102ad57600080fd5b506102b6610783565b6040516102569190613ce9565b3480156102cf57600080fd5b506102e36102de366004613c78565b610815565b6040516001600160a01b039091168152602001610256565b34801561030757600080fd5b5061031b610316366004613d11565b61083c565b005b34801561032957600080fd5b5061031b610338366004613c78565b610957565b34801561034957600080fd5b506008545b604051908152602001610256565b34801561036857600080fd5b5061034e600d5481565b34801561037e57600080fd5b5061031b61038d366004613d3d565b61133a565b34801561039e57600080fd5b506103b26103ad366004613c78565b6113b1565b6040516102569190613d7e565b3480156103cb57600080fd5b5061034e6103da366004613d11565b6114c1565b3480156103eb57600080fd5b5061031b6103fa366004613e4e565b611557565b61031b61040d366004613e97565b61156e565b34801561041e57600080fd5b50610427611745565b6040516102569190613eb9565b34801561044057600080fd5b5061031b61044f366004613d3d565b611980565b34801561046057600080fd5b5061031b61046f366004613c78565b61199b565b34801561048057600080fd5b5061034e61048f366004613c78565b60009081526010602052604090205490565b3480156104ad57600080fd5b5061034e6104bc366004613c78565b611a24565b3480156104cd57600080fd5b506102e36104dc366004613c78565b611ab7565b3480156104ed57600080fd5b5061034e6104fc366004613f41565b611b1c565b34801561050d57600080fd5b5061024a61051c366004613c78565b611ba2565b34801561052d57600080fd5b5061031b61053c366004613c78565b600d55565b34801561054d57600080fd5b5061031b61055c366004613d11565b611bc3565b34801561056d57600080fd5b506102b6611cb5565b34801561058257600080fd5b506015546102e3906001600160a01b031681565b3480156105a257600080fd5b5061031b6105b1366004613f5e565b611cc4565b3480156105c257600080fd5b5061031b6105d1366004613d11565b611ccf565b61031b6105e4366004613c78565b611dbe565b3480156105f557600080fd5b50600c5461034e565b34801561060a57600080fd5b5061031b610619366004613f9c565b611ea8565b61031b61062c366004613c78565b611f26565b34801561063d57600080fd5b5061031b61064c366004613d11565b61218d565b34801561065d57600080fd5b506102b661066c366004613c78565b6121e1565b34801561067d57600080fd5b5061031b61068c36600461401c565b61222d565b34801561069d57600080fd5b506103b2612682565b3480156106b257600080fd5b5061024a6106c1366004614063565b6001600160a01b03918216600090815260056020908152604080832093909416825291909152205460ff1690565b3480156106fb57600080fd5b5061031b61070a366004613d11565b61275b565b34801561071b57600080fd5b5061031b61072a366004614063565b601480546001600160a01b039384166001600160a01b03199182161790915560158054929093169116179055565b60006001600160e01b0319821663780e9d6360e01b148061077d575061077d82612784565b92915050565b60606000805461079290614091565b80601f01602080910402602001604051908101604052809291908181526020018280546107be90614091565b801561080b5780601f106107e05761010080835404028352916020019161080b565b820191906000526020600020905b8154815290600101906020018083116107ee57829003601f168201915b5050505050905090565b6000610820826127d4565b506000908152600460205260409020546001600160a01b031690565b600061084782611ab7565b9050806001600160a01b0316836001600160a01b031614156108ba5760405162461bcd60e51b815260206004820152602160248201527f4552433732313a20617070726f76616c20746f2063757272656e74206f776e656044820152603960f91b60648201526084015b60405180910390fd5b336001600160a01b03821614806108d657506108d681336106c1565b6109485760405162461bcd60e51b815260206004820152603d60248201527f4552433732313a20617070726f76652063616c6c6572206973206e6f7420746f60448201527f6b656e206f776e6572206f7220617070726f76656420666f7220616c6c00000060648201526084016108b1565b6109528383612838565b505050565b6000818152600f6020526040902054600160ff909116116109a45760405162461bcd60e51b815260206004820152600760248201526611549497d3159360ca1b60448201526064016108b1565b336109ae82611ab7565b6001600160a01b0316146109ed5760405162461bcd60e51b81526020600482015260066024820152654552525f4f5760d01b60448201526064016108b1565b60008181526011602081815260408084208054855260128352818520805460ff19908116909155600182015486528286208054821690556002820154865282862080549091169055601554868652939092529054815163d058e43760e01b8152600481019190915233602482015290516001600160a01b039092169263d058e4379260448084019382900301818387803b158015610a8a57600080fd5b505af1158015610a9e573d6000803e3d6000fd5b50506015546000848152601160205260409081902060010154905163d058e43760e01b815260048101919091523360248201526001600160a01b03909116925063d058e4379150604401600060405180830381600087803b158015610b0257600080fd5b505af1158015610b16573d6000803e3d6000fd5b50506015546000848152601160205260409081902060020154905163d058e43760e01b815260048101919091523360248201526001600160a01b03909116925063d058e4379150604401600060405180830381600087803b158015610b7a57600080fd5b505af1158015610b8e573d6000803e3d6000fd5b505060155460008481526011602052604090819020549051631d9f985560e11b815260048101919091523360248201526001600160a01b039091169250633b3f30aa9150604401600060405180830381600087803b158015610bef57600080fd5b505af1158015610c03573d6000803e3d6000fd5b505060155460008481526011602052604090819020600101549051631d9f985560e11b815260048101919091523360248201526001600160a01b039091169250633b3f30aa9150604401600060405180830381600087803b158015610c6757600080fd5b505af1158015610c7b573d6000803e3d6000fd5b505060155460008481526011602052604090819020600201549051631d9f985560e11b815260048101919091523360248201526001600160a01b039091169250633b3f30aa9150604401600060405180830381600087803b158015610cdf57600080fd5b505af1158015610cf3573d6000803e3d6000fd5b5050506000828152600f602052604090205460ff16600214159050610e785760008181526011602090815260408083205483526013909152902054600560ff9091161015610d8357600081815260116020908152604080832054835260139091528120805460019290610d6a90849060ff166140f8565b92506101000a81548160ff021916908360ff1602179055505b60008181526011602090815260408083206001015483526013909152902054600560ff9091161015610dfc576000818152601160209081526040808320600190810154845260139092528220805491929091610de390849060ff166140f8565b92506101000a81548160ff021916908360ff1602179055505b60008181526011602090815260408083206002015483526013909152902054600560ff9091161015610e7357600081815260116020908152604080832060020154835260139091528120805460019290610e5a90849060ff166140f8565b92506101000a81548160ff021916908360ff1602179055505b61132e565b60008181526011602090815260408083205483528083205483526013909152902054600560ff9091161015610ef557600081815260116020908152604080832054835280832054835260139091528120805460019290610edc90849060ff166140f8565b92506101000a81548160ff021916908360ff1602179055505b60008181526011602090815260408083205483528083206001015483526013909152902054600560ff9091161015610f7a576000818152601160209081526040808320548352808320600190810154845260139092528220805491929091610f6190849060ff166140f8565b92506101000a81548160ff021916908360ff1602179055505b60008181526011602090815260408083205483528083206002015483526013909152902054600560ff9091161015610ffd57600081815260116020908152604080832054835280832060020154835260139091528120805460019290610fe490849060ff166140f8565b92506101000a81548160ff021916908360ff1602179055505b60008181526011602090815260408083206001015483528083205483526013909152902054600560ff909116101561108257600081815260116020908152604080832060019081015484528184205484526013909252822080549192909161106990849060ff166140f8565b92506101000a81548160ff021916908360ff1602179055505b60008181526011602090815260408083206001908101548452818420015483526013909152902054600560ff909116101561110c57600081815260116020908152604080832060019081015484528184208101548452601390925282208054919290916110f390849060ff166140f8565b92506101000a81548160ff021916908360ff1602179055505b60008181526011602090815260408083206001015483528083206002015483526013909152902054600560ff909116101561119757600081815260116020908152604080832060019081015484528184206002015484526013909252822080549192909161117e90849060ff166140f8565b92506101000a81548160ff021916908360ff1602179055505b60008181526011602090815260408083206002015483528083205483526013909152902054600560ff909116101561121a5760008181526011602090815260408083206002015483528083205483526013909152812080546001929061120190849060ff166140f8565b92506101000a81548160ff021916908360ff1602179055505b60008181526011602090815260408083206002015483528083206001015483526013909152902054600560ff90911610156112a557600081815260116020908152604080832060020154835280832060019081015484526013909252822080549192909161128c90849060ff166140f8565b92506101000a81548160ff021916908360ff1602179055505b60008181526011602090815260408083206002908101548452818420015483526013909152902054600560ff909116101561132e5760008181526011602090815260408083206002908101548452818420015483526013909152812080546001929061131590849060ff166140f8565b92506101000a81548160ff021916908360ff1602179055505b611337816119e4565b50565b61134433826128a6565b6113a65760405162461bcd60e51b815260206004820152602d60248201527f4552433732313a2063616c6c6572206973206e6f7420746f6b656e206f776e6560448201526c1c881bdc88185c1c1c9bdd9959609a1b60648201526084016108b1565b610952838383612925565b6000818152600f6020526040902054606090600160ff909116116114015760405162461bcd60e51b815260206004820152600760248201526611549497d3159360ca1b60448201526064016108b1565b6040805160038082526080820190925260009160208201606080368337019050506000848152601160205260408120919250015481600081518110611448576114486140cc565b6020908102919091018101919091526000848152601190915260409020600101548160018151811061147c5761147c6140cc565b602090810291909101810191909152600084815260119091526040902060020154816002815181106114b0576114b06140cc565b602090810291909101015292915050565b60006114cc83611b1c565b821061152e5760405162461bcd60e51b815260206004820152602b60248201527f455243373231456e756d657261626c653a206f776e657220696e646578206f7560448201526a74206f6620626f756e647360a81b60648201526084016108b1565b506001600160a01b03919091166000908152600660209081526040808320938352929052205490565b805161156a90600b906020840190613b3e565b5050565b600081116115a75760405162461bcd60e51b815260206004820152600660248201526522a9292fa82960d11b60448201526064016108b1565b6115b5601780546001019055565b60006115c060175490565b6040805160c081018252828152602080820187815233838501818152601480546001600160a01b0390811660608801908152608088018c8152600060a08a018181528c8252601b8a528b82209a518b55975160018b0155945160028a0180549185166001600160a01b0319928316179055915160038a018054918516919093161790915551600488015593516005909601805496151560ff199097169690961790955593548551938401909552928252939450611684939192909116908690612b12565b60155460405163d058e43760e01b8152600481018590523360248201526001600160a01b039091169063d058e43790604401600060405180830381600087803b1580156116d057600080fd5b505af11580156116e4573d6000803e3d6000fd5b5050601454604080513381526001600160a01b0390921660208301528101859052600060608201528592508391507f4a29ff6f650682addfdf8030b3eeb4610ec651b42d8603f2527633347f9489c9906080015b60405180910390a3505050565b6060600061175260175490565b905060008060005b838110156117ef57601b600061177183600161411d565b815260208101919091526040016000206005015460ff161580156117ca57506014546001600160a01b0316601b60006117ab84600161411d565b81526020810191909152604001600020600301546001600160a01b0316145b156117dd576117da60018461411d565b92505b806117e781614135565b91505061175a565b5060008267ffffffffffffffff81111561180b5761180b613dc2565b60405190808252806020026020018201604052801561186b57816020015b6040805160c08101825260008082526020808301829052928201819052606082018190526080820181905260a082015282526000199092019101816118295790505b50905060005b8481101561197757600061188682600161411d565b6000818152601b602052604090206005015490915060ff161580156118ca57506014546000828152601b60205260409020600301546001600160a01b039081169116145b15611964576000818152601b6020908152604091829020825160c0810184528154815260018201549281019290925260028101546001600160a01b03908116938301939093526003810154909216606082015260048201546080820152600582015460ff16151560a0820152845185908790811061194a5761194a6140cc565b602090810291909101015261196060018661411d565b9450505b508061196f81614135565b915050611871565b50949350505050565b61095283838360405180602001604052806000815250611ea8565b336119a582611ab7565b6001600160a01b0316146119e45760405162461bcd60e51b81526020600482015260066024820152654552525f4f5760d01b60448201526064016108b1565b6119ed81612b90565b6000818152600a602052604090208054611a0690614091565b159050611337576000818152600a6020526040812061133791613bc2565b6000611a2f60085490565b8210611a925760405162461bcd60e51b815260206004820152602c60248201527f455243373231456e756d657261626c653a20676c6f62616c20696e646578206f60448201526b7574206f6620626f756e647360a01b60648201526084016108b1565b60088281548110611aa557611aa56140cc565b90600052602060002001549050919050565b6000818152600260205260408120546001600160a01b03168061077d5760405162461bcd60e51b815260206004820152601860248201527f4552433732313a20696e76616c696420746f6b656e204944000000000000000060448201526064016108b1565b60006001600160a01b038216611b865760405162461bcd60e51b815260206004820152602960248201527f4552433732313a2061646472657373207a65726f206973206e6f7420612076616044820152683634b21037bbb732b960b91b60648201526084016108b1565b506001600160a01b031660009081526003602052604090205490565b6000611bad826127d4565b506000908152600e602052604090205460ff1690565b6000600c546001611bd4919061411d565b9050611be08382612c33565b604080518082019091526005815264173539b7b760d91b60208201526000611c0784612c4d565b82604051602001611c19929190614150565b60408051601f198184030181529181526000858152600a60209081529190208251929350611c4b929091840190613b3e565b506000838152601060209081526040808320879055600f8252808320805460ff199081166001179091556013909252822080549091169055600c805491611c9183614135565b909155505050600091825250600e60205260409020805460ff191660011790555050565b60606001805461079290614091565b61156a338383612cf7565b6000600c546001611ce0919061411d565b9050611cec8382612c33565b604080518082019091526005815264173539b7b760d91b60208201526000611d1384612c4d565b82604051602001611d25929190614150565b60408051601f198184030181529181526000858152600a60209081529190208251929350611d57929091840190613b3e565b506000838152601060209081526040808320879055600f8252808320805460ff199081166001179091556013909252822080549091169055600c805491611d9d83614135565b909155505050600091825250600e60205260409020805460ff191690555050565b6000818152601b60205260409020600201546001600160a01b03163314611e115760405162461bcd60e51b815260206004820152600760248201526611549497d4d15360ca1b60448201526064016108b1565b6000818152601b6020526040908190206001810154600390910180546001600160a01b031916339081179091556015549251631d9f985560e11b815260048101839052602481019190915290916001600160a01b031690633b3f30aa906044015b600060405180830381600087803b158015611e8c57600080fd5b505af1158015611ea0573d6000803e3d6000fd5b505050505050565b611eb233836128a6565b611f145760405162461bcd60e51b815260206004820152602d60248201527f4552433732313a2063616c6c6572206973206e6f7420746f6b656e206f776e6560448201526c1c881bdc88185c1c1c9bdd9959609a1b60648201526084016108b1565b611f2084848484612b12565b50505050565b6000818152601b602052604090206004810154600190910154348214611f7b5760405162461bcd60e51b815260206004820152600a60248201526922a9292fa224a32fa82960b11b60448201526064016108b1565b601954601a546001600160a01b03909116906108fc90611f9b903461417f565b6040518115909202916000818181858888f19350505050158015611fc3573d6000803e3d6000fd5b506000838152601b6020526040902060020154601a546001600160a01b03909116906108fc90611ff3903461417f565b611ffd90346141a1565b6040518115909202916000818181858888f19350505050158015612025573d6000803e3d6000fd5b5060155460405163d058e43760e01b8152600481018390523360248201526001600160a01b039091169063d058e43790604401600060405180830381600087803b15801561207257600080fd5b505af1158015612086573d6000803e3d6000fd5b5050601554604051631d9f985560e11b8152600481018590523360248201526001600160a01b039091169250633b3f30aa9150604401600060405180830381600087803b1580156120d657600080fd5b505af11580156120ea573d6000803e3d6000fd5b5050506000848152601b602052604090206003810180546001600160a01b03191633179055600501805460ff191660011790555061212c601880546001019055565b6000838152601b60209081526040918290206002015482516001600160a01b0390911681523391810191909152908101839052819084907f458478e87af2f8355f5200460431fb85259efefed716e75b487251ae55fe04e090606001611738565b6121a833838360405180602001604052806000815250612b12565b60155460405163d058e43760e01b8152600481018390526001600160a01b0384811660248301529091169063d058e43790604401611e72565b60606121ec826127d4565b60006121f6612dbe565b6000848152600a60209081526040918290209151612216939291016141b8565b60408051601f198184030181529190529392505050565b6000838152600f60205260408082205486835291205460ff908116911614801561227157506000828152600f60205260408082205486835291205460ff9081169116145b6122a75760405162461bcd60e51b815260206004820152600760248201526611549497d3159360ca1b60448201526064016108b1565b6000838152600e60205260408082205486835291205460ff9081161515911615151480156122f357506000828152600e60205260408082205486835291205460ff908116151591161515145b6123295760405162461bcd60e51b815260206004820152600760248201526604552525f5459560cc1b60448201526064016108b1565b60008481526012602052604090205460ff161580612356575060008381526012602052604090205460ff16155b80612370575060008281526012602052604090205460ff16155b6123a65760405162461bcd60e51b81526020600482015260076024820152664552525f424c4b60c81b60448201526064016108b1565b6000848152600f602052604090205460ff16600314156123f35760405162461bcd60e51b81526020600482015260086024820152674552525f4c564c3360c01b60448201526064016108b1565b6123fc83611ab7565b6001600160a01b031661240e85611ab7565b6001600160a01b0316148015612445575061242882611ab7565b6001600160a01b031661243a85611ab7565b6001600160a01b0316145b801561246157503361245685611ab7565b6001600160a01b0316145b6124965760405162461bcd60e51b81526020600482015260066024820152654552525f4f5760d01b60448201526064016108b1565b6000848152600f602052604090205460ff16600114156124c2576124bd3385858585612dcd565b6124cf565b6124cf3385858585613020565b6014546040805160208101909152600081526124fa9133916001600160a01b03909116908790612b12565b6014546040805160208101909152600081526125259133916001600160a01b03909116908690612b12565b6014546040805160208101909152600081526125509133916001600160a01b03909116908590612b12565b60155460405163d058e43760e01b8152600481018690523360248201526001600160a01b039091169063d058e43790604401600060405180830381600087803b15801561259c57600080fd5b505af11580156125b0573d6000803e3d6000fd5b505060155460405163d058e43760e01b8152600481018790523360248201526001600160a01b03909116925063d058e4379150604401600060405180830381600087803b15801561260057600080fd5b505af1158015612614573d6000803e3d6000fd5b505060155460405163d058e43760e01b8152600481018690523360248201526001600160a01b03909116925063d058e4379150604401600060405180830381600087803b15801561266457600080fd5b505af1158015612678573d6000803e3d6000fd5b5050505050505050565b60606000600c5467ffffffffffffffff8111156126a1576126a1613dc2565b6040519080825280602002602001820160405280156126ca578160200160208202803683370190505b5090506000805b600c54811015612753576127066126e982600161411d565b6000908152600260205260409020546001600160a01b0316151590565b156127415761271681600161411d565b838281518110612728576127286140cc565b60209081029190910101528161273d81614135565b9250505b8061274b81614135565b9150506126d1565b508152919050565b60145460408051602081019091526000815261156a916001600160a01b03169084908490612b12565b60006001600160e01b031982166380ac58cd60e01b14806127b557506001600160e01b03198216635b5e139f60e01b145b8061077d57506301ffc9a760e01b6001600160e01b031983161461077d565b6000818152600260205260409020546001600160a01b03166113375760405162461bcd60e51b815260206004820152601860248201527f4552433732313a20696e76616c696420746f6b656e204944000000000000000060448201526064016108b1565b600081815260046020526040902080546001600160a01b0319166001600160a01b038416908117909155819061286d82611ab7565b6001600160a01b03167f8c5be1e5ebec7d5bd14f71427d1e84f3dd0314c0f7b2291e5b200ac8c7c3b92560405160405180910390a45050565b6000806128b283611ab7565b9050806001600160a01b0316846001600160a01b031614806128f957506001600160a01b0380821660009081526005602090815260408083209388168352929052205460ff165b8061291d5750836001600160a01b031661291284610815565b6001600160a01b0316145b949350505050565b826001600160a01b031661293882611ab7565b6001600160a01b03161461299c5760405162461bcd60e51b815260206004820152602560248201527f4552433732313a207472616e736665722066726f6d20696e636f72726563742060448201526437bbb732b960d91b60648201526084016108b1565b6001600160a01b0382166129fe5760405162461bcd60e51b8152602060048201526024808201527f4552433732313a207472616e7366657220746f20746865207a65726f206164646044820152637265737360e01b60648201526084016108b1565b612a0b83838360016133c5565b826001600160a01b0316612a1e82611ab7565b6001600160a01b031614612a825760405162461bcd60e51b815260206004820152602560248201527f4552433732313a207472616e736665722066726f6d20696e636f72726563742060448201526437bbb732b960d91b60648201526084016108b1565b600081815260046020908152604080832080546001600160a01b03199081169091556001600160a01b0387811680865260038552838620805460001901905590871680865283862080546001019055868652600290945282852080549092168417909155905184937fddf252ad1be2c89b69c2b068fc378daa952ba7f163c4a11628f55a4df523b3ef91a4505050565b612b1d848484612925565b612b2984848484613501565b611f205760405162461bcd60e51b815260206004820152603260248201527f4552433732313a207472616e7366657220746f206e6f6e20455243373231526560448201527131b2b4bb32b91034b6b83632b6b2b73a32b960711b60648201526084016108b1565b6000612b9b82611ab7565b9050612bab8160008460016133c5565b612bb482611ab7565b600083815260046020908152604080832080546001600160a01b03199081169091556001600160a01b0385168085526003845282852080546000190190558785526002909352818420805490911690555192935084927fddf252ad1be2c89b69c2b068fc378daa952ba7f163c4a11628f55a4df523b3ef908390a45050565b61156a828260405180602001604052806000815250613659565b60606000612c5a836136d7565b600101905060008167ffffffffffffffff811115612c7a57612c7a613dc2565b6040519080825280601f01601f191660200182016040528015612ca4576020820181803683370190505b5090508181016020015b600019017f3031323334353637383961626364656600000000000000000000000000000000600a86061a8153600a8504945084612cea57612cef565b612cae565b509392505050565b816001600160a01b0316836001600160a01b03161415612d595760405162461bcd60e51b815260206004820152601960248201527f4552433732313a20617070726f766520746f2063616c6c65720000000000000060448201526064016108b1565b6001600160a01b03838116600081815260056020908152604080832094871680845294825291829020805460ff191686151590811790915591519182527f17307eab39ab6107e8899845ad3d59bd9653f200f220920489ca2b5937696c319101611738565b6060600b805461079290614091565b60408051600380825260808201909252600091602082016060803683370190505090508481600081518110612e0457612e046140cc565b6020026020010181815250508381600181518110612e2457612e246140cc565b6020026020010181815250508281600281518110612e4457612e446140cc565b6020026020010181815250506000612e84828460ff1681518110612e6a57612e6a6140cc565b602002602001015160009081526010602052604090205490565b600087815260106020526040902054612e9e906064614269565b612ea8919061411d565b604080518082019091526005815264173539b7b760d91b60208201529091506000612ed283612c4d565b82604051602001612ee4929190614150565b6040516020818303038152906040529050612eff89826137b9565b6040805160608101825289815260208082018a9052818301899052600c546000908152601190915291909120612f36916003613bfc565b50600c546000908152601160205260409081902081516060810192839052612fc29290919060039082845b815481526020019060010190808311612f6157505050505080516000908152601260209081526040808320805460ff199081166001908117909255928501518452818420805484168217905593810151835290912080549091169091179055565b5050600c805460009081526010602090815260408083209490945582548252600f81528382208054600260ff1991821617909155988252600e9052828120549154815291909120805490961660ff9091161515179094555050505050565b60408051600980825261014082019092526000916020820161012080368337019050506000868152601160205260408120919250015481600081518110613069576130696140cc565b602090810291909101810191909152600085815260119091526040812001548160018151811061309b5761309b6140cc565b60209081029190910181019190915260008481526011909152604081200154816002815181106130cd576130cd6140cc565b60209081029190910181019190915260008681526011909152604090206001015481600381518110613101576131016140cc565b60209081029190910181019190915260008581526011909152604090206001015481600481518110613135576131356140cc565b60209081029190910181019190915260008481526011909152604090206001015481600581518110613169576131696140cc565b6020908102919091018101919091526000868152601190915260409020600201548160068151811061319d5761319d6140cc565b602090810291909101810191909152600085815260119091526040902060020154816007815181106131d1576131d16140cc565b60209081029190910181019190915260008481526011909152604090206002015481600881518110613205576132056140cc565b602002602001018181525050600061322b828460ff1681518110612e6a57612e6a6140cc565b600087815260106020526040902054613245906064614269565b61324f919061411d565b604080518082019091526005815264173539b7b760d91b6020820152909150600061327983612c4d565b8260405160200161328b929190614150565b60405160208183030381529060405290506132a689826137b9565b6040805160608101825289815260208082018a9052818301899052600c5460009081526011909152919091206132dd916003613bfc565b50600c5460009081526011602090815260409182902082516060810193849052815481526133679390926003919060018401908501808311612f6157505050505080516000908152601260209081526040808320805460ff199081166001908117909255928501518452818420805484168217905593810151835290912080549091169091179055565b5050600c805460009081526010602090815260408083209490945582548252600f81528382208054600360ff1991821617909155988252600e9052828120549154815291909120805490961660ff9091161515179094555050505050565b600181111561343c5760405162461bcd60e51b815260206004820152603560248201527f455243373231456e756d657261626c653a20636f6e736563757469766520747260448201527f616e7366657273206e6f7420737570706f72746564000000000000000000000060648201526084016108b1565b816001600160a01b0385166134985761349381600880546000838152600960205260408120829055600182018355919091527ff3f7a9fe364faab93b216da50a3214154f22a0a2b415b23a84c8169e8b636ee30155565b6134bb565b836001600160a01b0316856001600160a01b0316146134bb576134bb8582613815565b6001600160a01b0384166134d7576134d2816138b2565b6134fa565b846001600160a01b0316846001600160a01b0316146134fa576134fa8482613961565b5050505050565b60006001600160a01b0384163b1561364e57604051630a85bd0160e11b81526001600160a01b0385169063150b7a0290613545903390899088908890600401614288565b602060405180830381600087803b15801561355f57600080fd5b505af192505050801561358f575060408051601f3d908101601f1916820190925261358c918101906142c4565b60015b613634573d8080156135bd576040519150601f19603f3d011682016040523d82523d6000602084013e6135c2565b606091505b50805161362c5760405162461bcd60e51b815260206004820152603260248201527f4552433732313a207472616e7366657220746f206e6f6e20455243373231526560448201527131b2b4bb32b91034b6b83632b6b2b73a32b960711b60648201526084016108b1565b805181602001fd5b6001600160e01b031916630a85bd0160e11b14905061291d565b506001949350505050565b61366383836139a5565b6136706000848484613501565b6109525760405162461bcd60e51b815260206004820152603260248201527f4552433732313a207472616e7366657220746f206e6f6e20455243373231526560448201527131b2b4bb32b91034b6b83632b6b2b73a32b960711b60648201526084016108b1565b6000807a184f03e93ff9f4daa797ed6e38ed64bf6a1f0100000000000000008310613720577a184f03e93ff9f4daa797ed6e38ed64bf6a1f010000000000000000830492506040015b6d04ee2d6d415b85acef8100000000831061374c576d04ee2d6d415b85acef8100000000830492506020015b662386f26fc10000831061376a57662386f26fc10000830492506010015b6305f5e1008310613782576305f5e100830492506008015b612710831061379657612710830492506004015b606483106137a8576064830492506002015b600a831061077d5760010192915050565b6000600c5460016137ca919061411d565b90506137d68382612c33565b6000818152600a60209081526040909120835184926137f9929190840190613b3e565b50600c805490600061380a83614135565b919050555050505050565b6000600161382284611b1c565b61382c91906141a1565b60008381526007602052604090205490915080821461387f576001600160a01b03841660009081526006602090815260408083208584528252808320548484528184208190558352600790915290208190555b5060009182526007602090815260408084208490556001600160a01b039094168352600681528383209183525290812055565b6008546000906138c4906001906141a1565b600083815260096020526040812054600880549394509092849081106138ec576138ec6140cc565b90600052602060002001549050806008838154811061390d5761390d6140cc565b6000918252602080832090910192909255828152600990915260408082208490558582528120556008805480613945576139456142e1565b6001900381819060005260206000200160009055905550505050565b600061396c83611b1c565b6001600160a01b039093166000908152600660209081526040808320868452825280832085905593825260079052919091209190915550565b6001600160a01b0382166139fb5760405162461bcd60e51b815260206004820181905260248201527f4552433732313a206d696e7420746f20746865207a65726f206164647265737360448201526064016108b1565b6000818152600260205260409020546001600160a01b031615613a605760405162461bcd60e51b815260206004820152601c60248201527f4552433732313a20746f6b656e20616c7265616479206d696e7465640000000060448201526064016108b1565b613a6e6000838360016133c5565b6000818152600260205260409020546001600160a01b031615613ad35760405162461bcd60e51b815260206004820152601c60248201527f4552433732313a20746f6b656e20616c7265616479206d696e7465640000000060448201526064016108b1565b6001600160a01b038216600081815260036020908152604080832080546001019055848352600290915280822080546001600160a01b0319168417905551839291907fddf252ad1be2c89b69c2b068fc378daa952ba7f163c4a11628f55a4df523b3ef908290a45050565b828054613b4a90614091565b90600052602060002090601f016020900481019282613b6c5760008555613bb2565b82601f10613b8557805160ff1916838001178555613bb2565b82800160010185558215613bb2579182015b82811115613bb2578251825591602001919060010190613b97565b50613bbe929150613c29565b5090565b508054613bce90614091565b6000825580601f10613bde575050565b601f0160209004906000526020600020908101906113379190613c29565b8260038101928215613bb25791602002820182811115613bb2578251825591602001919060010190613b97565b5b80821115613bbe5760008155600101613c2a565b6001600160e01b03198116811461133757600080fd5b600060208284031215613c6657600080fd5b8135613c7181613c3e565b9392505050565b600060208284031215613c8a57600080fd5b5035919050565b60005b83811015613cac578181015183820152602001613c94565b83811115611f205750506000910152565b60008151808452613cd5816020860160208601613c91565b601f01601f19169290920160200192915050565b602081526000613c716020830184613cbd565b6001600160a01b038116811461133757600080fd5b60008060408385031215613d2457600080fd5b8235613d2f81613cfc565b946020939093013593505050565b600080600060608486031215613d5257600080fd5b8335613d5d81613cfc565b92506020840135613d6d81613cfc565b929592945050506040919091013590565b6020808252825182820181905260009190848201906040850190845b81811015613db657835183529284019291840191600101613d9a565b50909695505050505050565b634e487b7160e01b600052604160045260246000fd5b600067ffffffffffffffff80841115613df357613df3613dc2565b604051601f8501601f19908116603f01168101908282118183101715613e1b57613e1b613dc2565b81604052809350858152868686011115613e3457600080fd5b858560208301376000602087830101525050509392505050565b600060208284031215613e6057600080fd5b813567ffffffffffffffff811115613e7757600080fd5b8201601f81018413613e8857600080fd5b61291d84823560208401613dd8565b60008060408385031215613eaa57600080fd5b50508035926020909101359150565b602080825282518282018190526000919060409081850190868401855b82811015613f34578151805185528681015187860152858101516001600160a01b0390811687870152606080830151909116908601526080808201519086015260a09081015115159085015260c09093019290850190600101613ed6565b5091979650505050505050565b600060208284031215613f5357600080fd5b8135613c7181613cfc565b60008060408385031215613f7157600080fd5b8235613f7c81613cfc565b915060208301358015158114613f9157600080fd5b809150509250929050565b60008060008060808587031215613fb257600080fd5b8435613fbd81613cfc565b93506020850135613fcd81613cfc565b925060408501359150606085013567ffffffffffffffff811115613ff057600080fd5b8501601f8101871361400157600080fd5b61401087823560208401613dd8565b91505092959194509250565b6000806000806080858703121561403257600080fd5b843593506020850135925060408501359150606085013560ff8116811461405857600080fd5b939692955090935050565b6000806040838503121561407657600080fd5b823561408181613cfc565b91506020830135613f9181613cfc565b600181811c908216806140a557607f821691505b602082108114156140c657634e487b7160e01b600052602260045260246000fd5b50919050565b634e487b7160e01b600052603260045260246000fd5b634e487b7160e01b600052601160045260246000fd5b600060ff821660ff84168060ff03821115614115576141156140e2565b019392505050565b60008219821115614130576141306140e2565b500190565b6000600019821415614149576141496140e2565b5060010190565b60008351614162818460208801613c91565b835190830190614176818360208801613c91565b01949350505050565b60008261419c57634e487b7160e01b600052601260045260246000fd5b500490565b6000828210156141b3576141b36140e2565b500390565b6000835160206141cb8285838901613c91565b845491840191600090600181811c90808316806141e957607f831692505b85831081141561420757634e487b7160e01b85526022600452602485fd5b80801561421b576001811461422c57614259565b60ff19851688528388019550614259565b60008b81526020902060005b858110156142515781548a820152908401908801614238565b505083880195505b50939a9950505050505050505050565b6000816000190483118215151615614283576142836140e2565b500290565b60006001600160a01b038087168352808616602084015250836040830152608060608301526142ba6080830184613cbd565b9695505050505050565b6000602082840312156142d657600080fd5b8151613c7181613c3e565b634e487b7160e01b600052603160045260246000fdfea264697066735822122095c5d7cd30c90c36f377035d687bddff5994eb9ad1ab38b0f020b153de91624f64736f6c63430008090033",
  "linkReferences": {},
  "deployedLinkReferences": {}
}