{
  "_format": "hh-sol-artifact-1",
  "contractName": "InnomicNFT",
  "sourceName": "blockchain/contracts/InnomicNFT.sol",
  "abi": [
    {
      "inputs": [
        {
          "internalType": "string",
          "name": "name_",
          "type": "string"
        },
        {
          "internalType": "string",
          "name": "symbol_",
          "type": "string"
        },
        {
          "internalType": "string",
          "name": "newBaseURI",
          "type": "string"
        }
      ],
      "stateMutability": "nonpayable",
      "type": "constructor"
    },
    {
      "anonymous": false,
      "inputs": [
        {
          "indexed": true,
          "internalType": "address",
          "name": "owner",
          "type": "address"
        },
        {
          "indexed": true,
          "internalType": "address",
          "name": "approved",
          "type": "address"
        },
        {
          "indexed": true,
          "internalType": "uint256",
          "name": "tokenId",
          "type": "uint256"
        }
      ],
      "name": "Approval",
      "type": "event"
    },
    {
      "anonymous": false,
      "inputs": [
        {
          "indexed": true,
          "internalType": "address",
          "name": "owner",
          "type": "address"
        },
        {
          "indexed": true,
          "internalType": "address",
          "name": "operator",
          "type": "address"
        },
        {
          "indexed": false,
          "internalType": "bool",
          "name": "approved",
          "type": "bool"
        }
      ],
      "name": "ApprovalForAll",
      "type": "event"
    },
    {
      "anonymous": false,
      "inputs": [
        {
          "indexed": true,
          "internalType": "uint256",
          "name": "itemId",
          "type": "uint256"
        },
        {
          "indexed": true,
          "internalType": "uint256",
          "name": "tokenId",
          "type": "uint256"
        },
        {
          "indexed": false,
          "internalType": "address",
          "name": "seller",
          "type": "address"
        },
        {
          "indexed": false,
          "internalType": "address",
          "name": "owner",
          "type": "address"
        },
        {
          "indexed": false,
          "internalType": "uint256",
          "name": "price",
          "type": "uint256"
        },
        {
          "indexed": false,
          "internalType": "bool",
          "name": "sold",
          "type": "bool"
        }
      ],
      "name": "MarketItemCreated",
      "type": "event"
    },
    {
      "anonymous": false,
      "inputs": [
        {
          "indexed": true,
          "internalType": "uint256",
          "name": "itemId",
          "type": "uint256"
        },
        {
          "indexed": true,
          "internalType": "uint256",
          "name": "tokenId",
          "type": "uint256"
        },
        {
          "indexed": false,
          "internalType": "address",
          "name": "seller",
          "type": "address"
        },
        {
          "indexed": false,
          "internalType": "address",
          "name": "owner",
          "type": "address"
        },
        {
          "indexed": false,
          "internalType": "uint256",
          "name": "price",
          "type": "uint256"
        }
      ],
      "name": "MarketItemSold",
      "type": "event"
    },
    {
      "anonymous": false,
      "inputs": [
        {
          "indexed": true,
          "internalType": "address",
          "name": "from",
          "type": "address"
        },
        {
          "indexed": true,
          "internalType": "address",
          "name": "to",
          "type": "address"
        },
        {
          "indexed": true,
          "internalType": "uint256",
          "name": "tokenId",
          "type": "uint256"
        }
      ],
      "name": "Transfer",
      "type": "event"
    },
    {
      "inputs": [
        {
          "internalType": "address",
          "name": "to",
          "type": "address"
        },
        {
          "internalType": "uint256",
          "name": "URInum",
          "type": "uint256"
        }
      ],
      "name": "_mintTokenAllowedToEarn",
      "outputs": [],
      "stateMutability": "nonpayable",
      "type": "function"
    },
    {
      "inputs": [
        {
          "internalType": "address",
          "name": "to",
          "type": "address"
        },
        {
          "internalType": "uint256",
          "name": "URInum",
          "type": "uint256"
        }
      ],
      "name": "_mintTokenNotAllowedToEarn",
      "outputs": [],
      "stateMutability": "nonpayable",
      "type": "function"
    },
    {
      "inputs": [
        {
          "internalType": "address",
          "name": "to",
          "type": "address"
        },
        {
          "internalType": "uint256",
          "name": "tokenId",
          "type": "uint256"
        }
      ],
      "name": "_safeTransfer",
      "outputs": [],
      "stateMutability": "nonpayable",
      "type": "function"
    },
    {
      "inputs": [
        {
          "internalType": "address",
          "name": "to",
          "type": "address"
        },
        {
          "internalType": "uint256",
          "name": "tokenId",
          "type": "uint256"
        }
      ],
      "name": "_safeTransferPool",
      "outputs": [],
      "stateMutability": "nonpayable",
      "type": "function"
    },
    {
      "inputs": [
        {
          "internalType": "string",
          "name": "newBaseURI",
          "type": "string"
        }
      ],
      "name": "_setBaseURI",
      "outputs": [],
      "stateMutability": "nonpayable",
      "type": "function"
    },
    {
      "inputs": [
        {
          "internalType": "uint256",
          "name": "newlimite",
          "type": "uint256"
        }
      ],
      "name": "_setlimite",
      "outputs": [],
      "stateMutability": "nonpayable",
      "type": "function"
    },
    {
      "inputs": [
        {
          "internalType": "address",
          "name": "to",
          "type": "address"
        },
        {
          "internalType": "uint256",
          "name": "tokenId",
          "type": "uint256"
        }
      ],
      "name": "approve",
      "outputs": [],
      "stateMutability": "nonpayable",
      "type": "function"
    },
    {
      "inputs": [],
      "name": "balance",
      "outputs": [
        {
          "internalType": "uint256",
          "name": "",
          "type": "uint256"
        }
      ],
      "stateMutability": "view",
      "type": "function"
    },
    {
      "inputs": [
        {
          "internalType": "address",
          "name": "owner",
          "type": "address"
        }
      ],
      "name": "balanceOf",
      "outputs": [
        {
          "internalType": "uint256",
          "name": "",
          "type": "uint256"
        }
      ],
      "stateMutability": "view",
      "type": "function"
    },
    {
      "inputs": [
        {
          "internalType": "uint256",
          "name": "tokenId",
          "type": "uint256"
        }
      ],
      "name": "burn",
      "outputs": [],
      "stateMutability": "nonpayable",
      "type": "function"
    },
    {
      "inputs": [
        {
          "internalType": "uint256",
          "name": "tokenId",
          "type": "uint256"
        }
      ],
      "name": "claseToken",
      "outputs": [
        {
          "internalType": "uint256",
          "name": "",
          "type": "uint256"
        }
      ],
      "stateMutability": "view",
      "type": "function"
    },
    {
      "inputs": [
        {
          "internalType": "uint256",
          "name": "tokenId",
          "type": "uint256"
        },
        {
          "internalType": "uint256",
          "name": "price",
          "type": "uint256"
        }
      ],
      "name": "createMarketItem",
      "outputs": [],
      "stateMutability": "payable",
      "type": "function"
    },
    {
      "inputs": [
        {
          "internalType": "uint256",
          "name": "itemId",
          "type": "uint256"
        }
      ],
      "name": "createMarketSale",
      "outputs": [],
      "stateMutability": "payable",
      "type": "function"
    },
    {
      "inputs": [
        {
          "internalType": "uint256",
          "name": "tokenId",
          "type": "uint256"
        }
      ],
      "name": "downgrade",
      "outputs": [],
      "stateMutability": "nonpayable",
      "type": "function"
    },
    {
      "inputs": [],
      "name": "fetchUnSoldMarketItems",
      "outputs": [
        {
          "internalType": "uint256",
          "name": "",
          "type": "uint256"
        }
      ],
      "stateMutability": "view",
      "type": "function"
    },
    {
      "inputs": [],
      "name": "getAllNFTs",
      "outputs": [
        {
          "internalType": "uint256[]",
          "name": "",
          "type": "uint256[]"
        }
      ],
      "stateMutability": "view",
      "type": "function"
    },
    {
      "inputs": [
        {
          "internalType": "uint256",
          "name": "tokenId",
          "type": "uint256"
        }
      ],
      "name": "getApproved",
      "outputs": [
        {
          "internalType": "address",
          "name": "",
          "type": "address"
        }
      ],
      "stateMutability": "view",
      "type": "function"
    },
    {
      "inputs": [
        {
          "internalType": "uint256",
          "name": "tokenId",
          "type": "uint256"
        }
      ],
      "name": "getParents",
      "outputs": [
        {
          "internalType": "uint256[]",
          "name": "",
          "type": "uint256[]"
        }
      ],
      "stateMutability": "view",
      "type": "function"
    },
    {
      "inputs": [
        {
          "internalType": "uint256",
          "name": "tokenId",
          "type": "uint256"
        }
      ],
      "name": "getUnFusioned",
      "outputs": [
        {
          "internalType": "uint8",
          "name": "",
          "type": "uint8"
        }
      ],
      "stateMutability": "view",
      "type": "function"
    },
    {
      "inputs": [
        {
          "internalType": "uint256",
          "name": "tokenId",
          "type": "uint256"
        }
      ],
      "name": "isAllowedToEarn",
      "outputs": [
        {
          "internalType": "bool",
          "name": "",
          "type": "bool"
        }
      ],
      "stateMutability": "view",
      "type": "function"
    },
    {
      "inputs": [
        {
          "internalType": "address",
          "name": "owner",
          "type": "address"
        },
        {
          "internalType": "address",
          "name": "operator",
          "type": "address"
        }
      ],
      "name": "isApprovedForAll",
      "outputs": [
        {
          "internalType": "bool",
          "name": "",
          "type": "bool"
        }
      ],
      "stateMutability": "view",
      "type": "function"
    },
    {
      "inputs": [],
      "name": "limite",
      "outputs": [
        {
          "internalType": "uint256",
          "name": "",
          "type": "uint256"
        }
      ],
      "stateMutability": "view",
      "type": "function"
    },
    {
      "inputs": [],
      "name": "name",
      "outputs": [
        {
          "internalType": "string",
          "name": "",
          "type": "string"
        }
      ],
      "stateMutability": "view",
      "type": "function"
    },
    {
      "inputs": [
        {
          "internalType": "uint256",
          "name": "tokenId",
          "type": "uint256"
        }
      ],
      "name": "ownerOf",
      "outputs": [
        {
          "internalType": "address",
          "name": "",
          "type": "address"
        }
      ],
      "stateMutability": "view",
      "type": "function"
    },
    {
      "inputs": [],
      "name": "poolNFT",
      "outputs": [
        {
          "internalType": "contract PoolNFT",
          "name": "",
          "type": "address"
        }
      ],
      "stateMutability": "view",
      "type": "function"
    },
    {
      "inputs": [
        {
          "internalType": "address",
          "name": "from",
          "type": "address"
        },
        {
          "internalType": "address",
          "name": "to",
          "type": "address"
        },
        {
          "internalType": "uint256",
          "name": "tokenId",
          "type": "uint256"
        }
      ],
      "name": "safeTransferFrom",
      "outputs": [],
      "stateMutability": "nonpayable",
      "type": "function"
    },
    {
      "inputs": [
        {
          "internalType": "address",
          "name": "from",
          "type": "address"
        },
        {
          "internalType": "address",
          "name": "to",
          "type": "address"
        },
        {
          "internalType": "uint256",
          "name": "tokenId",
          "type": "uint256"
        },
        {
          "internalType": "bytes",
          "name": "data",
          "type": "bytes"
        }
      ],
      "name": "safeTransferFrom",
      "outputs": [],
      "stateMutability": "nonpayable",
      "type": "function"
    },
    {
      "inputs": [
        {
          "internalType": "address",
          "name": "operator",
          "type": "address"
        },
        {
          "internalType": "bool",
          "name": "approved",
          "type": "bool"
        }
      ],
      "name": "setApprovalForAll",
      "outputs": [],
      "stateMutability": "nonpayable",
      "type": "function"
    },
    {
      "inputs": [
        {
          "internalType": "address",
          "name": "poola",
          "type": "address"
        },
        {
          "internalType": "contract PoolNFT",
          "name": "pool",
          "type": "address"
        }
      ],
      "name": "setPoolNFT",
      "outputs": [],
      "stateMutability": "nonpayable",
      "type": "function"
    },
    {
      "inputs": [
        {
          "internalType": "bytes4",
          "name": "interfaceId",
          "type": "bytes4"
        }
      ],
      "name": "supportsInterface",
      "outputs": [
        {
          "internalType": "bool",
          "name": "",
          "type": "bool"
        }
      ],
      "stateMutability": "view",
      "type": "function"
    },
    {
      "inputs": [],
      "name": "symbol",
      "outputs": [
        {
          "internalType": "string",
          "name": "",
          "type": "string"
        }
      ],
      "stateMutability": "view",
      "type": "function"
    },
    {
      "inputs": [
        {
          "internalType": "uint256",
          "name": "index",
          "type": "uint256"
        }
      ],
      "name": "tokenByIndex",
      "outputs": [
        {
          "internalType": "uint256",
          "name": "",
          "type": "uint256"
        }
      ],
      "stateMutability": "view",
      "type": "function"
    },
    {
      "inputs": [
        {
          "internalType": "address",
          "name": "owner",
          "type": "address"
        },
        {
          "internalType": "uint256",
          "name": "index",
          "type": "uint256"
        }
      ],
      "name": "tokenOfOwnerByIndex",
      "outputs": [
        {
          "internalType": "uint256",
          "name": "",
          "type": "uint256"
        }
      ],
      "stateMutability": "view",
      "type": "function"
    },
    {
      "inputs": [
        {
          "internalType": "uint256",
          "name": "tokenId",
          "type": "uint256"
        }
      ],
      "name": "tokenURI",
      "outputs": [
        {
          "internalType": "string",
          "name": "",
          "type": "string"
        }
      ],
      "stateMutability": "view",
      "type": "function"
    },
    {
      "inputs": [],
      "name": "totalSupply",
      "outputs": [
        {
          "internalType": "uint256",
          "name": "",
          "type": "uint256"
        }
      ],
      "stateMutability": "view",
      "type": "function"
    },
    {
      "inputs": [
        {
          "internalType": "address",
          "name": "from",
          "type": "address"
        },
        {
          "internalType": "address",
          "name": "to",
          "type": "address"
        },
        {
          "internalType": "uint256",
          "name": "tokenId",
          "type": "uint256"
        }
      ],
      "name": "transferFrom",
      "outputs": [],
      "stateMutability": "nonpayable",
      "type": "function"
    },
    {
      "inputs": [
        {
          "internalType": "uint256",
          "name": "itemId",
          "type": "uint256"
        }
      ],
      "name": "unListMarketItem",
      "outputs": [],
      "stateMutability": "payable",
      "type": "function"
    },
    {
      "inputs": [
        {
          "internalType": "uint256",
          "name": "tokenId1",
          "type": "uint256"
        },
        {
          "internalType": "uint256",
          "name": "tokenId2",
          "type": "uint256"
        },
        {
          "internalType": "uint256",
          "name": "tokenId3",
          "type": "uint256"
        },
        {
          "internalType": "uint8",
          "name": "num",
          "type": "uint8"
        }
      ],
      "name": "upgrade",
      "outputs": [],
      "stateMutability": "nonpayable",
      "type": "function"
    }
  ],
  "bytecode": "0x60806040526064600d556014601a553480156200001b57600080fd5b5060405162004730380380620047308339810160408190526200003e9162000215565b82518390839062000057906000906020850190620000a2565b5080516200006d906001906020840190620000a2565b50508151620000859150600b906020840190620000a2565b5050601980546001600160a01b0319163317905550620002e39050565b828054620000b090620002a6565b90600052602060002090601f016020900481019282620000d457600085556200011f565b82601f10620000ef57805160ff19168380011785556200011f565b828001600101855582156200011f579182015b828111156200011f57825182559160200191906001019062000102565b506200012d92915062000131565b5090565b5b808211156200012d576000815560010162000132565b634e487b7160e01b600052604160045260246000fd5b600082601f8301126200017057600080fd5b81516001600160401b03808211156200018d576200018d62000148565b604051601f8301601f19908116603f01168101908282118183101715620001b857620001b862000148565b81604052838152602092508683858801011115620001d557600080fd5b600091505b83821015620001f95785820183015181830184015290820190620001da565b838211156200020b5760008385830101525b9695505050505050565b6000806000606084860312156200022b57600080fd5b83516001600160401b03808211156200024357600080fd5b62000251878388016200015e565b945060208601519150808211156200026857600080fd5b62000276878388016200015e565b935060408601519150808211156200028d57600080fd5b506200029c868287016200015e565b9150509250925092565b600181811c90821680620002bb57607f821691505b60208210811415620002dd57634e487b7160e01b600052602260045260246000fd5b50919050565b61443d80620002f36000396000f3fe6080604052600436106102855760003560e01c806370a0823111610153578063b69ef8a8116100cb578063dbab65ee1161007f578063e985e9c511610064578063e985e9c5146106f9578063f202dc2e14610742578063f48422571461076257600080fd5b8063dbab65ee146106c4578063e0391b09146106e457600080fd5b8063be9af536116100b0578063be9af53614610671578063c4f8210e14610684578063c87b56dd146106a457600080fd5b8063b69ef8a81461063c578063b88d4fde1461065157600080fd5b806395d89b4111610122578063a22cb46511610107578063a22cb465146105e9578063a632273614610609578063b69868af1461062957600080fd5b806395d89b41146105b4578063a0b49778146105c957600080fd5b806370a08231146105345780637bafd87e1461055457806385dd9033146105745780638c4964eb1461059457600080fd5b8063242a00871161020157806342842e0e116101b55780634e72a6fa1161019a5780634e72a6fa146104c75780634f6ccce7146104f45780636352211e1461051457600080fd5b806342842e0e1461048757806342966c68146104a757600080fd5b806331b5b907116101e657806331b5b9071461043f578063361c19951461045f578063382edbcf1461047257600080fd5b8063242a0087146103f25780632f745c591461041f57600080fd5b8063095ea7b31161025857806318160ddd1161023d57806318160ddd1461039d57806320eb8e53146103bc57806323b872dd146103d257600080fd5b8063095ea7b31461035b57806311bcc81e1461037d57600080fd5b806301ffc9a71461028a578063059f920c146102bf57806306fdde0314610301578063081812fc14610323575b600080fd5b34801561029657600080fd5b506102aa6102a5366004613dec565b6107ab565b60405190151581526020015b60405180910390f35b3480156102cb57600080fd5b506102ef6102da366004613e10565b60009081526013602052604090205460ff1690565b60405160ff90911681526020016102b6565b34801561030d57600080fd5b506103166107ef565b6040516102b69190613e81565b34801561032f57600080fd5b5061034361033e366004613e10565b610881565b6040516001600160a01b0390911681526020016102b6565b34801561036757600080fd5b5061037b610376366004613ea9565b6108a8565b005b34801561038957600080fd5b5061037b610398366004613e10565b6109df565b3480156103a957600080fd5b506008545b6040519081526020016102b6565b3480156103c857600080fd5b506103ae600d5481565b3480156103de57600080fd5b5061037b6103ed366004613ed5565b6113c2565b3480156103fe57600080fd5b5061041261040d366004613e10565b611439565b6040516102b69190613f16565b34801561042b57600080fd5b506103ae61043a366004613ea9565b611549565b34801561044b57600080fd5b5061037b61045a366004613fe6565b6115f1565b61037b61046d36600461402f565b611608565b34801561047e57600080fd5b506103ae6117f6565b34801561049357600080fd5b5061037b6104a2366004613ed5565b611a25565b3480156104b357600080fd5b5061037b6104c2366004613e10565b611a40565b3480156104d357600080fd5b506103ae6104e2366004613e10565b60009081526010602052604090205490565b34801561050057600080fd5b506103ae61050f366004613e10565b611ac9565b34801561052057600080fd5b5061034361052f366004613e10565b611b6d565b34801561054057600080fd5b506103ae61054f366004614051565b611bd2565b34801561056057600080fd5b506102aa61056f366004613e10565b611c6c565b34801561058057600080fd5b5061037b61058f366004613e10565b600d55565b3480156105a057600080fd5b5061037b6105af366004613ea9565b611c8d565b3480156105c057600080fd5b50610316611d7f565b3480156105d557600080fd5b50601554610343906001600160a01b031681565b3480156105f557600080fd5b5061037b61060436600461406e565b611d8e565b34801561061557600080fd5b5061037b610624366004613ea9565b611d99565b61037b610637366004613e10565b611e88565b34801561064857600080fd5b50600c546103ae565b34801561065d57600080fd5b5061037b61066c3660046140ac565b611f88565b61037b61067f366004613e10565b612006565b34801561069057600080fd5b5061037b61069f366004613ea9565b612280565b3480156106b057600080fd5b506103166106bf366004613e10565b6122d4565b3480156106d057600080fd5b5061037b6106df36600461412c565b612320565b3480156106f057600080fd5b506104126127b6565b34801561070557600080fd5b506102aa610714366004614173565b6001600160a01b03918216600090815260056020908152604080832093909416825291909152205460ff1690565b34801561074e57600080fd5b5061037b61075d366004613ea9565b61288f565b34801561076e57600080fd5b5061037b61077d366004614173565b601480546001600160a01b039384166001600160a01b03199182161790915560158054929093169116179055565b60006001600160e01b031982167f780e9d630000000000000000000000000000000000000000000000000000000014806107e957506107e9826128b8565b92915050565b6060600080546107fe906141a1565b80601f016020809104026020016040519081016040528092919081815260200182805461082a906141a1565b80156108775780601f1061084c57610100808354040283529160200191610877565b820191906000526020600020905b81548152906001019060200180831161085a57829003601f168201915b5050505050905090565b600061088c82612953565b506000908152600460205260409020546001600160a01b031690565b60006108b382611b6d565b9050806001600160a01b0316836001600160a01b031614156109425760405162461bcd60e51b815260206004820152602160248201527f4552433732313a20617070726f76616c20746f2063757272656e74206f776e6560448201527f720000000000000000000000000000000000000000000000000000000000000060648201526084015b60405180910390fd5b336001600160a01b038216148061095e575061095e8133610714565b6109d05760405162461bcd60e51b815260206004820152603d60248201527f4552433732313a20617070726f76652063616c6c6572206973206e6f7420746f60448201527f6b656e206f776e6572206f7220617070726f76656420666f7220616c6c0000006064820152608401610939565b6109da83836129b7565b505050565b6000818152600f6020526040902054600160ff90911611610a2c5760405162461bcd60e51b815260206004820152600760248201526611549497d3159360ca1b6044820152606401610939565b33610a3682611b6d565b6001600160a01b031614610a755760405162461bcd60e51b81526020600482015260066024820152654552525f4f5760d01b6044820152606401610939565b60008181526011602081815260408084208054855260128352818520805460ff19908116909155600182015486528286208054821690556002820154865282862080549091169055601554868652939092529054815163d058e43760e01b8152600481019190915233602482015290516001600160a01b039092169263d058e4379260448084019382900301818387803b158015610b1257600080fd5b505af1158015610b26573d6000803e3d6000fd5b50506015546000848152601160205260409081902060010154905163d058e43760e01b815260048101919091523360248201526001600160a01b03909116925063d058e4379150604401600060405180830381600087803b158015610b8a57600080fd5b505af1158015610b9e573d6000803e3d6000fd5b50506015546000848152601160205260409081902060020154905163d058e43760e01b815260048101919091523360248201526001600160a01b03909116925063d058e4379150604401600060405180830381600087803b158015610c0257600080fd5b505af1158015610c16573d6000803e3d6000fd5b505060155460008481526011602052604090819020549051631d9f985560e11b815260048101919091523360248201526001600160a01b039091169250633b3f30aa9150604401600060405180830381600087803b158015610c7757600080fd5b505af1158015610c8b573d6000803e3d6000fd5b505060155460008481526011602052604090819020600101549051631d9f985560e11b815260048101919091523360248201526001600160a01b039091169250633b3f30aa9150604401600060405180830381600087803b158015610cef57600080fd5b505af1158015610d03573d6000803e3d6000fd5b505060155460008481526011602052604090819020600201549051631d9f985560e11b815260048101919091523360248201526001600160a01b039091169250633b3f30aa9150604401600060405180830381600087803b158015610d6757600080fd5b505af1158015610d7b573d6000803e3d6000fd5b5050506000828152600f602052604090205460ff16600214159050610f005760008181526011602090815260408083205483526013909152902054600560ff9091161015610e0b57600081815260116020908152604080832054835260139091528120805460019290610df290849060ff16614208565b92506101000a81548160ff021916908360ff1602179055505b60008181526011602090815260408083206001015483526013909152902054600560ff9091161015610e84576000818152601160209081526040808320600190810154845260139092528220805491929091610e6b90849060ff16614208565b92506101000a81548160ff021916908360ff1602179055505b60008181526011602090815260408083206002015483526013909152902054600560ff9091161015610efb57600081815260116020908152604080832060020154835260139091528120805460019290610ee290849060ff16614208565b92506101000a81548160ff021916908360ff1602179055505b6113b6565b60008181526011602090815260408083205483528083205483526013909152902054600560ff9091161015610f7d57600081815260116020908152604080832054835280832054835260139091528120805460019290610f6490849060ff16614208565b92506101000a81548160ff021916908360ff1602179055505b60008181526011602090815260408083205483528083206001015483526013909152902054600560ff9091161015611002576000818152601160209081526040808320548352808320600190810154845260139092528220805491929091610fe990849060ff16614208565b92506101000a81548160ff021916908360ff1602179055505b60008181526011602090815260408083205483528083206002015483526013909152902054600560ff90911610156110855760008181526011602090815260408083205483528083206002015483526013909152812080546001929061106c90849060ff16614208565b92506101000a81548160ff021916908360ff1602179055505b60008181526011602090815260408083206001015483528083205483526013909152902054600560ff909116101561110a5760008181526011602090815260408083206001908101548452818420548452601390925282208054919290916110f190849060ff16614208565b92506101000a81548160ff021916908360ff1602179055505b60008181526011602090815260408083206001908101548452818420015483526013909152902054600560ff9091161015611194576000818152601160209081526040808320600190810154845281842081015484526013909252822080549192909161117b90849060ff16614208565b92506101000a81548160ff021916908360ff1602179055505b60008181526011602090815260408083206001015483528083206002015483526013909152902054600560ff909116101561121f57600081815260116020908152604080832060019081015484528184206002015484526013909252822080549192909161120690849060ff16614208565b92506101000a81548160ff021916908360ff1602179055505b60008181526011602090815260408083206002015483528083205483526013909152902054600560ff90911610156112a25760008181526011602090815260408083206002015483528083205483526013909152812080546001929061128990849060ff16614208565b92506101000a81548160ff021916908360ff1602179055505b60008181526011602090815260408083206002015483528083206001015483526013909152902054600560ff909116101561132d57600081815260116020908152604080832060020154835280832060019081015484526013909252822080549192909161131490849060ff16614208565b92506101000a81548160ff021916908360ff1602179055505b60008181526011602090815260408083206002908101548452818420015483526013909152902054600560ff90911610156113b65760008181526011602090815260408083206002908101548452818420015483526013909152812080546001929061139d90849060ff16614208565b92506101000a81548160ff021916908360ff1602179055505b6113bf81611a89565b50565b6113cc3382612a25565b61142e5760405162461bcd60e51b815260206004820152602d60248201527f4552433732313a2063616c6c6572206973206e6f7420746f6b656e206f776e6560448201526c1c881bdc88185c1c1c9bdd9959609a1b6064820152608401610939565b6109da838383612aa4565b6000818152600f6020526040902054606090600160ff909116116114895760405162461bcd60e51b815260206004820152600760248201526611549497d3159360ca1b6044820152606401610939565b60408051600380825260808201909252600091602082016060803683370190505060008481526011602052604081209192500154816000815181106114d0576114d06141dc565b60209081029190910181019190915260008481526011909152604090206001015481600181518110611504576115046141dc565b60209081029190910181019190915260008481526011909152604090206002015481600281518110611538576115386141dc565b602090810291909101015292915050565b600061155483611bd2565b82106115c85760405162461bcd60e51b815260206004820152602b60248201527f455243373231456e756d657261626c653a206f776e657220696e646578206f7560448201527f74206f6620626f756e64730000000000000000000000000000000000000000006064820152608401610939565b506001600160a01b03919091166000908152600660209081526040808320938352929052205490565b805161160490600b906020840190613cd6565b5050565b600081116116585760405162461bcd60e51b815260206004820152600660248201527f4552525f505200000000000000000000000000000000000000000000000000006044820152606401610939565b611666601780546001019055565b600061167160175490565b6040805160c081018252828152602080820187815233838501818152601480546001600160a01b0390811660608801908152608088018c8152600060a08a018181528c8252601b8a528b82209a518b55975160018b0155945160028a0180549185166001600160a01b0319928316179055915160038a018054918516919093161790915551600488015593516005909601805496151560ff199097169690961790955593548551938401909552928252939450611735939192909116908690612caa565b60155460405163d058e43760e01b8152600481018590523360248201526001600160a01b039091169063d058e43790604401600060405180830381600087803b15801561178157600080fd5b505af1158015611795573d6000803e3d6000fd5b5050601454604080513381526001600160a01b0390921660208301528101859052600060608201528592508391507f4a29ff6f650682addfdf8030b3eeb4610ec651b42d8603f2527633347f9489c9906080015b60405180910390a3505050565b60008061180260175490565b905060008060005b8381101561189f57601b600061182183600161422d565b815260208101919091526040016000206005015460ff1615801561187a57506014546001600160a01b0316601b600061185b84600161422d565b81526020810191909152604001600020600301546001600160a01b0316145b1561188d5761188a60018461422d565b92505b8061189781614245565b91505061180a565b5060008267ffffffffffffffff8111156118bb576118bb613f5a565b60405190808252806020026020018201604052801561191b57816020015b6040805160c08101825260008082526020808301829052928201819052606082018190526080820181905260a082015282526000199092019101816118d95790505b50905060005b848110156119fc57600061193682600161422d565b6014546000828152601b60205260409020600301549192506001600160a01b03918216911614156119e9576000818152601b6020908152604091829020825160c0810184528154815260018201549281019290925260028101546001600160a01b03908116938301939093526003810154909216606082015260048201546080820152600582015460ff16151560a082015284518590879081106119dc576119dc6141dc565b6020026020010181905250505b50806119f481614245565b915050611921565b5080600081518110611a1057611a106141dc565b60200260200101516020015194505050505090565b6109da83838360405180602001604052806000815250611f88565b33611a4a82611b6d565b6001600160a01b031614611a895760405162461bcd60e51b81526020600482015260066024820152654552525f4f5760d01b6044820152606401610939565b611a9281612d28565b6000818152600a602052604090208054611aab906141a1565b1590506113bf576000818152600a602052604081206113bf91613d5a565b6000611ad460085490565b8210611b485760405162461bcd60e51b815260206004820152602c60248201527f455243373231456e756d657261626c653a20676c6f62616c20696e646578206f60448201527f7574206f6620626f756e647300000000000000000000000000000000000000006064820152608401610939565b60088281548110611b5b57611b5b6141dc565b90600052602060002001549050919050565b6000818152600260205260408120546001600160a01b0316806107e95760405162461bcd60e51b815260206004820152601860248201527f4552433732313a20696e76616c696420746f6b656e20494400000000000000006044820152606401610939565b60006001600160a01b038216611c505760405162461bcd60e51b815260206004820152602960248201527f4552433732313a2061646472657373207a65726f206973206e6f74206120766160448201527f6c6964206f776e657200000000000000000000000000000000000000000000006064820152608401610939565b506001600160a01b031660009081526003602052604090205490565b6000611c7782612953565b506000908152600e602052604090205460ff1690565b6000600c546001611c9e919061422d565b9050611caa8382612dcb565b604080518082019091526005815264173539b7b760d91b60208201526000611cd184612de5565b82604051602001611ce3929190614260565b60408051601f198184030181529181526000858152600a60209081529190208251929350611d15929091840190613cd6565b506000838152601060209081526040808320879055600f8252808320805460ff199081166001179091556013909252822080549091169055600c805491611d5b83614245565b909155505050600091825250600e60205260409020805460ff191660011790555050565b6060600180546107fe906141a1565b611604338383612e8f565b6000600c546001611daa919061422d565b9050611db68382612dcb565b604080518082019091526005815264173539b7b760d91b60208201526000611ddd84612de5565b82604051602001611def929190614260565b60408051601f198184030181529181526000858152600a60209081529190208251929350611e21929091840190613cd6565b506000838152601060209081526040808320879055600f8252808320805460ff199081166001179091556013909252822080549091169055600c805491611e6783614245565b909155505050600091825250600e60205260409020805460ff191690555050565b6000818152601b60205260409020600201546001600160a01b03163314611ef15760405162461bcd60e51b815260206004820152600760248201527f4552525f53454c000000000000000000000000000000000000000000000000006044820152606401610939565b6000818152601b6020526040908190206001810154600390910180546001600160a01b031916339081179091556015549251631d9f985560e11b815260048101839052602481019190915290916001600160a01b031690633b3f30aa906044015b600060405180830381600087803b158015611f6c57600080fd5b505af1158015611f80573d6000803e3d6000fd5b505050505050565b611f923383612a25565b611ff45760405162461bcd60e51b815260206004820152602d60248201527f4552433732313a2063616c6c6572206973206e6f7420746f6b656e206f776e6560448201526c1c881bdc88185c1c1c9bdd9959609a1b6064820152608401610939565b61200084848484612caa565b50505050565b6000818152601b60205260409020600481015460019091015434821461206e5760405162461bcd60e51b815260206004820152600a60248201527f4552525f4449465f5052000000000000000000000000000000000000000000006044820152606401610939565b601954601a546001600160a01b03909116906108fc9061208e903461428f565b6040518115909202916000818181858888f193505050501580156120b6573d6000803e3d6000fd5b506000838152601b6020526040902060020154601a546001600160a01b03909116906108fc906120e6903461428f565b6120f090346142b1565b6040518115909202916000818181858888f19350505050158015612118573d6000803e3d6000fd5b5060155460405163d058e43760e01b8152600481018390523360248201526001600160a01b039091169063d058e43790604401600060405180830381600087803b15801561216557600080fd5b505af1158015612179573d6000803e3d6000fd5b5050601554604051631d9f985560e11b8152600481018590523360248201526001600160a01b039091169250633b3f30aa9150604401600060405180830381600087803b1580156121c957600080fd5b505af11580156121dd573d6000803e3d6000fd5b5050506000848152601b602052604090206003810180546001600160a01b03191633179055600501805460ff191660011790555061221f601880546001019055565b6000838152601b60209081526040918290206002015482516001600160a01b0390911681523391810191909152908101839052819084907f458478e87af2f8355f5200460431fb85259efefed716e75b487251ae55fe04e0906060016117e9565b61229b33838360405180602001604052806000815250612caa565b60155460405163d058e43760e01b8152600481018390526001600160a01b0384811660248301529091169063d058e43790604401611f52565b60606122df82612953565b60006122e9612f56565b6000848152600a60209081526040918290209151612309939291016142c8565b60408051601f198184030181529190529392505050565b6000838152600f60205260408082205486835291205460ff908116911614801561236457506000828152600f60205260408082205486835291205460ff9081169116145b61239a5760405162461bcd60e51b815260206004820152600760248201526611549497d3159360ca1b6044820152606401610939565b6000838152600e60205260408082205486835291205460ff9081161515911615151480156123e657506000828152600e60205260408082205486835291205460ff908116151591161515145b6124325760405162461bcd60e51b815260206004820152600760248201527f4552525f545950000000000000000000000000000000000000000000000000006044820152606401610939565b60008481526012602052604090205460ff16158061245f575060008381526012602052604090205460ff16155b80612479575060008281526012602052604090205460ff16155b6124c55760405162461bcd60e51b815260206004820152600760248201527f4552525f424c4b000000000000000000000000000000000000000000000000006044820152606401610939565b6000848152600f602052604090205460ff16600314156125275760405162461bcd60e51b815260206004820152600860248201527f4552525f4c564c330000000000000000000000000000000000000000000000006044820152606401610939565b61253083611b6d565b6001600160a01b031661254285611b6d565b6001600160a01b0316148015612579575061255c82611b6d565b6001600160a01b031661256e85611b6d565b6001600160a01b0316145b801561259557503361258a85611b6d565b6001600160a01b0316145b6125ca5760405162461bcd60e51b81526020600482015260066024820152654552525f4f5760d01b6044820152606401610939565b6000848152600f602052604090205460ff16600114156125f6576125f13385858585612f65565b612603565b61260333858585856131b8565b60145460408051602081019091526000815261262e9133916001600160a01b03909116908790612caa565b6014546040805160208101909152600081526126599133916001600160a01b03909116908690612caa565b6014546040805160208101909152600081526126849133916001600160a01b03909116908590612caa565b60155460405163d058e43760e01b8152600481018690523360248201526001600160a01b039091169063d058e43790604401600060405180830381600087803b1580156126d057600080fd5b505af11580156126e4573d6000803e3d6000fd5b505060155460405163d058e43760e01b8152600481018790523360248201526001600160a01b03909116925063d058e4379150604401600060405180830381600087803b15801561273457600080fd5b505af1158015612748573d6000803e3d6000fd5b505060155460405163d058e43760e01b8152600481018690523360248201526001600160a01b03909116925063d058e4379150604401600060405180830381600087803b15801561279857600080fd5b505af11580156127ac573d6000803e3d6000fd5b5050505050505050565b60606000600c5467ffffffffffffffff8111156127d5576127d5613f5a565b6040519080825280602002602001820160405280156127fe578160200160208202803683370190505b5090506000805b600c548110156128875761283a61281d82600161422d565b6000908152600260205260409020546001600160a01b0316151590565b156128755761284a81600161422d565b83828151811061285c5761285c6141dc565b60209081029190910101528161287181614245565b9250505b8061287f81614245565b915050612805565b508152919050565b601454604080516020810190915260008152611604916001600160a01b03169084908490612caa565b60006001600160e01b031982167f80ac58cd00000000000000000000000000000000000000000000000000000000148061291b57506001600160e01b031982167f5b5e139f00000000000000000000000000000000000000000000000000000000145b806107e957507f01ffc9a7000000000000000000000000000000000000000000000000000000006001600160e01b03198316146107e9565b6000818152600260205260409020546001600160a01b03166113bf5760405162461bcd60e51b815260206004820152601860248201527f4552433732313a20696e76616c696420746f6b656e20494400000000000000006044820152606401610939565b600081815260046020526040902080546001600160a01b0319166001600160a01b03841690811790915581906129ec82611b6d565b6001600160a01b03167f8c5be1e5ebec7d5bd14f71427d1e84f3dd0314c0f7b2291e5b200ac8c7c3b92560405160405180910390a45050565b600080612a3183611b6d565b9050806001600160a01b0316846001600160a01b03161480612a7857506001600160a01b0380821660009081526005602090815260408083209388168352929052205460ff165b80612a9c5750836001600160a01b0316612a9184610881565b6001600160a01b0316145b949350505050565b826001600160a01b0316612ab782611b6d565b6001600160a01b031614612b1b5760405162461bcd60e51b815260206004820152602560248201527f4552433732313a207472616e736665722066726f6d20696e636f72726563742060448201526437bbb732b960d91b6064820152608401610939565b6001600160a01b038216612b965760405162461bcd60e51b8152602060048201526024808201527f4552433732313a207472616e7366657220746f20746865207a65726f2061646460448201527f72657373000000000000000000000000000000000000000000000000000000006064820152608401610939565b612ba3838383600161355d565b826001600160a01b0316612bb682611b6d565b6001600160a01b031614612c1a5760405162461bcd60e51b815260206004820152602560248201527f4552433732313a207472616e736665722066726f6d20696e636f72726563742060448201526437bbb732b960d91b6064820152608401610939565b600081815260046020908152604080832080546001600160a01b03199081169091556001600160a01b0387811680865260038552838620805460001901905590871680865283862080546001019055868652600290945282852080549092168417909155905184937fddf252ad1be2c89b69c2b068fc378daa952ba7f163c4a11628f55a4df523b3ef91a4505050565b612cb5848484612aa4565b612cc184848484613699565b6120005760405162461bcd60e51b815260206004820152603260248201527f4552433732313a207472616e7366657220746f206e6f6e20455243373231526560448201527131b2b4bb32b91034b6b83632b6b2b73a32b960711b6064820152608401610939565b6000612d3382611b6d565b9050612d4381600084600161355d565b612d4c82611b6d565b600083815260046020908152604080832080546001600160a01b03199081169091556001600160a01b0385168085526003845282852080546000190190558785526002909352818420805490911690555192935084927fddf252ad1be2c89b69c2b068fc378daa952ba7f163c4a11628f55a4df523b3ef908390a45050565b6116048282604051806020016040528060008152506137f1565b60606000612df28361386f565b600101905060008167ffffffffffffffff811115612e1257612e12613f5a565b6040519080825280601f01601f191660200182016040528015612e3c576020820181803683370190505b5090508181016020015b600019017f3031323334353637383961626364656600000000000000000000000000000000600a86061a8153600a8504945084612e8257612e87565b612e46565b509392505050565b816001600160a01b0316836001600160a01b03161415612ef15760405162461bcd60e51b815260206004820152601960248201527f4552433732313a20617070726f766520746f2063616c6c6572000000000000006044820152606401610939565b6001600160a01b03838116600081815260056020908152604080832094871680845294825291829020805460ff191686151590811790915591519182527f17307eab39ab6107e8899845ad3d59bd9653f200f220920489ca2b5937696c3191016117e9565b6060600b80546107fe906141a1565b60408051600380825260808201909252600091602082016060803683370190505090508481600081518110612f9c57612f9c6141dc565b6020026020010181815250508381600181518110612fbc57612fbc6141dc565b6020026020010181815250508281600281518110612fdc57612fdc6141dc565b602002602001018181525050600061301c828460ff1681518110613002576130026141dc565b602002602001015160009081526010602052604090205490565b600087815260106020526040902054613036906064614379565b613040919061422d565b604080518082019091526005815264173539b7b760d91b6020820152909150600061306a83612de5565b8260405160200161307c929190614260565b60405160208183030381529060405290506130978982613951565b6040805160608101825289815260208082018a9052818301899052600c5460009081526011909152919091206130ce916003613d94565b50600c54600090815260116020526040908190208151606081019283905261315a9290919060039082845b8154815260200190600101908083116130f957505050505080516000908152601260209081526040808320805460ff199081166001908117909255928501518452818420805484168217905593810151835290912080549091169091179055565b5050600c805460009081526010602090815260408083209490945582548252600f81528382208054600260ff1991821617909155988252600e9052828120549154815291909120805490961660ff9091161515179094555050505050565b60408051600980825261014082019092526000916020820161012080368337019050506000868152601160205260408120919250015481600081518110613201576132016141dc565b6020908102919091018101919091526000858152601190915260408120015481600181518110613233576132336141dc565b6020908102919091018101919091526000848152601190915260408120015481600281518110613265576132656141dc565b60209081029190910181019190915260008681526011909152604090206001015481600381518110613299576132996141dc565b602090810291909101810191909152600085815260119091526040902060010154816004815181106132cd576132cd6141dc565b60209081029190910181019190915260008481526011909152604090206001015481600581518110613301576133016141dc565b60209081029190910181019190915260008681526011909152604090206002015481600681518110613335576133356141dc565b60209081029190910181019190915260008581526011909152604090206002015481600781518110613369576133696141dc565b6020908102919091018101919091526000848152601190915260409020600201548160088151811061339d5761339d6141dc565b60200260200101818152505060006133c3828460ff1681518110613002576130026141dc565b6000878152601060205260409020546133dd906064614379565b6133e7919061422d565b604080518082019091526005815264173539b7b760d91b6020820152909150600061341183612de5565b82604051602001613423929190614260565b604051602081830303815290604052905061343e8982613951565b6040805160608101825289815260208082018a9052818301899052600c546000908152601190915291909120613475916003613d94565b50600c5460009081526011602090815260409182902082516060810193849052815481526134ff93909260039190600184019085018083116130f957505050505080516000908152601260209081526040808320805460ff199081166001908117909255928501518452818420805484168217905593810151835290912080549091169091179055565b5050600c805460009081526010602090815260408083209490945582548252600f81528382208054600360ff1991821617909155988252600e9052828120549154815291909120805490961660ff9091161515179094555050505050565b60018111156135d45760405162461bcd60e51b815260206004820152603560248201527f455243373231456e756d657261626c653a20636f6e736563757469766520747260448201527f616e7366657273206e6f7420737570706f7274656400000000000000000000006064820152608401610939565b816001600160a01b0385166136305761362b81600880546000838152600960205260408120829055600182018355919091527ff3f7a9fe364faab93b216da50a3214154f22a0a2b415b23a84c8169e8b636ee30155565b613653565b836001600160a01b0316856001600160a01b0316146136535761365385826139ad565b6001600160a01b03841661366f5761366a81613a4a565b613692565b846001600160a01b0316846001600160a01b031614613692576136928482613af9565b5050505050565b60006001600160a01b0384163b156137e657604051630a85bd0160e11b81526001600160a01b0385169063150b7a02906136dd903390899088908890600401614398565b602060405180830381600087803b1580156136f757600080fd5b505af1925050508015613727575060408051601f3d908101601f19168201909252613724918101906143d4565b60015b6137cc573d808015613755576040519150601f19603f3d011682016040523d82523d6000602084013e61375a565b606091505b5080516137c45760405162461bcd60e51b815260206004820152603260248201527f4552433732313a207472616e7366657220746f206e6f6e20455243373231526560448201527131b2b4bb32b91034b6b83632b6b2b73a32b960711b6064820152608401610939565b805181602001fd5b6001600160e01b031916630a85bd0160e11b149050612a9c565b506001949350505050565b6137fb8383613b3d565b6138086000848484613699565b6109da5760405162461bcd60e51b815260206004820152603260248201527f4552433732313a207472616e7366657220746f206e6f6e20455243373231526560448201527131b2b4bb32b91034b6b83632b6b2b73a32b960711b6064820152608401610939565b6000807a184f03e93ff9f4daa797ed6e38ed64bf6a1f01000000000000000083106138b8577a184f03e93ff9f4daa797ed6e38ed64bf6a1f010000000000000000830492506040015b6d04ee2d6d415b85acef810000000083106138e4576d04ee2d6d415b85acef8100000000830492506020015b662386f26fc10000831061390257662386f26fc10000830492506010015b6305f5e100831061391a576305f5e100830492506008015b612710831061392e57612710830492506004015b60648310613940576064830492506002015b600a83106107e95760010192915050565b6000600c546001613962919061422d565b905061396e8382612dcb565b6000818152600a6020908152604090912083518492613991929190840190613cd6565b50600c80549060006139a283614245565b919050555050505050565b600060016139ba84611bd2565b6139c491906142b1565b600083815260076020526040902054909150808214613a17576001600160a01b03841660009081526006602090815260408083208584528252808320548484528184208190558352600790915290208190555b5060009182526007602090815260408084208490556001600160a01b039094168352600681528383209183525290812055565b600854600090613a5c906001906142b1565b60008381526009602052604081205460088054939450909284908110613a8457613a846141dc565b906000526020600020015490508060088381548110613aa557613aa56141dc565b6000918252602080832090910192909255828152600990915260408082208490558582528120556008805480613add57613add6143f1565b6001900381819060005260206000200160009055905550505050565b6000613b0483611bd2565b6001600160a01b039093166000908152600660209081526040808320868452825280832085905593825260079052919091209190915550565b6001600160a01b038216613b935760405162461bcd60e51b815260206004820181905260248201527f4552433732313a206d696e7420746f20746865207a65726f20616464726573736044820152606401610939565b6000818152600260205260409020546001600160a01b031615613bf85760405162461bcd60e51b815260206004820152601c60248201527f4552433732313a20746f6b656e20616c7265616479206d696e746564000000006044820152606401610939565b613c0660008383600161355d565b6000818152600260205260409020546001600160a01b031615613c6b5760405162461bcd60e51b815260206004820152601c60248201527f4552433732313a20746f6b656e20616c7265616479206d696e746564000000006044820152606401610939565b6001600160a01b038216600081815260036020908152604080832080546001019055848352600290915280822080546001600160a01b0319168417905551839291907fddf252ad1be2c89b69c2b068fc378daa952ba7f163c4a11628f55a4df523b3ef908290a45050565b828054613ce2906141a1565b90600052602060002090601f016020900481019282613d045760008555613d4a565b82601f10613d1d57805160ff1916838001178555613d4a565b82800160010185558215613d4a579182015b82811115613d4a578251825591602001919060010190613d2f565b50613d56929150613dc1565b5090565b508054613d66906141a1565b6000825580601f10613d76575050565b601f0160209004906000526020600020908101906113bf9190613dc1565b8260038101928215613d4a5791602002820182811115613d4a578251825591602001919060010190613d2f565b5b80821115613d565760008155600101613dc2565b6001600160e01b0319811681146113bf57600080fd5b600060208284031215613dfe57600080fd5b8135613e0981613dd6565b9392505050565b600060208284031215613e2257600080fd5b5035919050565b60005b83811015613e44578181015183820152602001613e2c565b838111156120005750506000910152565b60008151808452613e6d816020860160208601613e29565b601f01601f19169290920160200192915050565b602081526000613e096020830184613e55565b6001600160a01b03811681146113bf57600080fd5b60008060408385031215613ebc57600080fd5b8235613ec781613e94565b946020939093013593505050565b600080600060608486031215613eea57600080fd5b8335613ef581613e94565b92506020840135613f0581613e94565b929592945050506040919091013590565b6020808252825182820181905260009190848201906040850190845b81811015613f4e57835183529284019291840191600101613f32565b50909695505050505050565b634e487b7160e01b600052604160045260246000fd5b600067ffffffffffffffff80841115613f8b57613f8b613f5a565b604051601f8501601f19908116603f01168101908282118183101715613fb357613fb3613f5a565b81604052809350858152868686011115613fcc57600080fd5b858560208301376000602087830101525050509392505050565b600060208284031215613ff857600080fd5b813567ffffffffffffffff81111561400f57600080fd5b8201601f8101841361402057600080fd5b612a9c84823560208401613f70565b6000806040838503121561404257600080fd5b50508035926020909101359150565b60006020828403121561406357600080fd5b8135613e0981613e94565b6000806040838503121561408157600080fd5b823561408c81613e94565b9150602083013580151581146140a157600080fd5b809150509250929050565b600080600080608085870312156140c257600080fd5b84356140cd81613e94565b935060208501356140dd81613e94565b925060408501359150606085013567ffffffffffffffff81111561410057600080fd5b8501601f8101871361411157600080fd5b61412087823560208401613f70565b91505092959194509250565b6000806000806080858703121561414257600080fd5b843593506020850135925060408501359150606085013560ff8116811461416857600080fd5b939692955090935050565b6000806040838503121561418657600080fd5b823561419181613e94565b915060208301356140a181613e94565b600181811c908216806141b557607f821691505b602082108114156141d657634e487b7160e01b600052602260045260246000fd5b50919050565b634e487b7160e01b600052603260045260246000fd5b634e487b7160e01b600052601160045260246000fd5b600060ff821660ff84168060ff03821115614225576142256141f2565b019392505050565b60008219821115614240576142406141f2565b500190565b6000600019821415614259576142596141f2565b5060010190565b60008351614272818460208801613e29565b835190830190614286818360208801613e29565b01949350505050565b6000826142ac57634e487b7160e01b600052601260045260246000fd5b500490565b6000828210156142c3576142c36141f2565b500390565b6000835160206142db8285838901613e29565b845491840191600090600181811c90808316806142f957607f831692505b85831081141561431757634e487b7160e01b85526022600452602485fd5b80801561432b576001811461433c57614369565b60ff19851688528388019550614369565b60008b81526020902060005b858110156143615781548a820152908401908801614348565b505083880195505b50939a9950505050505050505050565b6000816000190483118215151615614393576143936141f2565b500290565b60006001600160a01b038087168352808616602084015250836040830152608060608301526143ca6080830184613e55565b9695505050505050565b6000602082840312156143e657600080fd5b8151613e0981613dd6565b634e487b7160e01b600052603160045260246000fdfea2646970667358221220be812370576c5e1134028ffd56c64f0a63a4ab578120d910c09c5e6d3e9a9aab64736f6c63430008090033",
  "linkReferences": {},
  "deployedLinkReferences": {}
}