{
  "_format": "hh-sol-artifact-1",
  "contractName": "InnomicNFT",
  "sourceName": "blockchain/contracts/InnomicNFT.sol",
  "abi": [
    {
      "inputs": [
        {
          "internalType": "string",
          "name": "name_",
          "type": "string"
        },
        {
          "internalType": "string",
          "name": "symbol_",
          "type": "string"
        },
        {
          "internalType": "string",
          "name": "newBaseURI",
          "type": "string"
        }
      ],
      "stateMutability": "nonpayable",
      "type": "constructor"
    },
    {
      "anonymous": false,
      "inputs": [
        {
          "indexed": true,
          "internalType": "address",
          "name": "owner",
          "type": "address"
        },
        {
          "indexed": true,
          "internalType": "address",
          "name": "approved",
          "type": "address"
        },
        {
          "indexed": true,
          "internalType": "uint256",
          "name": "tokenId",
          "type": "uint256"
        }
      ],
      "name": "Approval",
      "type": "event"
    },
    {
      "anonymous": false,
      "inputs": [
        {
          "indexed": true,
          "internalType": "address",
          "name": "owner",
          "type": "address"
        },
        {
          "indexed": true,
          "internalType": "address",
          "name": "operator",
          "type": "address"
        },
        {
          "indexed": false,
          "internalType": "bool",
          "name": "approved",
          "type": "bool"
        }
      ],
      "name": "ApprovalForAll",
      "type": "event"
    },
    {
      "anonymous": false,
      "inputs": [
        {
          "indexed": true,
          "internalType": "uint256",
          "name": "itemId",
          "type": "uint256"
        },
        {
          "indexed": true,
          "internalType": "uint256",
          "name": "tokenId",
          "type": "uint256"
        },
        {
          "indexed": false,
          "internalType": "address",
          "name": "seller",
          "type": "address"
        },
        {
          "indexed": false,
          "internalType": "address",
          "name": "owner",
          "type": "address"
        },
        {
          "indexed": false,
          "internalType": "uint256",
          "name": "price",
          "type": "uint256"
        },
        {
          "indexed": false,
          "internalType": "bool",
          "name": "sold",
          "type": "bool"
        }
      ],
      "name": "MarketItemCreated",
      "type": "event"
    },
    {
      "anonymous": false,
      "inputs": [
        {
          "indexed": true,
          "internalType": "uint256",
          "name": "itemId",
          "type": "uint256"
        },
        {
          "indexed": true,
          "internalType": "uint256",
          "name": "tokenId",
          "type": "uint256"
        },
        {
          "indexed": false,
          "internalType": "address",
          "name": "seller",
          "type": "address"
        },
        {
          "indexed": false,
          "internalType": "address",
          "name": "owner",
          "type": "address"
        },
        {
          "indexed": false,
          "internalType": "uint256",
          "name": "price",
          "type": "uint256"
        }
      ],
      "name": "MarketItemSold",
      "type": "event"
    },
    {
      "anonymous": false,
      "inputs": [
        {
          "indexed": true,
          "internalType": "address",
          "name": "from",
          "type": "address"
        },
        {
          "indexed": true,
          "internalType": "address",
          "name": "to",
          "type": "address"
        },
        {
          "indexed": true,
          "internalType": "uint256",
          "name": "tokenId",
          "type": "uint256"
        }
      ],
      "name": "Transfer",
      "type": "event"
    },
    {
      "inputs": [
        {
          "internalType": "address",
          "name": "to",
          "type": "address"
        },
        {
          "internalType": "uint256",
          "name": "URInum",
          "type": "uint256"
        }
      ],
      "name": "_mintTokenAllowedToEarn",
      "outputs": [],
      "stateMutability": "nonpayable",
      "type": "function"
    },
    {
      "inputs": [
        {
          "internalType": "address",
          "name": "to",
          "type": "address"
        },
        {
          "internalType": "uint256",
          "name": "URInum",
          "type": "uint256"
        }
      ],
      "name": "_mintTokenNotAllowedToEarn",
      "outputs": [],
      "stateMutability": "nonpayable",
      "type": "function"
    },
    {
      "inputs": [
        {
          "internalType": "address",
          "name": "to",
          "type": "address"
        },
        {
          "internalType": "uint256",
          "name": "tokenId",
          "type": "uint256"
        }
      ],
      "name": "_safeTransfer",
      "outputs": [],
      "stateMutability": "nonpayable",
      "type": "function"
    },
    {
      "inputs": [
        {
          "internalType": "address",
          "name": "to",
          "type": "address"
        },
        {
          "internalType": "uint256",
          "name": "tokenId",
          "type": "uint256"
        }
      ],
      "name": "_safeTransferPool",
      "outputs": [],
      "stateMutability": "nonpayable",
      "type": "function"
    },
    {
      "inputs": [
        {
          "internalType": "string",
          "name": "newBaseURI",
          "type": "string"
        }
      ],
      "name": "_setBaseURI",
      "outputs": [],
      "stateMutability": "nonpayable",
      "type": "function"
    },
    {
      "inputs": [
        {
          "internalType": "uint256",
          "name": "newlimite",
          "type": "uint256"
        }
      ],
      "name": "_setlimite",
      "outputs": [],
      "stateMutability": "nonpayable",
      "type": "function"
    },
    {
      "inputs": [
        {
          "internalType": "address",
          "name": "to",
          "type": "address"
        },
        {
          "internalType": "uint256",
          "name": "tokenId",
          "type": "uint256"
        }
      ],
      "name": "approve",
      "outputs": [],
      "stateMutability": "nonpayable",
      "type": "function"
    },
    {
      "inputs": [],
      "name": "balance",
      "outputs": [
        {
          "internalType": "uint256",
          "name": "",
          "type": "uint256"
        }
      ],
      "stateMutability": "view",
      "type": "function"
    },
    {
      "inputs": [
        {
          "internalType": "address",
          "name": "owner",
          "type": "address"
        }
      ],
      "name": "balanceOf",
      "outputs": [
        {
          "internalType": "uint256",
          "name": "",
          "type": "uint256"
        }
      ],
      "stateMutability": "view",
      "type": "function"
    },
    {
      "inputs": [
        {
          "internalType": "uint256",
          "name": "tokenId",
          "type": "uint256"
        }
      ],
      "name": "burn",
      "outputs": [],
      "stateMutability": "nonpayable",
      "type": "function"
    },
    {
      "inputs": [
        {
          "internalType": "uint256",
          "name": "tokenId",
          "type": "uint256"
        }
      ],
      "name": "claseToken",
      "outputs": [
        {
          "internalType": "uint256",
          "name": "",
          "type": "uint256"
        }
      ],
      "stateMutability": "view",
      "type": "function"
    },
    {
      "inputs": [
        {
          "internalType": "uint256",
          "name": "tokenId",
          "type": "uint256"
        },
        {
          "internalType": "uint256",
          "name": "price",
          "type": "uint256"
        }
      ],
      "name": "createMarketItem",
      "outputs": [],
      "stateMutability": "payable",
      "type": "function"
    },
    {
      "inputs": [
        {
          "internalType": "uint256",
          "name": "itemId",
          "type": "uint256"
        }
      ],
      "name": "createMarketSale",
      "outputs": [],
      "stateMutability": "payable",
      "type": "function"
    },
    {
      "inputs": [
        {
          "internalType": "uint256",
          "name": "tokenId",
          "type": "uint256"
        }
      ],
      "name": "downgrade",
      "outputs": [],
      "stateMutability": "nonpayable",
      "type": "function"
    },
    {
      "inputs": [],
      "name": "fetchUnSoldMarketItems",
      "outputs": [
        {
          "components": [
            {
              "internalType": "uint256",
              "name": "itemId",
              "type": "uint256"
            },
            {
              "internalType": "uint256",
              "name": "tokenId",
              "type": "uint256"
            },
            {
              "internalType": "address payable",
              "name": "seller",
              "type": "address"
            },
            {
              "internalType": "address payable",
              "name": "owner",
              "type": "address"
            },
            {
              "internalType": "uint256",
              "name": "price",
              "type": "uint256"
            },
            {
              "internalType": "bool",
              "name": "sold",
              "type": "bool"
            }
          ],
          "internalType": "struct InnomicNFT.MarketItem[]",
          "name": "",
          "type": "tuple[]"
        }
      ],
      "stateMutability": "view",
      "type": "function"
    },
    {
      "inputs": [],
      "name": "getAllNFTs",
      "outputs": [
        {
          "internalType": "uint256[]",
          "name": "",
          "type": "uint256[]"
        }
      ],
      "stateMutability": "view",
      "type": "function"
    },
    {
      "inputs": [
        {
          "internalType": "uint256",
          "name": "tokenId",
          "type": "uint256"
        }
      ],
      "name": "getApproved",
      "outputs": [
        {
          "internalType": "address",
          "name": "",
          "type": "address"
        }
      ],
      "stateMutability": "view",
      "type": "function"
    },
    {
      "inputs": [
        {
          "internalType": "uint256",
          "name": "tokenId",
          "type": "uint256"
        }
      ],
      "name": "getParents",
      "outputs": [
        {
          "internalType": "uint256[]",
          "name": "",
          "type": "uint256[]"
        }
      ],
      "stateMutability": "view",
      "type": "function"
    },
    {
      "inputs": [
        {
          "internalType": "uint256",
          "name": "tokenId",
          "type": "uint256"
        }
      ],
      "name": "isAllowedToEarn",
      "outputs": [
        {
          "internalType": "bool",
          "name": "",
          "type": "bool"
        }
      ],
      "stateMutability": "view",
      "type": "function"
    },
    {
      "inputs": [
        {
          "internalType": "address",
          "name": "owner",
          "type": "address"
        },
        {
          "internalType": "address",
          "name": "operator",
          "type": "address"
        }
      ],
      "name": "isApprovedForAll",
      "outputs": [
        {
          "internalType": "bool",
          "name": "",
          "type": "bool"
        }
      ],
      "stateMutability": "view",
      "type": "function"
    },
    {
      "inputs": [],
      "name": "limite",
      "outputs": [
        {
          "internalType": "uint256",
          "name": "",
          "type": "uint256"
        }
      ],
      "stateMutability": "view",
      "type": "function"
    },
    {
      "inputs": [],
      "name": "name",
      "outputs": [
        {
          "internalType": "string",
          "name": "",
          "type": "string"
        }
      ],
      "stateMutability": "view",
      "type": "function"
    },
    {
      "inputs": [
        {
          "internalType": "uint256",
          "name": "tokenId",
          "type": "uint256"
        }
      ],
      "name": "ownerOf",
      "outputs": [
        {
          "internalType": "address",
          "name": "",
          "type": "address"
        }
      ],
      "stateMutability": "view",
      "type": "function"
    },
    {
      "inputs": [],
      "name": "poolNFT",
      "outputs": [
        {
          "internalType": "contract PoolNFT",
          "name": "",
          "type": "address"
        }
      ],
      "stateMutability": "view",
      "type": "function"
    },
    {
      "inputs": [
        {
          "internalType": "address",
          "name": "from",
          "type": "address"
        },
        {
          "internalType": "address",
          "name": "to",
          "type": "address"
        },
        {
          "internalType": "uint256",
          "name": "tokenId",
          "type": "uint256"
        }
      ],
      "name": "safeTransferFrom",
      "outputs": [],
      "stateMutability": "nonpayable",
      "type": "function"
    },
    {
      "inputs": [
        {
          "internalType": "address",
          "name": "from",
          "type": "address"
        },
        {
          "internalType": "address",
          "name": "to",
          "type": "address"
        },
        {
          "internalType": "uint256",
          "name": "tokenId",
          "type": "uint256"
        },
        {
          "internalType": "bytes",
          "name": "data",
          "type": "bytes"
        }
      ],
      "name": "safeTransferFrom",
      "outputs": [],
      "stateMutability": "nonpayable",
      "type": "function"
    },
    {
      "inputs": [
        {
          "internalType": "address",
          "name": "operator",
          "type": "address"
        },
        {
          "internalType": "bool",
          "name": "approved",
          "type": "bool"
        }
      ],
      "name": "setApprovalForAll",
      "outputs": [],
      "stateMutability": "nonpayable",
      "type": "function"
    },
    {
      "inputs": [
        {
          "internalType": "address",
          "name": "poola",
          "type": "address"
        },
        {
          "internalType": "contract PoolNFT",
          "name": "pool",
          "type": "address"
        }
      ],
      "name": "setPoolNFT",
      "outputs": [],
      "stateMutability": "nonpayable",
      "type": "function"
    },
    {
      "inputs": [
        {
          "internalType": "bytes4",
          "name": "interfaceId",
          "type": "bytes4"
        }
      ],
      "name": "supportsInterface",
      "outputs": [
        {
          "internalType": "bool",
          "name": "",
          "type": "bool"
        }
      ],
      "stateMutability": "view",
      "type": "function"
    },
    {
      "inputs": [],
      "name": "symbol",
      "outputs": [
        {
          "internalType": "string",
          "name": "",
          "type": "string"
        }
      ],
      "stateMutability": "view",
      "type": "function"
    },
    {
      "inputs": [
        {
          "internalType": "uint256",
          "name": "index",
          "type": "uint256"
        }
      ],
      "name": "tokenByIndex",
      "outputs": [
        {
          "internalType": "uint256",
          "name": "",
          "type": "uint256"
        }
      ],
      "stateMutability": "view",
      "type": "function"
    },
    {
      "inputs": [
        {
          "internalType": "address",
          "name": "owner",
          "type": "address"
        },
        {
          "internalType": "uint256",
          "name": "index",
          "type": "uint256"
        }
      ],
      "name": "tokenOfOwnerByIndex",
      "outputs": [
        {
          "internalType": "uint256",
          "name": "",
          "type": "uint256"
        }
      ],
      "stateMutability": "view",
      "type": "function"
    },
    {
      "inputs": [
        {
          "internalType": "uint256",
          "name": "tokenId",
          "type": "uint256"
        }
      ],
      "name": "tokenURI",
      "outputs": [
        {
          "internalType": "string",
          "name": "",
          "type": "string"
        }
      ],
      "stateMutability": "view",
      "type": "function"
    },
    {
      "inputs": [],
      "name": "totalSupply",
      "outputs": [
        {
          "internalType": "uint256",
          "name": "",
          "type": "uint256"
        }
      ],
      "stateMutability": "view",
      "type": "function"
    },
    {
      "inputs": [
        {
          "internalType": "address",
          "name": "from",
          "type": "address"
        },
        {
          "internalType": "address",
          "name": "to",
          "type": "address"
        },
        {
          "internalType": "uint256",
          "name": "tokenId",
          "type": "uint256"
        }
      ],
      "name": "transferFrom",
      "outputs": [],
      "stateMutability": "nonpayable",
      "type": "function"
    },
    {
      "inputs": [
        {
          "internalType": "uint256",
          "name": "itemId",
          "type": "uint256"
        }
      ],
      "name": "unListMarketItem",
      "outputs": [],
      "stateMutability": "payable",
      "type": "function"
    },
    {
      "inputs": [
        {
          "internalType": "uint256",
          "name": "tokenId1",
          "type": "uint256"
        },
        {
          "internalType": "uint256",
          "name": "tokenId2",
          "type": "uint256"
        },
        {
          "internalType": "uint256",
          "name": "tokenId3",
          "type": "uint256"
        },
        {
          "internalType": "uint8",
          "name": "num",
          "type": "uint8"
        }
      ],
      "name": "upgrade",
      "outputs": [],
      "stateMutability": "nonpayable",
      "type": "function"
    }
  ],
  "bytecode": "0x60806040526064600d5560146019553480156200001b57600080fd5b50604051620040bb380380620040bb8339810160408190526200003e9162000215565b82518390839062000057906000906020850190620000a2565b5080516200006d906001906020840190620000a2565b50508151620000859150600b906020840190620000a2565b5050601880546001600160a01b0319163317905550620002e39050565b828054620000b090620002a6565b90600052602060002090601f016020900481019282620000d457600085556200011f565b82601f10620000ef57805160ff19168380011785556200011f565b828001600101855582156200011f579182015b828111156200011f57825182559160200191906001019062000102565b506200012d92915062000131565b5090565b5b808211156200012d576000815560010162000132565b634e487b7160e01b600052604160045260246000fd5b600082601f8301126200017057600080fd5b81516001600160401b03808211156200018d576200018d62000148565b604051601f8301601f19908116603f01168101908282118183101715620001b857620001b862000148565b81604052838152602092508683858801011115620001d557600080fd5b600091505b83821015620001f95785820183015181830184015290820190620001da565b838211156200020b5760008385830101525b9695505050505050565b6000806000606084860312156200022b57600080fd5b83516001600160401b03808211156200024357600080fd5b62000251878388016200015e565b945060208601519150808211156200026857600080fd5b62000276878388016200015e565b935060408601519150808211156200028d57600080fd5b506200029c868287016200015e565b9150509250925092565b600181811c90821680620002bb57607f821691505b60208210811415620002dd57634e487b7160e01b600052602260045260246000fd5b50919050565b613dc880620002f36000396000f3fe60806040526004361061026a5760003560e01c806370a0823111610153578063b69ef8a8116100cb578063dbab65ee1161007f578063e985e9c511610064578063e985e9c5146106a9578063f202dc2e146106f2578063f48422571461071257600080fd5b8063dbab65ee14610674578063e0391b091461069457600080fd5b8063be9af536116100b0578063be9af53614610621578063c4f8210e14610634578063c87b56dd1461065457600080fd5b8063b69ef8a8146105ec578063b88d4fde1461060157600080fd5b806395d89b4111610122578063a22cb46511610107578063a22cb46514610599578063a6322736146105b9578063b69868af146105d957600080fd5b806395d89b4114610564578063a0b497781461057957600080fd5b806370a08231146104e45780637bafd87e1461050457806385dd9033146105245780638c4964eb1461054457600080fd5b80632f745c59116101e657806342842e0e116101b55780634e72a6fa1161019a5780634e72a6fa146104775780634f6ccce7146104a45780636352211e146104c457600080fd5b806342842e0e1461043757806342966c681461045757600080fd5b80632f745c59146103c257806331b5b907146103e2578063361c199514610402578063382edbcf1461041557600080fd5b806311bcc81e1161023d57806320eb8e531161022257806320eb8e531461035f57806323b872dd14610375578063242a00871461039557600080fd5b806311bcc81e1461032057806318160ddd1461034057600080fd5b806301ffc9a71461026f57806306fdde03146102a4578063081812fc146102c6578063095ea7b3146102fe575b600080fd5b34801561027b57600080fd5b5061028f61028a366004613714565b61075b565b60405190151581526020015b60405180910390f35b3480156102b057600080fd5b506102b961079f565b60405161029b9190613790565b3480156102d257600080fd5b506102e66102e13660046137a3565b610831565b6040516001600160a01b03909116815260200161029b565b34801561030a57600080fd5b5061031e6103193660046137d1565b610858565b005b34801561032c57600080fd5b5061031e61033b3660046137a3565b61098f565b34801561034c57600080fd5b506008545b60405190815260200161029b565b34801561036b57600080fd5b50610351600d5481565b34801561038157600080fd5b5061031e6103903660046137fd565b610d3b565b3480156103a157600080fd5b506103b56103b03660046137a3565b610db2565b60405161029b919061383e565b3480156103ce57600080fd5b506103516103dd3660046137d1565b610ec2565b3480156103ee57600080fd5b5061031e6103fd36600461390e565b610f6a565b61031e610410366004613957565b610f81565b34801561042157600080fd5b5061042a61115f565b60405161029b9190613979565b34801561044357600080fd5b5061031e6104523660046137fd565b61136f565b34801561046357600080fd5b5061031e6104723660046137a3565b61138a565b34801561048357600080fd5b506103516104923660046137a3565b60009081526010602052604090205490565b3480156104b057600080fd5b506103516104bf3660046137a3565b611413565b3480156104d057600080fd5b506102e66104df3660046137a3565b6114b7565b3480156104f057600080fd5b506103516104ff366004613a01565b61151c565b34801561051057600080fd5b5061028f61051f3660046137a3565b6115b6565b34801561053057600080fd5b5061031e61053f3660046137a3565b600d55565b34801561055057600080fd5b5061031e61055f3660046137d1565b6115d7565b34801561057057600080fd5b506102b96116b8565b34801561058557600080fd5b506014546102e6906001600160a01b031681565b3480156105a557600080fd5b5061031e6105b4366004613a1e565b6116c7565b3480156105c557600080fd5b5061031e6105d43660046137d1565b6116d2565b61031e6105e73660046137a3565b6117b0565b3480156105f857600080fd5b50600c54610351565b34801561060d57600080fd5b5061031e61061c366004613a5c565b6118b0565b61031e61062f3660046137a3565b61192e565b34801561064057600080fd5b5061031e61064f3660046137d1565b611ba8565b34801561066057600080fd5b506102b961066f3660046137a3565b611bfc565b34801561068057600080fd5b5061031e61068f366004613adc565b611c48565b3480156106a057600080fd5b506103b56120de565b3480156106b557600080fd5b5061028f6106c4366004613b23565b6001600160a01b03918216600090815260056020908152604080832093909416825291909152205460ff1690565b3480156106fe57600080fd5b5061031e61070d3660046137d1565b6121b7565b34801561071e57600080fd5b5061031e61072d366004613b23565b601380546001600160a01b039384166001600160a01b03199182161790915560148054929093169116179055565b60006001600160e01b031982167f780e9d630000000000000000000000000000000000000000000000000000000014806107995750610799826121e0565b92915050565b6060600080546107ae90613b51565b80601f01602080910402602001604051908101604052809291908181526020018280546107da90613b51565b80156108275780601f106107fc57610100808354040283529160200191610827565b820191906000526020600020905b81548152906001019060200180831161080a57829003601f168201915b5050505050905090565b600061083c8261227b565b506000908152600460205260409020546001600160a01b031690565b6000610863826114b7565b9050806001600160a01b0316836001600160a01b031614156108f25760405162461bcd60e51b815260206004820152602160248201527f4552433732313a20617070726f76616c20746f2063757272656e74206f776e6560448201527f720000000000000000000000000000000000000000000000000000000000000060648201526084015b60405180910390fd5b336001600160a01b038216148061090e575061090e81336106c4565b6109805760405162461bcd60e51b815260206004820152603d60248201527f4552433732313a20617070726f76652063616c6c6572206973206e6f7420746f60448201527f6b656e206f776e6572206f7220617070726f76656420666f7220616c6c00000060648201526084016108e9565b61098a83836122df565b505050565b6000818152600f6020526040902054600160ff909116116109dc5760405162461bcd60e51b815260206004820152600760248201526611549497d3159360ca1b60448201526064016108e9565b336109e6826114b7565b6001600160a01b031614610a255760405162461bcd60e51b81526020600482015260066024820152654552525f4f5760d01b60448201526064016108e9565b60008181526011602081815260408084208054855260128352818520805460ff19908116909155600182015486528286208054821690556002820154865282862080549091169055601454868652939092529054815163d058e43760e01b8152600481019190915233602482015290516001600160a01b039092169263d058e4379260448084019382900301818387803b158015610ac257600080fd5b505af1158015610ad6573d6000803e3d6000fd5b50506014546000848152601160205260409081902060010154905163d058e43760e01b815260048101919091523360248201526001600160a01b03909116925063d058e4379150604401600060405180830381600087803b158015610b3a57600080fd5b505af1158015610b4e573d6000803e3d6000fd5b50506014546000848152601160205260409081902060020154905163d058e43760e01b815260048101919091523360248201526001600160a01b03909116925063d058e4379150604401600060405180830381600087803b158015610bb257600080fd5b505af1158015610bc6573d6000803e3d6000fd5b505060145460008481526011602052604090819020549051631d9f985560e11b815260048101919091523360248201526001600160a01b039091169250633b3f30aa9150604401600060405180830381600087803b158015610c2757600080fd5b505af1158015610c3b573d6000803e3d6000fd5b505060145460008481526011602052604090819020600101549051631d9f985560e11b815260048101919091523360248201526001600160a01b039091169250633b3f30aa9150604401600060405180830381600087803b158015610c9f57600080fd5b505af1158015610cb3573d6000803e3d6000fd5b505060145460008481526011602052604090819020600201549051631d9f985560e11b815260048101919091523360248201526001600160a01b039091169250633b3f30aa9150604401600060405180830381600087803b158015610d1757600080fd5b505af1158015610d2b573d6000803e3d6000fd5b50505050610d38816113d3565b50565b610d45338261234d565b610da75760405162461bcd60e51b815260206004820152602d60248201527f4552433732313a2063616c6c6572206973206e6f7420746f6b656e206f776e6560448201526c1c881bdc88185c1c1c9bdd9959609a1b60648201526084016108e9565b61098a8383836123cc565b6000818152600f6020526040902054606090600160ff90911611610e025760405162461bcd60e51b815260206004820152600760248201526611549497d3159360ca1b60448201526064016108e9565b6040805160038082526080820190925260009160208201606080368337019050506000848152601160205260408120919250015481600081518110610e4957610e49613b8c565b60209081029190910181019190915260008481526011909152604090206001015481600181518110610e7d57610e7d613b8c565b60209081029190910181019190915260008481526011909152604090206002015481600281518110610eb157610eb1613b8c565b602090810291909101015292915050565b6000610ecd8361151c565b8210610f415760405162461bcd60e51b815260206004820152602b60248201527f455243373231456e756d657261626c653a206f776e657220696e646578206f7560448201527f74206f6620626f756e647300000000000000000000000000000000000000000060648201526084016108e9565b506001600160a01b03919091166000908152600660209081526040808320938352929052205490565b8051610f7d90600b9060208401906135fe565b5050565b60008111610fd15760405162461bcd60e51b815260206004820152600660248201527f4552525f5052000000000000000000000000000000000000000000000000000060448201526064016108e9565b610fdf601680546001019055565b6000610fea60165490565b6040805160c081018252828152602080820187815233838501818152600060608601818152608087018b815260a088018381528a8452601a8852898420985189559551600189015592516002880180546001600160a01b03199081166001600160a01b03938416179091559151600389018054909316908216179091559151600487015592516005909501805460ff19169515159590951790945560135485519384019095529082529394506110a693929091169086906125d2565b60145460405163d058e43760e01b8152600481018590523360248201526001600160a01b039091169063d058e43790604401600060405180830381600087803b1580156110f257600080fd5b505af1158015611106573d6000803e3d6000fd5b50506040805133815260006020820181905291810186905260608101919091528592508391507f4a29ff6f650682addfdf8030b3eeb4610ec651b42d8603f2527633347f9489c9906080015b60405180910390a3505050565b6060600061116c60165490565b905060008060005b8381101561120957601a600061118b836001613bb8565b815260208101919091526040016000206005015460ff161580156111e457506013546001600160a01b0316601a60006111c5846001613bb8565b81526020810191909152604001600020600301546001600160a01b0316145b156111f7576111f4600184613bb8565b92505b8061120181613bd0565b915050611174565b5060008267ffffffffffffffff81111561122557611225613882565b60405190808252806020026020018201604052801561128557816020015b6040805160c08101825260008082526020808301829052928201819052606082018190526080820181905260a082015282526000199092019101816112435790505b50905060005b848110156113665760006112a0826001613bb8565b6013546000828152601a60205260409020600301549192506001600160a01b0391821691161415611353576000818152601a6020908152604091829020825160c0810184528154815260018201549281019290925260028101546001600160a01b03908116938301939093526003810154909216606082015260048201546080820152600582015460ff16151560a0820152845185908790811061134657611346613b8c565b6020026020010181905250505b508061135e81613bd0565b91505061128b565b50949350505050565b61098a838383604051806020016040528060008152506118b0565b33611394826114b7565b6001600160a01b0316146113d35760405162461bcd60e51b81526020600482015260066024820152654552525f4f5760d01b60448201526064016108e9565b6113dc81612650565b6000818152600a6020526040902080546113f590613b51565b159050610d38576000818152600a60205260408120610d3891613682565b600061141e60085490565b82106114925760405162461bcd60e51b815260206004820152602c60248201527f455243373231456e756d657261626c653a20676c6f62616c20696e646578206f60448201527f7574206f6620626f756e6473000000000000000000000000000000000000000060648201526084016108e9565b600882815481106114a5576114a5613b8c565b90600052602060002001549050919050565b6000818152600260205260408120546001600160a01b0316806107995760405162461bcd60e51b815260206004820152601860248201527f4552433732313a20696e76616c696420746f6b656e204944000000000000000060448201526064016108e9565b60006001600160a01b03821661159a5760405162461bcd60e51b815260206004820152602960248201527f4552433732313a2061646472657373207a65726f206973206e6f74206120766160448201527f6c6964206f776e6572000000000000000000000000000000000000000000000060648201526084016108e9565b506001600160a01b031660009081526003602052604090205490565b60006115c18261227b565b506000908152600e602052604090205460ff1690565b6000600c5460016115e89190613bb8565b90506115f483826126f3565b604080518082019091526005815264173539b7b760d91b6020820152600061161b8461270d565b8260405160200161162d929190613beb565b60408051601f198184030181529181526000858152600a6020908152919020825192935061165f9290918401906135fe565b506000838152601060209081526040808320879055600f9091528120805460ff19166001179055600c80549161169483613bd0565b909155505050600091825250600e60205260409020805460ff191660011790555050565b6060600180546107ae90613b51565b610f7d3383836127b7565b6000600c5460016116e39190613bb8565b90506116ef83826126f3565b604080518082019091526005815264173539b7b760d91b602082015260006117168461270d565b82604051602001611728929190613beb565b60408051601f198184030181529181526000858152600a6020908152919020825192935061175a9290918401906135fe565b506000838152601060209081526040808320879055600f9091528120805460ff19166001179055600c80549161178f83613bd0565b909155505050600091825250600e60205260409020805460ff191690555050565b6000818152601a60205260409020600201546001600160a01b031633146118195760405162461bcd60e51b815260206004820152600760248201527f4552525f53454c0000000000000000000000000000000000000000000000000060448201526064016108e9565b6000818152601a6020526040908190206001810154600390910180546001600160a01b031916339081179091556014549251631d9f985560e11b815260048101839052602481019190915290916001600160a01b031690633b3f30aa906044015b600060405180830381600087803b15801561189457600080fd5b505af11580156118a8573d6000803e3d6000fd5b505050505050565b6118ba338361234d565b61191c5760405162461bcd60e51b815260206004820152602d60248201527f4552433732313a2063616c6c6572206973206e6f7420746f6b656e206f776e6560448201526c1c881bdc88185c1c1c9bdd9959609a1b60648201526084016108e9565b611928848484846125d2565b50505050565b6000818152601a6020526040902060048101546001909101543482146119965760405162461bcd60e51b815260206004820152600a60248201527f4552525f4449465f50520000000000000000000000000000000000000000000060448201526064016108e9565b6018546019546001600160a01b03909116906108fc906119b69034613c1a565b6040518115909202916000818181858888f193505050501580156119de573d6000803e3d6000fd5b506000838152601a60205260409020600201546019546001600160a01b03909116906108fc90611a0e9034613c1a565b611a189034613c3c565b6040518115909202916000818181858888f19350505050158015611a40573d6000803e3d6000fd5b5060145460405163d058e43760e01b8152600481018390523360248201526001600160a01b039091169063d058e43790604401600060405180830381600087803b158015611a8d57600080fd5b505af1158015611aa1573d6000803e3d6000fd5b5050601454604051631d9f985560e11b8152600481018590523360248201526001600160a01b039091169250633b3f30aa9150604401600060405180830381600087803b158015611af157600080fd5b505af1158015611b05573d6000803e3d6000fd5b5050506000848152601a602052604090206003810180546001600160a01b03191633179055600501805460ff1916600117905550611b47601780546001019055565b6000838152601a60209081526040918290206002015482516001600160a01b0390911681523391810191909152908101839052819084907f458478e87af2f8355f5200460431fb85259efefed716e75b487251ae55fe04e090606001611152565b611bc3338383604051806020016040528060008152506125d2565b60145460405163d058e43760e01b8152600481018390526001600160a01b0384811660248301529091169063d058e4379060440161187a565b6060611c078261227b565b6000611c1161287e565b6000848152600a60209081526040918290209151611c3193929101613c53565b60408051601f198184030181529190529392505050565b6000838152600f60205260408082205486835291205460ff9081169116148015611c8c57506000828152600f60205260408082205486835291205460ff9081169116145b611cc25760405162461bcd60e51b815260206004820152600760248201526611549497d3159360ca1b60448201526064016108e9565b6000838152600e60205260408082205486835291205460ff908116151591161515148015611d0e57506000828152600e60205260408082205486835291205460ff908116151591161515145b611d5a5760405162461bcd60e51b815260206004820152600760248201527f4552525f5459500000000000000000000000000000000000000000000000000060448201526064016108e9565b60008481526012602052604090205460ff161580611d87575060008381526012602052604090205460ff16155b80611da1575060008281526012602052604090205460ff16155b611ded5760405162461bcd60e51b815260206004820152600760248201527f4552525f424c4b0000000000000000000000000000000000000000000000000060448201526064016108e9565b6000848152600f602052604090205460ff1660031415611e4f5760405162461bcd60e51b815260206004820152600860248201527f4552525f4c564c3300000000000000000000000000000000000000000000000060448201526064016108e9565b611e58836114b7565b6001600160a01b0316611e6a856114b7565b6001600160a01b0316148015611ea15750611e84826114b7565b6001600160a01b0316611e96856114b7565b6001600160a01b0316145b8015611ebd575033611eb2856114b7565b6001600160a01b0316145b611ef25760405162461bcd60e51b81526020600482015260066024820152654552525f4f5760d01b60448201526064016108e9565b6000848152600f602052604090205460ff1660011415611f1e57611f19338585858561288d565b611f2b565b611f2b3385858585612ae0565b601354604080516020810190915260008152611f569133916001600160a01b039091169087906125d2565b601354604080516020810190915260008152611f819133916001600160a01b039091169086906125d2565b601354604080516020810190915260008152611fac9133916001600160a01b039091169085906125d2565b60145460405163d058e43760e01b8152600481018690523360248201526001600160a01b039091169063d058e43790604401600060405180830381600087803b158015611ff857600080fd5b505af115801561200c573d6000803e3d6000fd5b505060145460405163d058e43760e01b8152600481018790523360248201526001600160a01b03909116925063d058e4379150604401600060405180830381600087803b15801561205c57600080fd5b505af1158015612070573d6000803e3d6000fd5b505060145460405163d058e43760e01b8152600481018690523360248201526001600160a01b03909116925063d058e4379150604401600060405180830381600087803b1580156120c057600080fd5b505af11580156120d4573d6000803e3d6000fd5b5050505050505050565b60606000600c5467ffffffffffffffff8111156120fd576120fd613882565b604051908082528060200260200182016040528015612126578160200160208202803683370190505b5090506000805b600c548110156121af57612162612145826001613bb8565b6000908152600260205260409020546001600160a01b0316151590565b1561219d57612172816001613bb8565b83828151811061218457612184613b8c565b60209081029190910101528161219981613bd0565b9250505b806121a781613bd0565b91505061212d565b508152919050565b601354604080516020810190915260008152610f7d916001600160a01b031690849084906125d2565b60006001600160e01b031982167f80ac58cd00000000000000000000000000000000000000000000000000000000148061224357506001600160e01b031982167f5b5e139f00000000000000000000000000000000000000000000000000000000145b8061079957507f01ffc9a7000000000000000000000000000000000000000000000000000000006001600160e01b0319831614610799565b6000818152600260205260409020546001600160a01b0316610d385760405162461bcd60e51b815260206004820152601860248201527f4552433732313a20696e76616c696420746f6b656e204944000000000000000060448201526064016108e9565b600081815260046020526040902080546001600160a01b0319166001600160a01b0384169081179091558190612314826114b7565b6001600160a01b03167f8c5be1e5ebec7d5bd14f71427d1e84f3dd0314c0f7b2291e5b200ac8c7c3b92560405160405180910390a45050565b600080612359836114b7565b9050806001600160a01b0316846001600160a01b031614806123a057506001600160a01b0380821660009081526005602090815260408083209388168352929052205460ff165b806123c45750836001600160a01b03166123b984610831565b6001600160a01b0316145b949350505050565b826001600160a01b03166123df826114b7565b6001600160a01b0316146124435760405162461bcd60e51b815260206004820152602560248201527f4552433732313a207472616e736665722066726f6d20696e636f72726563742060448201526437bbb732b960d91b60648201526084016108e9565b6001600160a01b0382166124be5760405162461bcd60e51b8152602060048201526024808201527f4552433732313a207472616e7366657220746f20746865207a65726f2061646460448201527f726573730000000000000000000000000000000000000000000000000000000060648201526084016108e9565b6124cb8383836001612e85565b826001600160a01b03166124de826114b7565b6001600160a01b0316146125425760405162461bcd60e51b815260206004820152602560248201527f4552433732313a207472616e736665722066726f6d20696e636f72726563742060448201526437bbb732b960d91b60648201526084016108e9565b600081815260046020908152604080832080546001600160a01b03199081169091556001600160a01b0387811680865260038552838620805460001901905590871680865283862080546001019055868652600290945282852080549092168417909155905184937fddf252ad1be2c89b69c2b068fc378daa952ba7f163c4a11628f55a4df523b3ef91a4505050565b6125dd8484846123cc565b6125e984848484612fc1565b6119285760405162461bcd60e51b815260206004820152603260248201527f4552433732313a207472616e7366657220746f206e6f6e20455243373231526560448201527131b2b4bb32b91034b6b83632b6b2b73a32b960711b60648201526084016108e9565b600061265b826114b7565b905061266b816000846001612e85565b612674826114b7565b600083815260046020908152604080832080546001600160a01b03199081169091556001600160a01b0385168085526003845282852080546000190190558785526002909352818420805490911690555192935084927fddf252ad1be2c89b69c2b068fc378daa952ba7f163c4a11628f55a4df523b3ef908390a45050565b610f7d828260405180602001604052806000815250613119565b6060600061271a83613197565b600101905060008167ffffffffffffffff81111561273a5761273a613882565b6040519080825280601f01601f191660200182016040528015612764576020820181803683370190505b5090508181016020015b600019017f3031323334353637383961626364656600000000000000000000000000000000600a86061a8153600a85049450846127aa576127af565b61276e565b509392505050565b816001600160a01b0316836001600160a01b031614156128195760405162461bcd60e51b815260206004820152601960248201527f4552433732313a20617070726f766520746f2063616c6c65720000000000000060448201526064016108e9565b6001600160a01b03838116600081815260056020908152604080832094871680845294825291829020805460ff191686151590811790915591519182527f17307eab39ab6107e8899845ad3d59bd9653f200f220920489ca2b5937696c319101611152565b6060600b80546107ae90613b51565b604080516003808252608082019092526000916020820160608036833701905050905084816000815181106128c4576128c4613b8c565b60200260200101818152505083816001815181106128e4576128e4613b8c565b602002602001018181525050828160028151811061290457612904613b8c565b6020026020010181815250506000612944828460ff168151811061292a5761292a613b8c565b602002602001015160009081526010602052604090205490565b60008781526010602052604090205461295e906064613d04565b6129689190613bb8565b604080518082019091526005815264173539b7b760d91b602082015290915060006129928361270d565b826040516020016129a4929190613beb565b60405160208183030381529060405290506129bf8982613279565b6040805160608101825289815260208082018a9052818301899052600c5460009081526011909152919091206129f69160036136bc565b50600c546000908152601160205260409081902081516060810192839052612a829290919060039082845b815481526020019060010190808311612a2157505050505080516000908152601260209081526040808320805460ff199081166001908117909255928501518452818420805484168217905593810151835290912080549091169091179055565b5050600c805460009081526010602090815260408083209490945582548252600f81528382208054600260ff1991821617909155988252600e9052828120549154815291909120805490961660ff9091161515179094555050505050565b60408051600980825261014082019092526000916020820161012080368337019050506000868152601160205260408120919250015481600081518110612b2957612b29613b8c565b6020908102919091018101919091526000858152601190915260408120015481600181518110612b5b57612b5b613b8c565b6020908102919091018101919091526000848152601190915260408120015481600281518110612b8d57612b8d613b8c565b60209081029190910181019190915260008681526011909152604090206001015481600381518110612bc157612bc1613b8c565b60209081029190910181019190915260008581526011909152604090206001015481600481518110612bf557612bf5613b8c565b60209081029190910181019190915260008481526011909152604090206001015481600581518110612c2957612c29613b8c565b60209081029190910181019190915260008681526011909152604090206002015481600681518110612c5d57612c5d613b8c565b60209081029190910181019190915260008581526011909152604090206002015481600781518110612c9157612c91613b8c565b60209081029190910181019190915260008481526011909152604090206002015481600881518110612cc557612cc5613b8c565b6020026020010181815250506000612ceb828460ff168151811061292a5761292a613b8c565b600087815260106020526040902054612d05906064613d04565b612d0f9190613bb8565b604080518082019091526005815264173539b7b760d91b60208201529091506000612d398361270d565b82604051602001612d4b929190613beb565b6040516020818303038152906040529050612d668982613279565b6040805160608101825289815260208082018a9052818301899052600c546000908152601190915291909120612d9d9160036136bc565b50600c546000908152601160209081526040918290208251606081019384905281548152612e279390926003919060018401908501808311612a2157505050505080516000908152601260209081526040808320805460ff199081166001908117909255928501518452818420805484168217905593810151835290912080549091169091179055565b5050600c805460009081526010602090815260408083209490945582548252600f81528382208054600360ff1991821617909155988252600e9052828120549154815291909120805490961660ff9091161515179094555050505050565b6001811115612efc5760405162461bcd60e51b815260206004820152603560248201527f455243373231456e756d657261626c653a20636f6e736563757469766520747260448201527f616e7366657273206e6f7420737570706f72746564000000000000000000000060648201526084016108e9565b816001600160a01b038516612f5857612f5381600880546000838152600960205260408120829055600182018355919091527ff3f7a9fe364faab93b216da50a3214154f22a0a2b415b23a84c8169e8b636ee30155565b612f7b565b836001600160a01b0316856001600160a01b031614612f7b57612f7b85826132d5565b6001600160a01b038416612f9757612f9281613372565b612fba565b846001600160a01b0316846001600160a01b031614612fba57612fba8482613421565b5050505050565b60006001600160a01b0384163b1561310e57604051630a85bd0160e11b81526001600160a01b0385169063150b7a0290613005903390899088908890600401613d23565b602060405180830381600087803b15801561301f57600080fd5b505af192505050801561304f575060408051601f3d908101601f1916820190925261304c91810190613d5f565b60015b6130f4573d80801561307d576040519150601f19603f3d011682016040523d82523d6000602084013e613082565b606091505b5080516130ec5760405162461bcd60e51b815260206004820152603260248201527f4552433732313a207472616e7366657220746f206e6f6e20455243373231526560448201527131b2b4bb32b91034b6b83632b6b2b73a32b960711b60648201526084016108e9565b805181602001fd5b6001600160e01b031916630a85bd0160e11b1490506123c4565b506001949350505050565b6131238383613465565b6131306000848484612fc1565b61098a5760405162461bcd60e51b815260206004820152603260248201527f4552433732313a207472616e7366657220746f206e6f6e20455243373231526560448201527131b2b4bb32b91034b6b83632b6b2b73a32b960711b60648201526084016108e9565b6000807a184f03e93ff9f4daa797ed6e38ed64bf6a1f01000000000000000083106131e0577a184f03e93ff9f4daa797ed6e38ed64bf6a1f010000000000000000830492506040015b6d04ee2d6d415b85acef8100000000831061320c576d04ee2d6d415b85acef8100000000830492506020015b662386f26fc10000831061322a57662386f26fc10000830492506010015b6305f5e1008310613242576305f5e100830492506008015b612710831061325657612710830492506004015b60648310613268576064830492506002015b600a83106107995760010192915050565b6000600c54600161328a9190613bb8565b905061329683826126f3565b6000818152600a60209081526040909120835184926132b99291908401906135fe565b50600c80549060006132ca83613bd0565b919050555050505050565b600060016132e28461151c565b6132ec9190613c3c565b60008381526007602052604090205490915080821461333f576001600160a01b03841660009081526006602090815260408083208584528252808320548484528184208190558352600790915290208190555b5060009182526007602090815260408084208490556001600160a01b039094168352600681528383209183525290812055565b60085460009061338490600190613c3c565b600083815260096020526040812054600880549394509092849081106133ac576133ac613b8c565b9060005260206000200154905080600883815481106133cd576133cd613b8c565b600091825260208083209091019290925582815260099091526040808220849055858252812055600880548061340557613405613d7c565b6001900381819060005260206000200160009055905550505050565b600061342c8361151c565b6001600160a01b039093166000908152600660209081526040808320868452825280832085905593825260079052919091209190915550565b6001600160a01b0382166134bb5760405162461bcd60e51b815260206004820181905260248201527f4552433732313a206d696e7420746f20746865207a65726f206164647265737360448201526064016108e9565b6000818152600260205260409020546001600160a01b0316156135205760405162461bcd60e51b815260206004820152601c60248201527f4552433732313a20746f6b656e20616c7265616479206d696e7465640000000060448201526064016108e9565b61352e600083836001612e85565b6000818152600260205260409020546001600160a01b0316156135935760405162461bcd60e51b815260206004820152601c60248201527f4552433732313a20746f6b656e20616c7265616479206d696e7465640000000060448201526064016108e9565b6001600160a01b038216600081815260036020908152604080832080546001019055848352600290915280822080546001600160a01b0319168417905551839291907fddf252ad1be2c89b69c2b068fc378daa952ba7f163c4a11628f55a4df523b3ef908290a45050565b82805461360a90613b51565b90600052602060002090601f01602090048101928261362c5760008555613672565b82601f1061364557805160ff1916838001178555613672565b82800160010185558215613672579182015b82811115613672578251825591602001919060010190613657565b5061367e9291506136e9565b5090565b50805461368e90613b51565b6000825580601f1061369e575050565b601f016020900490600052602060002090810190610d3891906136e9565b82600381019282156136725791602002820182811115613672578251825591602001919060010190613657565b5b8082111561367e57600081556001016136ea565b6001600160e01b031981168114610d3857600080fd5b60006020828403121561372657600080fd5b8135613731816136fe565b9392505050565b60005b8381101561375357818101518382015260200161373b565b838111156119285750506000910152565b6000815180845261377c816020860160208601613738565b601f01601f19169290920160200192915050565b6020815260006137316020830184613764565b6000602082840312156137b557600080fd5b5035919050565b6001600160a01b0381168114610d3857600080fd5b600080604083850312156137e457600080fd5b82356137ef816137bc565b946020939093013593505050565b60008060006060848603121561381257600080fd5b833561381d816137bc565b9250602084013561382d816137bc565b929592945050506040919091013590565b6020808252825182820181905260009190848201906040850190845b818110156138765783518352928401929184019160010161385a565b50909695505050505050565b634e487b7160e01b600052604160045260246000fd5b600067ffffffffffffffff808411156138b3576138b3613882565b604051601f8501601f19908116603f011681019082821181831017156138db576138db613882565b816040528093508581528686860111156138f457600080fd5b858560208301376000602087830101525050509392505050565b60006020828403121561392057600080fd5b813567ffffffffffffffff81111561393757600080fd5b8201601f8101841361394857600080fd5b6123c484823560208401613898565b6000806040838503121561396a57600080fd5b50508035926020909101359150565b602080825282518282018190526000919060409081850190868401855b828110156139f4578151805185528681015187860152858101516001600160a01b0390811687870152606080830151909116908601526080808201519086015260a09081015115159085015260c09093019290850190600101613996565b5091979650505050505050565b600060208284031215613a1357600080fd5b8135613731816137bc565b60008060408385031215613a3157600080fd5b8235613a3c816137bc565b915060208301358015158114613a5157600080fd5b809150509250929050565b60008060008060808587031215613a7257600080fd5b8435613a7d816137bc565b93506020850135613a8d816137bc565b925060408501359150606085013567ffffffffffffffff811115613ab057600080fd5b8501601f81018713613ac157600080fd5b613ad087823560208401613898565b91505092959194509250565b60008060008060808587031215613af257600080fd5b843593506020850135925060408501359150606085013560ff81168114613b1857600080fd5b939692955090935050565b60008060408385031215613b3657600080fd5b8235613b41816137bc565b91506020830135613a51816137bc565b600181811c90821680613b6557607f821691505b60208210811415613b8657634e487b7160e01b600052602260045260246000fd5b50919050565b634e487b7160e01b600052603260045260246000fd5b634e487b7160e01b600052601160045260246000fd5b60008219821115613bcb57613bcb613ba2565b500190565b6000600019821415613be457613be4613ba2565b5060010190565b60008351613bfd818460208801613738565b835190830190613c11818360208801613738565b01949350505050565b600082613c3757634e487b7160e01b600052601260045260246000fd5b500490565b600082821015613c4e57613c4e613ba2565b500390565b600083516020613c668285838901613738565b845491840191600090600181811c9080831680613c8457607f831692505b858310811415613ca257634e487b7160e01b85526022600452602485fd5b808015613cb65760018114613cc757613cf4565b60ff19851688528388019550613cf4565b60008b81526020902060005b85811015613cec5781548a820152908401908801613cd3565b505083880195505b50939a9950505050505050505050565b6000816000190483118215151615613d1e57613d1e613ba2565b500290565b60006001600160a01b03808716835280861660208401525083604083015260806060830152613d556080830184613764565b9695505050505050565b600060208284031215613d7157600080fd5b8151613731816136fe565b634e487b7160e01b600052603160045260246000fdfea26469706673582212209833a4559d8310e6f9093e95437415033f09dc547cb90e6db9be2b5f8df8353e64736f6c63430008090033",
  "linkReferences": {},
  "deployedLinkReferences": {}
}